:020000040800F2
:1000000098CD0020A94500084D2300084F23000883
:1000100053230008572300085B230008000000005A
:100020000000000000000000000000005F23000846
:1000300061230008000000001F48000891490008E3
:10004000C3450008C3450008C3450008C345000870
:10005000C3450008C3450008C3450008C345000860
:10006000C3450008C3450008C3450008C345000850
:10007000C3450008C3450008C3450008C345000840
:10008000C3450008C3450008C3450008C345000830
:10009000252A0008C3450008C3450008C3450008D9
:1000A000C3450008C3450008C3450008C345000810
:1000B000C3450008C3450008C3450008C345000800
:1000C000C3450008C3450008C3450008C3450008F0
:1000D000C3450008F32600087527000841280008DA
:1000E00065230008C3450008C3450008C345000850
:1000F000C3450008C3450008C3450008C3450008C0
:10010000C3450008C3450008C3450008C3450008AF
:10011000C3450008C3450008C3450008C34500089F
:10012000C3450008C3450008C3450008C34500088F
:10013000C345000867230008C3450008C3450008FD
:10014000C3450008C3450008C3450008C34500086F
:10015000C3450008C3450008C3450008C34500085F
:10016000C3450008C3450008C3450008C34500084F
:10017000C3450008C3450008C3450008C34500083F
:10018000C3450008C3450008DFF80CD00EF0D8FACC
:10019000004800478102000898CD002042480068CE
:1001A0006422B0FBF2F0411EB1F1807F00D31DE06C
:1001B00021F07F40401E4FF0E022506150170F2287
:1001C000002807DA13071D0E384B00F00F04241F18
:1001D0001D5503E013071C0E354B1C5400BF0020B7
:1001E0004FF0E02290610720106100BF00BF31484E
:1001F0000068012805DB30A232A135A00EF0FCFA20
:1002000004E02DA22FA13EA00EF0F6FA00BF0923B4
:10021000474A0021474806F0E1FA00BF2548006838
:10022000012803DB44A00EF0E7FA02E04AA00EF03A
:10023000E3FA00BF0A23504A0021504806F0CEFAE4
:1002400000BF1C480068012803DB4DA00EF0D4FA63
:1002500002E053A00EF0D0FA00BF0B23584A002151
:10026000584806F0BBFA0AE0002301221946184656
:1002700006F030FE4FF40071534803F044FCF3E7FE
:1002800010B501F0B7FE04F022FF3B234F4A0021D6
:10029000AFF2F70006F0A2FA002006F0A1FE05F08A
:1002A00007F8002010BD00006000002018ED00E0FD
:1002B00000E400E000000020446563203133203278
:1002C0003031380031373A35313A323600000000EB
:1002D0005B494E464F5D0920BAECC2CCB5C6D1A7EA
:1002E000CFB0CFB5CDB376312E302E3020B1E0D2A5
:1002F000EBCAB1BCE43A25732025730D0A00000057
:100300005B494E464F5D09BAECC2CCB5C6D1A7CF0A
:10031000B0CFB5CDB376312E302E3020B1E0D2EB58
:10032000CAB1BCE43A25732025730D0A0000000011
:10033000C82E0020710400085B494E464F5D09201D
:10034000CDF8C2E7B4ABCAE4C8CECEF1C6F4B6AFBE
:100350002E2E2E0D0A0000005B494E464F5D09CD42
:10036000F8C2E7B4ABCAE4C8CECEF1C6F4B6AF2E3D
:100370002E2E0D0A0000000048090020D1030008BD
:100380005B494E464F5D0920BAECC2CCB5C6D1A739
:10039000CFB0C8CECEF1C6F4B6AF2E2E2E0D0A00C9
:1003A0005B494E464F5D09BAECC2CCB5C6D1A7CF6A
:1003B000B0C8CECEF1C6F4B6AF2E2E2E0D0A000078
:1003C00008350020EF040008001002400803002058
:1003D000002305221946184606F07CFD00F084FA39
:1003E0000BE0142300221146104606F073FD00F0C6
:1003F00049F900F007FC00F09CFEF2E708B56846FA
:1004000002F039FC20B99DF800103EA00EF0F4F97E
:100410000A2300221146104606F05CFD08BD10B507
:10042000002422E0384850F82400E0B1374830F882
:100430001400401C354921F81400084630F8140017
:100440001E2810DD304951F8240009F0BAFF0020C1
:100450002D4941F824002D4921F814002C4800783A
:10046000401E2B490870601CC4B2032CDADB10BD9F
:1004700086B000260020009001F0DEFE01F012FFA1
:1004800002F09FFC00221221032009F04CFA0546DD
:1004900001A868601220688128E000980A30009066
:1004A000009801F02CFF322300221146104606F07E
:1004B00011FD002407E0214601A800F07CFE701C1D
:1004C00086B2601CC4B2134800788442F3DB00BFDC
:1004D00011480068012804DB314610A00EF08CF9A9
:1004E00003E0314616A00EF087F900BFD5E701F012
:1004F00099FC06E04FF47A7300221146104606F08C
:10050000E9FCF7E72578000044430020480000207C
:100510004600002004000020000000205B494E46F9
:100520004F5D09202D2D2D2DB7A2CBCDB0FC636FD3
:10053000756E742025642D2D2D2D0D0A00000000F0
:100540005B494E464F5D092D2D2D2DB7A2CBCDB069
:10055000FC636F756E742025642D2D2D2D0D0A0002
:100560002DE9F041002602F014FB20F07F4600BF89
:10057000FB480068012804DB3146FAA00EF03CF984
:1005800003E03146FCA00EF037F900BF00242EE056
:1005900004EB4400C5B222E00120A84000EA0607AF
:1005A000DFB9FA480078401CF8490870032094FB32
:1005B000F0F0C1B2F5480078401EF54A02F810107C
:1005C000032094FBF0F100FB1140C1B2EF4800782A
:1005D000401E02EB4000417006E0681CC5B204EB0F
:1005E0004400C01CA842D7DC00BF601CC4B2062C6B
:1005F000CEDB02F0F5FA20F07F4600BFD848006855
:10060000012804DB3146E3A00EF0F6F803E03146A2
:10061000E5A00EF0F1F800BF00242FE004EB440049
:10062000C5B223E00120A84000EA0607E7B9D74891
:100630000078401CD5490870032094FBF0F0801C22
:10064000C1B2D2480078401ED14A02F810100320EF
:1006500094FBF0F100FB1140C1B2CC480078401E81
:1006600002EB4000417006E0681CC5B204EB440098
:10067000C01CA842D6DC00BF601CC4B2062CCDDB77
:10068000BDE8F0812DE9FF5F0027B946B846BB46BB
:100690000020039000BF20E1BD4810F8170000EBD8
:1006A0004000BB4901EB47014978084400F0FF0ACC
:1006B000B74810F8174000EB47004578BAF1060F2D
:1006C00006DA02F066FA20F07F480AEB4A0B07E0F0
:1006D00002F086FA20F07F48AAF1060000EB400BFA
:1006E0004FF000090BF0FF06C4E00120B04000EA23
:1006F00008000390039818B909F1010000F0FF0900
:10070000B9F1010F7DDD00BF95480068012808DBC5
:100710004B465922A9A1AFA08DE830010EF06CF82C
:1007200007E02B4622464946B6A0CDF800800EF0E1
:1007300063F800BF04EB4400BD4901EB401000EB3F
:100740004510407C401C04EB4401B94A02EB4111C6
:1007500001EB4511487404EB4400114601EB4010D5
:1007600000EB4510007C012807D1002004EB440178
:1007700002EB411101EB45114874022004EB4401E6
:10078000AB4A02EB411101EB4511087404EB440044
:10079000114601EB401000EB4510407C02285CD173
:1007A00000BF6F48006801280EDB04EB440001EB3A
:1007B000401000EB45108DE83001437C60227FA1A2
:1007C0009CA00EF019F80EE004EB4400984A02EBEE
:1007D000401000EB4510CDF80080417C2B462246AE
:1007E000A3A00EF009F800BF002004EB4401904ADA
:1007F00002EB411101EB45110873002104EB4400A9
:1008000000E02CE002EB401000EB4510417304EBDC
:10081000440002EB401000EB45108173012004EB13
:10082000440102EB411101EB4511487104EB440016
:10083000114601EB401000EB4510407804EB4401F9
:1008400002EB411101EB45110870002004EB44015B
:1008500002EB411101EB45114861BDE8FF9F01200A
:1008600004EB4401724A02EB411101EB451108749B
:10087000701CC6B20BF103008642FFF436AF0BF0DA
:10088000FF0624E00120B04000EA0800039003982E
:10089000D8B904EB4400664901EB401000EB451069
:1008A000407804EB4401624A02EB411101EB45112F
:1008B0000870032096FBF0F100FB116004EB44018B
:1008C00002EB411101EB45114870701CC6B20BF1EF
:1008D00003008642D6D3781CC7B22C4800788742E2
:1008E000FFF6DAAE00BFB8E72DE9F84F4FF0000889
:1008F0004FF00109C246C3464FF4C0714C480DF099
:10090000D6FE002610E000270AE0032006EB460191
:10091000474A02EB411101EB47114870781CC7B2FE
:10092000032FF2DB701CC6B2042EECDBFFF718FEBF
:1009300000BF0B480068012803DB5BA00DF05CFFE3
:1009400002E05FA00DF058FF00BF00BF0448006840
:10095000012803DB5FA00DF04FFFCCE0C8E00000F2
:10096000000000205B494E464F5D092072657431DE
:100970002025780D0A0000005B494E464F5D097244
:100980006574312025780D0A000000000400002065
:100990008C3600205B494E464F5D092072657432EB
:1009A0002025780D0A0000005B494E464F5D097214
:1009B0006574322025780D0A000000002E2E5C415F
:1009C00070705C747261666669636C696768742EC6
:1009D000630000005B5741524E5D0925733A256460
:1009E00020BAECC2CCB5C6D7B4CCACB4EDCEF325AE
:1009F000642064697220256420746F20256420259A
:100A0000780D0A005B5741524E5D09BAECC2CCB575
:100A1000C6D7B4CCACB4EDCEF325642064697220A3
:100A2000256420746F2025642025780D0A000000BD
:100A30000C3500205B4552525D0925733A25642030
:100A4000BAECC2CCB5C6D7B4CCACB4EDCEF32CD690
:100A5000D8D0C2B3F5CABCBBAF202564206469728C
:100A600020256420746F2025642025780D0A00005D
:100A70005B4552525D09BAECC2CCB5C6D7B4CCAC1A
:100A8000B4EDCEF32CD6D8D0C2B3F5CABCBBAF20E0
:100A900025642064697220256420746F20256420F9
:100AA00025780D0A000000005B494E464F5D092085
:100AB000B7BDCEBBCBB5C3F7A3BA0D0A000000008B
:100AC0005B494E464F5D09B7BDCEBBCBB5C3F7A35F
:100AD000BA0D0A005B494E464F5D0920B6ABCEF712
:100AE000C4CFB1B1A3BA303132330D0A00000000D7
:100AF000EFA00DF081FE00BF00BFF34800680128A1
:100B000003DBF2A00DF078FE02E0F5A00DF074FE1C
:100B100000BF00BFEC480068012805DBF5480178FC
:100B2000F5A00DF069FE04E0F2480178FAA00DF09E
:100B300063FE00BFFFF7A6FD002650E0FE4810F858
:100B4000164000EB46004578012004EB4401FB4AC7
:100B500002EB411101EB4511487104EB44001146D1
:100B600001EB401000EB4510407804EB440102EB30
:100B7000411101EB4511087000BFD34800680128FE
:100B800015DB04EB4400114601EB401000EB45106F
:100B90004079009004EB440001EB401000EB45105D
:100BA00043782A462146E6A00DF026FE14E004EB29
:100BB0004400E24901EB401000EB45104079009001
:100BC00004EB440001EB401000EB451043782A464B
:100BD0002146E4A00DF010FE00BF701CC6B2C5484F
:100BE00000788642AADB00BFB7480068012803DB13
:100BF000E5A00DF001FE02E0EAA00DF0FDFD00BF52
:100C0000BDE8F88FF8B500268DE2CB4810F8164005
:100C100000EB4600457804EB4400C84901EB401066
:100C200000EB4510407901287ED104EB440001EB34
:100C3000401000EB45108068401C04EB4401BF4AA3
:100C400002EB411101EB4511886004EB44001146B1
:100C500001EB401000EB4510806847F230518842AC
:100C600020D9002004EB440102EB411101EB4511B6
:100C70004871032004EB440102EB411101EB4511E3
:100C8000087400BF90480068012805DB2A46214609
:100C9000CBA00DF0B1FD04E02A462146D7A00DF00F
:100CA000ABFD00BF04EB4400A44901EB401000EB96
:100CB0004510007804EB4401A04A02EB411101EB1E
:100CC0004511497888422FD006F07EF904EB4401A3
:100CD0009A4A02EB411101EB4511886104EB440093
:100CE000114601EB401000EB45104069002870D020
:100CF00004EB440001EB401000EB4510806904EB6D
:100D0000440102EB411101EB45114969401A3230AF
:100D10006421B0FBF1F0C1B204EB440002EB4010DF
:100D200000EB45100C3000E0C0E004EB4402834BC4
:100D300003EB421202EB45121278815404EB44009B
:100D4000194601EB401000EB4510806904EB4401AB
:100D50001A4602EB411101EB45114969401A04EBB7
:100D6000440102EB411101EB4511C86100BF564837
:100D70000068012815DB04EB4400114601EB40102C
:100D800000EB4510C069009004EB440001EB4010FB
:100D900000EB451043782A462146A7A00DF02CFD14
:100DA00016E004EB4400654901EB401000EB4510F0
:100DB000C069009004EB440001EB401000EB4510CB
:100DC00043782A46214600E003E0A7A00DF014FD79
:100DD00000BF06F0F9F804EB4401584A02EB411158
:100DE00001EB4511486104EB4400114601EB401052
:100DF00000EB4510007B002858D004EB440001EBC9
:100E0000401000EB4510407B0028F5D004EB440077
:100E100001EB401000EB4510807B0028ECD000BFB8
:100E200029480068012805DB2A4621469AA00DF0D2
:100E3000E3FC04E02A4621469FA00DF0DDFC00BF44
:100E400000BF21480068012819DB04EB44003B4F38
:100E500007EB401000EB4510837B04EB440007EBED
:100E6000401000EB4510427B04EB440007EB4010C0
:100E700000EB4510017B98A00DF0BEFC47E104EBB0
:100E800044002E4F07EB401000EB4510837B04EB32
:100E9000440007EB401000EB4510427B04EB44009C
:100EA00007EB401000EB4510017B2DE139E100001C
:100EB0005B494E464F5D09B6ABCEF7C4CFB1B1A387
:100EC000BA303132330D0A00000000205B494E4633
:100ED0004F5D0920C7B0D7F3D3D2A3BA3031320067
:100EE0005B494E464F5D09C7B0D7F3D3D2A3BA30A2
:100EF00031320000040000205B494E464F5D09205E
:100F0000B5B1C7B0D4DACFDFBAECC2CCB5C6CAFD32
:100F10002025640D0A0000005B494E464F5D09B56F
:100F2000B1C7B0D4DACFDFBAECC2CCB5C6CAFD20A7
:100F300025640D0A000000008C3600200C350020CE
:100F40005B494E464F5D0920646972202564207418
:100F50006F202564206C69676874202564202564EF
:100F60000D0A00005B494E464F5D096469722025F9
:100F70006420746F202564206C6967687420256480
:100F80002025640D0A0000005B494E464F5D092094
:100F9000BAECC2CCB5C6B3F5CABCBBAFCDEAB3C9D7
:100FA0000D0A00005B494E464F5D09BAECC2CCB554
:100FB000C6B3F5CABCBBAFCDEAB3C90D0A00000089
:100FC0005B494E464F5D0920D1A7CFB0CAB1BCE402
:100FD000B3ACB9FD3130B7D6D6D3A3ACCDA3D6B917
:100FE000D1A7CFB0A3AC64697220256420746F20B0
:100FF000256420CEAAB3A3C1C10D0A005B494E46A9
:101000004F5D09D1A7CFB0CAB1BCE4B3ACB9FD31D3
:1010100030B7D6D6D3A3ACCDA3D6B9D1A7CFB0A382
:10102000AC64697220256420746F20256420CEAAE8
:10103000B3A3C1C10D0A00005B494E464F5D0920B4
:1010400064697220256420746F2025642C206C69EB
:1010500067687420256420746F74616C5F746963C1
:101060006B732025640D0A005B494E464F5D096491
:10107000697220256420746F2025642C206C6967B8
:10108000687420256420746F74616C5F7469636B8D
:10109000732025640D0A00005B494E464F5D092010
:1010A00064697220256420746F202564D1A7CFB0B5
:1010B000CDEAB3C90D0A00005B494E464F5D096495
:1010C000697220256420746F202564D1A7CFB0CD2C
:1010D000EAB3C90D0A0000005B494E464F5D092086
:1010E000D1A7CFB0D6DCC6DACEAAA3BA7265642087
:1010F000256420677265656E2025642079656C6CB7
:101100006F772025640D0A00B0A00DF075FB00BFBD
:10111000002004EB4401B94A02EB411101EB4511F7
:101120004871701CC6B2B64800788642FFF66DADB5
:10113000F8BD70B500262BE0B24810F8164000EB61
:101140004600457804EB4400AC4901EB401000EB4D
:1011500045104079D0B904EB440001EB401000EB9E
:101160004510007804EB4401A44A02EB411101EB65
:1011700045114978884209D005F026FF04EB440167
:101180009E4A02EB411101EB45114861701CC6B249
:101190009B4800788642CFDB70BD10B502460B46F7
:1011A0000020002104E0545C0444E0B24C1CE1B295
:1011B0009942F8DB10BD2DE9FC47044688464FF004
:1011C0000009904810F8185000EB48004678A571C7
:1011D000E67105EB4500894901EB401000EB461034
:1011E0004078207205F0F0FE05EB4501834A02EBE2
:1011F000411101EB46114969A0EB01096420B9FBDB
:10120000F0F100FB1197B9FBF0F105EB450002EBA3
:10121000401000EB46100C30227A805C401A401ED1
:101220006072617A05EB4500744A02EB401000EBF6
:101230004610801C227A8154607AFF2802D1032054
:10124000BDE8FC87607A90B9207A401C2072207A31
:10125000022801DD0020207205EB4500674901EB03
:10126000401000EB46100C30217A405C6072207A0E
:1012700065490870607A6549087005F0A5FE644903
:10128000086005EB45005D4901EB401000EB46109E
:10129000407901287DD0207A00281CD1522020726C
:1012A0004720A07200BF5B480068012809DBE07B93
:1012B000CDE90070637A3246294657A00DF09CFABA
:1012C00008E0E07BCDE90070637A3246294661A0F0
:1012D0000DF092FA3CE0207A01281CD147202072C0
:1012E0005920A07200BF4B480068012809DBE07B51
:1012F000CDE90070637A3246294665A00DF07CFA8C
:1013000008E0E07BCDE90070637A324629466FA0A1
:101310000DF072FA1CE0592020725220A07200BF1A
:101320003C480068012809DBE07BCDE90070637A66
:101330003246294674A00DF05FFA08E0E07BCDE963
:101340000070637A324629467EA00DF055FA00BF40
:10135000E079401CE071A52020705A206070832045
:10136000A070A020E07000202071122060715A202F
:101370002074A520607405EB4500204901EB401066
:1013800000EB4610007B207305EB450001EB40109D
:1013900000E014E000EB4610407B607305EB450075
:1013A00001EB401000EB4610807BA0730F2120461C
:1013B000FFF7F3FEE0731221204601F02EF912210F
:1013C00020460DF074F901203AE700005B494E46D3
:1013D0004F5D09D1A7CFB0D6DCC6DACEAAA3BA72C8
:1013E000656420256420677265656E202564207918
:1013F000656C6C6F772025640D0A00000C350020A9
:10140000040000208C36002005000020060000208B
:1014100008000020000000205B494E464F5D092077
:10142000BAECC2CCB5C6D1A7CFB0BBFAA3BA646937
:101430007220256420746F2025643ABAECB5C6CAC0
:10144000A3D3E025303264C3EB2025642025640D4E
:101450000A0000005B494E464F5D09BAECC2CCB5AC
:10146000C6D1A7CFB0BBFAA3BA64697220256420A5
:10147000746F2025643ABAECB5C6CAA3D3E0253010
:101480003264C3EB2025642025640D0A00000000AF
:101490005B494E464F5D0920BAECC2CCB5C6D1A718
:1014A000CFB0BBFAA3BA64697220256420746F20A0
:1014B00025643AC2CCB5C6CAA3D3E025303264C392
:1014C000EB2025642025640D0A0000005B494E4690
:1014D0004F5D09BAECC2CCB5C6D1A7CFB0BBFAA359
:1014E000BA64697220256420746F2025643AC2CCE6
:1014F000B5C6CAA3D3E025303264C3EB20256420EF
:1015000025640D0A000000005B494E464F5D09202E
:10151000BAECC2CCB5C6D1A7CFB0BBFAA3BA646946
:101520007220256420746F2025643ABBC6B5C6CAF4
:10153000A3D3E025303264C3EB2025642025640D5D
:101540000A0000005B494E464F5D09BAECC2CCB5BB
:10155000C6D1A7CFB0BBFAA3BA64697220256420B4
:10156000746F2025643ABBC6B5C6CAA3D3E0253044
:101570003264C3EB2025642025640D0A00000000BE
:10158000014601F0C0020AB9012070470020FCE7C3
:10159000014601F0C002402A01D10120704700201D
:1015A000FCE730B502460B46002503F03F0400215E
:1015B0000AE002F11C0000EB01100068A04202D119
:1015C0000125084630BD491C90688842F1DC4FF087
:1015D000FF30F7E72DE9F04104460F46154607F0C6
:1015E0003F08A66804F11C0000EB0610C0F800805C
:1015F0003846FFF7C5FF58B104F11C0000EB061098
:101600004560012D04D104F11C0000EB0610C360FD
:101610003846FFF7BDFF20B104F11C0000EB0610B7
:101620008560A068401CA060207A2076E068401C9D
:10163000E0606068984200DA6360BDE8F0812DE9FF
:10164000F043044688461646079F06F03F09454684
:101650003046FFF795FF90B104F11C0000EB051038
:101660004068984204DA04F11C0000EB0510436066
:10167000012B04D104F11C0000EB0510C7603046BB
:10168000FFF786FF58B104F11C0000EB05108068DD
:10169000984204DA04F11C0000EB051083606068D6
:1016A000B84200DA6760BDE8F0832DE9F0470446F0
:1016B0000F4691469A46DDF82080227EF648D4E90E
:1016C00002310DF099F8217E781C814204D0E06847
:1016D000401CE060781C2076002F30D1D4E9021045
:1016E00088422CDD0026002519E004F11C0000EBE7
:1016F0000510C06830B92946E8A00DF07DF800203B
:10170000BDE8F08704F11C0000EB051040680644BA
:1017100004F11C0000EB0510806806446D1CA068F5
:10172000A842E2DC6068B04207D03246E9A06168B6
:101730000DF062F84FF0FF30E2E70120E0E7002013
:10174000DEE710B59C21F1480CF0B1FF9C21F04878
:101750000CF0ADFF10BD2DE9F8430446277894F84E
:101760000180A678A37862782178EAA00DF044F889
:101770003946E648FFF715FF814609F1010030B907
:10178000334642463946E148FFF724FF18E0434616
:101790003A464946DD480096FFF787FF0546002D8B
:1017A00003DD0120D94908600AE03DB943463A46C5
:1017B0004946D6480096FFF742FF01E0FFF7C1FF18
:1017C000BDE8F88370B5024600208D689668B54282
:1017D00001D0012070BD4D685668B54201D001208E
:1017E000F8E700233EE0002435E001F11C0505EB9D
:1017F00003152E6802F11C0505EB04152D68AE4299
:1018000000D027E001F11C0505EB03156E6802F11D
:101810001C0505EB04156D68AE4200D0012001F1F6
:101820001C0505EB0315AE6802F11C0505EB04155C
:10183000AD68AE4200D0012001F11C0505EB031597
:10184000EE6802F11C0505EB0415ED68AE4200D010
:10185000012003E0641C8D68A542C6DC00BF00B116
:10186000B8E75B1C8D689D42BDDC00BFB2E72DE987
:10187000F8430446277894F80180A678A378627824
:101880002178ABA00CF0B8FF3946A148FFF789FEDC
:10189000814609F1010030B93346424639469C4839
:1018A000FFF798FE1AE043463A46494698480096A4
:1018B000FFF7FBFE0546002D03DD0120944908607B
:1018C0000CE03DB943463A46494691480096FFF739
:1018D000B6FE03E09C218E480CF0E9FE8C480068BF
:1018E00001280DD18A498948FFF76CFF20B187484C
:1018F0000069401C854908619C2185480CF0D7FE91
:101900000020BDE8F8832DE9FE4F80460D4698F88B
:1019100000B098F8019098F8026059467B48FFF7AC
:1019200040FE02900298401C18B178484068B042CE
:1019300005DA76480069401C7449086184E1029820
:10194000019000247BE171481C3000EB0410C0685A
:10195000471E0198844241D06C481C3000EB0410B3
:10196000007804EB84016854B74205DDB81B04EB32
:1019700084012944887007E0644800793844801B5A
:1019800004EB84012944887004EB840028448078A7
:10199000012807DB04EB8400284480785B49496810
:1019A000884215D159481C3000EB04100179574882
:1019B0001C3000EB0410007A0844C01E04EB8401C4
:1019C00029448870472004EB840129444870D6E0FC
:1019D000522004EB840129444870D0E05846FFF7B8
:1019E000CFFDB8B149481C3000EB041001794748DD
:1019F0001C3000EB0410007A0844C01EA0EB090064
:101A000004EB840129448870472004EB84012944B5
:101A10004870ACE05846FFF7BBFDD8B33B481C30DC
:101A200000EB0410816809F10300814211DD3748A1
:101A30001C3000EB0410007AA0EB0900C01E04EB80
:101A4000840129448870472004EB840129444870AC
:101A50008DE02E481C3000EB0410007AA0EB09004A
:101A600004EB84012944887004EB840028448078C6
:101A7000012877DA25481C3000EB0410007804EBCD
:101A800084016854B7425FDDB81B04EB840129442C
:101A9000887061E06BE065E050EF000869734C65A9
:101AA00061726E696E67456E64696E67202065724B
:101AB000723A207374616765202564202E73746107
:101AC0007274696E6774696D65203D3D2030200D2C
:101AD0000A00000069734C6561726E696E67456E3D
:101AE00064696E6720206572723A206379636C6561
:101AF00074696D6520256420213D2074696D6563DE
:101B00006F756E74202564200D0A0000B03E002021
:101B10004C3F00204C6561726E696E674D4F646585
:101B2000202578202578202578200D0A0000000047
:101B30004D6F6E69746F72696E6720257820257805
:101B4000202578200D0A0000C44800793844801B05
:101B500004EB840129448870522004EB8401294459
:101B6000487004E0592004EB840129444870BB48C4
:101B70001C3000EB0410007804EB8401685404EB83
:101B8000840028444078522802D10020009010E0C0
:101B900004EB840028444078472802D101200090BB
:101BA00007E004EB840028444078592801D1022042
:101BB0000090AB4909780098884220D104EB84005A
:101BC00028448078A7490978884218D105F0FCF9A3
:101BD000A5490968A0EB010A00BFA44800680128D4
:101BE00006DB0AEB8A004100A1A00CF005FE05E02F
:101BF0000AEB8A004100A3A00CF0FEFD00BF00BF6D
:101C00009A48006801280CDB04EB840028448378A0
:101C100004EB84002844427821469FA00CF0ECFDA0
:101C20000BE004EB84002844837804EB8400284410
:101C300042782146A3A00CF0DFFD00BF641C87485A
:101C40008068A0423FF77FAE84480069032801DD29
:101C5000FFF777FDBDE8FE8F2DE9F04104460D4604
:101C60002C26002727467D48006818B92846FFF72C
:101C700072FD0FE079480068012807D12146284607
:101C8000FFF741FE75480068A06203E09C2173489D
:101C90000CF00DFDBDE8F08170B504460D462A78C4
:101CA000E16A93A00CF0A8FD2878022805D16B48C2
:101CB0004069401C6949486102E000206749486169
:101CC00066484069052802DD002064494861634890
:101CD0004069E06261484269E16A90A00CF08CFDC5
:101CE00070BDFEB504460F469BA0006802909BA005
:101CF000006801906069832814D1A069C42811D1BB
:101D0000E06978B92020005D8DF808002420005D8E
:101D10008DF809002820005D8DF80A0002A93846D8
:101D2000FFF79AFF9DF804106069884234D19DF84E
:101D30000510A06988422FD19DF80610E0698842FD
:101D40002AD1002616E0B50004F10C00E91C50F879
:101D50002100009004F10C0005F1020C50F82C3029
:101D600005F1010C50F82C2050F825107CA00CF047
:101D700043FD761C062EE6DB2020005D8DF8080072
:101D80002420005D8DF809002820005D8DF80A00F0
:101D900002A93846FFF780FFFEBD70B504460D4628
:101DA0007748806830B1A52C01D0012000E00020E8
:101DB0007349886072484068B0F5FF7F05DD0120F7
:101DC0006F4988600020486070BD5A2C09D16C486A
:101DD0000068A52805D101206949486008460068C7
:101DE000C860674841680C3040F821400C384068B2
:101DF000401C63494860A52C10D1084600685A2849
:101E00000CD129465E48FFF76CFF4FF400715C4827
:101E10000C300CF04CFC00205949486058480460D4
:101E200000BFD1E710B540F60C0155480CF03FFC5F
:101E30009C210A480CF03BFC9C2152480CF037FCDA
:101E400000BF0A480068012803DB4FA00CF0D4FC57
:101E500002E054A00CF0D0FC00BF10BDB03E00204A
:101E600005000020060000200800002000000020DF
:101E70005B494E464F5D0920CAB1D1D32025646D20
:101E8000730D0A005B494E464F5D09CAB1D1D3209C
:101E900025646D730D0A00005B494E464F5D0920B5
:101EA00071696A756E3A2073746167652564207381
:101EB000746174653A25632074696D653A25640D13
:101EC0000A0000005B494E464F5D0971696A756EF4
:101ED0003A20737461676525642073746174653A90
:101EE00025632074696D653A25640D0A00000000C1
:101EF000707474665F696E666F2D3E736574746985
:101F00006E6773746174757320253064202070626D
:101F100075665B305D203A25640D0A007074746646
:101F20005F696E666F2D3E73657474696E67737456
:101F30006174757320253064202051696E69666F65
:101F40002E73657474696E67737461747573203A67
:101F500025640D0A0000000083C4000085D0000045
:101F600073656E645F71696A756E5F7061727365C7
:101F70002025782025782025782025780D0A000056
:101F8000A43600204C3F00205B494E464F5D09209F
:101F900071696A756E20B3F5CABCBBAFCDEAB3C92F
:101FA0000D0A00005B494E464F5D0971696A756E06
:101FB00020B3F5CABCBBAFCDEAB3C90D0A0000001F
:101FC0001CB50121102001F05DFF4FF4007000905E
:101FD00001208DF8040003208DF8050069460448AF
:101FE00001F00AFD4FF40071014801F081FD1CBDB4
:101FF0000010024010B5FFF7E3FF00F007F800F013
:10200000A9FC00F0E2F900F06DFD10BD08B500215B
:102010004FF0006000F054FF4FF4407000F016FFE6
:102020003D208DF8000000208DF801008DF80200A1
:1020300001208DF80300684600F00DFF25208DF883
:10204000000000208DF8010001208DF802008DF8BD
:102050000300684600F0FFFE26208DF800000020F7
:102060008DF8010001208DF802008DF8030068460C
:1020700000F0F1FE27208DF8000000208DF801000F
:1020800001208DF802008DF80300684600F0E3FEA1
:1020900014208DF800004FF4407000F0D7FE0020AF
:1020A0008DF8010001208DF802008DF803006846CC
:1020B00000F0D1FE08BD000010B5002807DA0A07BD
:1020C000140E724A00F00F031B1FD45403E00A07DA
:1020D000130E6F4A135410BD00B5AFB001214FF07D
:1020E000606001F0CFFE0BF0ADFB0CF032F900BFE9
:1020F0000CF036F90128FBD068460BF0AEFB01204E
:102100000090002007904FF400700A9000200B9080
:102110000E9011901390149015904FF480600990D8
:10212000002020904FF0007021900011239000209B
:102130002590269004202890C005299040122A90CE
:1021400080012B9040122C9040002E900121684677
:102150000BF03DFC01214F480CF019F92FB000BDE8
:1021600008B54FF4407000F071FE3D208DF800007E
:1021700000208DF801008DF8020001208DF8030089
:10218000684600F068FE08BD1CB50121072001F07B
:1021900079FE0121880301F0B9FE012001F0DFFF83
:1021A00003208DF8050002208DF8040000208DF832
:1021B00006008DF80700862000906946364801F039
:1021C0001BFC0B220121344801F0A1FC0B2202214F
:1021D000314801F09CFC0B2207212F4801F097FCAD
:1021E0003220009069462D4801F006FC0B220121A7
:1021F0002A4801F08CFC0B220421284801F087FCBE
:102200000B220521254801F082FC4FF4605000901C
:102210006946234801F0F0FB0B221146204801F0EB
:1022200076FC0B220C211E4801F071FC0B220D21C3
:102230001B4801F06CFC1CBD1FB5FFF7A5FFFFF7A5
:102240008FFFFFF749FF684601F087FD6421009882
:10225000B0FBF1F4B4F1807F00D311E024F07F40B3
:10226000401E4FF0E02148610F214FF0FF30FFF793
:1022700023FF00204FF0E02188610720086100BFA4
:102280000121881EFFF718FF1FBD000018ED00E0B8
:1022900000E400E0400001000000024000080240AD
:1022A0000004024000B587B007F046F807F0ACF92B
:1022B000204805F08DF906906FF0FF0005F088F9D1
:1022C00005901C48FB3805F083F904901A481B4917
:1022D000002204ABCDE90021029005AA06A9184806
:1022E00007F03DFA164807F06CFA154807F0B1FA06
:1022F00007B000BD10B512480BF05AFA10BD01B579
:10230000104900980968401AFA2804D30D4900982A
:10231000086008F075F90C4900980968401A41F204
:102320008831884204D30849009808600AF0FFFC0D
:1023300008BD0000FC08A8C0F3D50008DDD70008E0
:10234000E83F00200C00002010000020704700BF74
:10235000FEE700BFFEE700BFFEE700BFFEE77047F5
:1023600070477047704710B502F038FA04460C48C1
:102370000078401C0A490870204602F033FA01E058
:10238000FFF7B8FF0BF0B4FE0028F9D140200CF0A5
:1023900015F84FF480300CF011F802F0C6FE10BDB5
:1023A0008D00002000BF704700BFFE4A128802F077
:1023B0004002002AF9D0C2B2FA4B1B1D1A807047A6
:1023C00000E0401E0028FCD1704700B589B0012113
:1023D000092001F057FD0121102001F097FDF2487E
:1023E00001F0D4FE03A801F085FF01A801F09EFFD3
:1023F00002208DF820008DF8210000208DF82200A9
:1024000001208DF823004002079007A9E74801F05A
:10241000F3FA07220921E54801F079FB4FF48060C7
:10242000079007A9E14801F0E7FA07220A21DF48EF
:1024300001F06DFB01A9DC4801F068FF4FF4165074
:1024400003900020ADF81000ADF81200ADF81400B4
:10245000ADF818000C20ADF8160003A9D24801F021
:10246000E3FE012240F22551CF4802F01BF840F272
:102470002661CD4802F088F80121CB4801F05CFFCD
:102480000121480401F031FDC64801F07FFE03A898
:1024900001F030FF01A801F049FF02208DF8200073
:1024A0008DF8210000208DF8220001208DF82300F6
:1024B0002020079007A9BE4801F09EFA07220521B7
:1024C000BB4801F024FB4020079007A9B84801F061
:1024D00093FA07220621B64801F019FB01A9B14879
:1024E00001F014FF4FF4165003900020ADF81000D7
:1024F000ADF81200ADF81400ADF818000C20ADF8DE
:10250000160003A9A74801F08FFE012240F22551D1
:10251000A44801F0C7FF40F22661A24802F034F857
:102520000121A04801F008FF1020079002208DF83B
:10253000210001208DF8200007A99D4801F05CFAD8
:1025400010219B4801F0D4FA4FF49670FFF738FF42
:102550000121880401F0C9FC964801F017FE03A888
:1025600001F0C8FE01A801F0E1FE02208DF8200074
:102570008DF8210000208DF8220001208DF8230025
:102580000002079007A98A4801F036FA07220821BD
:10259000874801F0BCFA4FF40070079007A98448FF
:1025A00001F02AFA07220921814801F0B0FA01A9B5
:1025B000804801F0ABFE4FF4E13003900020ADF80D
:1025C0001000ADF81200ADF81400ADF818000C20A2
:1025D000ADF8160003A9774801F026FE012240F26B
:1025E0002551744801F05EFF40F22661714801F008
:1025F000CBFF01216F4801F09FFE09B000BD10B56F
:10260000044621466B4801F0C2FE00BF80216948A4
:1026100001F06DFF0028F9D010BD70B505460E46DB
:10262000002404E0285DFFF7EAFF601CC4B2B44256
:10263000F8DB70BD10B5044620215B4801F057FF60
:1026400030B94FF400715C4801F052FA002010BD1F
:10265000554801F0A0FE20700120F8E701B502E026
:102660000098401E009000980028F9D108BD70B570
:102670005248008800F40040E0B15048057850A06E
:102680000CF0BAF800240DE05248015D464801F014
:102690007EFE00BF4021444801F029FF0128F9D106
:1026A000601CC4B2AC42EFDB4BA00CF0A5F80020DC
:1026B0004249088070BD70B54948008800F4004068
:1026C000B0B14748057800240DE04648015D39481F
:1026D00001F05DFE00BF4021364801F008FF0128EF
:1026E000F9D1601CC4B2AC42EFDB00203C49088049
:1026F00070BD10B502F003FD40F225512A4801F0EB
:102700000CFF10B3284801F046FEC4B22B480088E5
:1027100000F40040C8B92948008800F4804060B146
:102720000A2C03D000202549088020E02348008897
:1027300040F400402149088019E00D2C06D11F48C3
:10274000008840F480401D49088010E01B48008844
:10275000C0F30D001F490C5418480088401C17494D
:10276000088008460088C72801DD0020088002F0A4
:10277000DCFC10BD10B502F0C2FC40F22551094846
:1027800001F0CBFEA0B30748001D00881649174A88
:102790001268885415480068401C144908600846AF
:1027A000006826E0004400400010014000000240A4
:1027B000000C024000480040001002401C000020B5
:1027C0000D0AC4FAB7A2CBCDB5C4CFFBCFA2CEAA17
:1027D0003A0D0A00204000200D0A0D0A00000000FA
:1027E0001E000020E8400020B0410020240000200E
:1027F00018E002280FD308460068801E3A49085C9A
:102800000D2808D139480068401E085C0A2802D10A
:1028100001203749087035480068642802D9002033
:102820003249086040F22771324801F076FE20B14B
:1028300040F227712F4801F0A7FE02F076FC10BD90
:1028400010B502F05CFC40F225512B4801F065FE0A
:1028500090B140F22551284801F096FE264801F03B
:102860009AFDC4B2204600F0E5F900BF802122485D
:1028700001F03DFE0028F9D002F057FC10BD70B504
:1028800005460E46002410211C4801F031F94FF492
:102890009670FFF795FD00BF0BE0285D1549091DF7
:1028A000088000BF1348008800F040000028F9D0DD
:1028B000641CB442F1D3C820FFF782FD10210F48F9
:1028C00001F018F970BD10B50948007801280AD147
:1028D000002007490870054801680348FFF7CFFF4B
:1028E00000200249086010BDB041002024000020F3
:1028F000200000200044004000480040000C02403E
:1029000010B50246002000BF20E000EB80036F4CB2
:1029100054F82330934218D100EB800304EB830377
:102920001B79CB7000EB800304EB83031B7A0B71E4
:1029300000EB800304EB83031B7B4B7100EB8003F4
:1029400004EB83031B8A0B8010BD401C1228DCD3D0
:1029500000BFF9E700B589B00121082001F092FA23
:102960000120079002208DF820008DF82100002022
:102970008DF8220001208DF8230007A9544801F0AA
:102980003BF80220079007A9514801F035F80922C9
:1029900000214F4801F0BBF8092201214C4801F009
:1029A000B6F80121480601F0A0FA4A4800F0BEFA44
:1029B00004A800F0DFFB00208DF816008DF817004A
:1029C0008DF818008DF819008DF81A008DF81B008D
:1029D0008DF8120004A9FA20FFF792FF04A93D48E0
:1029E00000F0BDFA00208DF80A008DF80B000120E0
:1029F0008DF80C000020ADF80000ADF80200ADF835
:102A00000400ADF80600ADF8080001208DF80D00B7
:102A1000684600F02EFB012202212E4800F028FE1D
:102A200009B000BD00B585B002F069FB0020009040
:102A300001908DF808008DF80A008DF813008DF8CC
:102A40000B006A460021234800F0F7FC009822287A
:102A500008D19DF80B00BB2804D14FF400711E482B
:102A600001F048F801201D4908700221194800F0C2
:102A700002FF02F05AFB05B000BDF0B585B0054677
:102A80000E4600270095002001908DF808008DF873
:102A9000090008208DF80A0011480670002406E09D
:102AA0000F48015D0DF10B000155601CC4B2082CEC
:102AB000F6DB6946074800F0CBFB074605B0F0BDE2
:102AC00010B5AA211120FFF7D8FF10BD9CEC00081B
:102AD000000C02400064004000100240440000204E
:102AE0003C0000201CB501210C2001F0CBF94FF473
:102AF0006050009001208DF8040002208DF8050040
:102B000069464A4800F078FF4FF48060009000204A
:102B10008DF8040002208DF805006946434800F056
:102B20006BFF4FF46070009001208DF804000220CC
:102B30008DF8050069463E4800F05EFF4020009099
:102B400000208DF8040002208DF805006946384801
:102B500000F052FF4FF40061344800F0CBFF4FF417
:102B60008051324800F0C6FF4FF400512F4800F06A
:102B7000C1FF4FF400612E4800F0BCFF4FF480719C
:102B80002B4800F0B7FF4FF40071294800F0B2FF66
:102B90001CBD70B54FF48051244800F0ABFF4FF4DA
:102BA0008051224800F0A4FF002515E04FF40051A9
:102BB0001E4800F09FFF64004FF480611B4800F046
:102BC0007DFF08B144F0010400BF4FF400511748E5
:102BD00000F08EFF681CC5B2182DE7DB204670BDE3
:102BE00070B54FF48071124800F084FF4FF480718B
:102BF0000F4800F07DFF002514E04FF400710C48F1
:102C000000F078FF64004021094800F057FF08B148
:102C100044F0010400BF4FF40071054800F068FF64
:102C2000681CC5B2182DE8DB204670BD000C0240C0
:102C30000008024028494A78891C8854891E49782E
:102C4000491CC9B2244A5170B1F5967F01DB0021BD
:102C5000517021494978204A127891420AD11E497F
:102C60000978491CC9B21C4A1170B1F5967F01DB85
:102C7000002111707047014617480078164A5278B3
:102C8000904201D10120704713480278801C805C7B
:102C9000087011480078401CC0B20F4A1070B0F59F
:102CA000967F01DB002010700020ECE770B5044631
:102CB0000D46002600230AE0E018FFF7DCFF10B9FC
:102CC000701C86B201E0304670BD581C83B2AB4226
:102CD000F2DB3046F8E70000144200202DE9F0470F
:102CE00081460F46154698462C4614B3218938462E
:102CF00007F013FC1AE000260BE0424850F82600CB
:102D0000B84204D10020404921F8160003E0701CAD
:102D1000C6B2032EF1DB00BF628901233846616829
:102D200009F0E8FA384609F099FB2468002CE2D152
:102D300002E0384607F045FB284606F0BDFD4FF09F
:102D400000084046BDE8F0872DE9F04107460D46F2
:102D500016462E480078022814DD00BF2C48006873
:102D6000012805DB294801782AA00BF045FD04E085
:102D7000264801782DA00BF03FFD00BF4FF0FF303B
:102D8000BDE8F081002409E01E4850F8240018B97D
:102D90001C4840F8245003E0601CC4B2032CF3DB51
:102DA00000BF1A480078401C1849087001212846C5
:102DB00007F044FE2249284607F0E0FE0026304690
:102DC000DEE770B5002408E000200E4941F8240039
:102DD0000D4921F81400601CC4B2032CF4DB07F089
:102DE000C6FE054640F206421649284607F095FC05
:102DF000FF21284607F007FD05461349284607F03E
:102E0000C6FE70BD4443002048000020460000205C
:102E1000000000205B494E464F5D0920B5B1C7B0A8
:102E20002564C1ACBDD30D0A000000005B494E46CD
:102E30004F5D09B5B1C7B02564C1ACBDD30D0A0063
:102E4000DD2C000804EF0008492D00083249014339
:102E5000324A1160704770B5002100230F22C478F8
:102E60001CB32E4C246804F4E064C4F5E064C4F39D
:102E70000721C1F10404E3B20A4144789C40E1B265
:102E80008478144021430C07210E254C05786155A8
:102E9000047804F01F050124AC4005786D11AD00E5
:102EA00005F1E025C5F8004109E0047804F01F05AC
:102EB0000124AC401B4D0678761145F8264070BDC4
:102EC000194A0A400243154B1B1F1A60704739B15B
:102ED000124A121D12680243104B1B1D1A6006E0B5
:102EE0000E4A121D126882430C4B1B1D1A6070475C
:102EF000042808D14FF0E021096941F004014FF0A6
:102F0000E022116107E04FF0E021096921F004019E
:102F10004FF0E022116170470000FA050CED00E06F
:102F200000E400E080E100E080FFFF1F10B50446F0
:102F3000FE48844209D10121480601F03EF80021F3
:102F40004FF0007001F039F808E00121880601F027
:102F500034F800214FF0806001F02FF810BD30B53B
:102F6000024600200023146824F002041460146850
:102F700044F00104146000E05B1C546804F0010498
:102F80001CB94FF6FF74A342F6D1546804F0010453
:102F90000CB900206CE08C79012C04D1146844F049
:102FA0008004146003E0146824F080041460CC7979
:102FB000012C04D1146844F04004146003E0146848
:102FC00024F0400414600C7A012C04D1146844F0FD
:102FD0002004146003E0146824F0200414604C7A88
:102FE000012C04D1146844F01004146003E0146848
:102FF00024F0100414608C7A012C04D1146844F07D
:103000000804146003E0146824F008041460CC7A07
:10301000012C04D1146844F00404146003E0146823
:1030200024F0040414608C78A407CD7844EA056485
:103030000D7944EA05444D7944EA05540D886D1E26
:103040002C43D461146824F001041460002300E0D0
:103050005B1C546804F001041CB14FF6FF74A342DA
:10306000F6D1546804F001040CB1002000E0012006
:1030700030BD10B50021837A012202FA03F1AC4A77
:10308000126842F00102AA4B1A60A94A1C32126867
:103090008A43A74B1C331A60027BCAB9A44A0C327C
:1030A00012688A43A24B0C331A604288C38842EAF2
:1030B00003439F4A4032847A42F83430028883883E
:1030C00042EA03439A4A4032847A02EBC4025360D4
:1030D000027B012A19D1964A0C3212680A43944B9A
:1030E0000C331A604288038842EA0343904A403214
:1030F000847A42F83430C288838842EA03438C4A97
:103100004032847A02EBC4025360C27A3AB9884AE8
:10311000121D12688A43864B1B1D1A6006E0844A02
:10312000121D12680A43824B1B1D1A60028932B9B4
:103130007F4A143212688A437D4B14331A60028925
:10314000012A06D17A4A143212680A43784B1433A2
:103150001A60427B012A06D1754A1C3212680A4362
:10316000734B1C331A60724A126822F00102704BD2
:103170001A6010BD00218171C171017241728172AA
:10318000C1728170C170032101710221417101215D
:10319000018070476649096841F00101644A116085
:1031A0001146096843F60E729143614A1160114657
:1031B000096841EA002111601146096821F0010106
:1031C0001160704721B1026842F48032026003E06E
:1031D000026822F4803202607047E1B1026842F076
:1031E000800202604FF4C272125842F480734FF4AE
:1031F000C27213504FF4CA72125842F480734FF4E3
:10320000CA7213504FF4D272125842F480734FF4C2
:10321000D27213501BE0026822F0800202604FF469
:10322000C272125822F480734FF4C27213504FF4DA
:10323000CA72125822F480734FF4CA7213504FF4BA
:10324000D272125822F480734FF4D2721350704726
:1032500010B502460020936803F08063B3F1806FDD
:1032600000D110E0936803F00063B3F1006F01D167
:10327000012008E0936803F08053B3F1805F01D12F
:10328000022000E00420042879D002F5C07303EB8B
:1032900000131B6803F0010402F5C07303EB001375
:1032A0001C600B7A7BB94B7A0C8843EA445302F5D5
:1032B000C07404EB00142468234302F5C07404EBCB
:1032C0000014236010E00B7A4C6843EAC4034C7A84
:1032D000234302F5C07404EB00142468234302F571
:1032E000C07404EB001423608B7A03F00F038B721D
:1032F00002F5C07303EB00135B6823F00F0402F5C3
:10330000C07303EB00135C6002F5C07303EB0013A2
:103310005B688C7A234302F5C07404EB001463608D
:103320008B7B1C064B7B44EA034403E000640040B3
:10333000006600400B7B44EA0323CC7A234302F56A
:10334000C07404EB0014A3608B7C1C064B7C44EA25
:1033500003440B7C44EA0323CC7B234302F5C07473
:1033600004EB0014E36002F5C07303EB00131B6869
:1033700043F0010402F5C07303EB00131C6010BDA1
:1033800010B50246002321B1012907D002290FD12F
:1033900009E09068F94C00EA04030BE09068F84CEF
:1033A00000EA040306E09068F64C00EA040301E03A
:1033B000002300BF00BFF44C181BA34216D007DC4B
:1033C00083B16FF08060184470B1022818D111E009
:1033D000B0F5007F10D0ED4C204448B1B0F5003F6F
:1033E0000ED10BE002230DE000230BE0002309E0E7
:1033F000002307E0012305E0012303E0012301E0AE
:10340000002300BF00BFD8B210BD21B1012907D0F1
:1034100002290FD109E0826842F0800282600AE04E
:10342000826842F40042826005E0826842F4000251
:10343000826000E000BF00BF704710B500F5D87390
:1034400003EB01131B6803F004031372137A53B9DF
:1034500000F5D87303EB01131B6840F2FF7404EA14
:103460005353136009E000F5D87303EB01131B6895
:103470006FF0604404EAD303536000F5D87303EBA4
:1034800001131B6803F00203537200F5D87303EBBA
:1034900001135B6803F00F03937200F5D87303EB1D
:1034A00001135B681B0AD37400F5D87303EB011397
:1034B0009B68D37200F5D87303EB01139B681C0A59
:1034C000147300F5D87303EB01139B681C0C547341
:1034D00000F5D87303EB01139B681B0E937300F583
:1034E000D87303EB0113DB68D37300F5D87303EBD8
:1034F0000113DB681C0A147400F5D87303EB011385
:10350000DB681C0C547400F5D87303EB0113DB6803
:103510001B0E937421B9C36843F02003C36003E01A
:10352000036943F02003036110BD21B9C26842F072
:103530002002C26003E0026942F02002026170478B
:103540000246002019B9D36803F0030006E0012900
:1035500003D1136903F0030000E00020704710B5A9
:1035600002460B4600204FF6FF71BBB9146824F0E9
:10357000020444F00104146000E0491E546804F0A1
:103580000304012C01D00029F7D1546804F003048E
:10359000012C01D0002032E0012030E0012B13D1BA
:1035A000146824F00304146000E0491E546804F019
:1035B00003040CB10029F8D1546804F003040CB1E1
:1035C00000201CE001201AE0022B17D1146824F01F
:1035D000010444F00204146000E0491E546804F041
:1035E0000304022C01D00029F7D1546804F003042D
:1035F000022C01D0002002E0012000E0002010BDDC
:10360000014600200A6822F0010242F002020A602C
:103610004A6802F00302022A00D1012070470146E5
:103620004FF6FF7200200B6823F002030B6000E0EE
:10363000521E4B6803F00203022B01D1002AF7D17E
:103640004B6803F00203022B00D0012070470146B3
:1036500000208A6902F070007047014600208A69E4
:10366000100E7047014600208A69C2F30740704778
:103670001AB143690B43436102E043698B434361E1
:10368000704710B50246002001F4700343B19369FE
:10369000C1F3130423400BB101202DE000202BE0E7
:1036A00001F0807343B15368C1F3130423400BB19D
:1036B000012021E000201FE001F0006343B1936886
:1036C000C1F3130423400BB1012015E0002013E0E7
:1036D00001F0007343B1D368C1F3130423400BB16D
:1036E000012009E0002007E01369C1F3130423401F
:1036F0000BB1012000E0002010BD0022244B9942B4
:1037000002D10023836111E0C1F3130201F00073C1
:103710000BB1C2600AE001F080630BB1026105E009
:1037200001F000630BB1826000E042607047024626
:10373000002002EA01030BB1012000E000207047E5
:1037400070B504460D46002660692840002872D0F6
:10375000B5F5807F69D01DDC082D42D006DC012D37
:103760002DD0022D31D0042D7FD134E0102D3ED04C
:10377000202D42D0402D78D145E000000300000408
:103780000003000800000310000100080001FFF71B
:103790007000F030B5F5004F61D009DCB5F5007F61
:1037A0004AD0B5F5806F4DD0B5F5006F5DD150E0D2
:1037B000B5F5803F2DD0B5F5003F56D12FE0A0687C
:1037C0005549FFF7B4FF064651E0E0680321FFF7D3
:1037D000AEFF06464BE0E0680821FFF7A8FF06466B
:1037E00045E0E0681021FFF7A2FF06463FE02069B0
:1037F0000321FFF79CFF064639E020690821FFF707
:1038000096FF064633E020691021FFF790FF064639
:103810002DE060680821FFF78AFF064627E0606810
:103820001021FFF784FF064621E0A0690121FFF780
:103830007EFF06461BE01BE0A0690221FFF777FF31
:10384000064614E0A0690421FFF771FF06460EE06A
:103850000BE0A0697021FFF76AFF064607E0606889
:103860000421FFF764FF064601E0002600BF00E0E8
:103870000026304670BDB1F5007F3AD00FDC20291C
:1038800028D006DC01291CD004291DD0082940D1EC
:103890001DE0402921D0B1F5807F3AD126E0B1F575
:1038A000004F31D006DCB1F5806F25D0B1F5006F47
:1038B0002FD124E0B1F5803F12D0B1F5003F28D1DF
:1038C00011E0154A826025E00822C26022E0102241
:1038D000C2601FE0082202611CE01022026119E0B0
:1038E0000822426016E01022426013E00422426087
:1038F00010E0042242600DE0042242600AE000224F
:1039000082610422426005E000228261042242605A
:1039100000E000BF00BF70470101010010B5044680
:103920008C48844208D10121084600F000FB0021A8
:10393000012000F0FCFA5EE08748844208D10121B2
:10394000022000F0F4FA0021022000F0F0FA52E028
:103950008248844208D10121042000F0E8FA0021C5
:10396000042000F0E4FA46E07D48844208D10121B9
:10397000082000F0DCFA0021082000F0D8FA3AE034
:103980007848844208D10121102000F0D0FA0021AB
:10399000102000F0CCFA2EE07348844208D10121B7
:1039A000202000F0C4FA0021202000F0C0FA22E01C
:1039B0006E48844208D10121402000F0B8FA00216D
:1039C000402000F0B4FA16E06948844208D1012191
:1039D000802000F0ACFA0021802000F0A8FA0AE074
:1039E0006448844207D10121801500F0A0FA00212B
:1039F000A01500F09CFA10BDF0B50A460021002386
:103A0000002400BF3DE0012505FA01F3156805EA31
:103A100003049C4234D105684F000326BE40B543E1
:103A2000056015794E00B540066835430560157987
:103A3000012D02D01579022D16D185684F0003267D
:103A4000BE40B543856055794E00B5408668354324
:103A50008560456801268E40B54345604568967986
:103A60008E40B6B235434560C5684F000326BE4060
:103A7000B543C560D5794E00B540C6683543C560CD
:103A8000491C1029BFD3F0BD4FF6FF710160002122
:103A9000017141718171C171704708B54FF4803275
:103AA0000092009A0A430092009AC261C161009A92
:103AB000C261C2690092C269009208BD024600203C
:103AC00013690B400BB1012000E000207047014654
:103AD000086980B270470246002053690B400BB161
:103AE000012000E0002070470146486980B270471D
:103AF00001837047418370470AB1018300E041832D
:103B000070474161704742694A4042617047F0B571
:103B1000002300244D07ED0E02FA05F3CE1000F14C
:103B2000200555F826504E07F70E0F26BE40B54328
:103B3000CF1000F1200646F82750CE1000F12005E6
:103B400055F8265045EA0304CE1000F1200545F84B
:103B50002640F0BD00000240000402400008024080
:103B6000000C024000100240001402400018024005
:103B7000001C024000200240FA48006840F00100AA
:103B8000F84908600020F74908310860F5480068E6
:103B9000F5490840F3490860F448091D0860081F0A
:103BA000006820F48020091F08600020ED490C31D6
:103BB000086070470021EB4A921C11701146087092
:103BC000704710B501460022002300204A11012A47
:103BD00002D1E44C236808E0022A03D1E14C70349E
:103BE000236802E0DF4C7434236801F01F020124D3
:103BF00094401C400CB1012000E0002010BD38B5FD
:103C0000002000900024002500BF3120FFF7D9FFDD
:103C100005460098401C00900098B0F5A06F01D0B8
:103C2000002DF2D03120FFF7CCFF08B1012400E0D5
:103C30000024204638BD01460020CA4A106820F002
:103C4000F80040EAC10010607047C9490860704739
:103C50000021C44A703211701170012802D004286A
:103C60000AD104E00121BF4A7032117005E005213C
:103C7000BC4A7032117000E000BF00BF7047BD4900
:103C80000860704770B5049C41EA82150126C6EBB6
:103C9000530645EA0645054345EA0465B14E361D1F
:103CA000356070BDB24908667047820142EA017210
:103CB000AC4B84331A607047AD4988667047AC4995
:103CC000C864704702460020A64B0833186820F0ED
:103CD000EC6042EA01031843A24B083318607047B6
:103CE000024600209F4B0833186820F0784042EAD3
:103CF000010318439B4B08331860704701460020AE
:103D0000984A0832106820F003000843106070479A
:103D100094480830006800F00C007047014600200D
:103D2000904A0832106820F0F00008431060704795
:103D3000014600208B4A0832106820F4E050084306
:103D40001060704701460020864A0832106820F44F
:103D5000604040EAC10010607047F0B500210022C9
:103D600000240225002602237E4F08373F6807F013
:103D70000C0121B1042905D0082937D105E07E4F77
:103D8000076036E07D4F076033E0764F3F1D3F68A8
:103D9000C7F38056734F3F1D3F6807F03F036EB176
:103DA000764FB7FBF3F7DFF8BCC10CF1040CDCF87D
:103DB00000C0CCF3881C07FB0CF40CE06E4FB7FB83
:103DC000F3F7DFF8A0C10CF1040CDCF800C0CCF371
:103DD000881C07FB0CF4634F3F1D3F68C7F3014786
:103DE0007F1C7D00B4FBF5F7076002E0624F0760BF
:103DF00000BF00BF5B4F08373F6807F0F0010909BB
:103E00005F4F7A5C0768D7404760564F08373F6876
:103E100007F4E051890A5A4F7A5C4768D7408760B7
:103E2000504F08373F6807F46041490B544F7A5CA4
:103E30004768D740C760F0BD002100F44072B2F57A
:103E4000407F0AD1474A0832116821F4F8114D4ADF
:103E500002401143434A08321160424A70321268EC
:103E6000C0F30B031A433F4B70331A60704741494C
:103E70004439086070473F494039086070474249FB
:103E80000860704739B1374A303212680243354B07
:103E900030331A6006E0334A303212688243314BC5
:103EA00030331A60704739B12E4A343212680243F7
:103EB0002C4B34331A6006E02A4A343212688243AB
:103EC000284B34331A60704739B1264A38321268A9
:103ED0000243244B38331A6006E0224A3832126813
:103EE0008243204B38331A60704739B11D4A403243
:103EF000126802431B4B40331A6006E0194A4032F5
:103F000012688243174B40331A60704739B1154A23
:103F1000443212680243134B44331A6006E0114ADC
:103F20004432126882430F4B44331A60704739B1F0
:103F30000C4A1032126802430A4B10331A6006E032
:103F4000084A103212688243064B10331A607047D9
:103F5000E1B1044A143212680243024B14331A606E
:103F600019E0000000380240FFFFF6FE1030002488
:103F700000004742800E47420024F40040787D0153
:103F80004E000020FFFCFF0F5C0147425B4A1268B5
:103F900082435A4B1A60704739B1584A121D126851
:103FA0000243564B1B1D1A6006E0544A121D12684C
:103FB0008243524B1B1D1A60704739B14F4A0C3275
:103FC000126802434D4B0C331A6006E04B4A0C3228
:103FD00012688243494B0C331A60704739B1474A23
:103FE000103212680243454B10331A6006E0434A10
:103FF000103212688243414B10331A60704739B156
:104000003E4A3C32126802433C4B3C331A6006E0A5
:104010003A4A3C3212688243384B3C331A6070474C
:1040200039B1364A403212680243344B40331A6089
:1040300006E0324A403212688243304B40331A6005
:10404000704739B12D4A4432126802432B4B443336
:104050001A6006E0294A443212688243274B4433EF
:104060001A60704739B1254A4C3212680243234B1B
:104070004C331A6006E0214A4C32126882431F4BCF
:104080004C331A60704739B11C4A503212680243EF
:104090001A4B50331A6006E0184A503212688243B5
:1040A000164B50331A60704739B1144AD21F127838
:1040B0000243124BDB1F1A7006E0104AD21F12781F
:1040C00082430E4BDB1F1A7070470C48603000684B
:1040D00040F0807009496031086070470146002057
:1040E000064A083A12680A400AB1012000E000209E
:1040F00070470249891F0870704700001438024059
:1041000010B501218803FFF769FF00214FF48040BB
:10411000FFF764FF10BD1A490860704730B50022F0
:104120008B071C0F0F2303FA04F2154B08338C1076
:1041300053F824309343124C08348D1044F8253042
:1041400023468C1053F824308C07240F00FA04F413
:1041500023430B4C08348D1044F8253030BD0949F9
:104160000860704708490860704700200449203102
:10417000096801F4807109B1012000E00020704756
:1041800000380140DC0027420004274210B50446F5
:10419000F748844208D101211020FFF71FFF0021BA
:1041A0001020FFF71BFF3EE0F248844209D10121B5
:1041B0004804FFF702FF00214FF40030FFF7FDFE37
:1041C00031E0ED48844209D101218804FFF7F5FE72
:1041D00000214FF48020FFF7F0FE24E0E7488442FE
:1041E00009D10121C804FFF7E8FE00214FF40020A7
:1041F000FFF7E3FE17E0E248844209D101210805F8
:10420000FFF7DBFE00214FF48010FFF7D6FE0AE037
:10421000DC48844207D101212020FFF7DFFE002186
:104220002020FFF7DBFE10BD2DE9FF4705460E46B7
:104230000024A14600BFA046B08900B100BF2C8A6F
:1042400024F44054F08804432C82AC8941F20C6081
:104250008443B08831890843718908430443AC81A1
:10426000AC8A24F44074B0890443AC826846FFF7FA
:1042700074FDBF48854202D0C248854202D1DDF8B4
:104280000C9001E0DDF80890A88900F4004040B1EE
:1042900009EBC90000EB091031684900B0FBF1F7E8
:1042A00007E009EBC90000EB091031688900B0FB99
:1042B000F1F76420B7FBF0F004012009642101FB51
:1042C0001078A88900F4004040B1322000EBC8000B
:1042D000B0FBF1F000F00700044308E0322000EBEF
:1042E00008106421B0FBF1F000F00F0004432C81B2
:1042F000BDE8FF874FF41651016000218180C18025
:1043000001810C21418100218181704710B5024655
:104310000020108A20F470600B884C8823438C881E
:104320002343CC8823431843108210BD0021018011
:1043300041808180C180704721B1828942F400525E
:10434000828104E082894DF6FF731A4082817047B2
:10435000028B02F47F420283028B0A43028370477E
:1043600021B1828942F40042828103E08289C2F352
:104370000E028281704721B1828A42F400628282F9
:1043800004E0828A4FF2FF731A4082827047C1F3C1
:1043900008028280704701468888C0F30800704791
:1043A000028A4FF6F0731A400282028A0A4302829E
:1043B000704721B1828942F00202828104E0828941
:1043C0004FF6FD731A408281704782894FF2FF7366
:1043D0001A40828182890A4382817047028A4FF69D
:1043E000DF731A400282028A0A430282704721B1B7
:1043F000028A42F48042028204E0028A4BF6FF7392
:104400001A4002827047818941F001018181704721
:1044100021B1828A42F00802828204E0828A4FF649
:10442000F7731A4082827047028BD2B20283028BEA
:1044300042EA01220283704721B1828A42F02002BF
:10444000828204E0828A4FF6DF731A4082827047CC
:1044500021B1828A42F01002828204E0828A4FF601
:10446000EF731A4082827047828A4FF6FB731A40BC
:104470008282828A0A438282704721B1828A42F014
:104480000202828204E0828A4FF6FD731A40828221
:1044900070471AB1838A0B43838202E0838A8B437D
:1044A00083827047F0B503460024002600250020D3
:1044B00040F66A17B94200D100BF1846C1F3421452
:1044C00001F01F06012707FA06F5012C01D10C3077
:1044D00004E0022C01D1103000E014301AB107685A
:1044E0002F43076002E00768AF430760F0BD024654
:1044F0000020B1F5007F00D100BF13880B400BB145
:10450000012000E00020704701F40072B2F5007F46
:1045100000D100BFCA430280704770B50246002434
:1045200000230025002040F66A16B14200D100BFEA
:10453000C1F3421501F01F03012606FA03F3012D12
:1045400002D19689334006E0022D02D1168A33400B
:1045500001E0968A33400C12012606FA04F416880C
:10456000344013B10CB1012000E0002070BD000008
:10457000001001400044004000480040004C004052
:10458000005000400014014010B50022002340F606
:104590006A14A14200D100BF0A1201249440A3B2C0
:1045A000DC43048010BD00000648804706480047F1
:1045B000FEE7FEE7FEE7FEE7FEE7FEE7FEE7FEE7D3
:1045C000FEE7FEE7A9460008890100080CB50020B7
:1045D000019000907648006840F48030744908608B
:1045E00000BF7348006800F4003000900198401C40
:1045F0000190009818B90198B0F5A06FF1D16C48FE
:10460000006800F4003010B10120009001E00020AB
:1046100000900098012846D165484030006840F07D
:1046200080506349403108606248006840F480402F
:10463000604908605E48083000685D4908310860DC
:104640000846006840F4004008600846006840F4EE
:10465000A05008605848091F0860081F006840F013
:104660008070091F086000BF5148006800F00070AA
:104670000028F9D040F20560504908604C480830E5
:10468000006820F003004A490831086008460068C5
:1046900040F00200086000BF45480830006800F0A4
:1046A0000C000828F8D10CBD10B54548006840F44E
:1046B0007000434908603E48006840F001003C49F2
:1046C000086000203A4908310860394800683D49CF
:1046D0000840374908603C48091D0860081F006809
:1046E00020F48020091F0860002031490C31086047
:1046F000FFF76CFF4FF0006031498039086010BD52
:1047000070B500200022022300240221284D083524
:104710002D6805F00C0020B1042806D0082834D1FB
:1047200007E02A4D2A4E356033E02A4D284E356089
:104730002FE01F4D2D1D2D68C5F380541C4D2D1DE0
:104740002D6805F03F0154B1224DB5FBF1F5184E2F
:10475000361D3668C6F3881605FB06F209E01B4DC8
:10476000B5FBF1F5124E361D3668C6F3881605FB0B
:1047700006F20F4D2D1D2D68C5F301456D1C6B0014
:10478000B2FBF3F5124E356003E0104D104E35606C
:1047900000BF00BF064D08352D68C5F303150E4E4A
:1047A000705D0B4D2D68C540094E356070BD000031
:1047B000003802400070004019544005003C02409F
:1047C00088ED00E0FFFFF6FE103000240024F40026
:1047D0006000002040787D0164000020EFF310802D
:1047E00072B6704780F31088704725484FF0FF017C
:1047F0000170002080F309882248012101702248BD
:104800004FF08051016062B6FEE71F484FF08051C3
:10481000016070471C484FF080510160704772B6CC
:10482000EFF3098050B1A0F1200080E8F00FA0F173
:10483000400080EC108B15490968086000B51448E9
:1048400080475DF804EB134813490A7802700F485B
:1048500012490A680260106890EC108B00F1400069
:1048600090E8F00F00F120002EF0100E80F3098880
:104870004EF0040E62B6704772B6704762B670476B
:1048800022ED00E09A00002004ED00E0A0000020EE
:104890008D4900088F00002090000020A800002013
:1048A00010B5FFF7E9FF10BD10B5FFF7E7FF10BD2A
:1048B00070477047704770477047F0B504460D4623
:1048C0001046CC260660DD27061F304637600021E3
:1048D00005E04FF0AA37061F30463760491C102903
:1048E000F7D34FF08077061F30463760061F3046FB
:1048F00034603A4F061F304637604FF01237061FBC
:10490000304637604FF00337061F304637604FF0B0
:104910000237061F304637607F10061F304637606B
:10492000061F304635604FF01137061F304637609E
:104930004FF01037061F304637604FF00937061F1B
:10494000304637604FF00837061F304637604FF06B
:104950000737061F304637604FF00637061F3046D0
:1049600037604FF00537061F304637604FF0043789
:10497000061F30463760002105E04FF0BB37061FA9
:1049800030463760491C1029F7D3F0BD7047704797
:1049900010B5FFF723FF044611480078401C10496A
:1049A00008702046FFF71EFF00F0B9FC00F0BDFBC9
:1049B00010BD411E4FF0E0225161FF21094A1170E4
:1049C0004FF0E021096941F005014FF0E02211614B
:1049D0001146096941F00201116170474F6E0008EC
:1049E0008D00002023ED00E00146002002E0491C7C
:1049F000421CD0B20A78002AF9D170472DE9F04163
:104A000005460E4614460027FA48007820B11120CA
:104A100020700020BDE8F0812878012808D0022805
:104A200007D0032802D0042804D100E000BF00BF53
:104A300000BF03E0012020700020EBE700BFFFF77C
:104A4000CDFE0746686930603068FFF7CDFF8046CD
:104A50003846FFF7C7FE002020704046DAE72DE910
:104A6000F04105460E4614460027E248007818B18A
:104A700012202070BDE8F0812878012808D0022893
:104A800007D0032802D0042804D100E000BF00BFF3
:104A900000BF02E001202070ECE700BFFFF79EFEA0
:104AA00007466E613846FFF79DFE0020207000BF6C
:104AB000E0E7F0B5024612F8384F95785678383A64
:104AC0000B4618680FE000F10B073F5DB74300F19C
:104AD0000B0C0CF8047067463F5D17B9877AAF433B
:104AE00087721B1D18680028EDD1F0BDC249C34A6A
:104AF0001278885CC249095CBF4A515C01EBC00175
:104B0000C04A1170704710B50024FFF767FE0446D5
:104B1000B8480078F8B9BC480078E0B9FFF7E6FF7C
:104B2000BA48B849097850F82100B9490860B54831
:104B30000078B849097888420DD0B5480068C06B44
:104B4000401CB3490968C863B3480068401CB249B7
:104B50000860FFF75AFE2046FFF744FE10BD70B50F
:104B600001460024AD4D2D68EC61AC4C24682162F7
:104B70000B4618681BE0A94C246894F8385000F1E3
:104B80000B04645DA54D2D6895F839502C43A34D59
:104B90002D6895F8386000F10B05AC55847A9F4D6F
:104BA0002D6895F83A502C4384721B1D1868002814
:104BB000E1D19A4C246894F83820914CA45C974D2C
:104BC0002D6895F83950AC438D4DAC542C46A45CFF
:104BD00044B9924C246894F83A50884C2478AC43F9
:104BE000864D2C7070BD2DE9FF4F83B081460E4677
:104BF0001546DDF84080002000903060CA46DAF8A3
:104C0000004018E02078062807D2DFE800F006040C
:104C1000050307080AE009E008E000BF00BF012023
:104C200088F80000002007B0BDE8F08F00BF0AF14F
:104C3000040ADAF80040002CE4D16E48007820B174
:104C4000022088F800000020EDE76F48007820B1CE
:104C50000D2088F800000020E5E7FFF7BFFD009079
:104C60000020029083460190CA46DAF800405DE0D9
:104C70002078062849D2DFE800F048172A03494A7D
:104C8000208960B12089401E208110C60120029039
:104C9000002001C50BF101001FFA80FB03E0019821
:104CA00040F0010001903CE0606858B1606801C5C7
:104CB0000020606010C6012002900BF101001FFA75
:104CC00080FB03E0019840F00200019029E0676852
:104CD000F88AA8B13969081D3861086801C5B96842
:104CE0003869884201D178683861F88A401EF882B4
:104CF00010C6012002900BF101001FFA80FB03E0B7
:104D0000019840F0040001900BE000BF00BF009844
:104D1000FFF768FD00203060012088F80000584649
:104D200081E700BF0AF1040ADAF80040002C9FD1A5
:104D30000298012809D1002030600098FFF752FD49
:104D4000002088F8000058466DE73448006890F865
:104D50003400019941F0800108433049096881F825
:104D6000340000202D49096881F835002B49069848
:104D7000096808634846FFF7F2FE0098FFF732FD26
:104D8000FFF7C1FEFFF72AFD00902448006890F865
:104D9000350020B101281BD0022818D100E000BF47
:104DA0001E480068C4693CB110C6002030600BF199
:104DB00001001FFA80FB09E001201849096881F809
:104DC0003500494615480068FFF773FE06E000BF4E
:104DD000494612480068FFF76CFE00BF00BF0F484D
:104DE000006890F83500D8B1012842D002283FD1A0
:104DF00038E000008D00002004EE00089100002043
:104E000092000020900000208E000020904800209A
:104E1000A80000208F00002074000020A0000020C7
:104E2000207806280DD2DFE800F00C0607030D0EEF
:104E3000002001C511E000BFF7480068406A01C5C5
:104E40000BE000BF00BF0098FFF7CCFC00203060F3
:104E5000012088F800005846E5E600BF002088F8E9
:104E600000000CE0002001C50E2088F8000006E0DC
:104E700000BF002001C50A2088F8000000BF00BF65
:104E80000020E549096881F83400E349096881F8A0
:104E90003500E1490968C861DF4909680862DE49EF
:104EA000096848620098FFF79DFC5846BBE67CB550
:104EB000002514E06946284601F0D5FE064666B98D
:104EC000D64850F8254044B1012C06D0D4E902015F
:104ED00000EB8100A0640198E064681CC5B23F2D1E
:104EE000E8D97CBD002402E0142001F0C5FFCC48C5
:104EF00000780028F8D0CB4800686421B0FBF1F0BE
:104F0000C84908600846006828B90020C6490870EA
:104F1000FF2001F0EAFE00BFFFF760FC0446C34833
:104F20000068C34908600020C04908602046FFF7B8
:104F300059FCBF480068BB490968B0FBF1F0C0F1FB
:104F40006400B9490870FFF7B7FCFFF7B0FF0A200B
:104F500001F092FFE0E700B587B003200021802236
:104F6000B44BCDE90132CDE903104FF6FE703E237C
:104F7000B14A0090AFF2930001F087FC06AAAFA1FE
:104F80003E2001F0F2FD07B000BD002400BFFFF796
:104F900025FC0446A5480068401CA449086020463A
:104FA000FFF720FCFFF786FCF1E700B587B0032090
:104FB00000218022A54BCDE90132CDE903104FF647
:104FC000FF703F23A24A0090AFF2410001F05DFC68
:104FD00006AAA0A13F2001F0C8FD07B000BD04E073
:104FE000002200F8012B4A1E91B20029F8D1704727
:104FF00030B5F0219B48FFF7F2FF9A4B03F11805FB
:10500000002408E0002018705D6097A058611833F4
:105010001835601C84B2092CF4D300201870586035
:1050200091A058618F489149086030BD30B54FF468
:10503000F2618F48FFF7D3FF4FF480717748FFF795
:10504000CEFF8B4B03F15805002406E05D6186A07E
:10505000186558335835601CC4B2152CF6D300209F
:10506000586181A018650020824908608048824903
:10507000086030BD0022814B1A708149002004E095
:10508000002201F8012B421CD0B20828F8D30022DC
:105090007C4B1A707C4B1A707C4B1A605E4B1A600A
:1050A000704700207A4908607A4908707A49087088
:1050B0007A4908707A4908707A4908605B49086043
:1050C0005B4908605749086055490870704710B53A
:1050D000FFF7E6FBFFF7E5FFFFF7CCFFFFF7A6FFC3
:1050E000FFF786FF00F0B2FE00F099FF01F095FA9D
:1050F000FFF75BFFFFF72FFFFFF7D6FB10BD10B5E3
:105100000024FFF76BFB044665480078012808D1AE
:1051100060480078FF2804D25E480078401C5D4952
:1051200008702046FFF75EFB10BD10B500245C48F8
:105130000078012830D1FFF751FB0446554800782C
:1051400020B154480078401E5249087051480078F8
:10515000F8B951480078E0B9FFF7C8FC2F484A4930
:10516000097850F8210049490860474800784549C6
:10517000097888420DD045480068C06B401C4349FF
:105180000968C86347480068401C46490860FFF743
:1051900041FB2046FFF726FB10BD10B50024404818
:1051A0000078012811D1FFF719FB0446394800782F
:1051B00040B939480078FF2804D237480078401CAD
:1051C000354908702046FFF70DFB10BD10B50024CF
:1051D0003348007801286AD1FFF700FB04462E48C7
:1051E0000078C0B12C480078401E2B490870084652
:1051F000007860B92748007828B92046FFF7F2FA0E
:10520000FFF781FC53E02046FFF7ECFA4FE0204621
:10521000FFF7E8FA4BE047E0A000002090480020AC
:105220008C00002084000020800000209C000020D2
:1052300088000020904400208C46002075432F4FAA
:10524000532D49492053746174000000904600209A
:105250008C48002075432F4F532D49492049646CD9
:1052600065000000504300203F000000780000204F
:1052700090490020AC000020A400002091000020F4
:10528000920000208F00002090000020A800002045
:10529000BC0000208D0000208E0000209B0000201C
:1052A0009A000020740000202046FFF79BFA10BDF2
:1052B00010B5E948007890B9FFF718FCE748007886
:1052C000E7490870E748E549097850F82100E649C0
:1052D000086008460068E5490860FFF786FA10BDD7
:1052E00010B50024022001F0C7FDFFF777FA04464D
:1052F0000020DF4908602046FFF774FA0A2001F019
:10530000BBFDFFF76BFA0446D9480068D94908602D
:105310000120D94908702046FFF764FA10BD70B526
:105320000026FFF75BFA0646D4480068401CD349C4
:1053300008603046FFF756FAC7480078012853D175
:10534000CF48007820B1012804D0022809D103E019
:1053500001250BE0002509E001250120C84908705E
:1053600004E001250020C649087000BF00BF05B950
:1053700070BDC448046833E0FFF730FA0646206B7E
:1053800050B3206B401E2063206B28BB94F8340080
:1053900000F0370040B114F8340F20F037002070CF
:1053A00001206070343C02E0002084F8350094F85D
:1053B000340000F0080078B93834A078B249097890
:1053C0000843B14908702078B049085C6178084307
:1053D00014F83819AD4A505464693046FFF702FAA0
:1053E00094F836003F28C7D100BFC1E740F2211032
:1053F0007047704710B590F8382001F10B039B5CA3
:1054000090F83940A34301F10B04A35423469B5C5D
:1054100023B98B7A90F83A40A3438B7210BD2DE9E3
:10542000F04F05460F4690469946A87A98490E5C7B
:1054300005F10B00805D11F800B00BEBC60000F029
:10544000FF0A884850F82A4000202434E060276092
:10545000207C20EA0800207484F81190207C243CF1
:1054600000F0080068B994F83A00874909780843C1
:10547000854908708548805D94F839100843834950
:10548000885529462046FFF7B5FF206A20B12046FF
:10549000216AFFF70EFBE5615046BDE8F08F10B5BD
:1054A000724A1268D061714A126892F8383000F17D
:1054B0000B02D25C6D4B1B6893F839301A436B4B6F
:1054C0001B6893F8384000F10B031A55827A674B3A
:1054D0001B6893F83A301A438272644A126892F851
:1054E00038106A4A525C614B1B6893F839309A4312
:1054F000664B5A541A46525C42B95C4A126892F89A
:105500003A30614A12789A435F4B1A7010BD0023FB
:10551000837200F10B01002204E0002301F8013B3B
:10552000531CDAB2082AF8D3704705E011F8013BA2
:1055300000F8013B531E9AB2002AF7D170472DE9BB
:10554000F84F05460F4690469946DDE90AAB002024
:105550000090FFF743F900904E480468002C76D085
:105560001C3454F8080C4B4908600098FFF73AF9CE
:1055700044F81C7CA576002020766076606144F8B3
:1055800018BC44F810AC44F8148C0C9824F80C0C9B
:1055900024F80A9C0020E077E810207705F0070047
:1055A000E076217F01208840A077E17E01208840BD
:1055B0006077002020606060E060A0602062A062F0
:1055C0006062E0622063AFF2603060631C3C0026E2
:1055D00006E0002104F1540040F82610701CC6B209
:1055E000002EF6D02046FFF7D2F92046FFF760F9EB
:1055F000FFF7F4F800901B4840F825402148006868
:1056000060610020A0611F48006810B11D4800685B
:1056100084611C4804603834A0781B490978084329
:105620001949087020781949085C6178084314F812
:105630003819164A505418480078401C164908700A
:105640000098FFF7CFF80020BDE8F88FFFE700983B
:10565000FFF7C8F84220F7E79A00002090000020EA
:105660008F00002090480020A8000020A00000200B
:105670009C000020840000208C000020BC00002042
:10568000B0000020AC00002091000020920000201B
:1056900004EE0008A40000209B0000202DE9F05F2C
:1056A00004460F4691461E464FF0000B2078052811
:1056B00004D0012030700020BDE8F09F09F0800A7E
:1056C000BAF1000F04D029F080094FF0010801E081
:1056D0004FF0000800203070FFF780F88346B9F1E2
:1056E000000F2CD0B9F1010F3BD0B9F1020F03D05C
:1056F000B9F1030F46D111E0208900EA0705BD4248
:1057000006D1B8F1010F05D12089A843208101E01D
:10571000702030705846FFF765F83AE0208900EABB
:10572000070535B1B8F1010F05D12089A8432081C3
:1057300001E0702030705846FFF754F829E02089C6
:1057400027EA0005BD4206D1B8F1010F05D1208935
:105750002843208101E0702030705846FFF742F85E
:1057600017E0208927EA000535B1B8F1010F05D10E
:1057700020892843208101E0702030705846FFF7CF
:1057800031F806E05846FFF72DF800256F203070FD
:1057900000BF00BF28468FE72DE9F04106460D46C1
:1057A0000027FA48007820B1102028700020BDE8BA
:1057B000F081FFF713F80746F548046884B10068E4
:1057C0004068F34908600520207026810020606051
:1057D000F0A0E0603846FFF705F80020287004E0EC
:1057E0003846FEF7FFFF722028702046DFE730B50D
:1057F00001464A6808682AB9CC68606028B100256B
:10580000456002E0106000B142608B6800259D6237
:1058100030BDF0B506460F46B46800202C346060F9
:105820002780207A20F02000207200206072207AE9
:105830002C3C88B93834A078D74909780843D64930
:1058400008702078D549085C6178084314F8381945
:10585000D24A5054012500E000253046FFF7C7FF2B
:105860002846F0BD2DE9F0470446894615464FF01D
:10587000000AC648007820B10F2028702046BDE8F5
:10588000F0872078052803D0012028702046F6E70D
:10589000FEF7A4FF8246606808B1012700E00027F8
:1058A000B9F1000F03D0B9F1010F3CD119E08FB964
:1058B000B8A0E06000202070B5480068606000205B
:1058C0002081B34804605046FEF78CFF002028700A
:1058D000002605E05046FEF785FF49202870264641
:1058E00028E0D4F8048005E000214046FFF791FF4E
:1058F000D8F80080B8F1000FF6D1A6A0E060002033
:105900002070A3480068606000202081A0480460E7
:105910005046FEF767FF012F01D1FFF7F4F8002092
:105920002870002606E05046FEF75CFF072028702E
:10593000264600BF00BF3046A1E72DE9F0410546ED
:105940000E46144600279148007820B1112020709F
:105950000020BDE8F081FEF741FF074628780528C2
:1059600006D03846FEF73EFF012020700020F0E709
:10597000E86830603068FFF737F880463846FEF751
:1059800031FF002020704046E3E72DE9F041054655
:105990000E46144600277D48007818B1122020706A
:1059A000BDE8F081FEF71AFF07462878052805D0E4
:1059B0003846FEF717FF01202070F1E7EE60384609
:1059C000FEF710FF0020207000BFE9E7F0B5144695
:1059D000059E734F3F6897F8347047F02007DFF853
:1059E000C0C1DCF800C08CF834700027DFF8B0C10B
:1059F000DCF800C08CF83570694F3F683E63684F33
:105A00003F68B9620C828B74654F3F688F6047684E
:105A10000F6000274F60C860456805B1696041604C
:105A20005F4F3F6897F838205C4FBF5CDFF870C16C
:105A3000DCF800C09CF839C027EA0C07DFF85CC12D
:105A40000CF802706746BF5C5FB9554F3F6897F826
:105A50003AC0514F3F7827EA0C07DFF83CC18CF879
:105A60000070F0BD2DE9F04F89B005460F46914614
:105A70009A46129E002002904448007828B10220E5
:105A80003070002009B0BDE8F08F4648007818B1AA
:105A90000D2030700020F5E72878052803D001207C
:105AA00030700020EEE709F0800BBBF1000F04D04E
:105AB00029F080094FF0010801E04FF00008FEF7DF
:105AC0008DFE0290B9F1000F4AD0B9F1010F78D0E4
:105AD000B9F1020F03D0B9F1030F71D120E0288989
