:020000040800F2
:1000000060F60020314F0008FD2F0008FF2F000888
:1000100003300008073000080B3000080000000023
:100020000000000000000000000000000F30000889
:100030001130000800000000A75100081953000803
:100040004B4F00084B4F00084B4F00084B4F000828
:100050004B4F00084B4F00084B4F00084B4F000818
:100060004B4F00084B4F00084B4F00084B4F000808
:100070004B4F00084B4F00084B4F00084B4F0008F8
:100080004B4F00084B4F00084B4F00084B4F0008E8
:100090004B4F00084B4F00084B4F00084B4F0008D8
:1000A0004B4F00084B4F00084B4F00084B4F0008C8
:1000B0004B4F00084B4F00084B4F00084B4F0008B8
:1000C0004B4F00084B4F00084B4F00084B4F0008A8
:1000D0004B4F0008BB33000881340008B3340008DC
:1000E000153000084B4F00084B4F00084B4F0008DD
:1000F0004B4F00084B4F00084B4F00084B4F000878
:100100004B4F00084B4F00084B4F00084B4F000867
:100110004B4F00084B4F00084B4F00084B4F000857
:100120004B4F00084B4F00084B4F00084B4F000847
:100130004B4F0008173000084B4F00084B4F00088A
:100140004B4F00084B4F00084B4F00084B4F000827
:100150004B4F00084B4F00084B4F00084B4F000817
:100160004B4F00084B4F00084B4F00084B4F000807
:100170004B4F00084B4F00084B4F00084B4F0008F7
:100180004B4F00084B4F0008DFF80CD00EF08EFFED
:1001900000480047A302000860F6002040BA7047FC
:1001A000C0BA704730BF72B6704762B6704780F30E
:1001B00008887047594800686422B0FBF2F0411E7D
:1001C000B1F1807F00D31DE021F07F40401E4FF051
:1001D000E022506150170F22002807DA13071D0E86
:1001E0004F4B00F00F04241F1D5503E013071C0E96
:1001F0004C4B1C5400BF00204FF0E02290610720C0
:10020000106100BF00BF48480068012805DB47A215
:1002100049A14CA00EF0A6FF04E044A246A155A0BF
:100220000EF0A0FF00BF09235E4A00215E4806F0E1
:1002300099FF00BF3C480068012803DB5BA00EF07B
:1002400091FF02E061A00EF08DFF00BF0A23674A14
:100250000021674806F086FF00BF33480068012888
:1002600003DB64A00EF07EFF02E06CA00EF07AFFCC
:1002700000BF0B23724A0021724806F073FF40F65C
:10028000C411042003F006FD0AE0002301221946F0
:10029000184607F0E3FA4FF400716B4804F0D7F802
:1002A000F3E700B589B0082201A9684803F094FA81
:1002B0000898012802D1664802F0FAFA02F02AFBF7
:1002C000089860B900BF18480068012803DB61A0E6
:1002D0000EF048FF02E066A00EF044FF0CE000BF05
:1002E00011480068012803DB68A00EF03BFF02E024
:1002F0006DA00EF037FF00BF05F0ADFB3B23714A48
:100300000021AFF24F1006F02DFF002007F02CFB6C
:1003100005F092FC002009B000BD00006400002040
:1003200018ED00E000E400E0000000204A616E20CB
:10033000313520323031390031363A34373A3330C2
:10034000000000005B494E464F5D09205472616613
:100350006669634C696768742076312E302E3020D0
:100360006275696C642074696D653A257320257324
:100370000D0A00005B494E464F5D09547261666686
:1003800069634C696768742076312E302E302062A4
:1003900075696C642074696D653A25732025730D49
:1003A0000A0000008C410020770500085B494E469A
:1003B0004F5D09206E6574776F726B207461736B8B
:1003C0002073746172742E2E2E0D0A005B494E4606
:1003D0004F5D096E6574776F726B207461736B206B
:1003E00073746172742E2E2E0D0A0000AC12002060
:1003F000C90400085B494E464F5D0920547261668E
:100400006669634C69676874207461736B207374E8
:100410006172742E2E2E0D0A000000005B494E46BC
:100420004F5D09547261666669634C696768742040
:100430007461736B2073746172742E2E2E0D0A001A
:100440002C5100209D060008001002400000070803
:10045000000004085B494E464F5D09205452414656
:100460004649434C494748545F4941500D0A0000F2
:100470005B494E464F5D09545241464649434C49FB
:100480004748545F4941500D0A0000005B494E4601
:100490004F5D0920545241464649434C4947485410
:1004A0005F4150500D0A00005B494E464F5D0954B4
:1004B0005241464649434C494748545F4150500DCC
:1004C0000A0000000C030020002400230522194626
:1004D000184607F0C3F900F047FC14E0601C84B232
:1004E00043F69820844202DD002401F04EF91423E3
:1004F00000221146104607F0B1F900F0F3F900F0C0
:1005000056FD01F0C5F9E9E708B5684603F0D7F9EB
:1005100020B99DF800106BA00EF024FE0A230022E3
:100520001146104607F09AF908BD10B500241DE0E9
:1005300004EBC401644A02EB4100214601F002FAD7
:1005400062480078401EA0420ED16048007800EB5F
:10055000C00042005C495E480EF046FD5D480078F0
:1005600040F080005B490870601CC4B257480078B6
:100570008442DDDB10BD08B500240025002000907A
:1005800002F0E8FA02F01CFB892002F09CFE84E0F5
:1005900003F044FB044600BF4F480068012804DB19
:1005A00021464EA00EF0DEFD03E0214653A00EF0E2
:1005B000D9FD00BF4CE000980A300090009802F08E
:1005C00054FC0A2300221146104607F047F903F0B5
:1005D00077FB4048007800F04000002818D04E48D3
:1005E000007808B1FFF7A1FF00BF3B480068012871
:1005F00003DB4AA00EF0B6FD02E053A00EF0B2FD00
:1006000000BF00253348007820F0400031490870D1
:100610003048007800F02000D0B128466D1C44F22C
:100620005061884214D9012080F3138800BF00BFB5
:10063000BFF34F8F4F48006800F4E0604E49084315
:10064000001D4C490860BFF34F8F00BF00BFFEE79D
:10065000002CB0D000BF20480068012803DB47A071
:100660000EF080FD02E04BA00EF07CFD00BF0021EB
:100670004D48006803F011FA00214C48006803F06F
:100680000CFA03F030FAA021474800680EF0C5FCD0
:10069000A021464800680EF0C0FC79E711E0322343
:1006A00000221146104607F0D9F84FF4FA6140488D
:1006B00001F0ABFE64213F4801F0A7FE00203E4957
:1006C0000860ECE72578000030510020040000208D
:1006D000A26B002048000020000000205B494E462D
:1006E0004F5D0920746370207365727665722069AE
:1006F0006E69742025640D0A000000005B494E46B7
:100700004F5D097463702073657276657220696E3F
:1007100069742025640D0A00050000205B494E46DF
:100720004F5D09202D2D2D2D2D2D2D2D2D2D2D2DD8
:100730002D2D2D2D2D2D2D2D2D2D2D2D2D2D2D2DE9
:100740002D2D2D0D0A0000005B494E464F5D092DF1
:100750002D2D2D2D2D2D2D2D2D2D2D2D2D2D2D2DC9
:100760002D2D2D2D2D2D2D2D2D2D2D2D2D2D0D0AFC
:10077000000000000CED00E00000FA055B494E4669
:100780004F5D092074637020636C6F7365200D0AE0
:10079000000000005B494E464F5D097463702063A2
:1007A0006C6F7365200D0A004C0000205000002083
:1007B000D2630020C85C0020200000202DE9F04119
:1007C000002602F032FF20F07F4600BFF9480068A3
:1007D000012804DB3146F8A00EF0C4FC03E03146EA
:1007E000FAA00EF0BFFC00BF00242EE004EB440092
:1007F000C5B222E00120A84000EA0607DFB9F848A8
:100800000078401CF6490870032094FBF0F0C1B258
:10081000F3480078401EF34A02F81010032094FBBE
:10082000F0F100FB1140C1B2ED480078401E02EB30
:100830004000417006E0681CC5B204EB4400C01CD7
:10084000A842D7DC00BF601CC4B2062CCEDB02F08D
:1008500013FF20F07F4600BFD6480068012804DB64
:100860003146E1A00EF07EFC03E03146E3A00EF03D
:1008700079FC00BF00242FE004EB4400C5B223E064
:100880000120A84000EA0607E7B9D5480078401CD7
:10089000D3490870032094FBF0F0801CC1B2D0480B
:1008A0000078401ECF4A02F81010032094FBF0F1AC
:1008B00000FB1140C1B2CA480078401E02EB400064
:1008C000417006E0681CC5B204EB4400C01CA8429D
:1008D000D6DC00BF601CC4B2062CCDDBC04800785B
:1008E000BDE8F0812DE9FF5F0027B946B846BB4659
:1008F0000020039000BF30E2BA4810F8170000EB68
:100900004000B84901EB47014978084400F0FF0A6C
:10091000B44810F8174000EB47004578BAF1060FCD
:1009200006DA02F082FE20F07F480AEB4A0B07E06D
:1009300002F0A2FE20F07F48AAF1060000EB400B77
:100940004FF000090BF0FF062CE10120B04000EA57
:1009500008000390039818B909F1010000F0FF099D
:10096000B9F1010F7EDD00BF92480068012808DB65
:100970004B465C22A6A1ACA08DE830010EF0F2FB44
:1009800007E02B4622464946B6A0CDF800800EF07F
:10099000E9FB00BFC4EBC40000EB4410BE4901EB0F
:1009A000800005EB850101EBC50100EB8100407D76
:1009B000401CC4EBC40101EB4411B74A02EB8101B6
:1009C00005EB850202EBC50201EB82014875C4EB21
:1009D000C40000EB4410B04901EB800005EB850139
:1009E00001EBC50100EB8100007D01280ED1002044
:1009F000C4EBC40101EB4411A74A02EB810105EBF2
:100A0000850202EBC50201EB820148750220C4EBAE
:100A1000C40101EB4411A04A02EB810105EB850200
:100A200002EBC50201EB82010875C4EBC40000EBC8
:100A30004410994901EB800005EB850101EBC501EC
:100A400000EB8100407D02287ED100BF594800683C
:100A5000012817DBC4EBC40000EB44108E4901EB06
:100A6000800000E08DE005EB850101EBC50100EBA6
:100A700081008DE83001437D632265A187480EF037
:100A800071FB14E0C4EBC40000EB4410824A02EB9B
:100A9000800005EB850202EBC50200EB8200CDF879
:100AA0000080417D2B4622467DA00EF05BFB00BFFF
:100AB0000020C4EBC40101EB4411774A02EB810131
:100AC00005EB850202EBC50201EB820108730021F0
:100AD000C4EBC40000EB44106F4A02EB800005EB4E
:100AE000850202EBC50200EB82004173C4EBC40037
:100AF00000EB4410684A02EB800005EB850202EB34
:100B0000C50200EB820081730120C4EBC40101EB3C
:100B10004411614A02EB810105EB850202EBC5023B
:100B200001EB82014871C4EBC40000EB44105A4948
:100B300001EB800005EB850101EBC50100EB8100B5
:100B40004078C4EBC40100E019E001EB4411524AC3
:100B500002EB810105EB850202EBC50201F82200E0
:100B60000020C4EBC40101EB44114B4A02EB8101AC
:100B700005EB850202EBC50201EB82018861BDE84D
:100B8000FF9F0120C4EBC40101EB4411424A02EB78
:100B9000810105EB850202EBC50201EB82010875BC
:100BA000701CC6B20BF103008642FFF4CEAE0BF010
:100BB000FF06CCE0000000205B494E464F5D092057
:100BC000726574312025780D0A0000005B494E469D
:100BD0004F5D09726574312025780D0A0000000010
:100BE00004000020785400205B494E464F5D0920E8
:100BF000726574322025780D0A0000005B494E466C
:100C00004F5D09726574322025780D0A00000000DE
:100C10002E2E5C4170705C747261666669636C69EB
:100C20006768742E630000005B5741524E5D0925D2
:100C3000733A256420726564206C69676874207358
:100C40007461747573206572726F723A25642064E2
:100C5000697220256420746F2025642025780D0A90
:100C6000000000005B5741524E5D09726564206CC4
:100C70006967687420737461747573206572726F2C
:100C8000723A25642064697220256420746F2025DF
:100C9000642025780D0A00000852002064F700083F
:100CA0005B4552525D09747261666669636C69677F
:100CB000687420737461747573206572726F722C1E
:100CC000206E65656420696E69743A2564206469E4
:100CD0007220256420746F2025642025780D0A0079
:100CE0000120B04000EA08000390039868BBC4EB01
:100CF000C40000EB4410E64901EB800005EB8501E0
:100D000001EBC50100EB81004078C4EBC40101EBAD
:100D10004411DF4A02EB810105EB850202EBC502BB
:100D200001F82200032096FBF0F100FB1160C4EBF8
:100D3000C40101EB4411D64A02EB810105EB8502A7
:100D400002EBC50201EB82014870701CC6B20BF1C8
:100D500003008642C4D3781CC7B2CE4800788742CD
:100D6000FFF6CAAD00BF0AE72DE9F8434FF00108CE
:100D70004FF000094FF41C71C5480EF04EF90026E3
:100D800016E0002710E00320C6EBC60101EB461178
:100D9000BF4A02EB810107EB870202EBC70201EBBE
:100DA00082014870781CC7B2032FECDB701CC6B2FE
:100DB000042EE6DB0EE0FFF701FD80460020B5497A
:100DC0000870642300221146104606F047FDFFF725
:100DD000F5FC8146C845EED100BFAF480068012848
:100DE00003DBAEA00EF0BEF902E0B1A00EF0BAF93E
:100DF00000BF00BFA8480068012803DBB0A00EF0C8
:100E0000B1F902E0B8A00EF0ADF900BF00BFA248F2
:100E10000068012803DBBDA00EF0A4F902E0C3A026
:100E20000EF0A0F900BF00BF9B480068012805DB59
:100E300098480178C5A00EF095F904E0954801782E
:100E4000CBA00EF08FF900BFFFF74CFD00269AE013
:100E5000D04810F8164000EB460045780120C4EB5E
:100E6000C40101EB44118A4A02EB810105EB8502C2
:100E700002EBC50201EB82014871C4EBC40101EB36
:100E80004411834A02EB810105EB850202EBC502A6
:100E900001EB82018871C4EBC40000EB44107C4973
:100EA00001EB800005EB850101EBC50100EB810042
:100EB0004078C4EBC40101EB4411754A02EB810197
:100EC00005EB850202EBC50201F82200FF20C4EB0E
:100ED000C40101EB44116E4A02EB810105EB85026E
:100EE00002EBC50201EB820181F8300000BF6A48C5
:100EF0000068012822DBC4EBC40000EB4410644905
:100F000001EB800005EB850101EBC50100EB8100E1
:100F100040790090C4EBC40000EB44105C4901EB45
:100F2000800005EB850101EBC50100EB81004378F2
:100F30002A46214698A00EF015F921E0C4EBC40022
:100F400000EB4410524901EB800005EB850101EBF9
:100F5000C50100EB810040790090C4EBC40000EBB8
:100F600044104B4901EB800005EB850101EBC50105
:100F700000EB810043782A46214690A00EF0F2F85B
:100F800000BF701CC6B2434800788642FFF660AFCF
:100F900000BF41480068012803DB91A00EF0E2F891
:100FA00002E098A00EF0DEF800BFBDE8F883F8B5C7
:100FB0000026E4E3774810F8164000EB4600457839
:100FC000C4EBC40000EB4410314901EB800005EB99
:100FD000850101EBC50100EB81004079012854D166
:100FE000C4EBC40000EB4410294901EB800005EB81
:100FF000850101EBC50100EB81008068401CC4EB5A
:10100000C40101EB4411224A02EB810105EB850288
:1010100002EBC50201EB82018860C4EBC40000EB67
:1010200044101B4901EB800005EB850101EBC50174
:1010300000EB8100806843F69821884226D9002081
:10104000C4EBC40101EB4411114A02EB810105EB31
:10105000850202EBC50201EB820148710320C4EB5B
:10106000C40101EB44110A4A02EB810105EB850240
:1010700002EBC50201EB8201087500BF064800685B
:10108000012804DB2A462146CEE073E1D6E0CFE01A
:101090000852002004000020000000205B494E465A
:1010A0004F5D092054697073A3BA0D0A0000000057
:1010B0005B494E464F5D0954697073A3BA0D0A002F
:1010C0005B494E464F5D09206561737420777365F7
:1010D0007420736F757468206E6F7274683A303163
:1010E00032330D0A000000005B494E464F5D096532
:1010F000617374207773657420736F757468206EE4
:101100006F7274683A303132330D0A005B494E46D3
:101110004F5D09206C65667420666F6E742072697D
:10112000676874A3BA3031320D0A00005B494E463D
:101130004F5D096C65667420666F6E742072696716
:101140006874A3BA3031320D0A0000005B494E4684
:101150004F5D0920747261666669636C69676874C3
:10116000206F6E6C696E653A2025640D0A000000E0
:101170005B494E464F5D09747261666669636C69CE
:10118000676874206F6E6C696E653A2025640D0A7D
:1011900000000000785400205B494E464F5D092056
:1011A00064697220256420746F202564206C69674F
:1011B00068742025642025640D0A00005B494E46B2
:1011C0004F5D0964697220256420746F20256420B6
:1011D0006C696768742025642025640D0A0000008E
:1011E0005B494E464F5D0920747261666669636CA7
:1011F0006967687420696E697420737563636573C9
:10120000730D0A005B494E464F5D09747261666654
:1012100069636C6967687420696E697420737563AB
:10122000636573730D0A0000E4A00DF09BFF04E0FA
:101230002A462146F0A00DF095FF00BFC4EBC40084
:1012400000EB4410FB4901EB800005EB850101EB4D
:10125000C50110F82100C4EBC40101EB4411F54AAB
:1012600002EB810105EB850202EBC50201EB820175
:10127000497888427ED006F06BFBC4EBC40101EBD9
:101280004411EC4A02EB810105EB850202EBC50239
:1012900001EB82018862C4EBC40000EB4410E54915
:1012A00001EB800005EB850101EBC50100EB81003E
:1012B000406A00287DD0C4EBC40000EB4410DD4937
:1012C00001EB800005EB850101EBC50100EB81001E
:1012D000806AC4EBC40101EB4411D64A02EB8101E0
:1012E00005EB850202EBC50201EB8201496A401A57
:1012F00032306421B0FBF1F0C1B2C4EBC40000EBAA
:101300004410CC4A02EB800005EB850202EBC502DB
:1013100000EB82001030C4EBC40202EB4412C54B58
:1013200003EB820205EB850303EBC50312F82320D0
:101330008154C4EBC40000EB4410BE4901EB8000B3
:1013400005EB850101EBC50100EB81001030C4EB1A
:10135000C40101EB4411B74A02EB810105EB8502A0
:1013600002EBC50211F82210415CC4EBC40000EB93
:10137000441000E01FE1AF4A02EB800005EB85025C
:1013800002EBC50200EB82000C30C4EBC40202EB9E
:101390004412A84B03EB820205EB850303EBC50364
:1013A00012F823208154C4EBC40000EB4410A1497F
:1013B00000E070E001EB800005EB850101EBC50169
:1013C00000EB8100806AC4EBC40101EB4411994A2F
:1013D00002EB810105EB850202EBC50201EB820104
:1013E000496A401AC4EBC40101EB4411914A02EB73
:1013F000810105EB850202EBC50201EB8201086267
:1014000000BF8D480068012822DBC4EBC40000EB5C
:101410004410884901EB800005EB850101EBC50113
:1014200000EB8100C06A0090C4EBC40000EB4410E4
:10143000804901EB800005EB850101EBC50100EB64
:10144000810043782A4621467CA00DF08BFE21E0E6
:10145000C4EBC40000EB4410764901EB800005EBBF
:10146000850101EBC50100EB8100C06A0090C4EB6F
:10147000C40000EB44106F4901EB800005EB8501CF
:1014800001EBC50100EB810043782A46214677A095
:101490000DF068FE00BF06F05BFAC4EBC40101EB7F
:1014A0004411644A02EB810105EB850202EBC5029F
:1014B00001EB82014862C4EBC40000EB44105D49BB
:1014C00001EB800005EB850101EBC50100EB81001C
:1014D000007C00286FD0C4EBC40000EB44105549D9
:1014E00001EB800005EB850101EBC50100EB8100FC
:1014F000407C0028EED0C4EBC40000EB44104D4902
:1015000001EB800005EB850101EBC50100EB8100DB
:10151000807C0028DED000BF47480068012805DB3A
:101520002A4621465DA00DF01DFE04E02A46214614
:1015300062A00DF017FE00BF0021C4EBC40000EB59
:1015400044103C4A02EB800005EB850202EBC50229
:1015500000EB8200817100BF3748006801282BDB57
:10156000C4EBC40000EB4410324F07EB800005EBE6
:10157000850707EBC50700EB8700837BC4EBC4003E
:1015800000EB44102B4F07EB800005EB850707EBC2
:10159000C50700EB8700427BC4EBC40000EB44109E
:1015A000244F07EB800005EB850707EBC50700EB31
:1015B0008700017B92E0E0E094E000005B494E464A
:1015C0004F5D0920D1A7CFB0CAB1BCE4B3ACB9FD1F
:1015D00035B7D6D6D3A3ACCDA3D6B9D1A7CFB0A3B8
:1015E000AC64697220256420746F20256420CEAA23
:1015F000B3A3C1C10D0A00005B494E464F5D09D13E
:10160000A7CFB0CAB1BCE4B3ACB9FD35B7D6D6D319
:10161000A3ACCDA3D6B9D1A7CFB0A3AC64697220D7
:10162000256420746F20256420CEAAB3A3C1C10D08
:101630000A00000008520020000000205B494E46CE
:101640004F5D092064697220256420746F20256431
:101650002C206C6967687420256420746F74616C39
:101660005F7469636B732025640D0A005B494E4605
:101670004F5D0964697220256420746F2025642CF5
:10168000206C6967687420256420746F74616C5FD6
:101690007469636B732025640D0A00005B494E4634
:1016A0004F5D092064697220256420746F202564D1
:1016B000D1A7CFB0CDEAB3C90D0A00005B494E46B1
:1016C0004F5D0964697220256420746F202564D100
:1016D000A7CFB0CDEAB3C90D0A000000F6A00DF007
:1016E00041FD2CE0C4EBC40000EB4410FE4F07EBBF
:1016F000800005EB850707EBC50700EB8700837BC0
:10170000C4EBC40000EB4410F74F07EB800005EB7F
:10171000850707EBC50700EB8700427BC4EBC400DD
:1017200000EB4410F04F07EB800005EB850707EB5B
:10173000C50700EB8700017BECA00DF013FD00BF97
:101740000020C4EBC40101EB4411E74A02EB810124
:1017500005EB850202EBC50201EB82014871C4EB87
:10176000C40101EB4411E04A02EB810105EB850263
:1017700002EBC50201EB82010875701CC6B2E74896
:1017800000788642FFF616ACF8BD30B500227AE04C
:10179000E34B13F8120003EB420359780123C0EB2B
:1017A000C00404EB4014D04D05EB840401EB81052B
:1017B00005EBC10504EB850463710023C0EBC00495
:1017C00004EB4014C84D05EB840401EB810505EBE7
:1017D000C10504EB85046362C0EBC00404EB401454
:1017E000C14D05EB840401EB810505EBC10504EB5C
:1017F0008504E362C0EBC00404EB4014BA4D05EB72
:10180000840401EB810505EBC10504EB8504A362AB
:10181000C0EBC00404EB4014B34D05EB840401EBB2
:10182000810505EBC10504EB85042375C0EBC004FD
:1018300004EB4014AC4D05EB840401EB810505EB92
:10184000C10504EB850423740024C0EBC00303EB43
:101850004013A54D05EB830301EB810505EBC105A5
:1018600003EB85035C74C0EBC00303EB40139E4D98
:1018700005EB830301EB810505EBC10503EB850354
:101880009C74531CDAB2A54B1B789A4280DB30BDA6
:1018900070B5002643E0A24810F8164000EB460061
:1018A0004578C4EBC40000EB44108F4901EB800085
:1018B00005EB850101EBC50100EB8100807960BB80
:1018C000C4EBC40000EB4410874901EB800005EB3A
:1018D000850101EBC50110F82100C4EBC40101EB47
:1018E0004411814A02EB810105EB850202EBC5023E
:1018F00001EB8201497888420FD006F029F8C4EB49
:10190000C40101EB4411784A02EB810105EB850229
:1019100002EBC50201EB82018861701CC6B27F48F0
:1019200000788642B7DB70BD10B502460B4600203A
:10193000002104E0545C0444E0B24C1CA1B2994282
:10194000F8DB10BD2DE9F04704460F4600BF744890
:1019500010F8175000EB47004678A571E671C5EB0B
:10196000C50000EB4510604901EB800006EB8601E5
:1019700001EBC60100EB81004078207205F0E8FF22
:10198000C5EBC50101EB4511574A02EB810106EB9E
:10199000860202EBC60201EB82018969A0EB010815
:1019A0006420B8FBF0F000F0FF09C5EBC50000EBC8
:1019B00045104D4901EB800006EB860101EBC601A5
:1019C00000EB81004078C5EBC50101EB4511464AAB
:1019D00002EB810106EB860202EBC60201EB8201FB
:1019E00081F83200C5EBC50000EB45103E4901EB24
:1019F000800006EB860101EBC60100EB810080F858
:101A000030906420B8FBF0F1C5EBC50000EB451049
:101A1000354A02EB800006EB860202EBC60200EBC1
:101A200082000C30227A805C401A401E6072617A1B
:101A3000C5EBC50000EB45102B4A02EB800006EB1E
:101A4000860202EBC60200EB8200801C227A8154DF
:101A5000607AFF2802D10320BDE8F087607AC0B920
:101A6000207A401C2072207A022801DD002020729A
:101A7000C5EBC50000EB45101B4901EB800006EBF0
:101A8000860101EBC60100EB81000C30217A405C3D
:101A90006072207A23490870607A2349087005F043
:101AA00057FF22490860C5EBC50000EB45100E4901
:101AB00001EB80003CE000005B494E464F5D092091
:101AC000D1A7CFB0D6DCC6DACEAAA3BA726564209D
:101AD000256420677265656E2025642079656C6CCD
:101AE0006F772025640D0A00085200205B494E469E
:101AF0004F5D09D1A7CFB0D6DCC6DACEAAA3BA72A1
:101B0000656420256420677265656E2025642079F0
:101B1000656C6C6F772025640D0A000004000020BE
:101B20007854002006000020070000200800002054
:101B300006EB860101EBC60100EB8100007D032866
:101B400001D1FF206072207A002816D15220207225
:101B50004720A07200BF67480068012806DB637A4F
:101B60003246294664A00DF0FDFA05E0637A32465C
:101B700029466DA00DF0F6FA30E0207A012816D142
:101B8000472020725920A07200BF5A4800680128DF
:101B900006DB637A324629466EA00DF0E3FA05E0D3
:101BA000637A3246294677A00DF0DCFA16E0592018
:101BB00020725220A07200BF4E480068012806DB48
:101BC000637A324629467AA00DF0CCFA05E0637AB2
:101BD0003246294682A00DF0C5FA00BFE079401CCC
:101BE000E071A52020705A2060708320A070A02092
:101BF000E07000202071122060715A202074A5200E
:101C00006074C5EBC50000EB4510804901EB800016
:101C100006EB860101EBC60100EB8100807901280B
:101C20000FD0C5EBC50000EB4510784901EB8000F3
:101C300006EB860101EBC60100EB8100007D032865
:101C400002D1FF2060722CE0C5EBC50000EB45100F
:101C50006E4901EB800006EB860101EBC60100EB4B
:101C60008100007B2073C5EBC50000EB4510674980
:101C700001EB800006EB860101EBC60100EB810061
:101C8000407B6073C5EBC50000EB45105F4901EB7D
:101C9000800006EB860101EBC60100EB8100807B32
:101CA000A0730F212046FFF73FFEE073122120466C
:101CB00001F017FBC5EBC50000EB4510534901EBE4
:101CC000800006EB860101EBC60100EB810090F875
:101CD0003200C5EBC50101EB45114C4A02EB810115
:101CE00006EB860202EBC60201EB820181F83100AD
:101CF0000120B1E6000000205B494E464F5D0920FF
:101D0000747261666669636C69676874A3BA6469B2
:101D10007220256420746F2025643A5220253032C9
:101D200064730D0A000000005B494E464F5D097464
:101D30007261666669636C69676874A3BA64697284
:101D400020256420746F2025643A522025303264A7
:101D5000730D0A005B494E464F5D0920747261663F
:101D60006669636C69676874A3BA646972202564E4
:101D700020746F2025643A472025303264730D0AA1
:101D8000000000005B494E464F5D09747261666653
:101D900069636C69676874A3BA64697220256420FA
:101DA000746F2025643A472025303264730D0A0091
:101DB0005B494E464F5D0920747261666669636CCB
:101DC00069676874A3BA64697220256420746F20FF
:101DD00025643A592025303264730D0A0000000052
:101DE0005B494E464F5D09747261666669636C6952
:101DF000676874A3BA64697220256420746F202513
:101E0000643A592025303264730D0A0008520020CC
:101E1000F0B58BB006460024082203A9FE4801F065
:101E2000DBFC00BF17E0305D03A90855301D015DE4
:101E300004A8015506F10800015D05A8015506F149
:101E40000C00015D06A8015506F11000015D07A810
:101E50000155601CC4B2042CE5DB082203A9EE483E
:101E600001F071FC00BFED480068012803DBECA025
:101E70000DF078F902E0F2A00DF074F900BF00BF98
:101E8000E648006801280CDB9DF80F0000909DF8E3
:101E90000E309DF80D209DF80C10F1A00DF062F9A8
:101EA0000BE09DF80F0000909DF80E309DF80D207E
:101EB0009DF80C10F1A00DF055F900BF00BFD748F8
:101EC000006801280CDB9DF8130000909DF812308B
:101ED0009DF811209DF81010EFA00DF043F90BE0D4
:101EE0009DF8130000909DF812309DF811209DF888
:101EF0001010F1A00DF036F900BF00BFC748006810
:101F000001280CDB9DF8170000909DF816309DF815
:101F100015209DF81410F0A00DF024F90BE09DF8A9
:101F2000170000909DF816309DF815209DF81410AC
:101F3000F1A00DF017F900BF00BFB84800680128F4
:101F400012DB9DF81D109DF81C009DF81B20CDE9AB
:101F5000002002919DF81A309DF819209DF8181064
:101F6000EDA00DF0FFF811E09DF81D109DF81C008C
:101F70009DF81B20CDE9002002919DF81A309DF8B4
:101F800019209DF81810EDA00DF0ECF800BF00BF6F
:101F9000A2480068012804DBF0A00A990DF0E2F8DD
:101FA00003E0F4A00A990DF0DDF800BF7821F748AE
:101FB0000DF033F8F54DA52028705A206870832065
:101FC000A870A020E87002202871012068712946BD
:101FD0008871CF1D07212846FFF7A6FC38705A20CC
:101FE0007870A520B870EA48007840F08000E84991
:101FF000087001200BB0F0BD70B588B00025082234
:102000006946854801F0E8FB7821E0480DF005F8C5
:10201000DE4CA52020705A2060708320A070A02084
:10202000E0700120207120206071062521464819AA
:10203000202269460CF0D8FF203520464619294653
:10204000FFF772FC30705A207070A520B070D04835
:10205000007840F08000CE490870012008B070BDC3
:102060007821CA480CF0D9FFC84CA52020705A200E
:1020700060708320A070A020E070032020710120F8
:1020800021468871CD1D07212046FFF74DFC2870A1
:102090005A206870A520A870BD48007840F08000E4
:1020A000BB490870002301221946184605F0D6FBEB
:1020B000012000F0AFFA00F0B2FA88B0044608221E
:1020C0006946554801F088FB0020079020788DF87C
:1020D000140061788DF81510A1788DF8161020790C
:1020E0008DF8180061798DF81910A1798DF81A1002
:1020F000E1798DF81B1008226946474801F023FB5F
:102100007821A2480CF089FFA04DA52028705A2004
:1021100068708320A870A020E87004202871012036
:10212000687129468871CE1D07212846FFF7FCFB00
:1021300030705A207070A520B0709548007840F03B
:10214000800093490870002301221946184605F0C3
:1021500085FB012000F05EFA00F061FA2DE9F047FE
:102160000746884691461E462EB18A4978184A4647
:10217000414600F06BFB782184480CF04EFF834C05
:10218000A52020705A2060708320A070A020E070ED
:10219000052020710120607120468671C51D072130
:1021A000FFF7C2FB28705A206870A520A8707848F5
:1021B000007840F08000764908700120BDE8F08783
:1021C00088B008226946144801F006FB01200790F8
:1021D00008226946104801F0B6FA00BF0F480068AF
:1021E000012804DB6CA007990CF0BCFF03E071A090
:1021F00007990CF0B7FF00BF782164480CF00DFF81
:10220000624CA52020705A2060708320A070A0200E
:10221000E07006202071D9E00000070800000020CF
:102220005B494E464F5D09202D2D2D2D2D2D5345FB
:1022300054204950202D2D2D2D2D2D0D0A0000004C
:102240005B494E464F5D092D2D2D2D2D2D534554A7
:10225000204950202D2D2D2D2D2D0D0A0000000080
:102260005B494E464F5D092049503A2025642E2592
:10227000642E25642E25640D0A0000005B494E463D
:102280004F5D0949503A2025642E25642E25642E81
:1022900025640D0A000000005B494E464F5D092091
:1022A0005355424D41534B3A2025642E25642E252B
:1022B000642E25640D0A00005B494E464F5D0953AC
:1022C00055424D41534B3A2025642E25642E2564FA
:1022D0002E25640D0A0000005B494E464F5D092023
:1022E000474154455741593A2025642E25642E25EF
:1022F000642E25640D0A00005B494E464F5D094778
:102300004154455741593A2025642E25642E2564B1
:102310002E25640D0A0000005B494E464F5D0920E2
:102320004D41433A2025783A25783A25783A257860
:102330003A25783A25780D0A000000005B494E46A0
:102340004F5D094D41433A2025783A25783A257862
:102350003A25783A25783A25780D0A005B494E46A9
:102360004F5D092055504447524144453A20256469
:102370000D0A00005B494E464F5D095550444752D7
:102380004144453A2025640D0A000000A26B00205C
:1023900048000020000004085B494E464F5D0920BC
:1023A0007570646174655F666C61672025640D0AF1
:1023B000000000005B494E464F5D09757064617412
:1023C000655F666C61672025640D0A0001206071FD
:1023D00021468871CD1D07212046FFF7A5FA2870F8
:1023E0005A206870A520A8709448007840F08000BA
:1023F00092490870002301221946184605F02EFA6A
:10240000012000F007F900F00AF92DE9F047044631
:1024100088464FF0000900250027AA462078A52805
:1024200002D160785A2802D00020BDE8F08709F177
:102430000400265C072E18D2DFE806F0E518042B0E
:102440003D4DD10000BF7E480068012803DB7DA020
:102450000CF088FE02E07FA00CF084FE00BF00209C
:1024600080490870A01DFFF7D3FCCCE000BF744882
:102470000068012803DB7CA00CF074FE02E07FA062
:102480000CF070FE00BF002076490870FFF7B4FD25
:10249000B9E000BF6A480068012803DB7CA00CF0AB
:1024A00061FE02E07EA00CF05DFE00BF00206D49E1
:1024B0000870FFF7D5FD00BF61480068012803DB05
:1024C0007BA00CF04FFE02E07FA00CF04BFE00BFA3
:1024D000A01DFFF7F2FD00BF59480068012803DB8B
:1024E0007FA00CF03FFE02E083A00CF03BFE00BF9B
:1024F00000205C490870A5794FF47F4000EA052070
:102500006179084485B200BF4D480068012806DBA8
:102510007F48294602687FA00CF024FE05E07C4835
:102520002946026885A00CF01DFE00BF78480068AF
:10253000002820D1E06800F07F40B0F1006F0CD19E
:1025400000BF3F480068012803DB86A00CF00AFEAC
:1025500002E08BA00CF006FE0DE000BF38480068DA
:10256000012803DB8DA00CF0FDFD02E092A00CF031
:10257000F9FD00BF47E005F1080081B22046FFF7F2
:10258000D3F9074605F10800205CB84207D14FF0A7
:10259000010A5F48006828445D49086016E000BFF2
:1025A00027480068012807DB05F10800215C3A464E
:1025B00088A00CF0D7FD06E005F10800215C3A4642
:1025C0008CA00CF0CFFD00BF4FF0000A53462A4606
:1025D00004F108014E480068FFF7C0FD13E000BF9A
:1025E00017480068012803DB8AA00CF0BBFD02E05D
:1025F0008EA00CF0B7FD00BF0020454908601949C6
:102600000870FFF7DDFD00BF414620460CF005FDD8
:1026100001200AE700F0010181F313887047BFF33E
:102620004F8F8848006800F4E06087490843001D28
:1026300084490860BFF34F8F00BFFEE748000020C9
:10264000000000205B494E464F5D09205345544928
:10265000500D0A005B494E464F5D095345544950A1
:102660000D0A0000050000205B494E464F5D092021
:10267000474554494E464F0D0A0000005B494E46FF
:102680004F5D09474554494E464F0D0A0000000072
:102690005B494E464F5D092052455345540D0A0093
:1026A0005B494E464F5D0952455345540D0A0000A3
:1026B0005B494E464F5D0920555047524144455FA6
:1026C00053544152540D0A005B494E464F5D095523
:1026D0005047524144455F53544152540D0A000043
:1026E0005B494E464F5D0920555047524144455F76
:1026F0005041434B0D0A00005B494E464F5D095562
:102700005047524144455F5041434B0D0A00000081
:102710000C0000205B494E464F5D09207061636BE1
:102720005F6C656E2025642C207061636B5F6F6643
:10273000667365742025640D0A0000005B494E46EF
:102740004F5D097061636B5F6C656E2025642C20A2
:102750007061636B5F6F66667365742025640D0A34
:10276000000000005B494E464F5D092061707020FB
:10277000737461727420757067726164650D0A000C
:102780005B494E464F5D09617070207374617274CD
:1027900020757067726164650D0A00005B494E46E2
:1027A0004F5D0920617070206461746120696C6CF8
:1027B0006567616C0D0A00005B494E464F5D09611B
:1027C0007070206461746120696C6C6567616C0D68
:1027D0000A0000005B494E464F5D0920636865634F
:1027E0006B2073756D206661696C202578202578D3
:1027F0000D0A00005B494E464F5D09636865636BD7
:102800002073756D206661696C2025782025780D10
:102810000A0000005B494E464F5D09205550475263
:102820004144455F53544F500D0A00005B494E46EA
:102830004F5D09555047524144455F53544F500D29
:102840000A0000000CED00E00000FA052DE9F05F41
:102850000746884691460025BB464446AA461DE0E9
:10286000E0780606A07846EA0046607846EA002648
:1028700020780643241D2846691C8DB2154941F86D
:102880002060B5F5007F07D100254FF4007258464F
:1028900000F059FF0BF5006B0AF1040ACA45DFD3BB
:1028A00025B12A460B49584600F04DFFBDE8F09F80
:1028B00010B50446206808490840B0F1005F08D10F
:1028C0006068064908602068FDF771FC03480068ED
:1028D000804710BD905400200000FE2F1000002003
:1028E0001CB50121102001F091FF4FF40070009001
:1028F00001208DF8040003208DF805006946044886
:1029000001F01EFD4FF40071014801F095FD1CBD62
:102910000010024010B5FFF7E3FF00F005F800F0EB
:10292000B8FB00F02BFE10BD08B500214FF0006091
:1029300001F004FA4FF4407001F0C6F93D208DF823
:10294000000000208DF801008DF8020001208DF8B4
:102950000300684601F0BDF925208DF80000002035
:102960008DF8010001208DF802008DF80300684603
:1029700001F0AFF926208DF8000000208DF801004D
:1029800001208DF802008DF80300684601F0A1F9DE
:1029900027208DF8000000208DF8010001208DF81F
:1029A00002008DF80300684601F093F914208DF8B9
:1029B00000004FF4407001F087F900208DF801000D
:1029C00001208DF802008DF80300684601F081F9BE
:1029D00008BD000010B5002807DA0A07140E724A75
:1029E00000F00F031B1FD45403E00A07130E6F4AB5
:1029F000135410BD00B5AFB001214FF0606001F07D
:102A000005FF0BF0D5FB0CF05AF900BF0CF05EF996
:102A10000128FBD068460BF0D6FB01200090002077
:102A200007904FF400700A9000200B900E901190C8
:102A30001390149015904FF480600990002020901E
:102A40004FF00070219000112390002025902690D7
:102A500004202890C005299040122A9080012B90D4
:102A600040122C9040002E90012168460BF065FC2E
:102A700001214F480CF041F92FB000BD08B54FF4CB
:102A8000407001F021F93D208DF8000000208DF804
:102A900001008DF8020001208DF80300684601F066
:102AA00018F908BD1CB50121072001F0AFFE012176
:102AB000880301F0EFFE012002F015F803208DF8E5
:102AC000050002208DF8040000208DF806008DF826
:102AD0000700862000906946364801F031FC0B2241
:102AE0000121344801F0B7FC0B220221314801F0EA
:102AF000B2FC0B2207212F4801F0ADFC32200090E0
:102B000069462D4801F01CFC0B2201212A4801F0E6
:102B1000A2FC0B220421284801F09DFC0B22052178
:102B2000254801F098FC4FF4605000906946234816
:102B300001F006FC0B221146204801F08CFC0B2210
:102B40000C211E4801F087FC0B220D211B4801F0CF
:102B500082FC1CBD1FB5FFF7A5FFFFF78FFFFFF736
:102B600049FF684601F0BDFD64210098B0FBF1F417
:102B7000B4F1807F00D311E024F07F40401E4FF07D
:102B8000E02148610F214FF0FF30FFF723FF0020C5
:102B90004FF0E02188610720086100BF0121881EF5
:102BA000FFF718FF1FBD000018ED00E000E400E093
:102BB0004000010000000240000802400004024002
:102BC00000B58FB007F07CF807F0E2F9082204A9FD
:102BD000B34800F001FE00BFB248006801280CDBDA
:102BE0009DF8130000909DF812309DF811209DF87B
:102BF0001010ADA00CF0B6FA0BE09DF81300009099
:102C00009DF812309DF811209DF81010ADA00CF029
:102C1000A9FA00BF00BFA348006801280CDB9DF89B
:102C2000170000909DF816309DF815209DF814109F
:102C3000ABA00CF097FA0BE09DF8170000909DF800
:102C400016309DF815209DF81410ADA00CF08AFAEE
:102C500000BF00BF9348006801280CDB9DF81B00F3
:102C600000909DF81A309DF819209DF81810ACA01E
:102C70000CF078FA0BE09DF81B0000909DF81A30DC
:102C80009DF819209DF81810ADA00CF06BFA00BF4C
:102C900000BF84480068012812DB04A8417C9DF82D
:102CA00020009DF81F20CDE9002002919DF81E30E4
:102CB0009DF81D209DF81C10A9A00CF053FA11E0FE
:102CC00004A8407C9DF820109DF81F20CDE900212C
:102CD00002909DF81E309DF81D209DF81C10A9A0A3
:102CE0000CF040FA00BF9DF81000FF2822D1C02050
:102CF0008DF81000A8208DF8110008208DF8120022
:102D0000FC208DF81300FF208DF81400FF218DF8B2
:102D100015108DF8161000218DF81710C0208DF8B1
:102D20001800A8218DF8191008218DF81A1001211A
:102D30008DF81B109DF810100A069DF8111042EA3C
:102D400001429DF8121042EA01219DF8132041EA48
:102D5000020005F001F90E909DF814100A069DF886
:102D6000151042EA01429DF8161042EA01219DF831
:102D7000172041EA020005F0EFF80D909DF81810B9
:102D80000A069DF8191042EA01429DF81A1042EA1B
:102D900001219DF81B2041EA020005F0DDF80C90AE
:102DA0009DF81C007F4981F82B009DF81D107D487F
:102DB00080F82C109DF81E1080F82D109DF81F1023
:102DC00080F82E109DF8201080F82F1004A8417C68
:102DD000744880F8301000BF32480068012815DBC5
:102DE000704890F8301090F82F006E4A92F82E201C
:102DF000CDE9002002916B4890F82D3090F82C20FE
:102E000090F82B1068A00CF0ADF914E0654890F82C
:102E1000301090F82F00634A92F82E20CDE9002060
:102E20000291604890F82D3090F82C2090F82B10EB
:102E300066A00CF097F900BF6C486D4900220CABFE
:102E4000CDE9002102900DAA0EA9564807F04BF9D2
:102E5000544807F07AF9534807F0BFF90FB000BDA6
:102E600010B550480BF05AF910BD01B561490098F2
:102E70000968401AFA2804D35E490098086008F0EF
:102E800083F85D4900980968401A41F28831884208
:102E900004D35949009808600AF00DFC08BD0000F1
:102EA00000000708000000205B494E464F5D0920E6
:102EB00049503A2025642E25642E25642E25640D64
:102EC0000A0000005B494E464F5D0949503A2025F3
:102ED000642E25642E25642E25640D0A0000000052
:102EE0005B494E464F5D09205355424D41534B3A85
:102EF0002025642E25642E25642E25640D0A0000ED
:102F00005B494E464F5D095355424D41534B3A2064
:102F100025642E25642E25642E25640D0A000000EC
:102F20005B494E464F5D0920474154455741593A48
:102F30002025642E25642E25642E25640D0A0000AC
:102F40005B494E464F5D09474154455741593A2028
:102F500025642E25642E25642E25640D0A000000AC
:102F60005B494E464F5D09204D41433A2025783A52
:102F700025783A25783A25783A25783A25780D0A41
:102F8000000000005B494E464F5D094D41433A2029
:102F900025783A25783A25783A25783A25783A25D9
:102FA000780D0A00905C00205B494E464F5D092079
:102FB0004D41433A20257820257820257820257812
:102FC0002025782025780D0A000000005B494E4638
:102FD0004F5D094D41433A202578202578202578FA
:102FE0002025782025782025780D0A007BDF000831
:102FF00049E100081400002018000020704700BFBD
:10300000FEE700BFFEE700BFFEE700BFFEE7704738
:1030100070477047704710B502F0A4F804460C489A
:103020000078401C0A490870204602F09FF801E031
:10303000FFF716FF0BF012FD0028F9D140200BF02E
:1030400073FE4FF480300BF06FFE02F032FD10BDC6
:103050009100002000BF704770B504460D46102156
:10306000F64801F0E9F900BFF548008800F040009B
:103070000028F9D0E0B2F249091D08801021EF487C
:1030800001F0DCF9204670BD00E0401E0028FCD1B4
:10309000704700B589B00121092001F0B7FB01217B
:1030A000102001F0F7FBE74801F034FD03A801F020
:1030B000E5FD01A801F0FEFD02208DF820008DF84D
:1030C000210000208DF8220001208DF8230040020D
:1030D000079007A9DC4801F033F907220921DA48F3
:1030E00001F0B9F94FF48060079007A9D64801F0C4
:1030F00027F907220A21D44801F0ADF901A9D148E6
:1031000001F0C8FD4FF4E13003900020ADF810004D
:10311000ADF81200ADF81400ADF818000C20ADF8B1
:10312000160003A9C74801F043FD012240F22551D2
:10313000C44801F07BFE40F22661C24801F0E8FE7F
:103140000121C04801F0BCFD0121480401F091FBC0
:10315000BB4801F0DFFC03A801F090FD01A801F0DD
:10316000A9FD02208DF820008DF8210000208DF8A7
:10317000220001208DF823002020079007A9AF48E6
:1031800001F0DEF807220521AC4801F064F9402087
:10319000079007A9A94801F0D3F807220621A748FC
:1031A00001F059F901A9A64801F074FD4FF4165039
:1031B00003900020ADF81000ADF81200ADF8140037
:1031C000ADF818000C20ADF8160003A99C4801F0DA
:1031D000EFFC012240F22551994801F027FE40F210
:1031E0002661974801F094FE0121954801F068FDA1
:1031F0001020079002208DF8210001208DF820007A
:1032000007A98E4801F09CF810218C4801F014F9B0
:103210004FF49670FFF738FF0121880401F029FB75
:103220008A4801F077FC03A801F028FD01A801F00D
:1032300041FD02208DF820008DF8210000208DF83E
:10324000220001208DF823000002079007A97B4887
:1032500001F076F807220821784801F0FCF84FF4D5
:103260000070079007A9754801F06AF80722092144
:10327000724801F0F0F801A9744801F00BFD4FF419
:10328000E13003900020ADF81000ADF81200ADF869
:103290001400ADF818000C20ADF8160003A96B4817
:1032A00001F086FC012240F22551684801F0BEFD84
:1032B00040F22661654801F02BFE0121634801F0D0
:1032C000FFFC09B000BD10B5044621465F4801F07F
:1032D00022FD00BF80215D4801F0CDFD0028F9D01E
:1032E00010BD70B505460E46002404E0285DFFF7CA
:1032F000EAFF601CC4B2B442F8DB70BD10B50446EE
:103300002021504801F0B7FD30B94FF4007150480A
:1033100001F092F8002010BD4A4801F000FD207035
:103320000120F8E701B502E00098401E00900098E7
:103330000028F9D108BD70B54648008800F4004067
:10334000E0B14448057844A00BF00CFF00240DE0E8
:103350004648015D3B4801F0DEFC00BF4021394892
:1033600001F089FD0128F9D1601CC4B2AC42EFDB49
:103370003FA00BF0F7FE00203649088070BD70B505
:103380003D48008800F40040B0B13B480578002477
:103390000DE03A48015D2D4801F0BDFC00BF402121
:1033A0002A4801F068FD0128F9D1601CC4B2AC4282
:1033B000EFDB00203049088070BD10B502F063FBE0
:1033C00040F225511F4801F06CFD10B31D4801F07B
:1033D000A6FCC4B21F48008800F40040C8B91D48CC
:1033E000008800F4804060B10A2C03D00020194905
:1033F000088020E01748008840F400401549088004
:1034000019E00D2C06D11348008840F48040114982
:10341000088010E00F480088C0F30D0013490C54D9
:103420000C480088401C0B49088008460088632827
:1034300001DD0020088002F03CFB10BD000C0240C2
:1034400000440040001001400000024000480040DD
:1034500000100240280000200D0AC4FAB7A2CBCD0C
:10346000B5C4CFFBCFA2CEAA3A0D0A00C85C00209B
:103470000D0A0D0A000000002A0000202C5D00202B
:1034800010B540F22551354801F00BFD80B13348AD
:1034900001F045FCC4B232480068642808D23148C3
:1034A0002F49096844542E480068401C2C49086084
:1034B00010BD10B502F0E7FA40F225512A4801F09C
:1034C000F0FC90B140F22551274801F021FD26483B
:1034D00001F025FCC4B2204600F0CCF900BF8021E9
:1034E000214801F0C8FC0028F9D002F0E2FA10BD32
:1034F00070B505460E46002410211C4800F09CFFC4
:103500004FF49670FFF7C0FD00BF0BE0285D134934
:10351000091D088000BF1148008800F04000002805
:10352000F9D0641CB442F1D3C820FFF7ADFD1021DF
:103530000E4800F083FF70BD10B50D4800780128DB
:103540000AD100200A4908700A4801680A48FFF7B2
:10355000CFFF00200749086010BD00000044004074
:1035600020000020C85C002000480040000C024001
:103570002C00002030000020905D00201CB50121AF
:103580000C2001F043F94FF46050009001208DF8B9
:10359000040002208DF8050069464A4800F0D0FE7C
:1035A0004FF48060009000208DF8040002208DF818
:1035B00005006946434800F0C3FE4FF46070009078
:1035C00001208DF8040002208DF8050069463E4870
:1035D00000F0B6FE4020009000208DF8040002208C
:1035E0008DF805006946384800F0AAFE4FF40061E6
:1035F000344800F023FF4FF48051324800F01EFFA2
:103600004FF400512F4800F019FF4FF400612E488D
:1036100000F014FF4FF480712B4800F00FFF4FF4BF
:103620000071294800F00AFF1CBD70B54FF48051AD
:10363000244800F003FF4FF48051224800F0FCFEC4
:10364000002515E04FF400511E4800F0F7FE64001D
:103650004FF480611B4800F0D5FE08B144F001042E
:1036600000BF4FF40051174800F0E6FE681CC5B2D9
:10367000182DE7DB204670BD70B54FF480711248FD
:1036800000F0DCFE4FF480710F4800F0D5FE0025FD
:1036900014E04FF400710C4800F0D0FE64004021AB
:1036A000094800F0AFFE08B144F0010400BF4FF438
:1036B0000071054800F0C0FE681CC5B2182DE8DB9B
:1036C000204670BD000C0240000802400146086818
:1036D000704701465248814201D20020704751484C
:1036E000814201D20820F9E74F48814201D21020DF
:1036F000F4E74E48814201D21820EFE74C4881425E
:1037000001D22020EAE74B48814201D22820E5E798
:103710004948814201D23020E0E74848814201D245
:103720003820DBE74648814201D24020D6E74548B1
:10373000814201D24820D1E74348814201D2502042
:10374000CCE75820CAE72DE9F04704460E46174655
:103750004FF008080025A946B4F1006F02D304F029
:10376000030008B1BDE8F08700F05CFB002000F02A
:103770003CFB254604EB87093448854215D211E00D
:103780002846FFF7A3FF401C58B12846FFF7A1FFCA
:103790008246022100F092FB8046B8F1080F01D06A
:1037A00002E02D1D4D45EBD300BFB8F1080F0CD141
:1037B00008E02046316800F02AFC082800D003E029
:1037C000241D361D4C45F4D300BF012000F00DFB35
:1037D00000F035FB00BFC5E730B503460C46154683
:1037E000002206E01846FFF771FF44F822001B1D77
:1037F000521CAA42F6D330BD00B585B0052214494B
:103800001448FFF7A0FF052269461248FFF7E4FFBE
:103810000522694610A00BF0A5FC05B000BD000014
:10382000004000080080000800C0000800000108F7
:103830000000020800000408000006080000080854
:1038400000000A0800000C0800000E080000FF1F1E
:1038500006F600080000070853544D20464C41531B
:103860004820544553542025732073697A652025D8
:10387000640D0A0032494A78891C8854891E4978A7
:10388000491CC9B22E4A517040F2DC52914202DB0F
:1038900000212B4A51702A494978294A12789142CD
:1038A0000CD127490978491CC9B2254A117040F248
:1038B000DC52914202DB0021214A1170704701461F
:1038C0001F4800781E4A5278904201D1012070476B
:1038D0001B480278801C805C087019480078401CE6
:1038E000C0B2174A107040F2DC52904202DB002056
:1038F000134A10700020EAE770B504460D46002612
:1039000000230AE0E018FFF7DAFF10B9701C86B256
:1039100001E0304670BD581C83B2AB42F2DB30464A
:10392000F8E770B504460D460026002304E0E05C8D
:10393000FFF7A0FF581C83B2AB42F8DB304670BDE6
:10394000F45D002070B504460D462146C5A00BF07D
:1039500009FC14B1204606F0DBF970BD2DE9F05FDB
:1039600082468B4614469946002600BF00BFD046CB
:1039700034B9022088F80000C8F8084000274CE05D
:10398000B9F1000F05D014B1204606F059FC4F469E
:1039900043E098F80000012834D1002C3DD04FF4CA
:1039A000FA61B4480BF039FB254619E06889C6F581
:1039B000FA61884207D9C6F5FA62AE4B9819696870
:1039C0000BF012FB05E06A89AA4B981969680BF0A5
:1039D0000BFB68890644B6F5FA6F00D902E02D6842
:1039E000002DE3D100BFA448007840F04000A24978
:1039F00008702189584607F054FA204606F020FC4A
:103A000000270AE02189584607F04BFA0020C8F841
:103A10000800204606F014FC00273846BDE8F09F59
:103A20002DE9F04107460C4600261CE0A5686A898E
:103A300001233846696809F021F9064686B9B5F8C8
:103A40000A802868A060A06810B1A06806F082FD16
:103A5000284606F0F5FB4146384607F022FA02E018
:103A6000701C00B9A5603EB9A06828B1A068408963
:103A7000B7F86E108842D9DDBDE8F0812DE9F0413C
:103A800004460D4617462646B06818B1314628460A
:103A9000FFF7C6FF0020BDE8F08170B505460C4673
:103AA000284607F052F90021284607F029FD002199
:103AB000284607F02AFD0021284607F023FD0021B3
:103AC000284607F025FD00221146284607F025FD6F
:103AD00014B1204606F01CF96748007820F0200059
:103AE0006549087070BDF8B50020009000260DE013
:103AF00000980A3000900098FFF7B7F9701CC6B222
:103B0000642300221146104603F0A8FE5B480068BB
:103B100008B1C82EECDB5A4804680BE0204606F0DA
:103B20004CFF5749E06808602546E46829460220B2
:103B300006F06BFA002CF1D1F8BD2DE9F0410546F5
:103B40000F462C4644B34C48007800F08000D0B1BA
:103B50000322D821002006F0AAFBA060D822494900
:103B6000A06806F0E3FD21463846FFF759FF4248BA
:103B7000007820F0800040490870A06850B1A0682B
:103B800006F05EFB06E02078022803D12146384685
:103B9000FFF783FF002605E00121384607F003FA0E
:103BA0006FF004063046BDE8F0812DE9F04107468C
:103BB0000D4690460121284607F004FC0C2006F033
:103BC00059F904462CB30120207065600020A060E4
:103BD0002146284607F094FCAFF27F21284607F0E3
:103BE00091FCAFF29F21284607F092FC0122AFF230
:103BF000B501284607F091FCAFF27F11284607F087
:103C000084FC1D48007840F020001B490870002605
:103C100001E04FF0FF363046BDE8F08110B507F007
:103C20006AFC1949086008460068C8B142F2C3221C
:103C300016491548006807F034FA044674B9FF21A4
:103C40001148006807F0A3FA11490860AFF2A50116
:103C50000F48006807F05FFC002010BD0120FCE762
:103C60000020FAE7746370206572726F723A2578EB
:103C70000D0A0000D263002048000020340100201B
:103C800038010020A26B00204C00002017F700082C
:103C90005000002070B505460C464FF4A06000F0BF
:103CA00013F845F2555000F00BFC284600F00BFCD1
:103CB000204600F00BFC00F00CFC00F00FFC70BD87
:103CC00010B500F006FC10BD32490143324A1160C4
:103CD000704770B5002100230F22C4781CB32E4C0E
:103CE000246804F4E064C4F5E064C4F30721C1F17E
:103CF0000404E3B20A4144789C40E1B28478144061
:103D000021430C07210E254C05786155047804F0F9
:103D10001F050124AC4005786D11AD0005F1E025CB
:103D2000C5F8004109E0047804F01F050124AC4007
:103D30001B4D0678761145F8264070BD194A0A4099
:103D40000243154B1B1F1A60704739B1124A121DEE
:103D500012680243104B1B1D1A6006E00E4A121D2A
:103D6000126882430C4B1B1D1A607047042808D14F
:103D70004FF0E021096941F004014FF0E0221161A8
:103D800007E04FF0E021096921F004014FF0E02243
:103D9000116170470000FA050CED00E000E400E05E
:103DA00080E100E080FFFF1FFE4A1070704730B1D5
:103DB000FC49096841F48071FA4A116005E0F9494B
:103DC000096821F48071F74A1160704730B1F549F4
:103DD000096841F40071F34A116005E0F14909688E
:103DE00021F40071EF4A1160704730B1ED49096864
:103DF00041F48061EB4A116005E0EA49096821F469
:103E00008061E84A11607047E648006840F400604D
:103E1000E44908607047E348006840F48050E14995
:103E200008607047DF481030006800F0004028B19B
:103E3000DD48DC49091D0860DC4808607047D94846
:103E40001030006840F00040D649103108607047DB
:103E50000820D4490C31096801F48031B1F5803F64
:103E600001D1012018E0CF490C31096801F010019F
:103E700009B1052010E0CB490C31096801F0EF01D0
:103E800009B1062008E0C7490C31096801F00201B8
:103E900009B1072000E00820704708B5082000900D
:103EA000FFF7D6FF009002E0FFF7D2FF00909DF8E9
:103EB00000000128F8D09DF8000008BD70B5044648
:103EC0000A460026082502B909E0012A01D1160296
:103ED00005E0022A01D1160201E04FF44076FFF717
:103EE000DCFF0546082D2DD1AE481030006820F4C7
:103EF0004070AC49103108600846006830430860E3
:103F00000846006820F0F80008600846006844F0A1
:103F100002010843A349103108600846006840F4D4
:103F200080300860FFF7B9FF05469E4810300068F2
:103F300020F002009B49103108600846006820F01C
:103F4000F8000860284670BD30B5024600250824F8
:103F5000FFF7A3FF044602B909E0012A01D11502C7
:103F600005E0022A01D1150201E04FF44075082C4A
:103F700020D18C481030006820F4407089491031FD
:103F8000086008460068284308600846006840F05A
:103F9000040008600846006840F480300860FFF7BD
:103FA0007CFF04467F481030006820F004007D4903
:103FB00010310860204630BD70B5064614461D46D7
:103FC0000822FFF76AFF0246082A1ED17548103002
:103FD000006820F44070734910310860084600689A
:103FE00040F4407008600846006840F00100086036
:103FF00034607560FFF751FF02466A481030006870
:1040000020F00100674910310860104670BD30B5DE
:1040100002460C460825FFF740FF0546082D1DD136
:1040200060481030006820F440705E49103108602C
:104030000846006840F4007008600846006840F0D8
:10404000010008601460FFF728FF0546554810304E
:10405000006820F00100534910310860284630BD47
:1040600030B502460C460825FFF717FF0546082D18
:104070001DD14C481030006820F44070494910317F
:1040800008600846006840F48070086008460068D0
:1040900040F0010008601480FFF7FFFE054641482C
:1040A0001030006820F001003E49103108602846B9
:1040B00030BD30B502460C460825FFF7EEFE05463A
:1040C000082D1BD137481030006820F44070354966
:1040D000103108600846006808600846006840F033
:1040E000010008601470FFF7D8FE05462D48103017
:1040F000006820F001002B4910310860284630BDCF
:1041000028481430006800F0010028B128482549EB
:10411000083108602748086070472248143000685A
:1041200040F001001F4914310860704730B5024665
:104130000C460825FFF7B1FE0546082D10D13CB10D
:10414000184816300088904316491631088007E059
:1041500014481630008891B208431249163108807D
:1041600030BD10B502460824FFF797FE0446082C20
:1041700002D10C481530027010BDF0B504460D4652
:10418000FF260827FFF789FE0746082F16D10548A6
:104190001430007800F00F0645EA06001043204373
:1041A000004909E0003C024023016745AB89EFCD9F
:1041B0003B2A19087F6E5D4C14310870F0BD284908
:1041C000097821F00C01264A117011460978014343
:1041D0001170704700B508222148007840F00200B5
:1041E0001F490870FFF759FE0246104600BD1C48E3
:1041F0000068C0F3471070471948801C008870475A
:1042000000201749491C0978AA2901D0012000E0A3
:10421000002070471248007800F00C00704739B158
:104220000F4A121F126802430D4B1B1F1A6006E053
:104230000B4A121F12688243094B1B1F1A607047FA
:1042400001460020064A083A12680A400AB10120D5
:1042500000E00020704702490839086070470000FC
:10426000143C024010B504468C48844208D1012118
:10427000084600F020FB0021012000F01CFB5EE05E
:104280008748844208D10121022000F014FB00215C
:10429000022000F010FB52E08248844208D1012144
:1042A000042000F008FB0021042000F004FB46E09D
:1042B0007D48844208D10121082000F0FCFA002149
:1042C000082000F0F8FA3AE07848844208D1012149
:1042D000102000F0F0FA0021102000F0ECFA2EE09F
:1042E0007348844208D10121202000F0E4FA002123
:1042F000202000F0E0FA22E06E48844208D101213B
:10430000402000F0D8FA0021402000F0D4FA16E056
:104310006948844208D10121802000F0CCFA0021B4
:10432000802000F0C8FA0AE06448844207D10121E5
:10433000801500F0C0FA0021A01500F0BCFA10BDF5
:10434000F0B50A4600210023002400BF3DE001250E
:1043500005FA01F3156805EA03049C4234D10568A7
:104360004F000326BE40B543056015794E00B540A9
:104370000668354305601579012D02D01579022DA7
:1043800016D185684F000326BE40B5438560557938
:104390004E00B540866835438560456801268E40ED
:1043A000B5434560456896798E40B6B23543456061
:1043B000C5684F000326BE40B543C560D5794E00A1
:1043C000B540C6683543C560491C1029BFD3F0BD50
:1043D0004FF6FF7101600021017141718171C1715E
:1043E000704708B54FF480320092009A0A43009259
:1043F000009AC261C161009AC261C2690092C26939
:10440000009208BD0246002013690B400BB1012049
:1044100000E0002070470146086980B270470246FC
:10442000002053690B400BB1012000E000207047D1
:104430000146486980B270470183704741837047E5
:104440000AB1018300E041837047416170474269CE
:104450004A4042617047F0B5002300244D07ED0E3D
:1044600002FA05F3CE1000F1200555F826504E074C
:10447000F70E0F26BE40B543CF1000F1200646F8D8
:104480002750CE1000F1200555F8265045EA0304C8
:10449000CE1000F1200545F82640F0BD0000024096
:1044A0000004024000080240000C024000100240DC
:1044B0000014024000180240001C0240002002408C
:1044C0000E49086070470D49486070470B49886085
:1044D00070474AF6AA200949086070474CF6CC405C
:1044E00006490860704701460020044AD2680A4025
:1044F0000AB1012000E000207047000000300040B9
:10450000FA48006840F00100F84908600020F749C7
:1045100008310860F5480068F5490840F34908602B
:10452000F448091D0860081F006820F48020091F56
:1045300008600020ED490C31086070470021EB4A0B
:10454000921C117011460870704710B50146002288
:10455000002300204A11012A02D1E44C236808E01C
:10456000022A03D1E14C7034236802E0DF4C74343A
:10457000236801F01F02012494401C400CB101206B
:1045800000E0002010BD38B5002000900024002578
:1045900000BF3120FFF7D9FF05460098401C00906E
:1045A0000098B0F5A06F01D0002DF2D03120FFF7B8
:1045B000CCFF08B1012400E00024204638BD0146AC
:1045C0000020CA4A106820F0F80040EAC1001060DC
:1045D0007047C949086070470021C44A70321170A1
:1045E0001170012802D004280AD104E00121BF4A39
:1045F0007032117005E00521BC4A7032117000E084
:1046000000BF00BF7047BD490860704770B5049C8B
:1046100041EA82150126C6EB530645EA06450543E5
:1046200045EA0465B14E361D356070BDB249086675
:104630007047820142EA0172AC4B84331A607047C2
:10464000AD4988667047AC49C8647047024600208F
:10465000A64B0833186820F0EC6042EA01031843C7
:10466000A24B083318607047024600209F4B083366
:10467000186820F0784042EA010318439B4B083346
:104680001860704701460020984A0832106820F0F0
:10469000030008431060704794480830006800F039
:1046A0000C00704701460020904A0832106820F044
:1046B000F000084310607047014600208B4A083222
:1046C000106820F4E0500843106070470146002055
:1046D000864A0832106820F4604040EAC100106049
:1046E0007047F0B500210022002402250026022395
:1046F0007E4F08373F6807F00C0121B1042905D02F
:10470000082937D105E07E4F076036E07D4F07600E
:1047100033E0764F3F1D3F68C7F38056734F3F1D10
:104720003F6807F03F036EB1764FB7FBF3F7DFF852
:10473000BCC10CF1040CDCF800C0CCF3881C07FBF6
:104740000CF40CE06E4FB7FBF3F7DFF8A0C10CF1EF
:10475000040CDCF800C0CCF3881C07FB0CF4634F9E
:104760003F1D3F68C7F301477F1C7D00B4FBF5F791
:10477000076002E0624F076000BF00BF5B4F083771
:104780003F6807F0F00109095F4F7A5C0768D7407E
:104790004760564F08373F6807F4E051890A5A4F7F
:1047A0007A5C4768D7408760504F08373F6807F406
:1047B0006041490B544F7A5C4768D740C760F0BDF1
:1047C000002100F44072B2F5407F0AD1474A083216
:1047D000116821F4F8114D4A02401143434A08324E
:1047E0001160424A70321268C0F30B031A433F4B08
:1047F00070331A60704741494439086070473F4937
:1048000040390860704742490860704739B1374AFB
:10481000303212680243354B30331A6006E0334AB7
:10482000303212688243314B30331A60704739B1ED
:104830002E4A3432126802432C4B34331A6006E09D
:104840002A4A343212688243284B34331A60704744
:1048500039B1264A383212680243244B38331A6081
:1048600006E0224A383212688243204B38331A60FD
:10487000704739B11D4A4032126802431B4B403326
:104880001A6006E0194A403212688243174B4033DF
:104890001A60704739B1154A443212680243134B0B
:1048A00044331A6006E0114A4432126882430F4BC7
:1048B00044331A60704739B10C4A1032126802430F
:1048C0000A4B10331A6006E0084A1032126882431D
:1048D000064B10331A607047E1B1044A1432126873
:1048E0000243024B14331A6019E000000038024002
:1048F000FFFFF6FE1030002400004742800E4742C2
:104900000024F40040787D0154000020FFFCFF0FDC
:104910005C0147425B4A126882435A4B1A607047F7
:1049200039B1584A121D12680243564B1B1D1A60BA
:1049300006E0544A121D12688243524B1B1D1A6036
:10494000704739B14F4A0C32126802434D4B0C3359
:104950001A6006E04B4A0C3212688243494B0C3312
:104960001A60704739B1474A103212680243454B0A
:1049700010331A6006E0434A103212688243414BFA
:1049800010331A60704739B13E4A3C321268024314
:104990003C4B3C331A6006E03A4A3C321268824390
:1049A000384B3C331A60704739B1364A403212688E
:1049B0000243344B40331A6006E0324A40321268F8
:1049C0008243304B40331A60704739B12D4A44322C
:1049D000126802432B4B44331A6006E0294A4432E2
:1049E00012688243274B44331A60704739B1254A15
:1049F0004C3212680243234B4C331A6006E0214AC2
:104A00004C32126882431F4B4C331A60704739B1E5
:104A10001C4A5032126802431A4B50331A6006E0A7
:104A2000184A503212688243164B50331A6070474E
:104A300039B1144AD21F12780243124BDB1F1A708D
:104A400006E0104AD21F127882430E4BDB1F1A7009
:104A500070470C486030006840F080700949603150
:104A60000860704701460020064A083A12680A406A
:104A70000AB1012000E0002070470249891F087038
:104A8000704700001438024010B501218803FFF779
:104A900069FF00214FF48040FFF764FF10BD1A4901
:104AA0000860704730B500228B071C0F0F2303FAF4
:104AB00004F2154B08338C1053F824309343124CF6
:104AC00008348D1044F8253023468C1053F82430D8
:104AD0008C07240F00FA04F423430B4C08348D1088
:104AE00044F8253030BD094908607047084908601E
:104AF0007047002004492031096801F4807109B130
:104B0000012000E00020704700380140DC0027420F
:104B10000004274210B50446F748844208D1012119
:104B20001020FFF71FFF00211020FFF71BFF3EE0C2
:104B3000F248844209D101214804FFF702FF002115
:104B40004FF40030FFF7FDFE31E0ED48844209D11B
:104B500001218804FFF7F5FE00214FF48020FFF7C4
:104B6000F0FE24E0E748844209D10121C804FFF7A0
:104B7000E8FE00214FF40020FFF7E3FE17E0E248D3
:104B8000844209D101210805FFF7DBFE00214FF423
:104B90008010FFF7D6FE0AE0DC48844207D10121ED
:104BA0002020FFF7DFFE00212020FFF7DBFE10BDF5
:104BB0002DE9FF4705460E460024A14600BFA0464A
:104BC000B08900B100BF2C8A24F44054F08804431B
:104BD0002C82AC8941F20C608443B088318908434F
:104BE000718908430443AC81AC8A24F44074B089D1
:104BF0000443AC826846FFF774FDBF48854202D08B
:104C0000C248854202D1DDF80C9001E0DDF8089041
:104C1000A88900F4004040B109EBC90000EB09107D
:104C200031684900B0FBF1F707E009EBC90000EB80
:104C3000091031688900B0FBF1F76420B7FBF0F090
:104C400004012009642101FB1078A88900F40040C8
:104C500040B1322000EBC800B0FBF1F000F00700DB
:104C6000044308E0322000EB08106421B0FBF1F0AF
:104C700000F00F0004432C81BDE8FF874FF416516C
:104C8000016000218180C18001810C2141810021CE
:104C90008181704710B502460020108A20F47060B0
:104CA0000B884C8823438C882343CC8823431843A8
:104CB000108210BD0021018041808180C180704739
:104CC00021B1828942F40052828104E082894DF64A
:104CD000FF731A4082817047028B02F47F42028385
:104CE000028B0A430283704721B1828942F4004259
:104CF000828103E08289C2F30E028281704721B172
:104D0000828A42F40062828204E0828A4FF2FF7358
:104D10001A4082827047C1F30802828070470146C0
:104D20008888C0F308007047028A4FF6F0731A4073
:104D30000282028A0A430282704721B1828942F0CC
:104D40000202828104E082894FF6FD731A4082815B
:104D5000704782894FF2FF731A40828182890A4329
:104D600082817047028A4FF6DF731A400282028AFC
:104D70000A430282704721B1028A42F480420282D1
:104D800004E0028A4BF6FF731A4002827047818961
:104D900041F001018181704721B1828A42F008020D
:104DA000828204E0828A4FF6F7731A40828270474B
:104DB000028BD2B20283028B42EA01220283704745
:104DC00021B1828A42F02002828204E0828A4FF678
:104DD000DF731A408282704721B1828A42F010024A
:104DE000828204E0828A4FF6EF731A408282704713
:104DF000828A4FF6FB731A408282828A0A43828239
:104E0000704721B1828A42F00202828204E0828AE3
:104E10004FF6FD731A40828270471AB1838A0B43A2
:104E2000838202E0838A8B4383827047F0B5034616
:104E3000002400260025002040F66A17B94200D160
:104E400000BF1846C1F3421401F01F06012707FAFC
:104E500006F5012C01D10C3004E0022C01D11030F8
:104E600000E014301AB107682F43076002E00768BA
:104E7000AF430760F0BD02460020B1F5007F00D1CE
:104E800000BF13880B400BB1012000E000207047E9
:104E900001F40072B2F5007F00D100BFCA43028066
:104EA000704770B50246002400230025002040F61C
:104EB0006A16B14200D100BFC1F3421501F01F03D1
:104EC000012606FA03F3012D02D19689334006E04C
:104ED000022D02D1168A334001E0968A33400C122B
:104EE000012606FA04F41688344013B10CB10120EF
:104EF00000E0002070BD00000010014000440040B0
:104F000000480040004C00400050004000140140A8
:104F100010B50022002340F66A14A14200D100BF60
:104F20000A1201249440A3B2DC43048010BD0000A7
:104F30000648804706480047FEE7FEE7FEE7FEE733
:104F4000FEE7FEE7FEE7FEE7FEE7FEE7315000087A
:104F5000890100080CB50020019000907648006897
:104F600040F480307449086000BF7348006800F462
:104F7000003000900198401C0190009818B90198E9
:104F8000B0F5A06FF1D16C48006800F4003010B1AA
:104F90000120009001E0002000900098012846D1F7
:104FA00065484030006840F08050634940310860F7
:104FB0006248006840F48040604908605E480830FC
:104FC00000685D49083108600846006840F4004008
:104FD00008600846006840F4A05008605848091F5F
:104FE0000860081F006840F08070091F086000BF5B
:104FF0005148006800F000700028F9D040F20560C8
:10500000504908604C480830006820F003004A49C5
:10501000083108600846006840F00200086000BFE0
:1050200045480830006800F00C000828F8D10CBD95
:1050300010B54548006840F47000434908603E4898
:10504000006840F001003C49086000203A490831FE
:105050000860394800683D490840374908603C48C5
:10506000091D0860081F006820F48020091F0860DF
:10507000002031490C310860FFF76CFF4FF00060F1
:1050800031498039086010BD70B50020002202232C
:1050900000240221284D08352D6805F00C0020B1B0
:1050A000042806D0082834D107E02A4D2A4E35605E
:1050B00033E02A4D284E35602FE01F4D2D1D2D6801
:1050C000C5F380541C4D2D1D2D6805F03F0154B1D2
:1050D000224DB5FBF1F5184E361D3668C6F388161D
:1050E00005FB06F209E01B4DB5FBF1F5124E361D2E
:1050F0003668C6F3881605FB06F20F4D2D1D2D6888
:10510000C5F301456D1C6B00B2FBF3F5124E356023
:1051100003E0104D104E356000BF00BF064D08354E
:105120002D68C5F303150E4E705D0B4D2D68C540FF
:10513000094E356070BD000000380240007000402C
:1051400019544005003C024088ED00E0FFFFF6FEE8
:10515000103000240024F4006400002040787D0119
:1051600068000020EFF3108072B6704780F310885B
:10517000704725484FF0FF010170002080F3098837
:1051800022480121017022484FF08051016062B62F
:10519000FEE71F484FF08051016070471C484FF0F8
:1051A00080510160704772B6EFF3098050B1A0F1F1
:1051B000200080E8F00FA0F1400080EC108B154932
:1051C0000968086000B5144880475DF804EB13488F
:1051D00013490A7802700F4812490A680260106881
:1051E00090EC108B00F1400090E8F00F00F12000EF
:1051F0002EF0100E80F309884EF0040E62B6704750
:1052000072B6704762B6704722ED00E09E00002043
:1052100004ED00E0A40000201553000893000020D6
:1052200094000020AC00002010B5FFF7E9FF10BD8E
:1052300010B5FFF7E7FF10BD704770477047704724
:105240007047F0B504460D461046CC260660DD27B3
:10525000061F30463760002105E04FF0AA37061FD1
:1052600030463760491C1029F7D34FF08077061F6E
:1052700030463760061F304634603A4F061F3046CE
:1052800037604FF01237061F304637604FF0033754
:10529000061F304637604FF00237061F3046376032
:1052A0007F10061F30463760061F304635604FF0CE
:1052B0001137061F304637604FF01037061F304653
:1052C00037604FF00937061F304637604FF0083718
:1052D000061F304637604FF00737061F30463760ED
:1052E0004FF00637061F304637604FF00537061F70
:1052F000304637604FF00437061F304637600021D4
:1053000005E04FF0BB37061F30463760491C1029B7
:10531000F7D3F0BD7047704710B5FFF723FF044681
:1053200011480078401C104908702046FFF71EFF06
:1053300000F0B9FC00F0BDFB10BD411E4FF0E022B3
:105340005161FF21094A11704FF0E021096941F0D4
:1053500005014FF0E02211611146096941F0020197
:1053600011617047D77700089100002023ED00E01D
:105370000146002002E0491C421CD0B20A78002AF3
:10538000F9D170472DE9F04105460E461446002735
:10539000FA48007820B1112020700020BDE8F0818B
:1053A0002878012808D0022807D0032802D0042832
:1053B00004D100E000BF00BF00BF03E00120207067
:1053C0000020EBE700BFFFF7CDFE074668693060BD
:1053D0003068FFF7CDFF80463846FFF7C7FE002054
:1053E00020704046DAE72DE9F04105460E461446A6
:1053F0000027E248007818B112202070BDE8F08143
:105400002878012808D0022807D0032802D00428D1
:1054100004D100E000BF00BF00BF02E00120207007
:10542000ECE700BFFFF79EFE07466E613846FFF7C8
:105430009DFE0020207000BFE0E7F0B5024612F8A4
:10544000384F95785678383A0B4618680FE000F1D7
:105450000B073F5DB74300F10B0C0CF80470674677
:105460003F5D17B9877AAF4387721B1D1868002804
:10547000EDD1F0BDC249C34A1278885CC249095CCB
:10548000BF4A515C01EBC001C04A1170704710B5B2
:105490000024FFF767FE0446B8480078F8B9BC4816
:1054A0000078E0B9FFF7E6FFBA48B849097850F844
:1054B0002100B9490860B5480078B84909788842A0
:1054C0000DD0B5480068C06B401CB3490968C8637B
:1054D000B3480068401CB2490860FFF75AFE2046F6
:1054E000FFF744FE10BD70B501460024AD4D2D6898
:1054F000EC61AC4C246821620B4618681BE0A94C97
:10550000246894F8385000F10B04645DA54D2D68B3
:1055100095F839502C43A34D2D6895F8386000F16B
:105520000B05AC55847A9F4D2D6895F83A502C4365
:1055300084721B1D18680028E1D19A4C246894F8E5
:105540003820914CA45C974D2D6895F83950AC43A8
:105550008D4DAC542C46A45C44B9924C246894F80C
:105560003A50884C2478AC43864D2C7070BD2DE9A0
:10557000FF4F83B081460E461546DDF8408000207F
:1055800000903060CA46DAF8004018E0207806281B
:1055900007D2DFE800F00604050307080AE009E087
:1055A00008E000BF00BF012088F80000002007B01D
:1055B000BDE8F08F00BF0AF1040ADAF80040002CC1
:1055C000E4D16E48007820B1022088F80000002065
:1055D000EDE76F48007820B10D2088F8000000202A
:1055E000E5E7FFF7BFFD00900020029083460190A1
:1055F000CA46DAF800405DE02078062849D2DFE8A4
:1056000000F048172A03494A208960B12089401ECA
:10561000208110C601200290002001C50BF101007D
:105620001FFA80FB03E0019840F0010001903CE08C
:10563000606858B1606801C50020606010C6012034
:1056400002900BF101001FFA80FB03E0019840F08B
:105650000200019029E06768F88AA8B13969081D3D
:105660003861086801C5B9683869884201D178682D
:105670003861F88A401EF88210C6012002900BF1B2
:1056800001001FFA80FB03E0019840F00400019044
:105690000BE000BF00BF0098FFF768FD00203060FE
:1056A000012088F80000584681E700BF0AF1040A8B
:1056B000DAF80040002C9FD10298012809D100207F
:1056C00030600098FFF752FD002088F8000058462F
:1056D0006DE73448006890F83400019941F080018A
:1056E00008433049096881F8340000202D490968D1
:1056F00081F835002B490698096808634846FFF78A
:10570000F2FE0098FFF732FDFFF7C1FEFFF72AFD1A
:1057100000902448006890F8350020B101281BD083
:10572000022818D100E000BF1E480068C4693CB1DF
:1057300010C6002030600BF101001FFA80FB09E069
:1057400001201849096881F8350049461548006864
:10575000FFF773FE06E000BF494612480068FFF7F6
:105760006CFE00BF00BF0F48006890F83500D8B14C
:10577000012842D002283FD138E0000091000020EB
:1057800017F60008950000209600002094000020E5
:10579000920000205C710020AC00002093000020EB
:1057A00078000020A4000020207806280DD2DFE831
:1057B00000F00C0607030D0E002001C511E000BF2C
:1057C000F7480068406A01C50BE000BF00BF0098C1
:1057D000FFF7CCFC00203060012088F8000058461C
:1057E000E5E600BF002088F800000CE0002001C5BD
:1057F0000E2088F8000006E000BF002001C50A2046
:1058000088F8000000BF00BF0020E549096881F862
:105810003400E349096881F83500E1490968C86145
:10582000DF4909680862DE49096848620098FFF7A5
:105830009DFC5846BBE67CB5002514E06946284629
:1058400001F0D5FE064666B9D64850F8254044B169
:10585000012C06D0D4E9020100EB8100A06401987C
:10586000E064681CC5B23F2DE8D97CBD002402E08D
:10587000142001F0C5FFCC4800780028F8D0CB48B0
:1058800000686421B0FBF1F0C84908600846006870
:1058900028B90020C6490870FF2001F0EAFE00BFC9
:1058A000FFF760FC0446C3480068C3490860002055
:1058B000C04908602046FFF759FCBF480068BB4953
:1058C0000968B0FBF1F0C0F16400B9490870FFF756
:1058D000B7FCFFF7B0FF0A2001F092FFE0E700B548
:1058E00087B0032000218022B44BCDE90132CDE9FD
:1058F00003104FF6FE703E23B14A0090AFF29300C2
:1059000001F087FC06AAAFA13E2001F0F2FD07B02E
:1059100000BD002400BFFFF725FC0446A548006831
:10592000401CA44908602046FFF720FCFFF786FCD6
:10593000F1E700B587B0032000218022A54BCDE917
:105940000132CDE903104FF6FF703F23A24A0090C9
:10595000AFF2410001F05DFC06AAA0A13F2001F0DA
:10596000C8FD07B000BD04E0002200F8012B4A1E6C
:1059700091B20029F8D1704730B5F0219B48FFF76C
:10598000F2FF9A4B03F11805002408E0002018707C
:105990005D6097A0586118331835601C84B2092CDB
:1059A000F4D300201870586091A058618F48914935
:1059B000086030BD30B54FF4F2618F48FFF7D3FF78
:1059C0004FF480717748FFF7CEFF8B4B03F15805FA
:1059D000002406E05D6186A0186558335835601CC8
:1059E000C4B2152CF6D30020586181A018650020A0
:1059F0008249086080488249086030BD0022814B9E
:105A00001A708149002004E0002201F8012B421C99
:105A1000D0B20828F8D300227C4B1A707C4B1A7045
:105A20007C4B1A605E4B1A60704700207A49086010
:105A30007A4908707A4908707A4908707A4908707A
:105A40007A4908605B4908605B490860574908600B
:105A500055490870704710B5FFF7E6FBFFF7E5FF03
:105A6000FFF7CCFFFFF7A6FFFFF786FF00F0B2FEBF
:105A700000F099FF01F095FAFFF75BFFFFF72FFFAA
:105A8000FFF7D6FB10BD10B50024FFF76BFB0446F3
:105A900065480078012808D160480078FF2804D2C2
:105AA0005E480078401C5D4908702046FFF75EFBA9
:105AB00010BD10B500245C480078012830D1FFF7F4
:105AC00051FB04465548007820B154480078401EE8
:105AD0005249087051480078F8B951480078E0B947
