:020000040800F2
:1000000070BB0020712A0008350C0008370C00086E
:100010003B0C00083F0C0008430C000800000000E7
:10002000000000000000000000000000470C000875
:10003000490C000800000000E72C0008592E0008B9
:100040008B2A00088B2A00088B2A00088B2A0008BC
:100050008B2A00088B2A00088B2A00088B2A0008AC
:100060008B2A00088B2A00088B2A00088B2A00089C
:100070008B2A00088B2A00088B2A00088B2A00088C
:100080008B2A00088B2A00088B2A00088B2A00087C
:10009000551200088B2A00088B2A00088B2A0008BA
:1000A0008B2A00088B2A00088B2A00088B2A00085C
:1000B0008B2A00088B2A00088B2A00088B2A00084C
:1000C0008B2A00088B2A00088B2A00088B2A00083C
:1000D0008B2A00087B0F0008FD0F00088B2A000800
:1000E0004D0C00088B2A00088B2A00088B2A000878
:1000F0008B2A00088B2A00088B2A00088B2A00080C
:100100008B2A00088B2A00088B2A00088B2A0008FB
:100110008B2A00088B2A00088B2A00088B2A0008EB
:100120008B2A00088B2A00088B2A00088B2A0008DB
:100130008B2A00084F0C00088B2A00088B2A000825
:100140008B2A00088B2A00088B2A00088B2A0008BB
:100150008B2A00088B2A00088B2A00088B2A0008AB
:100160008B2A00088B2A00088B2A00088B2A00089B
:100170008B2A00088B2A00088B2A00088B2A00088B
:100180008B2A00088B2A0008DFF80CD00CF022FD27
:10019000004800479102000870BB002046480068F4
:1001A0006422B0FBF2F0411EB1F1807F00D31DE06C
:1001B00021F07F40401E4FF0E022506150170F2287
:1001C000002807DA13071D0E3C4B00F00F04241F14
:1001D0001D5503E013071C0E394B1C5400BF0020B3
:1001E0004FF0E02290610720106100BF00BF35484A
:1001F0000068012805DB34A236A139A00CF028FDE7
:1002000004E031A233A142A00CF022FD00BF09237B
:100210004B4A00214B4804F045FD00BF29480068C7
:10022000012803DB48A00CF013FD02E04EA00CF007
:100230000FFD00BF0A23544A0021544804F032FD48
:1002400000BF20480068012803DB51A00CF000FD2E
:1002500002E057A00CF0FCFC00BF0B235C4A00211D
:100260005C4804F01FFD00BF16480068012803DB4E
:1002700059A00CF0EDFC02E05FA00CF0E9FC00BF1F
:1002800005E0002301221946184605F087F8F8E733
:1002900010B500F033FB03F07EF93B235E4A0021EA
:1002A000AFF2071004F0FEFC002005F0FDF803F0AB
:1002B00063FA002010BD00006800002018ED00E087
:1002C00000E400E0000000204E6F76203230203243
:1002D0003031380031373A35303A313000000000E3
:1002E0005B494E464F5D0920BAECC2CCB5C6D1A7DA
:1002F000CFB0CFB5CDB376312E302E3020B1E0D295
:10030000EBCAB1BCE43A25732025730D0A00000046
:100310005B494E464F5D09BAECC2CCB5C6D1A7CFFA
:10032000B0CFB5CDB376312E302E3020B1E0D2EB48
:10033000CAB1BCE43A25732025730D0A0000000001
:10034000D02E0020410600085B494E464F5D092033
:10035000CDF8C2E7B4ABCAE4C8CECEF1C6F4B6AFAE
:100360002E2E2E0D0A0000005B494E464F5D09CD32
:10037000F8C2E7B4ABCAE4C8CECEF1C6F4B6AF2E2D
:100380002E2E0D0A0000000050090020CB050008A9
:100390005B494E464F5D0920C4A3C4E2BAECC2CC0F
:1003A000B5C6C8CECEF1C6F4B6AF2E2E2E0D0A00BD
:1003B0005B494E464F5D09C4A3C4E2BAECC2CCB55A
:1003C000C6C8CECEF1C6F4B6AF2E2E2E0D0A000052
:1003D000900F0020EB0500085B494E464F5D092059
:1003E000BAECC2CCB5C6D1A7CFB0C8CECEF1C6F458
:1003F000B6AF2E2E2E0D0A005B494E464F5D09BA50
:10040000ECC2CCB5C6D1A7CFB0C8CECEF1C6F4B63B
:10041000AF2E2E2E0D0A00001003002010B5F02183
:10042000D6480CF0A8FB00244FF48071D44801F0AA
:10043000A9FD044644B90020D04948704FF400514A
:10044000D04801F0BBFD04E04FF40051CD4801F06D
:10045000B3FD4FF48051CA4801F094FD04463CB905
:100460000120C64948708103C64801F0A7FD04E099
:100470004FF48041C34801F09FFD4FF48041C048D4
:1004800001F080FD04463CB90220BC49487081035C
:10049000BC4801F093FD04E04FF40041B94801F07D
:1004A0008BFDB6484078B54908700120C87010BD72
:1004B00010B5B248C07801282ED1B0480078AF49B5
:1004C0004978884228D004F0E3FFAC49C860084668
:1004D000806890B10846C0688968401A6421B0FB02
:1004E000F1F0C1B2A5480278001D8154001FC06818
:1004F000A2498968401AA149086104F0C9FF9F49CF
:1005000088600846007938B10846407920B108462D
:10051000807908B10020C87010BD10B59748C07828
:1005200048B99648007895494978884203D004F044
:10053000AFFF9249886010BD10B500244FF4807160
:100540008F4801F01FFD04465CB98C4840788B4908
:100550000870002048704FF400518A4801F02EFDC9
:1005600004E04FF40051874801F026FD4FF480511C
:10057000834801F007FD044654B9804840787F491C
:1005800008700120487081037E4801F017FD04E0E7
:100590004FF480417B4801F00FFD4FF480417848D3
:1005A00001F0F0FC044654B974484078734908706F
:1005B000022048708103734801F000FD04E04FF40D
:1005C0000041704801F0F8FC10BDFFF727FF0BE079
:1005D000052300221146104604F0E0FEFFF7ACFFB1
:1005E000FFF766FFFFF799FFF2E7002427E04FF4DB
:1005F0007A7300221146104604F0D0FE601CC4B28B
:10060000052C07D10121604801F0D6FC08215E4885
:1006100001F0D4FC142C07D108215B4801F0CCFC7C
:100620002021594801F0CAFC282C08D12021564825
:1006300001F0C2FC0121544801F0C0FC0024D6E7BF
:1006400086B000240020009000F06AFA00F09EFAC4
:1006500000F034FB01A84D49096848604AF25A503D
:10066000ADF8040083208DF80600A0208DF8070067
:1006700000208DF8080045F6A520ADF814007BE0B9
:1006800000980A300090009800F0ACFA4FF4FA732A
:1006900000221146104604F081FE01208DF80A0068
:1006A00000208DF80B00354840788DF80C0004F0E0
:1006B000EFFE32498968441A6420B4FBF0F19DF8DA
:1006C0000C202E48001D805C401AC0B28DF80D0031
:1006D0002A48C07801280CD100BF2D4800680128A5
:1006E00003DB2CA00CF0B4FA02E030A00CF0B0FA5E
:1006F00039E09DF80C0080B900BF2548006801284A
:1007000005DB9DF80D102EA00CF0A2FA04E09DF878
:100710000D1032A00CF09CFA25E09DF80C00012889
:1007200010D100BF1A480068012805DB9DF80D10A4
:1007300030A00CF08DFA04E09DF80D1034A00CF000
:1007400087FA10E000BF12480068012805DB9DF819
:100750000D1035A00CF07CFA04E09DF80D1039A0C6
:100760000CF076FA00BFFF208DF8120007480168F0
:100770003A4800680AF0AFFC82E70000D42E00205F
:10078000000C02400010024000000240280000203F
:10079000000000205B494E464F5D0920D5FDD4DAAC
:1007A000D1A7CFB0D6D00D0A000000005B494E465D
:1007B0004F5D09D5FDD4DAD1A7CFB0D6D00D0A0050
:1007C0005B494E464F5D0920BAECB5C6CAA3D3E0DB
:1007D00025303264C3EB0D0A000000005B494E4631
:1007E0004F5D09BAECB5C6CAA3D3E025303264C365
:1007F000EB0D0A005B494E464F5D0920C2CCB5C6E1
:10080000CAA3D3E025303264C3EB0D0A0000000018
:100810005B494E464F5D09C2CCB5C6CAA3D3E0259D
:10082000303264C3EB0D0A005B494E464F5D092030
:10083000BBC6B5C6CAA3D3E025303264C3EB0D0AEC
:10084000000000005B494E464F5D09BBC6B5C6CAF5
:10085000A3D3E025303264C3EB0D0A002000002052
:100860001CB50121192001F071FD4FF4604000908A
:1008700001208DF8040003208DF8050069461C480E
:1008800001F01EFB2920009001208DF804000320B8
:100890008DF805006946174801F012FB4FF4A2409D
:1008A000009000208DF8040003208DF805006946B3
:1008B000114801F005FB4FF400510D4801F07CFB9D
:1008C0004FF480410A4801F077FB4FF4004108489B
:1008D00001F072FB0121074801F070FB0821054877
:1008E00001F06AFB2021034801F066FB1CBD0000FB
:1008F0000010024000000240000C024010B5FFF75B
:10090000AFFF00F005F800F03DFC00F026FA10BD46
:1009100008B500214FF0006000F036FD4FF4407044
:1009200000F0F8FC3D208DF8000000208DF801005B
:100930008DF8020001208DF80300684600F0EFFCFE
:1009400025208DF8000000208DF8010001208DF891
:1009500002008DF80300684600F0E1FC26208DF8C7
:10096000000000208DF8010001208DF802008DF8B4
:100970000300684600F0D3FC14208DF800004FF40B
:10098000407000F0C7FC00208DF8010001208DF8B8
:1009900002008DF80300684600F0C1FC08BD0000AD
:1009A00010B5002807DA0A07140E724A00F00F0388
:1009B0001B1FD45403E00A07130E6F4A135410BDD3
:1009C00000B5AFB001214FF0606001F0BFFC0BF04B
:1009D0009DF90BF022FF00BF0BF026FF0128FBD092
:1009E00068460BF09EF901200090002007904FF41C
:1009F00000700A9000200B900E90119013901490AC
:100A000015904FF480600990002020904FF0007006
:100A100021900011239000202590269004202890FA
:100A2000C005299040122A9080012B9040122C90F2
:100A300040002E90012168460BF02DFA01214F480D
:100A40000BF009FF2FB000BD08B54FF4407000F067
:100A500061FC3D208DF8000000208DF801008DF82C
:100A6000020001208DF80300684600F058FC08BD24
:100A70001CB50121072001F069FC0121880301F068
:100A8000A9FC012001F0CFFD03208DF80500022014
:100A90008DF8040000208DF806008DF807008620F0
:100AA00000906946364801F00BFA0B2201213448C8
:100AB00001F091FA0B220221314801F08CFA0B224D
:100AC00007212F4801F087FA3220009069462D480F
:100AD00001F0F6F90B2201212A4801F07CFA0B22E1
:100AE0000421284801F077FA0B220521254801F05E
:100AF00072FA4FF4605000906946234801F0E0F923
:100B00000B221146204801F066FA0B220C211E48E8
:100B100001F061FA0B220D211B4801F05CFA1CBDAB
:100B20001FB5FFF7A5FFFFF78FFFFFF749FF6846E7
:100B300001F077FB64210098B0FBF1F4B4F1807F01
:100B400000D311E024F07F40401E4FF0E0214861C7
:100B50000F214FF0FF30FFF723FF00204FF0E0217F
:100B600088610720086100BF0121881EFFF718FF78
:100B70001FBD000018ED00E000E400E040000100AF
:100B800000000240000802400004024000B587B0A7
:100B900006F036FE06F09CFF1F4804F07DFF06902D
:100BA0006FF0FF0004F078FF05901C4804F074FF1C
:100BB00004901B481B49002204ABCDE900210290A0
:100BC00005AA06A9184807F02EF8174807F05DF89F
:100BD000154807F0A2F807B000BD10B512480BF099
:100BE0004BF810BD01B5114900980968401AFA2860
:100BF00004D30E490098086007F066FF0C4900987E
:100C00000968401A41F28831884204D308490098A3
:100C100008600AF0F0FA08BDFC08A8C00101A8C0ED
:100C2000BBBA0008A5BC0008C42F002004000020A7
:100C300008000020704700BFFEE700BFFEE700BFCE
:100C4000FEE700BFFEE7704770477047704710B57A
:100C500002F028F804460C480078401C0A49087045
:100C6000204602F023F801E0FFF7B7FF0BF0A4FCE9
:100C70000028F9D140200BF005FE4FF480300BF036
:100C800001FE02F0B6FC10BD950000202DE9F041F8
:100C900004460D4616461F46DDF818802906F2B2B6
:100CA00041EA0241FAB241EA022108F0FF0241EAB8
:100CB000020004F0F1FE2060BDE8F08108B50022DA
:100CC0001221032007F093F81749086017480968B4
:100CD000486064200823A822C02100901448FFF730
:100CE000D5FF0AF060FA1349086040F20642124943
:100CF000104800680AF03EF940F207420C490D48DE
:100D000000680AF0F2F908BD00BF411E081EFCD1C0
:100D1000704770B504460D46294620460AF0DBF9B7
:100D20000648FFF7F1FF70BD2800002010000020EA
:100D300024000020200000203CD20008FFFF0F000C
:100D400000BF704700BFE94A128802F04002002A43
:100D5000F9D0C2B2E54B9A80704700B589B0012145
:100D6000092001F0F3FA0121102001F033FBDF48E4
:100D700001F070FC03A801F021FD01A801F03AFD8B
:100D800002208DF820008DF8210000208DF822002F
:100D900001208DF823004002079007A9D44801F0F4
:100DA0008FF807220921D24801F015F94FF480602D
:100DB000079007A9CE4801F083F807220A21CC4802
:100DC00001F009F901A9C94801F004FD4FF41650DA
:100DD00003900020ADF81000ADF81200ADF814003B
:100DE000ADF818000C20ADF8160003A9BF4801F0BB
:100DF0007FFC012240F22551BC4801F0B7FD40F2D2
:100E00002661BA4801F024FE0121B84801F0F8FC3F
:100E10000121480401F0CDFAB64801F01BFC03A8FB
:100E200001F0CCFC01A801F0E5FC02208DF82000C7
:100E30008DF8210000208DF8220001208DF823007C
:100E40002020079007A9AC4801F03AF807220521B5
:100E5000A94801F0C0F84020079007A9A64801F072
:100E60002FF807220621A44801F0B5F801A9A148EE
:100E700001F0B0FC4FF4165003900020ADF81000C4
:100E8000ADF81200ADF81400ADF818000C20ADF864
:100E9000160003A9974801F02BFC012240F22551CE
:100EA000944801F063FD40F22661924801F0D0FDC4
:100EB0000121904801F0A4FC8020079002208DF8C9
:100EC000210001208DF8200007A98B4800F0F8FFD1
:100ED0008021894801F072F809B000BD10B50446C0
:100EE0002146824801F0B7FC00BF80217F4801F015
:100EF00062FD0028F9D010BD10B5044620217B48C2
:100F000001F059FD30B94FF400517C4801F054F81C
:100F1000002010BD754801F0A2FC20700120F8E708
:100F200001B502E00098401E009000980028F9D119
:100F300008BD70B57248008800F40040E0B1704808
:100F4000057870A00BF084FE00240DE07248015D6E
:100F5000664801F080FC00BF4021644801F02BFD91
:100F60000128F9D1601CC4B2AC42EFDB6BA00BF0DE
:100F70006FFE00206249088070BD10B502F023FBAF
:100F800040F22551594801F02CFD10B3574801F0AB
:100F900066FCC4B25A48008800F40040C8B95848FA
:100FA000008800F4804060B10A2C03D0002054492E
:100FB000088020E05248008840F4004050490880F2
:100FC00019E00D2C06D14E48008840F480404C4971
:100FD000088010E04A480088C0F30D004E490C54C8
:100FE00047480088401C4649088008460088C728B2
:100FF00001DD0020088002F0FCFA10BD10B502F0FF
:10100000E2FA40F225513B4801F0EBFC30B339489D
:10101000001D00884349444A1268885442480068C9
:10102000401C414908600846006802280FD3084662
:101030000068801E3B49085C0D2808D13A480068CA
:10104000401E085C0A2802D1012038490870364841
:101050000068642802D900203349086040F22771F3
:10106000244801F0BEFC20B140F22771214801F074
:10107000EFFC02F0BEFA10BD00E0401E0028FCD1DB
:10108000704770B505460E46002480211A4800F0CE
:1010900093FF4FF49670FFF7EFFF00BF0BE0285D62
:1010A0001449091D088000BF1248008800F0400064
:1010B0000028F9D0641CB442F1D3C820FFF7DCFF4C
:1010C00080210D4800F07AFF70BD10B517480078F8
:1010D00001280AD1002015490870134801681148F9
:1010E000FFF7CFFF00201049086010BD001001403D
:1010F0000000024000440040000C0240001002408A
:10110000300000200D0AC4FAB7A2CBCDB5C4CFFB86
:10111000CFA2CEAA3A0D0A00FC2F00200D0A0D0A1C
:1011200000000000C4300020340000203200002005
:1011300010B50246002000BF20E000EB80036F4C9A
:1011400054F82330934218D100EB800304EB83035F
:101150001B79CB7000EB800304EB83031B7A0B71CC
:1011600000EB800304EB83031B7B4B7100EB8003DC
:1011700004EB83031B8A0B8010BD401C1228DCD3B8
:1011800000BFF9E700B589B00121082001F0DEF8C1
:101190000120079002208DF820008DF8210000200A
:1011A0008DF8220001208DF8230007A9544800F093
:1011B00087FE0220079007A9514800F081FE09220E
:1011C00000214F4800F007FF092201214C4800F0A0
:1011D00002FF0121480601F0ECF84A4800F00AF944
:1011E00004A800F02BFA00208DF816008DF81700E7
:1011F0008DF818008DF819008DF81A008DF81B0075
:101200008DF8120004A9FA20FFF792FF04A93D48C7
:1012100000F009F900208DF80A008DF80B0001207C
:101220008DF80C000020ADF80000ADF80200ADF81C
:101230000400ADF80600ADF8080001208DF80D009F
:10124000684600F07AF9012202212E4800F074FC71
:1012500009B000BD00B585B002F0B5F900200090DE
:1012600001908DF808008DF80A008DF813008DF8B4
:101270000B006A460021234800F043FB0098222817
:1012800008D19DF80B00BB2804D14FF400511E4833
:1012900000F094FE01201D4908700221194800F059
:1012A0004EFD02F0A6F905B000BDF0B585B00546CB
:1012B0000E4600270095002001908DF808008DF85B
:1012C000090008208DF80A0011480670002406E085
:1012D0000F48015D0DF10B000155601CC4B2082CD4
:1012E000F6DB6946074800F017FA074605B0F0BD7F
:1012F00010B5AA211120FFF7D8FF10BDD4CF0008E8
:10130000000C024000640040001002405400002025
:101310004C00002032490143324A1160704770B5D9
:10132000002100230F22C4781CB32E4C246804F43F
:10133000E064C4F5E064C4F30721C1F10404E3B23E
:101340000A4144789C40E1B28478144021430C0760
:10135000210E254C05786155047804F01F05012401
:10136000AC4005786D11AD0005F1E025C5F80041F0
:1013700009E0047804F01F050124AC401B4D0678F9
:10138000761145F8264070BD194A0A400243154BB4
:101390001B1F1A60704739B1124A121D12680243AE
:1013A000104B1B1D1A6006E00E4A121D1268824384
:1013B0000C4B1B1D1A607047042808D14FF0E02128
:1013C000096941F004014FF0E022116107E04FF09C
:1013D000E021096921F004014FF0E022116170471A
:1013E0000000FA050CED00E000E400E080E100E020
:1013F00080FFFF1F10B50446FE48844209D1012139
:10140000480601F03EF800214FF0007001F039F875
:1014100008E00121880601F034F800214FF08060D7
:1014200001F02FF810BD30B50246002000231468EB
:1014300024F002041460146844F00104146000E015
:101440005B1C546804F001041CB94FF6FF74A342FE
:10145000F6D1546804F001040CB900206CE08C79DA
:10146000012C04D1146844F08004146003E0146873
:1014700024F080041460CC79012C04D1146844F069
:101480004004146003E0146824F0400414600C7AF3
:10149000012C04D1146844F02004146003E01468A3
:1014A00024F0200414604C7A012C04D1146844F018
:1014B0001004146003E0146824F0100414608C7AA3
:1014C000012C04D1146844F00804146003E014688B
:1014D00024F008041460CC7A012C04D1146844F080
:1014E0000404146003E0146824F0040414608C788D
:1014F000A407CD7844EA05640D7944EA05444D79A2
:1015000044EA05540D886D1E2C43D461146824F000
:1015100001041460002300E05B1C546804F0010423
:101520001CB14FF6FF74A342F6D1546804F00104D5
:101530000CB1002000E0012030BD10B50021837AFD
:10154000012202FA03F1AC4A126842F00102AA4BEE
:101550001A60A94A1C3212688A43A74B1C331A60CE
:10156000027BCAB9A44A0C3212688A43A24B0C33DC
:101570001A604288C38842EA03439F4A4032847A11
:1015800042F834300288838842EA03439A4A403260
:10159000847A02EBC4025360027B012A19D1964A75
:1015A0000C3212680A43944B0C331A604288038849
:1015B00042EA0343904A4032847A42F83430C28887
:1015C000838842EA03438C4A4032847A02EBC402A5
:1015D0005360C27A3AB9884A121D12688A43864B10
:1015E0001B1D1A6006E0844A121D12680A43824BD2
:1015F0001B1D1A60028932B97F4A143212688A436D
:101600007D4B14331A600289012A06D17A4A1432BA
:1016100012680A43784B14331A60427B012A06D1C0
:10162000754A1C3212680A43734B1C331A60724AA3
:10163000126822F00102704B1A6010BD0021817106
:10164000C171017241728172C1728170C1700321D6
:1016500001710221417101210180704766490968C9
:1016600041F00101644A11601146096843F60E72A7
:101670009143614A11601146096841EA00211160F5
:101680001146096821F001011160704721B102681B
:1016900042F48032026003E0026822F48032026089
:1016A0007047E1B1026842F0800202604FF4C272FA
:1016B000125842F480734FF4C27213504FF4CA723E
:1016C000125842F480734FF4CA7213504FF4D2721E
:1016D000125842F480734FF4D27213501BE0026828
:1016E00022F0800202604FF4C272125822F480731A
:1016F0004FF4C27213504FF4CA72125822F480731E
:101700004FF4CA7213504FF4D272125822F48073FD
:101710004FF4D2721350704710B502460020936800
:1017200003F08063B3F1806F00D110E0936803F0A1
:101730000063B3F1006F01D1012008E0936803F06A
:101740008053B3F1805F01D1022000E0042004281F
:1017500079D002F5C07303EB00131B6803F001049A
:1017600002F5C07303EB00131C600B7A7BB94B7A54
:101770000C8843EA445302F5C07404EB0014246857
:10178000234302F5C07404EB0014236010E00B7ACD
:101790004C6843EAC4034C7A234302F5C07404EB5B
:1017A00000142468234302F5C07404EB0014236082
:1017B0008B7A03F00F038B7202F5C07303EB0013F7
:1017C0005B6823F00F0402F5C07303EB00135C6049
:1017D00002F5C07303EB00135B688C7A234302F5B8
:1017E000C07404EB001463608B7B1C064B7B44EAE3
:1017F000034403E000640040006600400B7B44EAC1
:101800000323CC7A234302F5C07404EB0014A360D5
:101810008B7C1C064B7C44EA03440B7C44EA032388
:10182000CC7B234302F5C07404EB0014E36002F5A3
:10183000C07303EB00131B6843F0010402F5C0738F
:1018400003EB00131C6010BD10B50246002321B14C
:10185000012907D002290FD109E09068F94C00EA6C
:1018600004030BE09068F84C00EA040306E090687B
:10187000F64C00EA040301E0002300BF00BFF44C73
:10188000181BA34216D007DC83B16FF080601844A8
:1018900070B1022818D111E0B0F5007F10D0ED4CE6
:1018A000204448B1B0F5003F0ED10BE002230DE01B
:1018B00000230BE0002309E0002307E0012305E0FB
:1018C000012303E0012301E0002300BF00BFD8B2E1
:1018D00010BD21B1012907D002290FD109E082688A
:1018E00042F0800282600AE0826842F40042826034
:1018F00005E0826842F40002826000E000BF00BFA1
:10190000704710B500F5D87303EB01131B6803F0A3
:1019100004031372137A53B900F5D87303EB011360
:101920001B6840F2FF7404EA5353136009E000F5AA
:10193000D87303EB01131B686FF0604404EAD30310
:10194000536000F5D87303EB01131B6803F0020327
:10195000537200F5D87303EB01135B6803F00F03B8
:10196000937200F5D87303EB01135B681B0AD37401
:1019700000F5D87303EB01139B68D37200F5D8739D
:1019800003EB01139B681C0A147300F5D87303EB77
:1019900001139B681C0C547300F5D87303EB0113FF
:1019A0009B681B0E937300F5D87303EB0113DB6880
:1019B000D37300F5D87303EB0113DB681C0A1474AE
:1019C00000F5D87303EB0113DB681C0C547400F5AD
:1019D000D87303EB0113DB681B0E937421B9C36842
:1019E00043F02003C36003E0036943F02003036175
:1019F00010BD21B9C26842F02002C26003E0026952
:101A000042F02002026170470246002019B9D368F3
:101A100003F0030006E0012903D1136903F003007A
:101A200000E00020704710B502460B4600204FF63C
:101A3000FF71BBB9146824F0020444F0010414607F
:101A400000E0491E546804F00304012C01D0002971
:101A5000F7D1546804F00304012C01D0002032E0D7
:101A6000012030E0012B13D1146824F0030414602A
:101A700000E0491E546804F003040CB10029F8D1B9
:101A8000546804F003040CB100201CE001201AE0AB
:101A9000022B17D1146824F0010444F002041460EE
:101AA00000E0491E546804F00304022C01D0002910
:101AB000F7D1546804F00304022C01D0002002E0A6
:101AC000012000E0002010BD014600200A6822F03D
:101AD000010242F002020A604A6802F00302022A8E
:101AE00000D10120704701464FF6FF7200200B68BD
:101AF00023F002030B6000E0521E4B6803F0020368
:101B0000022B01D1002AF7D14B6803F00203022B0C
:101B100000D001207047014600208A6902F0700061
:101B20007047014600208A69100E70470146002068
:101B30008A69C2F3074070471AB143690B43436196
:101B400002E043698B434361704710B502460020B1
:101B500001F4700343B19369C1F3130423400BB143
:101B600001202DE000202BE001F0807343B1536889
:101B7000C1F3130423400BB1012021E000201FE03A
:101B800001F0006343B19368C1F3130423400BB128
:101B9000012015E0002013E001F0007343B1D36889
:101BA000C1F3130423400BB1012009E0002007E03A
:101BB0001369C1F3130423400BB1012000E000209E
:101BC00010BD0022244B994202D10023836111E011
:101BD000C1F3130201F000730BB1C2600AE001F01F
:101BE00080630BB1026105E001F000630BB182601C
:101BF00000E0426070470246002002EA01030BB198
:101C0000012000E00020704770B504460D46002614
:101C100060692840002872D0B5F5807F69D01DDC4E
:101C2000082D42D006DC012D2DD0022D31D0042DFF
:101C30007FD134E0102D3ED0202D42D0402D78D1E0
:101C400045E000000300000400030008000003104A
:101C5000000100080001FFF77000F030B5F5004FFB
:101C600061D009DCB5F5007F4AD0B5F5806F4DD065
:101C7000B5F5006F5DD150E0B5F5803F2DD0B5F5DD
:101C8000003F56D12FE0A0685549FFF7B4FF064644
:101C900051E0E0680321FFF7AEFF06464BE0E06845
:101CA0000821FFF7A8FF064645E0E0681021FFF78E
:101CB000A2FF06463FE020690321FFF79CFF06468E
:101CC00039E020690821FFF796FF064633E02069D6
:101CD0001021FFF790FF06462DE060680821FFF70E
:101CE0008AFF064627E060681021FFF784FF06465A
:101CF00021E0A0690121FFF77EFF06461BE01BE003
:101D0000A0690221FFF777FF064614E0A0690421CD
:101D1000FFF771FF06460EE00BE0A0697021FFF7A8
:101D20006AFF064607E060680421FFF764FF064685
:101D300001E0002600BF00E00026304670BDB1F58E
:101D4000007F3AD00FDC202928D006DC01291CD0E6
:101D500004291DD0082940D11DE0402921D0B1F52A
:101D6000807F3AD126E0B1F5004F31D006DCB1F5E5
:101D7000806F25D0B1F5006F2FD124E0B1F5803F01
:101D800012D0B1F5003F28D111E0154A826025E05C
:101D90000822C26022E01022C2601FE00822026115
:101DA0001CE01022026119E00822426016E01022B5
:101DB000426013E00422426010E0042242600DE021
:101DC000042242600AE0002282610422426005E0AF
:101DD000002282610422426000E000BF00BF704721
:101DE0000101010010B504468C48844208D101214C
:101DF000084600F000FB0021012000F0FCFA5EE044
:101E00008748844208D10121022000F0F4FA002121
:101E1000022000F0F0FA52E08248844208D1012109
:101E2000042000F0E8FA0021042000F0E4FA46E083
:101E30007D48844208D10121082000F0DCFA00210D
:101E4000082000F0D8FA3AE07848844208D101210D
:101E5000102000F0D0FA0021102000F0CCFA2EE083
:101E60007348844208D10121202000F0C4FA0021E7
:101E7000202000F0C0FA22E06E48844208D10121FF
:101E8000402000F0B8FA0021402000F0B4FA16E03B
:101E90006948844208D10121802000F0ACFA002179
:101EA000802000F0A8FA0AE06448844207D10121AA
:101EB000801500F0A0FA0021A01500F09CFA10BDDA
:101EC000F0B50A4600210023002400BF3DE00125B3
:101ED00005FA01F3156805EA03049C4234D105684C
:101EE0004F000326BE40B543056015794E00B5404E
:101EF0000668354305601579012D02D01579022D4C
:101F000016D185684F000326BE40B54385605579DC
:101F10004E00B540866835438560456801268E4091
:101F2000B5434560456896798E40B6B23543456005
:101F3000C5684F000326BE40B543C560D5794E0045
:101F4000B540C6683543C560491C1029BFD3F0BDF4
:101F50004FF6FF7101600021017141718171C17102
:101F6000704708B54FF480320092009A0A430092FD
:101F7000009AC261C161009AC261C2690092C269DD
:101F8000009208BD0246002013690B400BB10120EE
:101F900000E0002070470146086980B270470246A1
:101FA000002053690B400BB1012000E00020704776
:101FB0000146486980B2704701837047418370478A
:101FC0000AB1018300E04183704741617047426973
:101FD0004A4042617047F0B5002300244D07ED0EE2
:101FE00002FA05F3CE1000F1200555F826504E07F1
:101FF000F70E0F26BE40B543CF1000F1200646F87D
:102000002750CE1000F1200555F8265045EA03046C
:10201000CE1000F1200545F82640F0BD000002403A
:102020000004024000080240000C02400010024080
:102030000014024000180240001C02400020024030
:10204000FA48006840F00100F84908600020F749AC
:1020500008310860F5480068F5490840F349086010
:10206000F448091D0860081F006820F48020091F3B
:1020700008600020ED490C31086070470021EB4AF0
:10208000921C117011460870704710B5014600226D
:10209000002300204A11012A02D1E44C236808E001
:1020A000022A03D1E14C7034236802E0DF4C74341F
:1020B000236801F01F02012494401C400CB1012050
:1020C00000E0002010BD38B500200090002400255D
:1020D00000BF3120FFF7D9FF05460098401C009053
:1020E0000098B0F5A06F01D0002DF2D03120FFF79D
:1020F000CCFF08B1012400E00024204638BD014691
:102100000020CA4A106820F0F80040EAC1001060C0
:102110007047C949086070470021C44A7032117085
:102120001170012802D004280AD104E00121BF4A1D
:102130007032117005E00521BC4A7032117000E068
:1021400000BF00BF7047BD490860704770B5049C70
:1021500041EA82150126C6EB530645EA06450543CA
:1021600045EA0465B14E361D356070BDB24908665A
:102170007047820142EA0172AC4B84331A607047A7
:10218000AD4988667047AC49C86470470246002074
:10219000A64B0833186820F0EC6042EA01031843AC
:1021A000A24B083318607047024600209F4B08334B
:1021B000186820F0784042EA010318439B4B08332B
:1021C0001860704701460020984A0832106820F0D5
:1021D000030008431060704794480830006800F01E
:1021E0000C00704701460020904A0832106820F029
:1021F000F000084310607047014600208B4A083207
:10220000106820F4E0500843106070470146002039
:10221000864A0832106820F4604040EAC10010602D
:102220007047F0B500210022002402250026022379
:102230007E4F08373F6807F00C0121B1042905D013
:10224000082937D105E07E4F076036E07D4F0760F3
:1022500033E0764F3F1D3F68C7F38056734F3F1DF5
:102260003F6807F03F036EB1764FB7FBF3F7DFF837
:10227000BCC10CF1040CDCF800C0CCF3881C07FBDB
:102280000CF40CE06E4FB7FBF3F7DFF8A0C10CF1D4
:10229000040CDCF800C0CCF3881C07FB0CF4634F83
:1022A0003F1D3F68C7F301477F1C7D00B4FBF5F776
:1022B000076002E0624F076000BF00BF5B4F083756
:1022C0003F6807F0F00109095F4F7A5C0768D74063
:1022D0004760564F08373F6807F4E051890A5A4F64
:1022E0007A5C4768D7408760504F08373F6807F4EB
:1022F0006041490B544F7A5C4768D740C760F0BDD6
:10230000002100F44072B2F5407F0AD1474A0832FA
:10231000116821F4F8114D4A02401143434A083232
:102320001160424A70321268C0F30B031A433F4BEC
:1023300070331A60704741494439086070473F491B
:1023400040390860704742490860704739B1374AE0
:10235000303212680243354B30331A6006E0334A9C
:10236000303212688243314B30331A60704739B1D2
:102370002E4A3432126802432C4B34331A6006E082
:102380002A4A343212688243284B34331A60704729
:1023900039B1264A383212680243244B38331A6066
:1023A00006E0224A383212688243204B38331A60E2
:1023B000704739B11D4A4032126802431B4B40330B
:1023C0001A6006E0194A403212688243174B4033C4
:1023D0001A60704739B1154A443212680243134BF0
:1023E00044331A6006E0114A4432126882430F4BAC
:1023F00044331A60704739B10C4A103212680243F4
:102400000A4B10331A6006E0084A10321268824301
:10241000064B10331A607047E1B1044A1432126857
:102420000243024B14331A6019E0000000380240E6
:10243000FFFFF6FE1030002400004742800E4742A6
:102440000024F40040787D0155000020FFFCFF0FC0
:102450005C0147425B4A126882435A4B1A607047DC
:1024600039B1584A121D12680243564B1B1D1A609F
:1024700006E0544A121D12688243524B1B1D1A601B
:10248000704739B14F4A0C32126802434D4B0C333E
:102490001A6006E04B4A0C3212688243494B0C33F7
:1024A0001A60704739B1474A103212680243454BEF
:1024B00010331A6006E0434A103212688243414BDF
:1024C00010331A60704739B13E4A3C3212680243F9
:1024D0003C4B3C331A6006E03A4A3C321268824375
:1024E000384B3C331A60704739B1364A4032126873
:1024F0000243344B40331A6006E0324A40321268DD
:102500008243304B40331A60704739B12D4A443210
:10251000126802432B4B44331A6006E0294A4432C6
:1025200012688243274B44331A60704739B1254AF9
:102530004C3212680243234B4C331A6006E0214AA6
:102540004C32126882431F4B4C331A60704739B1CA
:102550001C4A5032126802431A4B50331A6006E08C
:10256000184A503212688243164B50331A60704733
:1025700039B1144AD21F12780243124BDB1F1A7072
:1025800006E0104AD21F127882430E4BDB1F1A70EE
:1025900070470C486030006840F080700949603135
:1025A0000860704701460020064A083A12680A404F
:1025B0000AB1012000E0002070470249891F08701D
:1025C000704700001438024010B501218803FFF75E
:1025D00069FF00214FF48040FFF764FF10BD1A49E6
:1025E0000860704730B500228B071C0F0F2303FAD9
:1025F00004F2154B08338C1053F824309343124CDB
:1026000008348D1044F8253023468C1053F82430BC
:102610008C07240F00FA04F423430B4C08348D106C
:1026200044F8253030BD0949086070470849086002
:102630007047002004492031096801F4807109B114
:10264000012000E00020704700380140DC002742F4
:102650000004274210B50446F748844208D10121FE
:102660001020FFF71FFF00211020FFF71BFF3EE0A7
:10267000F248844209D101214804FFF702FF0021FA
:102680004FF40030FFF7FDFE31E0ED48844209D100
:1026900001218804FFF7F5FE00214FF48020FFF7A9
:1026A000F0FE24E0E748844209D10121C804FFF785
:1026B000E8FE00214FF40020FFF7E3FE17E0E248B8
:1026C000844209D101210805FFF7DBFE00214FF408
:1026D0008010FFF7D6FE0AE0DC48844207D10121D2
:1026E0002020FFF7DFFE00212020FFF7DBFE10BDDA
:1026F0002DE9FF4705460E460024A14600BFA0462F
:10270000B08900B100BF2C8A24F44054F0880443FF
:102710002C82AC8941F20C608443B0883189084333
:10272000718908430443AC81AC8A24F44074B089B5
:102730000443AC826846FFF774FDBF48854202D06F
:10274000C248854202D1DDF80C9001E0DDF8089026
:10275000A88900F4004040B109EBC90000EB091062
:1027600031684900B0FBF1F707E009EBC90000EB65
:10277000091031688900B0FBF1F76420B7FBF0F075
:1027800004012009642101FB1078A88900F40040AD
:1027900040B1322000EBC800B0FBF1F000F00700C0
:1027A000044308E0322000EB08106421B0FBF1F094
:1027B00000F00F0004432C81BDE8FF874FF4165151
:1027C000016000218180C18001810C2141810021B3
:1027D0008181704710B502460020108A20F4706095
:1027E0000B884C8823438C882343CC88234318438D
:1027F000108210BD0021018041808180C18070471E
:1028000021B1828942F40052828104E082894DF62E
:10281000FF731A4082817047028B02F47F42028369
:10282000028B0A430283704721B1828942F400423D
:10283000828103E08289C2F30E028281704721B156
:10284000828A42F40062828204E0828A4FF2FF733D
:102850001A4082827047C1F30802828070470146A5
:102860008888C0F308007047028A4FF6F0731A4058
:102870000282028A0A430282704721B1828942F0B1
:102880000202828104E082894FF6FD731A40828140
:10289000704782894FF2FF731A40828182890A430E
:1028A00082817047028A4FF6DF731A400282028AE1
:1028B0000A430282704721B1028A42F480420282B6
:1028C00004E0028A4BF6FF731A4002827047818946
:1028D00041F001018181704721B1828A42F00802F2
:1028E000828204E0828A4FF6F7731A408282704730
:1028F000028BD2B20283028B42EA0122028370472A
:1029000021B1828A42F02002828204E0828A4FF65C
:10291000DF731A408282704721B1828A42F010022E
:10292000828204E0828A4FF6EF731A4082827047F7
:10293000828A4FF6FB731A408282828A0A4382821D
:10294000704721B1828A42F00202828204E0828AC8
:102950004FF6FD731A40828270471AB1838A0B4387
:10296000838202E0838A8B4383827047F0B50346FB
:10297000002400260025002040F66A17B94200D145
:1029800000BF1846C1F3421401F01F06012707FAE1
:1029900006F5012C01D10C3004E0022C01D11030DD
:1029A00000E014301AB107682F43076002E007689F
:1029B000AF430760F0BD02460020B1F5007F00D1B3
:1029C00000BF13880B400BB1012000E000207047CE
:1029D00001F40072B2F5007F00D100BFCA4302804B
:1029E000704770B50246002400230025002040F601
:1029F0006A16B14200D100BFC1F3421501F01F03B6
:102A0000012606FA03F3012D02D19689334006E030
:102A1000022D02D1168A334001E0968A33400C120F
:102A2000012606FA04F41688344013B10CB10120D3
:102A300000E0002070BD0000001001400044004094
:102A400000480040004C004000500040001401408D
:102A500010B50022002340F66A14A14200D100BF45
:102A60000A1201249440A3B2DC43048010BD00008C
:102A70000648804706480047FEE7FEE7FEE7FEE718
:102A8000FEE7FEE7FEE7FEE7FEE7FEE7712B000844
:102A9000890100080CB5002001900090764800687C
:102AA00040F480307449086000BF7348006800F447
:102AB000003000900198401C0190009818B90198CE
:102AC000B0F5A06FF1D16C48006800F4003010B18F
:102AD0000120009001E0002000900098012846D1DC
:102AE00065484030006840F08050634940310860DC
:102AF0006248006840F48040604908605E480830E1
:102B000000685D49083108600846006840F40040EC
:102B100008600846006840F4A05008605848091F43
:102B20000860081F006840F08070091F086000BF3F
:102B30005148006800F000700028F9D040F20560AC
:102B4000504908604C480830006820F003004A49AA
:102B5000083108600846006840F00200086000BFC5
:102B600045480830006800F00C000828F8D10CBD7A
:102B700010B54548006840F47000434908603E487D
:102B8000006840F001003C49086000203A490831E3
:102B90000860394800683D490840374908603C48AA
:102BA000091D0860081F006820F48020091F0860C4
:102BB000002031490C310860FFF76CFF4FF00060D6
:102BC00031498039086010BD70B500200022022311
:102BD00000240221284D08352D6805F00C0020B195
:102BE000042806D0082834D107E02A4D2A4E356043
:102BF00033E02A4D284E35602FE01F4D2D1D2D68E6
:102C0000C5F380541C4D2D1D2D6805F03F0154B1B6
:102C1000224DB5FBF1F5184E361D3668C6F3881601
:102C200005FB06F209E01B4DB5FBF1F5124E361D12
:102C30003668C6F3881605FB06F20F4D2D1D2D686C
:102C4000C5F301456D1C6B00B2FBF3F5124E356008
:102C500003E0104D104E356000BF00BF064D083533
:102C60002D68C5F303150E4E705D0B4D2D68C540E4
:102C7000094E356070BD0000003802400070004011
:102C800019544005003C024088ED00E0FFFFF6FECD
:102C9000103000240024F4006800002040787D01FA
:102CA0006C000020EFF3108072B6704780F310883C
:102CB000704725484FF0FF010170002080F309881C
:102CC00022480121017022484FF08051016062B614
:102CD000FEE71F484FF08051016070471C484FF0DD
:102CE00080510160704772B6EFF3098050B1A0F1D6
:102CF000200080E8F00FA0F1400080EC108B154917
:102D00000968086000B5144880475DF804EB134873
:102D100013490A7802700F4812490A680260106865
:102D200090EC108B00F1400090E8F00F00F12000D3
:102D30002EF0100E80F309884EF0040E62B6704734
:102D400072B6704762B6704722ED00E0A200002024
:102D500004ED00E0A8000020552E00089700002098
:102D600098000020B000002010B5FFF7E9FF10BD6B
:102D700010B5FFF7E7FF10BD704770477047704709
:102D80007047F0B504460D461046CC260660DD2798
:102D9000061F30463760002105E04FF0AA37061FB6
:102DA00030463760491C1029F7D34FF08077061F53
:102DB00030463760061F304634603A4F061F3046B3
:102DC00037604FF01237061F304637604FF0033739
:102DD000061F304637604FF00237061F3046376017
:102DE0007F10061F30463760061F304635604FF0B3
:102DF0001137061F304637604FF01037061F304638
:102E000037604FF00937061F304637604FF00837FC
:102E1000061F304637604FF00737061F30463760D1
:102E20004FF00637061F304637604FF00537061F54
:102E3000304637604FF00437061F304637600021B8
:102E400005E04FF0BB37061F30463760491C10299C
:102E5000F7D3F0BD7047704710B5FFF723FF044666
:102E600011480078401C104908702046FFF71EFFEB
:102E700000F0B9FC00F0BDFB10BD411E4FF0E02298
:102E80005161FF21094A11704FF0E021096941F0B9
:102E900005014FF0E02211611146096941F002017C
:102EA00011617047175300089500002023ED00E0E2
:102EB0000146002002E0491C421CD0B20A78002AD8
:102EC000F9D170472DE9F04105460E46144600271A
:102ED000FA48007820B1112020700020BDE8F08170
:102EE0002878012808D0022807D0032802D0042817
:102EF00004D100E000BF00BF00BF03E0012020704C
:102F00000020EBE700BFFFF7CDFE074668693060A1
:102F10003068FFF7CDFF80463846FFF7C7FE002038
:102F200020704046DAE72DE9F04105460E4614468A
:102F30000027E248007818B112202070BDE8F08127
:102F40002878012808D0022807D0032802D00428B6
:102F500004D100E000BF00BF00BF02E001202070EC
:102F6000ECE700BFFFF79EFE07466E613846FFF7AD
:102F70009DFE0020207000BFE0E7F0B5024612F889
:102F8000384F95785678383A0B4618680FE000F1BC
:102F90000B073F5DB74300F10B0C0CF8047067465C
:102FA0003F5D17B9877AAF4387721B1D18680028E9
:102FB000EDD1F0BDC249C34A1278885CC249095CB0
:102FC000BF4A515C01EBC001C04A1170704710B597
:102FD0000024FFF767FE0446B8480078F8B9BC48FB
:102FE0000078E0B9FFF7E6FFBA48B849097850F829
:102FF0002100B9490860B5480078B8490978884285
:103000000DD0B5480068C06B401CB3490968C8635F
:10301000B3480068401CB2490860FFF75AFE2046DA
:10302000FFF744FE10BD70B501460024AD4D2D687C
:10303000EC61AC4C246821620B4618681BE0A94C7B
:10304000246894F8385000F10B04645DA54D2D6898
:1030500095F839502C43A34D2D6895F8386000F150
:103060000B05AC55847A9F4D2D6895F83A502C434A
:1030700084721B1D18680028E1D19A4C246894F8CA
:103080003820914CA45C974D2D6895F83950AC438D
:103090008D4DAC542C46A45C44B9924C246894F8F1
:1030A0003A50884C2478AC43864D2C7070BD2DE985
:1030B000FF4F83B081460E461546DDF84080002064
:1030C00000903060CA46DAF8004018E02078062800
:1030D00007D2DFE800F00604050307080AE009E06C
:1030E00008E000BF00BF012088F80000002007B002
:1030F000BDE8F08F00BF0AF1040ADAF80040002CA6
:10310000E4D16E48007820B1022088F80000002049
:10311000EDE76F48007820B10D2088F8000000200E
:10312000E5E7FFF7BFFD0090002002908346019085
:10313000CA46DAF800405DE02078062849D2DFE888
:1031400000F048172A03494A208960B12089401EAF
:10315000208110C601200290002001C50BF1010062
:103160001FFA80FB03E0019840F0010001903CE071
:10317000606858B1606801C50020606010C6012019
:1031800002900BF101001FFA80FB03E0019840F070
:103190000200019029E06768F88AA8B13969081D22
:1031A0003861086801C5B9683869884201D1786812
:1031B0003861F88A401EF88210C6012002900BF197
:1031C00001001FFA80FB03E0019840F00400019029
:1031D0000BE000BF00BF0098FFF768FD00203060E3
:1031E000012088F80000584681E700BF0AF1040A70
:1031F000DAF80040002C9FD10298012809D1002064
:1032000030600098FFF752FD002088F80000584613
:103210006DE73448006890F83400019941F080016E
:1032200008433049096881F8340000202D490968B5
:1032300081F835002B490698096808634846FFF76E
:10324000F2FE0098FFF732FDFFF7C1FEFFF72AFDFF
:1032500000902448006890F8350020B101281BD068
:10326000022818D100E000BF1E480068C4693CB1C4
:1032700010C6002030600BF101001FFA80FB09E04E
:1032800001201849096881F8350049461548006849
:10329000FFF773FE06E000BF494612480068FFF7DB
:1032A0006CFE00BF00BF0F48006890F83500D8B131
:1032B000012842D002283FD138E0000095000020CC
:1032C0003CD10008990000209A00002098000020BE
:1032D0009600002068360020B000002097000020F3
:1032E0007C000020A8000020207806280DD2DFE80E
:1032F00000F00C0607030D0E002001C511E000BF11
:10330000F7480068406A01C50BE000BF00BF0098A5
:10331000FFF7CCFC00203060012088F80000584600
:10332000E5E600BF002088F800000CE0002001C5A1
:103330000E2088F8000006E000BF002001C50A202A
:1033400088F8000000BF00BF0020E549096881F847
:103350003400E349096881F83500E1490968C8612A
:10336000DF4909680862DE49096848620098FFF78A
:103370009DFC5846BBE67CB5002514E0694628460E
:1033800001F0D5FE064666B9D64850F8254044B14E
:10339000012C06D0D4E9020100EB8100A064019861
:1033A000E064681CC5B23F2DE8D97CBD002402E072
:1033B000142001F0C5FFCC4800780028F8D0CB4895
:1033C00000686421B0FBF1F0C84908600846006855
:1033D00028B90020C6490870FF2001F0EAFE00BFAE
:1033E000FFF760FC0446C3480068C349086000203A
:1033F000C04908602046FFF759FCBF480068BB4938
:103400000968B0FBF1F0C0F16400B9490870FFF73A
:10341000B7FCFFF7B0FF0A2001F092FFE0E700B52C
:1034200087B0032000218022B44BCDE90132CDE9E1
:1034300003104FF6FE703E23B14A0090AFF29300A6
:1034400001F087FC06AAAFA13E2001F0F2FD07B013
:1034500000BD002400BFFFF725FC0446A548006816
:10346000401CA44908602046FFF720FCFFF786FCBB
:10347000F1E700B587B0032000218022A54BCDE9FC
:103480000132CDE903104FF6FF703F23A24A0090AE
:10349000AFF2410001F05DFC06AAA0A13F2001F0BF
:1034A000C8FD07B000BD04E0002200F8012B4A1E51
:1034B00091B20029F8D1704730B5F0219B48FFF751
:1034C000F2FF9A4B03F11805002408E00020187061
:1034D0005D6097A0586118331835601C84B2092CC0
:1034E000F4D300201870586091A058618F4891491A
:1034F000086030BD30B54FF4F2618F48FFF7D3FF5D
:103500004FF480717748FFF7CEFF8B4B03F15805DE
:10351000002406E05D6186A0186558335835601CAC
:10352000C4B2152CF6D30020586181A01865002084
:103530008249086080488249086030BD0022814B82
:103540001A708149002004E0002201F8012B421C7E
:10355000D0B20828F8D300227C4B1A707C4B1A702A
:103560007C4B1A605E4B1A60704700207A490860F5
:103570007A4908707A4908707A4908707A4908705F
:103580007A4908605B4908605B49086057490860F0
:1035900055490870704710B5FFF7E6FBFFF7E5FFE8
:1035A000FFF7CCFFFFF7A6FFFFF786FF00F0B2FEA4
:1035B00000F099FF01F095FAFFF75BFFFFF72FFF8F
:1035C000FFF7D6FB10BD10B50024FFF76BFB0446D8
:1035D00065480078012808D160480078FF2804D2A7
:1035E0005E480078401C5D4908702046FFF75EFB8E
:1035F00010BD10B500245C480078012830D1FFF7D9
:1036000051FB04465548007820B154480078401ECC
:103610005249087051480078F8B951480078E0B92B
:10362000FFF7C8FC2F484A49097850F8210049495A
:103630000860474800784549097888420DD04548D8
:103640000068C06B401C43490968C863474800686C
:10365000401C46490860FFF741FB2046FFF726FB68
:1036600010BD10B5002440480078012811D1FFF7A3
:1036700019FB04463948007840B939480078FF28DA
:1036800004D237480078401C354908702046FFF7BF
:103690000DFB10BD10B500243348007801286AD115
:1036A000FFF700FB04462E480078C0B12C48007894
:1036B000401E2B4908700846007860B927480078FA
:1036C00028B92046FFF7F2FAFFF781FC53E02046C5
:1036D000FFF7ECFA4FE02046FFF7E8FA4BE047E04F
:1036E000A800002068360020940000208C000020F4
:1036F00088000020A40000209000002068320020F4
:103700006434002075432F4F532D49492053746171
:1037100074000000683400206436002075432F4F89
:10372000532D49492049646C650000002831002070
:103730003F0000008000002068370020B400002017
:10374000AC000020990000209A0000209700002083
:1037500098000020B0000020C40000209500002048
:1037600096000020A3000020A20000207C00002082
:103770002046FFF79BFA10BD10B5E948007890B9D4
:10378000FFF718FCE7480078E7490870E748E54983
:10379000097850F82100E649086008460068E549C4
:1037A0000860FFF786FA10BD10B50024022001F072
:1037B000C7FDFFF777FA04460020DF49086020467E
:1037C000FFF774FA0A2001F0BBFDFFF76BFA04461D
:1037D000D9480068D94908600120D94908702046B5
:1037E000FFF764FA10BD70B50026FFF75BFA0646D6
:1037F000D4480068401CD34908603046FFF756FAA9
:10380000C7480078012853D1CF48007820B101285B
:1038100004D0022809D103E001250BE0002509E0CE
:1038200001250120C849087004E001250020C6498F
:10383000087000BF00BF05B970BDC448046833E01C
:10384000FFF730FA0646206B50B3206B401E206312
:10385000206B28BB94F8340000F0370040B114F816
:10386000340F20F03700207001206070343C02E0FB
:10387000002084F8350094F8340000F0080078B98E
:103880003834A078B24909780843B14908702078E3
:10389000B049085C6178084314F83819AD4A5054AF
:1038A00064693046FFF702FA94F836003F28C7D122
:1038B00000BFC1E740F221107047704710B590F883
:1038C000382001F10B039B5C90F83940A34301F1D0
:1038D0000B04A35423469B5C23B98B7A90F83A409F
:1038E000A3438B7210BD2DE9F04F05460F4690465D
:1038F0009946A87A98490E5C05F10B00805D11F895
:1039000000B00BEBC60000F0FF0A884850F82A40D0
:1039100000202434E0602760207C20EA0800207426
:1039200084F81190207C243C00F0080068B994F8D9
:103930003A00874909780843854908708548805DC1
:1039400094F8391008438349885529462046FFF7E3
:10395000B5FF206A20B12046216AFFF70EFBE56122
:103960005046BDE8F08F10B5724A1268D061714AB6
:10397000126892F8383000F10B02D25C6D4B1B6874
:1039800093F839301A436B4B1B6893F8384000F1B9
:103990000B031A55827A674B1B6893F83A301A4327
:1039A0008272644A126892F838106A4A525C614B1B
:1039B0001B6893F839309A43664B5A541A46525C46
:1039C00042B95C4A126892F83A30614A12789A43D6
:1039D0005F4B1A7010BD0023837200F10B010022AF
:1039E00004E0002301F8013B531CDAB2082AF8D3A3
:1039F000704705E011F8013B00F8013B531E9AB2F5
:103A0000002AF7D170472DE9F84F05460F4690463A
:103A10009946DDE90AAB00200090FFF743F90090DA
:103A20004E480468002C76D01C3454F8080C4B49DE
:103A300008600098FFF73AF944F81C7CA57600204E
:103A400020766076606144F818BC44F810AC44F805
:103A5000148C0C9824F80C0C24F80A9C0020E077B5
:103A6000E810207705F00700E076217F01208840EC
:103A7000A077E17E012088406077002020606060B0
:103A8000E060A0602062A0626062E0622063AFF24A
:103A9000603060631C3C002606E0002104F1540005
:103AA00040F82610701CC6B2002EF6D02046FFF754
:103AB000D2F92046FFF760F9FFF7F4F800901B48B1
:103AC00040F825402148006860610020A0611F483F
:103AD000006810B11D48006884611C4804603834D7
:103AE000A0781B49097808431949087020781949BA
:103AF000085C6178084314F83819164A505418487D
:103B00000078401C164908700098FFF7CFF8002095
:103B1000BDE8F88FFFE70098FFF7C8F84220F7E705
:103B2000A2000020980000209700002068360020A6
:103B3000B0000020A8000020A40000208C0000207D
:103B400094000020C4000020B8000020B400002031
:103B5000990000209A0000203CD10008AC00002011
:103B6000A30000202DE9F05F04460F4691461E4653
:103B70004FF0000B2078052804D001203070002081
:103B8000BDE8F09F09F0800ABAF1000F04D029F0D7
:103B900080094FF0010801E04FF00008002030706C
:103BA000FFF780F88346B9F1000F2CD0B9F1010F6F
:103BB0003BD0B9F1020F03D0B9F1030F46D111E0A8
:103BC000208900EA0705BD4206D1B8F1010F05D1F1
:103BD0002089A843208101E0702030705846FFF70B
:103BE00065F83AE0208900EA070535B1B8F1010F20
:103BF00005D12089A843208101E07020307058460B
:103C0000FFF754F829E0208927EA0005BD4206D1D4
:103C1000B8F1010F05D120892843208101E07020EF
:103C200030705846FFF742F817E0208927EA000570
:103C300035B1B8F1010F05D120892843208101E079
:103C4000702030705846FFF731F806E05846FFF70D
:103C50002DF800256F20307000BF00BF28468FE789
:103C60002DE9F04106460D460027FA48007820B1BC
:103C7000102028700020BDE8F081FFF713F80746F8
:103C8000F548046884B100684068F349086005207D
:103C90002070268100206060F0A0E0603846FFF7C9
:103CA00005F80020287004E03846FEF7FFFF722078
:103CB00028702046DFE730B501464A6808682AB90F
:103CC000CC68606028B10025456002E0106000B15A
:103CD00042608B6800259D6230BDF0B506460F46F8
:103CE000B46800202C3460602780207A20F0200007
:103CF000207200206072207A2C3C88B93834A07879
:103D0000D74909780843D64908702078D549085C16
:103D10006178084314F83819D24A5054012500E05C
:103D200000253046FFF7C7FF2846F0BD2DE9F047D4
:103D30000446894615464FF0000AC648007820B16F
:103D40000F2028702046BDE8F0872078052803D092
:103D5000012028702046F6E7FEF7A4FF824660683F
:103D600008B1012700E00027B9F1000F03D0B9F135
:103D7000010F3CD119E08FB9B8A0E060002020709D
:103D8000B5480068606000202081B3480460504658
:103D9000FEF78CFF00202870002605E05046FEF755
:103DA00085FF49202870264628E0D4F8048005E0E5
:103DB00000214046FFF791FFD8F80080B8F1000FCE
:103DC000F6D1A6A0E06000202070A34800686060E3
:103DD00000202081A04804605046FEF767FF012FB5
:103DE00001D1FFF7F4F800202870002606E05046C5
:103DF000FEF75CFF07202870264600BF00BF304654
:103E0000A1E72DE9F04105460E46144600279148EA
:103E1000007820B1112020700020BDE8F081FEF76D
:103E200041FF07462878052806D03846FEF73EFFB2
:103E3000012020700020F0E7E86830603068FFF76C
:103E400037F880463846FEF731FF002020704046A4
:103E5000E3E72DE9F04105460E46144600277D486C
:103E6000007818B112202070BDE8F081FEF71AFF2B
:103E700007462878052805D03846FEF717FF0120A9
:103E80002070F1E7EE603846FEF710FF002020704A
:103E900000BFE9E7F0B51446059E734F3F6897F8F9
:103EA000347047F02007DFF8C0C1DCF800C08CF8A0
:103EB00034700027DFF8B0C1DCF800C08CF8357032
:103EC000694F3F683E63684F3F68B9620C828B74EC
:103ED000654F3F688F6047680F6000274F60C8607C
:103EE000456805B1696041605F4F3F6897F83820C9
:103EF0005C4FBF5CDFF870C1DCF800C09CF839C0D3
:103F000027EA0C07DFF85CC10CF802706746BF5C5B
:103F10005FB9554F3F6897F83AC0514F3F7827EA4D
:103F20000C07DFF83CC18CF80070F0BD2DE9F04FB4
:103F300089B005460F4691469A46129E002002908F
:103F40004448007828B102203070002009B0BDE854
:103F5000F08F4648007818B10D2030700020F5E74A
:103F60002878052803D0012030700020EEE709F002
:103F7000800BBBF1000F04D029F080094FF001083D
:103F800001E04FF00008FEF78DFE0290B9F1000F3E
:103F90004AD0B9F1010F78D0B9F1020F03D0B9F1CD
:103FA000030F71D120E0288900EA0704BC420FD139
:103FB000B8F1010F02D12889A04328812A4800685E
:103FC00084850298FEF772FE002030702046BDE71F
:103FD0004B463A4604A92846CDF800A0FFF75AFF01
:103FE0000298FEF763FE78E0288900EA07047CB1B6
:103FF000B8F1010F02D12889A04328811A4800682E
:1040000084850298FEF752FE0020307020469DE71E
:104010004B463A4604A92846CDF800A0FFF73AFFE0
:104020000298FEF743FE58E0288927EA0004BC42C4
:104030001ED1B8F1010F02D12889204328810A48F6
:10404000006884850298FEF731FE0020307020461B
:104050007CE71AE095000020840000203F0000006B
:10406000990000209A000020A8000020960000205F
:104070004B463A4604A92846CDF800A0FFF70AFFB0
:104080000298FEF713FE28E01FE0288927EA0004C3
:104090007CB1B8F1010F02D1288920432881AD48B5
:1040A000006884850298FEF701FE002030702046EB
:1040B0004CE74B463A4604A92846CDF800A0FFF746
:1040C000E9FE0298FEF7F2FD07E00298FEF7EEFD2A
:1040D00000246F203070204638E700BFFEF777FFDE
:1040E000FEF7E0FD02909B48006890F8350020B391
:1040F0009848006890F835000390002095490968B9
:1041000081F8350004A8FFF7D6FD00209149096821
:1041100081F834000298FEF7C9FD002403980128B5
:1041200005D0022802D10E20307003E000BF0A2023
:10413000307000BF00BF204608E786480068848DC5
:10414000B8F1010F1ED1B9F1000F0ED0B9F1010F76
:104150000CD0B9F1020F03D0B9F1030F0AD100E07E
:1041600000BF2889A04328810BE000BF2889204395
:10417000288106E00298FEF799FD6F20307000203C
:10418000E4E600BF0298FEF791FD00203070204663
:10419000DCE670B50025FEF785FD05466D48006834
:1041A000848D2846FEF782FD204670BD2DE9FC5F18
:1041B0000446894692461E46002000902078052835
:1041C00004D0012030700020BDE8FC9FFEF76AFD9E
:1041D0000090BAF1000F03D0BAF1010F0AD104E048
:1041E000208920EA090020810BE0208940EA0900AB
:1041F000208106E00098FEF759FD71203070002004
:10420000E2E700BF4FF0000B656855E0A87C40B3C3
:10421000012838D0022802D0032844D111E0208997
:10422000298A00EA0107288AB84209D13946284676
:10423000FFF753FD8046B8F1010F01D14FF0010B9C
:1042400038E02089298A00EA01074FB1394628461B
:10425000FFF743FD8046B8F1010F01D14FF0010B8C
:1042600028E0288A218920EA0107288AB84209D152
:1042700039462846FFF731FD8046B8F1010F01D1DC
:104280004FF0010B16E0288A218920EA01074FB17F
:1042900039462846FFF721FD8046B8F1010F01D1CC
:1042A0004FF0010B06E00098FEF700FD6F20307024
:1042B000002089E700BF2D68002DA7D10098FEF7E8
:1042C000F5FCBBF1010F01D1FEF781FEFEF7EAFC20
:1042D0000090208901900098FEF7E8FC00203070E3
:1042E000019871E72DE9F04104460D46002720783A
:1042F000052804D0012028700020BDE8F081FEF7D9
:10430000D1FC074626893846FEF7D0FC00202870ED
:104310003046F2E770B550210F48FFF7C4F80E4C55
:1043200004F11006002509E0002020706660AFF25D
:10433000D420E06010341036681C85B2042DF3D30D
:10434000002020706060AFF2EC20E060024803497A
:10435000086070BDA80000201832002084000020F2
:104360002DE9F84F05460F4690469A4600200090EA
:10437000FEF798FC00906B480468006820B169481B
:1043800000684068674908600098FEF78FFC2CB908
:104390005A208AF800000020BDE8F88F2E4605EB71
:1043A00008094FF0000B05E0C6F800904E46C144E6
:1043B0000BF1010B781E5845F6D8002030602560BF
:1043C00065602761E760C4F808808AF8000020462D
:1043D000E2E72DE9F04104460D460027FEF762FCB6
:1043E0000746206968B16668306860602069401ED1
:1043F00020613846FEF75AFC002028703046BDE8A0
:10440000F0813846FEF752FC5D2028700020F6E768
:104410002DE9F04106460C46154600274248007833
:1044200020B1112028700020BDE8F081FEF73AFC91
:104430000746706920602068FEF73AFD80463846DE
:10444000FEF734FC002028704046EDE72DE9F041EE
:1044500005460E46144600273348007818B112204E
:104460002070BDE8F081FEF71DFC07466E613846FE
:10447000FEF71CFC0020207000BFF2E770B5044678
:104480000D460026FEF70EFC0646D4E903108842CE
:1044900004D33046FEF70AFC5E2070BD60682860D9
:1044A00065602069401C20613046FEF7FFFB00205C
:1044B000F3E770B505460C460026FEF7F3FB06460B
:1044C0002868206068686060A868A060E868E060AC
:1044D000286920613046FEF7E9FBD4E90301401A60
:1044E0006061002070BD70B578211048FEF7DBFFD9
:1044F0000E4C00250BE0681C00EB40000B4901EB63
:10450000C00060600AA060611834681C85B2042D88
:10451000F1D30020606006A0606104480149086092
:1045200070BD0000BC00002095000020F83E002077
:104530003F0000002DE9F04106460D464FF000080F
:104540003078022804D0012028700020BDE8F081D6
:10455000FEF7A8FB80467468E08A78B12169081DDF
:1045600020610F68E08A401EE082A16820698842CD
:1045700001D1606820610020287002E01F202870AF
:1045800000274046FEF792FB3846DFE72DE9F04171
:1045900006460F464FF00008F748007810B100209B
:1045A000BDE8F081FEF77EFB8046F44804680068B1
:1045B00020B1F24800684068F04908604046FEF7C4
:1045C00075FBFCB1FEF76EFB8046ED480568D5B182
:1045D00000680068EA4908604046FEF767FB6E60C5
:1045E00006EB8700A860EE602E61AF820020E882B3
:1045F00002202070002020816560E2A060612046DA
:10460000FFF7E9F908E0DD4800686060DB48046016
:104610004046FEF74BFB00242046C1E72DE9F0475A
:104620000446894615464FF0000A2078022804D037
:10463000012028702046BDE8F087CF48007818B1E7
:104640000F2028702046F6E7FEF72CFB8246A07A62
:1046500010B14FF0010801E04FF00008B9F1000F70
:1046600003D0B9F1010F49D121E0B8F1000F17D102
:10467000C4A060616668C24800683060C0480660D7
:1046800000202070BD480068606000202081BB4889
:1046900004605046FEF70AFB00202870002705E062
:1046A0005046FEF703FB4920287027462DE005E021
:1046B0000023042219462046FFF715F9A07A0028A6
:1046C000F6D1B0A060616668AD4800683060AC4863
:1046D000066000202070A9480068606000202081EA
:1046E000A64804605046FEF7E1FAB8F1010F01D187
:1046F000FEF76DFC00202870002706E05046FEF70C
:10470000D5FA07202870274600BF00BF384692E739
:1047100070B505460026FEF7C5FA06466C68606867
:10472000E060606820610020E0823046FEF7BEFA5B
:10473000002070BD2DE9F0470746884615464FF02A
:1047400000093878022804D0012028700020BDE834
:10475000F0878948007818B1022028700020F6E719
:104760008948007818B10D2028700020EFE7FEF787
:1047700099FA81467C68E08A98B12169081D206118
:104780000E68E08A401EE082A1682069884201D15B
:10479000606820614846FEF789FA0020287030469C
:1047A000D5E77A48006890F8340040F00400774973
:1047B000096881F8340000207449096881F83500DF
:1047C00072480068C0F830803846FFF7CCF8484699
:1047D000FEF76CFAFEF7FBFBFEF764FA81466B48C6
:1047E000006890F8350020B101280DD002280AD1C8
:1047F00005E066480068466A002028700DE0002643
:104800000E20287009E000BF394660480068FFF7B5
:1048100055F800260A20287000BF00BF00205B4921
:10482000096881F834005949096881F83500574909
:104830000968C861554909680862544909684862AD
:104840004846FEF733FA304681E72DE9F041044649
:104850000F4615464FF000082078022804D00120AA
:1048600028700020BDE8F081FEF71CFA8046A07A8F
:1048700020B300267FB1012F0CD107E002230422D0
:1048800000212046FFF72FF8701CC6B2A07A00283E
:10489000F4D109E000BF0223042200212046FFF7E3
:1048A00022F8701CC6B200BF00BF4046FEF7FEF9FA
:1048B000FEF78DFB0E2028703046D3E74046FEF70A
:1048C000F5F90020287000BFCCE72DE9F04105463E
:1048D0000E4600272878022802D00120BDE8F0818A
:1048E000FEF7E0F90746A87A60B1002304223146BA
:1048F0002846FEF7F8FF3846FEF7D8F9FEF767FBC3
:104900000020EBE76C68E08AA18A884204DB384625
:10491000FEF7CCF91E20E1E7E168081DE0600E60BB
:10492000E08A401CE082D4E90210884201D160682C
:10493000E0603846FEF7BAF90020CFE72DE9F041F4
:1049400005460E4600272878022802D00120BDE83F
:10495000F081FEF7A7F90746A87AC8B10023042220
:1049600031462846FEF7BFFF3846FEF79FF9FEF7AF
:104970002EFB0020EBE700009500002080000020C7
:10498000C00000203F00000096000020A80000208A
:104990006C68E08AA18A884204DB3846FEF786F913
:1049A0001E20D4E761682069884201D1A068206197
:1049B0002069001F206120690660E08A401CE082B7
:1049C0003846FEF773F90020C1E72DE9F0410546AE
:1049D0000F4616464FF000082878022802D0012022
:1049E000BDE8F081FEF75EF98046A87AE8B106F0EE
:1049F000010050B105E00023042239462846FEF7A5
:104A000072FFA87A0028F6D105E000230422394677
:104A10002846FEF768FF4046FEF748F906F0040016
:104A200008B9FEF7D4FA0020DAE76C68E08AA18AB8
:104A3000884204DB4046FEF739F91E20D0E706F035
:104A4000020058B161682069884201D1A0682061E4
:104A50002069001F20612069076009E0E168081DE6
:104A6000E0600F60D4E90210884201D16068E06024
:104A7000E08A401CE0824046FEF718F90020AFE7CC
:104A80002DE9F04705460C464FF0000A2878022829
:104A900002D00120BDE8F087FEF704F98246A87A2B
:104AA000207405F10B0804F10809002705E018F847
:104AB000010B09F8010B781CC7B2082FF7D36E68F9
:104AC000F08A18B130690068206001E000202060A1
:104AD000F08AA080B08AE0805046FEF7E7F8002018
:104AE000D8E770B560210A48FEF7DDFC084C04F1F8
:104AF0001806002504E0266018341836681C85B2B4
:104B0000032DF8D30020206001480249086070BDE1
:104B1000703F0020C00000202DE9F34F85B088468B
:104B200000200190FEF7BEF80190FE4850F82800E2
:104B300030B10198FEF7BAF8282007B0BDE8F08F31
:104B40000598FF2804D1F848006890F836000590D1
:104B5000F449059851F8205025B90198FEF7A6F8B8
:104B60002920EAE7012D04D10198FEF79FF84320A0
:104B7000E3E74FEAE80708F0070003900120B84098
:104B800000F0FF0901210398814001F0FF0A002194
:104B9000E44A059842F82010104640F8285095F84D
:104BA000386095F83A00029095F839B0DF48805D9A
:104BB00000EA0B00D0B1DD48805D20EA0B00DB4944
:104BC00088550846805D28B9D948007802998843FD
:104BD000D7490870D648007840EA0900D4490870DF
:104BE000D248C05D40EA0A00D049C855EC69D4B14A
:104BF00004F10B00805D20EA0B0004F10B018855E5
:104C00000846805D18B9A07A02998843A072A07AFC
:104C100040EA0900A07204F10B00C05D40EA0A00FE
:104C200004F10B01C855286A30B3286A049004982F
:104C300004681FE004F10B00805D20EA0B0004F122
:104C40000B0188550846805D18B9A07A02998843FF
:104C5000A072A07A40EA0900A07204F10B00C05DC6
:104C600040EA0A0004F10B01C8550498001D0490A5
:104C700004980468002CDDD185F8368085F83870FA
:104C8000039885F8370085F83A9085F839A001989F
:104C9000FEF70CF8A7480078012801D1FEF797F934
:104CA00000204AE72DE9FE4F06460F4690461C4677
:104CB0004FF00009FDF7F6FF81469F48007828B1C4
:104CC0004846FDF7F3FF3C20BDE8FE8F954850F8BD
:104CD000240060BB0120934941F824004846FDF7B9
:104CE000E5FF0023424639463046FEF74AF8824641
:104CF0000020009001900346024651460290204653
:104D0000FEF781FE054635B98A48007801280CD1A6
:104D1000FEF75DF909E0FDF7C5FF814600208149F6
:104D200041F824004846FDF7C1FF2846CCE7484635
:104D3000FDF7BCFF2820C7E702F0010343B102F0F2
:104D400002032BB102E0491E002308C00029FAD15A
:104D500070472DE9F04F85B081468A4693461C4640
:104D6000DDE90F78129D00200390FDF79BFF039073
:104D70007148007830B10398FDF798FF3C2005B0EA
:104D8000BDE8F08F674850F8240088BB01206549D2
:104D900041F824000398FDF789FF2A46414638462A
:104DA000FFF7CAFF2B465A4651464846FDF7E9FF32
:104DB00004901198CDE9008002953A4620460E9B5A
:104DC0000499FEF720FE064636B95A4800780128B5
:104DD0000CD1FEF7FCF809E0FDF764FF039000201A
:104DE000504941F824000398FDF760FF3046C6E7BC
:104DF000FFE70398FDF75AFF2820C0E72DE9F041AF
:104E0000054600274C48007810B14020BDE8F081ED
:104E10003F2D01D13E20F9E7FDF744FF0746FF2D66
:104E200003D14148006890F836503E4850F825407C
:104E300024B93846FDF73AFF4320E7E7012C04D1B7
:104E40003846FDF733FF3D20E0E714F8380F3749C7
:104E5000085C617888432178344A505414F8380942
:104E60001146085C30B994F83A103148007888430C
:104E70002F490870E06918B12046E169FEF71EFD70
:104E8000206A18B12046216AFEF777F8A66A16B1A3
:104E90003046FEF710FF0020206384F8340084F8C9
:104EA000350026480078FF2804D224480078401CAA
:104EB000224908703846FDF7F9FEFEF7FEFCFDF7C3
:104EC000F1FE07461D48007820B11C480078401EBE
:104ED0001A4908702046FDF750FF19480078401E17
:104EE0001749087000200F4941F82500A06930B922
:104EF00000206169886113496069086005E0D4E9B0
:104F000005014861D4E9051088610F4800686061B7
:104F10000D4804600DA020653846FDF7C7FE054822
:104F2000007815E068360020A80000209A000020D4
:104F300099000020A200002095000020960000208B
:104F4000A3000020B4000020AC0000203F000000BF
:104F5000012801D1FEF73BF8002057E72DE9F04189
:104F6000044600273F2C02D13E20BDE8F081FF2CF3
:104F70000BD1FDF797FE0746EB48006890F83B60C1
:104F80003846FDF793FE3046EFE7FDF78BFE074608
:104F9000E64850F8245025B93846FDF787FE4320EF
:104FA000E3E7012D04D13846FDF780FE3D20DCE724
:104FB0003F2085F83B003846FDF778FE0020D4E717
:104FC0002DE9F04706460F4614464FF00008D84832
:104FD000007820B1112020700020BDE8F087FDF797
:104FE00061FE8046FF2E03D1CF48006890F83660FE
:104FF000CE4850F8265035B94046FDF757FE4320BD
:1050000020700020E9E7012D06D14046FDF74EFE55
:10501000432020700020E0E7286D38603868FDF7F5
:1050200047FF81464046FDF741FE0020207048467C
:10503000D3E72DE9F04106460F4614464FF000082D
:10504000BB48007818B112202070BDE8F081FDF750
:1050500029FE8046FF2E03D1B348006890F83660E1
:10506000B24850F826502DB94046FDF71FFE4320A8
:105070002070EAE7012D05D14046FDF717FE4320D9
:105080002070E2E72F654046FDF710FE00202070FB
:1050900000BFDAE770B505460026FDF703FE0646B9
:1050A000A24850F8254024B93046FDF7FFFD4620C0
:1050B00070BD012C04D13046FDF7F8FD4320F7E721
:1050C00094F8340000F0080060B314F8340F20F0B6
:1050D0000800207014F83409F8B9206BC8B93834C6
:1050E000A078944909780843924908702078924939
:1050F000085C6178084314F838198F4A50543046D8
:10510000FDF7D4FD8D480078012809D1FDF75FFF38
:1051100006E03046FDF7CAFD02E03046FDF7C6FD69
:105120000020C5E73046FDF7C1FD4420C0E72DE96A
:10513000F04707460D464FF0000A002028606860DF
:10514000FDF7B0FD8246FF2F03D17748006890F845
:105150003670764850F827402CB95046FDF7A6FD2A
:105160004320BDE8F087012C04D15046FDF79EFD99
:105170004320F6E7207C00F0010020B95046FDF7FF
:1051800095FD4520EDE70026D4F80C90D4F8088072
:105190005046FDF78BFD00E0761C58F8041B0029F3
:1051A000FAD0B0002860A9EB0600800068600020FB
:1051B000D7E72DE9F04105464FF00008FDF772FDF5
:1051C0008046FF2D05D15848006890F836500126DA
:1051D00008E05548006890F83600A84201D1012641
:1051E00000E00026514850F825402CB94046FDF714
:1051F0005DFD4820BDE8F081012C04D14046FDF75B
:1052000055FD4320F6E794F838704B48C05D94F89C
:10521000391088434849C8550846C05D30B994F8EC
:105220003A104448007888434249087094F83400A2
:1052300040F0080084F834004046FDF737FD012EA9
:1052400001D1FDF7C4FE0020D4E72DE9F041054669
:105250000E460027FDF726FD0746FF2D03D13248F5
:10526000006890F83650314850F825402CB938463F
:10527000FDF71CFD2920BDE8F081012C04D1384642
:10528000FDF714FD4320F6E7582221463046FEF78D
:10529000B0FB3846FDF70AFD0020ECE72DE9F047AA
:1052A00004460E4617464FF00009FDF7FBFC814609
:1052B000FF2C02D11C48056802E01C4850F824501D
:1052C00005F1540050F826804846FDF7EFFC002019
:1052D00038704046BDE8F0872DE9F04704460E4699
:1052E000174698464FF00009FDF7DCFC8146FF2C7D
:1052F00002D10D48056802E00C4850F8245005F131
:10530000540040F826704846FDF7D0FC002088F88D
:105310000000BDE8F08710B503480068FDF72FFDD9
:10532000FF20FFF76BFD10BDA800002068360020AD
:1053300095000020990000209A000020A200002083
:1053400070B5054600265E48007800B170BD1DB3FB
:10535000FDF7A8FC06465B48006890F838405A48BC
:10536000005D5849096891F8391088435649085535
:105370000846005D40B95348006890F83A10534819
:1053800000788843514908704E48006805633046EC
:10539000FDF78CFCFDF71BFE00BFD7E72DE9F041C0
:1053A00004460D4616461F464548007810B1552064
:1053B000BDE8F081781D642148434FF47A71B0FB59
:1053C000F1F14FF461606043C5EB051200EB820020
:1053D000304400EBC00202EB001001EB80084046B5
:1053E000FFF7AEFF0020E3E770B5054600263F2D2E
:1053F00001D32A2070BDFDF755FC0646344850F80D
:10540000254024B93046FDF751FC4320F2E7012C3A
:1054100004D13046FDF74AFC4320EBE7206B20B96E
:105420003046FDF743FC5020E4E70020206394F869
:10543000340000F0370040B114F8340F20F037008A
:10544000207001206070343C02E0002084F83500B8
:1054500094F8340000F00800A8B93834A0781B494B
:10546000097808431949087020781749085C617861
:10547000084314F83819144A50543046FDF716FC06
:10548000FDF7A5FD02E03046FDF710FC0020B1E776
:1054900070B50025FDF706FC05460E480468284651
:1054A000FDF704FC204670BD70B504460025FDF7ED
:1054B000F9FB0546074804602846FDF7F7FB70BD79
:1054C00095000020A80000209A00002099000020EC
:1054D00068360020C4000020704710B5416A0122E0
:1054E0000A7100224A713022125C13062E22125CCD
:1054F00043EA02432D22125C43EA02222F231B5C63
:105500001A43436A13B1436A5B7A00E000231A44EA
:105510000A23B2FBF3F403FB1422CA804A7A0A2A54
:1055200002DD4FF41672CA8010BD2DE9F041054628
:105530000E462F214A5D3021495D42EA0121CE4AC3
:10554000881800F0A9FA074600F0ABFB0446686A29
:10555000407A0444A0B2C94940EA0104C6488442E2
:1055600001D204F57E44C648844201D9A4F57E44A4
:1055700000BF00BF204600F08FFA3060BDE8F08128
:1055800070B505466C6A0026284602F0E8FB10B1AB
:10559000284602F0D8FB00206860A860E8606CB97B
:1055A0000A2002F007FA044614B94FF0FF3070BD2C
:1055B00000202060606020816C6205E00020207186
:1055C000E08060712060207221462846FFF7ADFF21
:1055D000607A401C60722846FFF77FFF3046E6E79E
:1055E0001FB504460122A74B606ACDE9000304F110
:1055F0002B03CDE90202A44A1946204606F0C1F861
:1056000004B010BD70B50446012575B1606A007A1A
:10561000002803DD2046FFF7B3FF09E02046FFF72F
:10562000DFFF6420616A087202E02046FFF7A8FFEE
:1056300070BD1FB504460121924A944B606ACDE9C2
:105640000032CDE9020104F12B038F4A19462046AE
:1056500006F097F804B010BD7CB50446656A8C4826
:1056600000F01AFA0190002000F016FA0090294686
:10567000204602F08DFA01A9204602F083FA69461D
:10568000204602F079FA204602F047FB00207CBD5C
:1056900010B50446606A40B1606A007928B12046BE
:1056A00002F051FB2046FFF718FF10BD10B504466D
:1056B0000020616A0871204602F045FB002010BD01
:1056C00010B5744804687BE0606A002877D0606A8F
:1056D000007A002804DD606A007A401E616A087260
:1056E000606A0079012802D0022867D13DE0606A33
:1056F000C088002805DD606AC088401E616AC880D5
:1057000032E0606A4079032809DB0220616A08718F
:105710000020616A48711420616AC88024E0204634
:10572000FFF787FF606A4079401C616A487130204A
:10573000005D01062E20005D41EA00412D20005D44
:1057400041EA00202F21095D0843616A11B1616AB5
:10575000497A00E0002108440A21B0FBF1F201FB84
:1057600012000A30616AC88028E0606AC088002898
:1057700005DD606AC088401E616AC8801DE0606AFD
:10578000407918B92046FFF767FF02E02046FFF78F
:1057900027FF1420616AC880606A4079401C616AF2
:1057A0004871606A4079022807DB0320616A08714A
:1057B0000020616A4871616AC88000BF00BF246828
:1057C000002C81D110BD7FB504460D46606A0028CB
:1057D00050D0606A007900284CD094F82B008DF8E6
:1057E00000002C20005D8DF801002D20005D8DF85B
:1057F00002002E20005D8DF803002F20005D8DF843
:1058000004003020005D8DF80500D5F80E000390EF
:10581000A8690290606A0079012806D0606A007960
:10582000022817D1606A4079A0B90398616A0968B3
:1058300088420BD00298616A0968884219D1062211
:1058400005F10801684607F0A1F990B12046FFF77D
:1058500097FE0EE00398616A0968884209D1062222
:1058600005F10801684607F091F910B12046FFF7ED
:10587000C9FE00BF7FBD00000001FEA90000FEA917
:10588000FFFEFEA982D200087CD200083CD20008AC
:105890000000FFFFF00000202DE9FF5F054689466C
:1058A0006C68208800F0F7F9C0F303204FEA800805
:1058B000C8F10001284602F0A5FB10B92889042888
:1058C00000D298E0686890F800A0BAF1080F7CD187
:1058D00001264FF0704000F0E4F9216900EA010B65
:1058E0004FF0604000F0DDF9834500D100264946C5
:1058F00004F1100000F02CFC00B1002626B9284667
:1059000002F03EFABDE8FF9F2889082800D272E025
:10591000284600F04FFA18B1284602F031FAF1E7B4
:105920002221284602F06EFB48B34146284602F089
:1059300069FB10B100BF00BF61E02989002202208D
:1059400002F055FA064606B959E000BF00BF2946E5
:10595000304602F0E7FB10B100BF00BF4FE07468B3
:10596000C8F1000001B2304602F04CFB10B100BF9C
:1059700000BF44E0284602F003FA354608E06FF025
:105980002101284602F03EFB10B100BF00BF36E007
:105990006F68E06803902069E06003982061002050
:1059A00038707880208900F076F9C0B240F47F46E4
:1059B000304600F06AF92081002060814146284687
:1059C00002F020FB10B100BF0EE00EE0012000212C
:1059D000FF230A46CDE90109009104F10C01284694
:1059E00000F016FB064600BF00E000BF00BF2846DF
:1059F00002F0C6F986E7284602F0C2F982E7284697
:105A000002F0BEF900BF7DE72DE9FC4706460F46D0
:105A1000904600222421012002F0E9F905460DB943
:105A2000BDE8FC8700BF00BFD6F804906C68277003
:105A300084F801800020A080E08071686A6802F12B
:105A400008001C2207F07EF800206080698920464B
:105A500000F0A6F9608001200021FF2309F10C026B
:105A6000CDE90010284600F04EFB284602F088F9E8
:105A700000BFD5E770B505460C46224603212846EF
:105A8000FFF7C2FF70BD70B505460C4622460B21DC
:105A90002846FFF7B9FF70BD0146080601F47F42B2
:105AA00040EA022001F47F0240EA122040EA11603D
:105AB00070472DE9FF4105460F466E462B7800BF23
:105AC000302B01DB392B03DD002004B0BDE8F08171
:105AD00000244FF00A08302B0ED1681C05460378CD
