:020000040800F2
:1000000080C40020F14A0008ED210008EF2100081B
:10001000F3210008F7210008FB2100080000000080
:10002000000000000000000000000000FF210008A8
:100030000122000800000000674D0008D94E0008AA
:100040000B4B00080B4B00080B4B00080B4B000838
:100050000B4B00080B4B00080B4B00080B4B000828
:100060000B4B00080B4B00080B4B00080B4B000818
:100070000B4B00080B4B00080B4B00080B4B000808
:100080000B4B00080B4B00080B4B00080B4B0008F8
:10009000952800080B4B00080B4B00080B4B000881
:1000A0000B4B00080B4B00080B4B00080B4B0008D8
:1000B0000B4B00080B4B00080B4B00080B4B0008C8
:1000C0000B4B00080B4B00080B4B00080B4B0008B8
:1000D0000B4B0008AB25000871260008AF2600086E
:1000E000052200080B4B00080B4B00080B4B0008C7
:1000F0000B4B00080B4B00080B4B00080B4B000888
:100100000B4B00080B4B00080B4B00080B4B000877
:100110000B4B00080B4B00080B4B00080B4B000867
:100120000B4B00080B4B00080B4B00080B4B000857
:100130000B4B0008072200080B4B00080B4B000874
:100140000B4B00080B4B00080B4B00080B4B000837
:100150000B4B00080B4B00080B4B00080B4B000827
:100160000B4B00080B4B00080B4B00080B4B000817
:100170000B4B00080B4B00080B4B00080B4B000807
:100180000B4B00080B4B0008DFF80CD00EF07CFD89
:10019000004800478F02000880C4002045480068DE
:1001A0006422B0FBF2F0411EB1F1807F00D31DE06C
:1001B00021F07F40401E4FF0E022506150170F2287
:1001C000002807DA13071D0E3B4B00F00F04241F15
:1001D0001D5503E013071C0E384B1C5400BF0020B4
:1001E0004FF0E02290610720106100BF00BF34484B
:1001F0000068012805DB33A235A138A00EF0A0FD70
:1002000004E030A232A141A00EF09AFD00BF092304
:100210004A4A00214A4806F085FD00BF2848006888
:10022000012803DB47A00EF08BFD02E04DA00EF08D
:1002300087FD00BF0A23534A0021534806F072FD90
:1002400000BF1F480068012803DB50A00EF078FDB6
:1002500002E056A00EF074FD00BF0B235B4A0021A4
:100260005B4806F05FFD40F6C411042002F0FAFD81
:100270000CE0002301221946184607F0CFF84FF48E
:100280000071544803F0C3FE02F002FEF1E710B51E
:1002900001F0F0FC05F0BFF93B234F4A0021AFF21B
:1002A000031006F03FFD002007F03EF905F0A4FA28
:1002B000002010BD6000002018ED00E000E400E028
:1002C000000000204465632031392032303138008D
:1002D00032303A30303A3339000000005B494E4644
:1002E0004F5D0920BAECC2CCB5C6D1A7CFB0CFB50F
:1002F000CDB376312E302E3020B1E0D2EBCAB1BC76
:10030000E43A25732025730D0A0000005B494E4630
:100310004F5D09BAECC2CCB5C6D1A7CFB0CFB5CD31
:10032000B376312E302E3020B1E0D2EBCAB1BCE42E
:100330003A25732025730D0A00000000C82E002006
:100340007D0400085B494E464F5D0920CDF8C2E7A9
:10035000B4ABCAE4C8CECEF1C6F4B6AF2E2E2E0D85
:100360000A0000005B494E464F5D09CDF8C2E7B474
:10037000ABCAE4C8CECEF1C6F4B6AF2E2E2E0D0A0F
:100380000000000048090020DD0300085B494E46DC
:100390004F5D0920BAECC2CCB5C6D1A7CFB0C8CE4C
:1003A000CEF1C6F4B6AF2E2E2E0D0A005B494E4696
:1003B0004F5D09BAECC2CCB5C6D1A7CFB0C8CECE7E
:1003C000F1C6F4B6AF2E2E2E0D0A0000083500201F
:1003D0001B0500080010024008030020002305222E
:1003E0001946184607F01AF800F094FB0BE01423A6
:1003F00000221146104607F011F800F05DF900F0F8
:1004000092FC00F074FFF2E708B5684602F03FFC8A
:1004100020B99DF8001046A00EF092FC0A2300229D
:100420001146104606F0FAFF08BD10B5002422E080
:10043000404850F82400E0B13F4830F81400401C18
:100440003D4921F81400084630F81400322810DD28
:10045000384951F824000AF058FA0020354941F88B
:100460002400354921F8140034480078401E3349EF
:100470000870601CC4B2032CDADB10BD86B0002506
:100480000020009001F018FD01F04CFD02F0A5FCE9
:1004900000221221032009F0EAFC064601A8706040
:1004A00012207081892002F006F835E000980A30A9
:1004B0000090009801F015FE6423002211461046BA
:1004C00006F0ACFFFFF7B1FF02F0E2FC00241FE0F2
:1004D0000027214601A800F05CFFC7B2681C85B266
:1004E000012F13D116480078401EA0420ED100BF44
:1004F00014480068012804DB294613A00EF020FCF4
:1005000003E0294619A00EF01BFC00BF601CC4B21A
:100510000B4800788442DBDBC8E708E04FF4FA734D
:1005200000221146104606F079FF01F0A7FAF5E720
:1005300025780000303A00204800002046000020C6
:1005400004000020000000205B494E464F5D09205A
:100550002D2D2D2D2D2D2D2D2D636F756E74202598
:10056000642D2D2D2D2D2D2D2D0D0A005B494E4670
:100570004F5D092D2D2D2D2D2D2D2D2D636F756E7C
:10058000742025642D2D2D2D2D2D2D2D0D0A0000CF
:100590002DE9F041002602F034FA20F07F4600BF3A
:1005A000FD480068012804DB3146FCA00EF0C8FBC2
:1005B00003E03146FEA00EF0C3FB00BF00242EE096
:1005C00004EB4400C5B222E00120A84000EA06077F
:1005D000DFB9FC480078401CFA490870032094FBFE
:1005E000F0F0C1B2F7480078401EF74A02F8101048
:1005F000032094FBF0F100FB1140C1B2F1480078F8
:10060000401E02EB4000417006E0681CC5B204EBDE
:100610004400C01CA842D7DC00BF601CC4B2062C3A
:10062000CEDB02F015FA20F07F4600BFDA48006802
:10063000012804DB3146E5A00EF082FB03E03146E1
:10064000E7A00EF07DFB00BF00242FE004EB440088
:10065000C5B223E00120A84000EA0607E7B9D9485F
:100660000078401CD7490870032094FBF0F0801CF0
:10067000C1B2D4480078401ED34A02F810100320BB
:1006800094FBF0F100FB1140C1B2CE480078401E4F
:1006900002EB4000417006E0681CC5B204EB440068
:1006A000C01CA842D6DC00BF601CC4B2062CCDDB47
:1006B000C4480078BDE8F0812DE9FF5F0027B94606
:1006C000B846BB460020039000BF1CE2BE4810F8AD
:1006D000170000EB4000BC4901EB47014978084492
:1006E00000F0FF0AB84810F8174000EB47004578C3
:1006F000BAF1060F06DA02F084F920F07F480AEB1F
:100700004A0B07E002F0A4F920F07F48AAF10600A6
:1007100000EB400B4FF000090BF0FF060CE101204D
:10072000B04000EA08000390039818B909F10100ED
:1007300000F0FF09B9F1010F7BDD00BF96480068AA
:10074000012808DB4B465A22AAA1B0A08DE830014F
:100750000EF0F6FA07E02B4622464946B7A0CDF840
:1007600000800EF0EDFA00BF04EBC40000EB400087
:10077000BD4901EB800005EBC50100EB8100407C29
:10078000401C04EBC40101EB4101B74A02EB8101BB
:1007900005EBC50201EB8201487404EBC40000EBD9
:1007A0004000B14901EB800005EBC50100EB810081
:1007B000007C01280CD1002004EBC40101EB4101B5
:1007C000A94A02EB810105EBC50201EB82014874E5
:1007D000022004EBC40101EB4101A34A02EB8101B9
:1007E00005EBC50201EB8201087404EBC40000EBC9
:1007F00040009D4901EB800005EBC50100EB810045
:10080000407C02287ED100BF63480068012815DBC8
:1008100004EBC40000EB4000934901EB800005EBC2
:10082000C50100EB81008DE83001437C612271A19C
:1008300000E072E08DA00EF083FA12E004EBC40039
:1008400000EB4000884A02EB800005EBC50200EB9C
:100850008200CDF80080417C2B46224692A00EF00B
:100860006FFA00BF002004EBC40101EB41017E4A96
:1008700002EB810105EBC50201EB82010873002147
:1008800004EBC40000EB4000774A02EB800005EB6C
:10089000C50200EB8200417304EBC40000EB400092
:1008A000714A02EB800005EBC50200EB8200817308
:1008B000012004EBC40101EB41016B4A02EB810111
:1008C00005EBC50201EB8201487104EBC40000EBAB
:1008D0004000654901EB800005EBC50100EB81009C
:1008E000407804EBC40101EB41015F4A02EB810156
:1008F00005EBC50201F82200002004EBC40101EB66
:10090000410100E007E0584A02EB810105EBC50216
:1009100001EB82014861BDE8FF9F012004EBC401A7
:1009200001EB4101504A02EB810105EBC50201EBED
:1009300082010874701CC6B20BF103008642FFF4FA
:10094000EEAE0BF0FF06D7E00120B04000EA080051
:1009500003900398F0B904EBC40000EB4000424957
:1009600001EB800005EBC50100EB8100407804EB52
:10097000C40101EB41013C4A02EB810105EBC502D8
:1009800001F82200032096FBF0F100FB116004EB5C
:10099000C401A5E0AEE00000000000205B494E4627
:1009A0004F5D0920726574312025780D0A00000022
:1009B0005B494E464F5D09726574312025780D0AFA
:1009C0000000000004000020BC3600205B494E46B9
:1009D0004F5D0920726574322025780D0A000000F1
:1009E0005B494E464F5D09726574322025780D0AC9
:1009F000000000002E2E5C4170705C7472616666AF
:100A000069636C696768742E630000005B5741522C
:100A10004E5D0925733A256420BAECC2CCB5C6D721
:100A2000B4CCACB4EDCEF3256420646972202564A7
:100A300020746F2025642025780D0A005B574152F1
:100A40004E5D09BAECC2CCB5C6D7B4CCACB4EDCED1
:100A5000F325642064697220256420746F20256466
:100A60002025780D0A0000000C3500205B4552520D
:100A70005D0925733A256420BAECC2CCB5C6D7B45B
:100A8000CCACB4EDCEF32CD6D8D0C2B3F5CABCBB37
:100A9000AF2025642064697220256420746F2025AE
:100AA000642025780D0A00005B4552525D09BAECBE
:100AB000C2CCB5C6D7B4CCACB4EDCEF32CD6D8D01E
:100AC000C2B3F5CABCBBAF2025642064697220257F
:100AD0006420746F2025642025780D0A0000000032
:100AE00001EB4101FE4A02EB810105EBC50201EB7E
:100AF00082014870701CC6B20BF103008642FFF4FD
:100B000023AF781CC7B2F74800788742FFF6DEAD06
:100B100000BF00E72DE9FE4F4FF0000A4FF0010B38
:100B20000020029001904FF0010881464FF4D871E7
:100B3000EB480EF060F8002614E000270EE00320DA
:100B400006EBC60101EB4101E54A02EB810107EB2F
:100B5000C70201EB82014870781CC7B2032FEEDB9D
:100B6000701CC6B2042EE8DB0EE0FFF711FD8046D4
:100B70000020DC490870642300221146104606F06C
:100B80004DFCFFF705FD8146C845EED100BFD648B4
:100B90000068012803DBD5A00EF0D2F802E0D9A04E
:100BA0000EF0CEF800BF00BFCF480068012803DB7D
:100BB000D9A00EF0C5F802E0DEA00EF0C1F800BF2B
:100BC00000BFC9480068012803DBE0A00EF0B8F8B8
:100BD00002E0E4A00EF0B4F800BF00BFC248006815
:100BE000012805DBBF480178E4A00EF0A9F804E075
:100BF000BC480178E9A00EF0A3F800BFFFF75CFD48
:100C000000267CE0ED4810F8164000EB46004578E1
:100C1000012004EBC40101EB4101B14A02EB810167
:100C200005EBC50201EB8201487104EBC40000EB47
:100C30004000AB4901EB800005EBC50100EB8100F2
:100C4000407804EBC40101EB4101A54A02EB8101AC
:100C500005EBC50201F82200FF2004EBC40101EB03
:100C600041019F4A02EB810105EBC50201EB8201C4
:100C700081F8200000BF9C48006801281EDB04EBBF
:100C8000C40000EB4000964901EB800005EBC50174
:100C900000EB81004079009004EBC40000EB4000C1
:100CA0008F4901EB800005EBC50100EB8100437823
:100CB0002A462146C2A00EF043F81DE004EBC40012
:100CC00000EB4000864901EB800005EBC50100EB1D
:100CD00081004079009004EBC40000EB40008049A3
:100CE00001EB800005EBC50100EB810043782A464B
:100CF0002146BCA00EF024F800BF701CC6B2794893
:100D000000788642FFF67EAF00BF77480068012872
:100D100003DBBDA00EF014F802E0C2A00EF010F844
:100D200000BFBDE8FE8FF8B50026DAE2A34810F850
:100D3000164000EB4600457804EBC40000EB400091
:100D4000674901EB800005EBC50100EB81004079AC
:100D500001287DD104EBC40000EB4000604901EBA9
:100D6000800005EBC50100EB81008068401C04EBAE
:100D7000C40101EB41015A4A02EB810105EBC502B6
:100D800001EB8201886004EBC40000EB4000544991
:100D900001EB800005EBC50100EB8100806847F2A4
:100DA000305188422AD9002004EBC40101EB4101F3
:100DB0004B4A02EB810105EBC50201EB8201487150
:100DC000032004EBC40101EB4101454A02EB810120
:100DD00005EBC50201EB8201087400BF42480068C0
:100DE000012805DB2A46214695A00DF0A9FF04E065
:100DF0002A462146A1A00DF0A3FF00BF04EBC400CA
:100E000000EB4000364901EB800005EBC50110F80E
:100E1000210004EBC40101EB4101314A02EB8101E5
:100E200005EBC50201EB82014978884210D006F03B
:100E30006FFB04EBC40101EB4101294A02EB810184
:100E400005EBC50201EB8201886104EBC40000E000
:100E500032E200EB4000224901EB800005EBC501C6
:100E600000EB81004069002838D004EBC40000EB9F
:100E700040001B4901EB800005EBC50100EB810040
:100E8000806904EBC40101EB4101154A02EB8101C9
:100E900005EBC50201EB82014969401A3230642139
:100EA000B0FBF1F0C1B204EBC40000EB40000C4A0F
:100EB00002EB800005EBC50200EB82000C3004EB76
:100EC000C40202EB4202064B03EB820205EBC503B0
:100ED00012F82320815404EBC400EDE052E100003D
:100EE0000C35002004000020000000205B494E4625
:100EF0004F5D0920B7BDCEBBCBB5C3F7A3BA0D0A72
:100F0000000000005B494E464F5D09B7BDCEBBCB2C
:100F1000B5C3F7A3BA0D0A005B494E464F5D0920E1
:100F2000B6ABCEF7C4CFB1B1A3BA303132330D0A6C
:100F3000000000005B494E464F5D09B6ABCEF7C4DA
:100F4000CFB1B1A3BA303132330D0A005B494E46FE
:100F50004F5D0920D7F3D6B1D3D2A3BA3031320DC9
:100F60000A0000005B494E464F5D09D7F3D6B1D366
:100F7000D2A3BA3031320D0A000000005B494E4660
:100F80004F5D0920B5B1C7B0D4DACFDFBAECC2CC1F
:100F9000B5C6CAFD2025640D0A0000005B494E4617
:100FA0004F5D09B5B1C7B0D4DACFDFBAECC2CCB56A
:100FB000C6CAFD2025640D0A00000000BC360020D2
:100FC0005B494E464F5D0920646972202564207498
:100FD0006F202564206C696768742025642025646F
:100FE0000D0A00005B494E464F5D09646972202579
:100FF0006420746F202564206C6967687420256400
:101000002025640D0A0000005B494E464F5D092013
:10101000BAECC2CCB5C6B3F5CABCBBAFCDEAB3C956
:101020000D0A00005B494E464F5D09BAECC2CCB5D3
:10103000C6B3F5CABCBBAFCDEAB3C90D0A00000008
:101040005B494E464F5D0920D1A7CFB0CAB1BCE481
:10105000B3ACB9FD3130B7D6D6D3A3ACCDA3D6B996
:10106000D1A7CFB0A3AC64697220256420746F202F
:10107000256420CEAAB3A3C1C10D0A005B494E4628
:101080004F5D09D1A7CFB0CAB1BCE4B3ACB9FD3153
:1010900030B7D6D6D3A3ACCDA3D6B9D1A7CFB0A302
:1010A000AC64697220256420746F20256420CEAA68
:1010B000B3A3C1C10D0A000000EB4000FE4901EBE3
:1010C000800005EBC50100EB8100806904EBC401E1
:1010D00001EB4101F84A02EB810105EBC50201EB8E
:1010E00082014969401A04EBC40101EB4101F24A53
:1010F00002EB810105EBC50201EB8201C86100BF73
:10110000EE48006801281EDB04EBC40000EB400041
:10111000E94901EB800005EBC50100EB8100C069E6
:10112000009004EBC40000EB4000E34901EB8000B9
:1011300005EBC50100EB810043782A462146E0A07B
:101140000DF0FEFD1DE004EBC40000EB4000DA49A9
:1011500001EB800005EBC50100EB8100C069009048
:1011600004EBC40000EB4000D34901EB800005EB29
:10117000C50100EB810043782A462146DCA00DF032
:10118000DFFD00BF06F0C4F904EBC40101EB41012F
:10119000C94A02EB810105EBC50201EB82014861FE
:1011A00004EBC40000EB4000C34901EB800005EBF9
:1011B000C50100EB8100007B00287DD004EBC4005A
:1011C00000EB4000BC4901EB800005EBC50100EBE2
:1011D0008100407B0028F0D004EBC40000EB40000D
:1011E000B54901EB800005EBC50100EB8100807B78
:1011F000002874D000BFB1480068012805DB2A46EA
:101200002146C7A00DF09CFD04E02A462146CCA053
:101210000DF096FD00BF00BFA8480068012827DB3D
:1012200004EBC40000EB4000A34F07EB800005EB8C
:10123000C50700EB8700837B04EBC40000EB400094
:101240009D4F07EB800005EBC50700EB8700427B55
:1012500004EBC40000EB4000974F07EB800005EB68
:10126000C50700EB8700017BBDA00DF069FD28E0FC
:1012700004EBC40000EB40008F4F07EB800005EB50
:10128000C50700EB8700837B04EBC40000EB400044
:10129000894F07EB800005EBC50700EB8700427B19
:1012A00004EBC40000EB4000834F07EB800005EB2C
:1012B000C50700EB870000E011E0017BB4A00DF052
:1012C0003FFD00BF002004EBC40101EB41017A4A5D
:1012D00002EB810105EBC50201EB82014871701C34
:1012E000C6B2B74800788642FFF620ADF8BD70B5AB
:1012F00000263BE0B34810F8164000EB4600457866
:1013000004EBC40000EB40006B4901EB800005EBEF
:10131000C50100EB8100407930BB04EBC40000EB59
:101320004000654901EB800005EBC50110F8210084
:1013300004EBC40101EB41015F4A02EB810105EBC3
:10134000C50201EB8201497888420DD006F0E0F831
:1013500004EBC40101EB4101574A02EB810105EBAB
:10136000C50201EB82014861701CC6B29448007846
:101370008642BFDB70BD10B502460B46002000213F
:1013800004E0545C0444E0B24C1CE1B29942F8DB46
:1013900010BD2DE9FF5F04468A4600BF894810F85A
:1013A0001A5000EB4A004678A571E67105EBC500BE
:1013B00000EB4000404901EB800006EBC60100EB6A
:1013C00081004078207206F0A3F805EBC50101EB1F
:1013D0004101394A02EB810106EBC60201EB8201B1
:1013E0004969A0EB010B6420BBFBF0F100FB11B9D4
:1013F000BBFBF0F0C7B205EBC50000EB40002E4987
:1014000001EB800006EBC60100EB810090F82000A4
:10141000B84210D105EBC50000EB4000264901EBB6
:10142000800006EBC60100EB810080F820700220EE
:1014300004B0BDE8F09F05EBC50000EB40001E497D
:1014400001EB800006EBC60100EB8100407805EB64
:10145000C50101EB4101184A02EB810106EBC6020E
:1014600001EB820181F8220005EBC50000EB400092
:10147000114901EB800006EBC60100EB810080F80A
:1014800020706420BBFBF0F105EBC50000EB4000D1
:10149000094A02EB800006EBC60200EB82000C302A
:1014A000227A805C401A401E6072617A05EBC500AA
:1014B00000EB4000004A87E00C35002000000020CF
:1014C0005B494E464F5D0920646972202564207493
:1014D0006F2025642C206C69676874202564207453
:1014E0006F74616C5F7469636B732025640D0A000F
:1014F0005B494E464F5D0964697220256420746F14
:101500002025642C206C6967687420256420746F22
:1015100074616C5F7469636B732025640D0A00004D
:101520005B494E464F5D0920646972202564207432
:101530006F202564D1A7CFB0CDEAB3C90D0A000052
:101540005B494E464F5D0964697220256420746FC3
:10155000202564D1A7CFB0CDEAB3C90D0A000000A1
:101560005B494E464F5D0920D1A7CFB0D6DCC6DA25
:10157000CEAAA3BA72656420256420677265656E81
:101580002025642079656C6C6F772025640D0A0036
:101590005B494E464F5D09D1A7CFB0D6DCC6DACE47
:1015A000AAA3BA72656420256420677265656E20FF
:1015B00025642079656C6C6F772025640D0A000026
:1015C00004000020BC36002002EB800006EBC602BF
:1015D00000EB8200801C227A8154607AFF2801D1BE
:1015E000032025E7607AB0B9207A401C2072207A67
:1015F000022801DD0020207205EBC50000EB400051
:10160000D64901EB800006EBC60100EB81000C30EF
:10161000217A405C6072207AD1490870607AD149A1
:10162000087005F075FFD0490860207AE8BB5220A9
:1016300020724720A07200BFCC480068012824DB3C
:1016400005EBC50000EB4000C44901EB800006EB50
:10165000C60100EB810090F8220005EBC50101EB0B
:101660004101BE4A02EB810106EBC60201EB820199
:1016700091F82110CDE90097CDE90210637A324646
:101680002946BB480DF05CFB25E005EBC50000EBEF
:101690004000B24901EB800006EBC60100EB81007F
:1016A00090F8220005EBC50100E015E001EB4101D7
:1016B000AA4A02EB810106EBC60201EB820191F816
:1016C0002110CDE90097CDE90210637A3246294610
:1016D000A8480DF035FBA8E0207A012852D1472018
:1016E00020725920A07200BFA0480068012824DBA6
:1016F00005EBC50000EB4000984901EB800006EBCC
:10170000C60100EB810090F8221005EBC50000EB4C
:101710004000924A02EB800006EBC60200EB82001A
:1017200090F82100CDE90097CDE90201637A3246B5
:10173000294691480DF004FB23E005EBC50000EBC2
:101740004000864901EB800006EBC60100EB8100FA
:1017500090F8220005EBC50101EB41017F4A02EB45
:10176000810106EBC60201EB820191F82110CDE95F
:101770000097CDE90210637A324629467F480DF082
:10178000DFFA52E0592020725220A07200BF774841
:101790000068012824DB05EBC50000EB40006F4921
:1017A00001EB800006EBC60100EB810090F82200FF
:1017B00005EBC50101EB4101684A02EB810106EB33
:1017C000C60201EB820191F82110CDE90097CDE925
:1017D0000210637A3246294669480DF0B1FA23E0D7
:1017E00005EBC50000EB40005C4901EB800006EB17
:1017F000C60100EB810090F8220005EBC50101EB6A
:101800004101564A02EB810106EBC60201EB82015F
:1018100091F82110CDE90097CDE90210637A3246A4
:10182000294658480DF08CFA00BFE079401CE07161
:10183000A52020705A2060708320A070A020E07046
:1018400000202071122060715A202074A52060743D
:1018500005EBC50000EB4000404901EB800006EBC2
:10186000C60100EB8100407901280DD005EBC500D1
:1018700000EB4000394901EB800006EBC60100EBAC
:101880008100007C032802D1FF20607226E005EB76
:10189000C50000EB4000314901EB800006EBC601BA
:1018A00000EB8100007B207305EBC50000EB4000DE
:1018B0002A4901EB800006EBC60100EB8100407B6A
:1018C000607305EBC50000EB4000244901EB80008C
:1018D00006EBC60100EB8100807BA0730F21204640
:1018E000FFF749FDE07305EBC50000EB40001B4925
:1018F00001EB800006EBC60100EB810090F82200AE
:1019000005EBC50101EB4101144A02EB810106EB35
:10191000C60201EB820181F821004FF0000814E0BB
:10192000194850F8280060B1174951F828000123E0
:10193000122221460AF082FF134951F828000BF0C9
:1019400031F808F1010000F0FF08B8F1030FE7DB00
:10195000122120460DF04FF9012069E50C350020D9
:1019600005000020060000200800002000000020E4
:1019700000F60008BCF5000878F5000834F500080A
:10198000F0F40008ACF40008303A00201FB504461B
:1019900003222146574801F0C2F8032201A9554805
:1019A00001F006F900BF54480068012803DB53A08A
:1019B0000DF0C6F902E059A00DF0C2F900BF00BF5A
:1019C0004D48006801280CDB9DF8070000909DF849
:1019D00006309DF805209DF8041058A00DF0B0F9D0
:1019E0000BE09DF8070000909DF806309DF805205B
:1019F0009DF8041058A00DF0A3F900BF00BF3E48A9
:101A0000006801280CDB9DF80B0000909DF80A305F
:101A10009DF809209DF8081056A00DF091F90BE0F3
:101A20009DF80B0000909DF80A309DF809209DF864
:101A3000081058A00DF084F900BF00BF2E480068C0
:101A400001280CDB9DF80F0000909DF80E309DF8EA
:101A50000D209DF80C1057A00DF072F90BE09DF8C9
:101A60000F0000909DF80E309DF80D209DF80C1091
:101A700058A00DF065F900BF04B010BD70B5ADF50C
:101A8000007D4FF48071684601F01CF90646002481
:101A90000AE01DF80400A52805D1601C1DF800000F
:101AA0005A2800D102E0641CB442F2DB00BFB44209
:101AB00003D100200DF5007D70BD201D1DF80050E4
:101AC00000BF0D480068012805DB2A46214649A0D1
:101AD0000DF036F904E02A46214650A00DF030F909
:101AE00000BF022D03D10DF10600FFF74FFF0120CB
:101AF000E0E7000000000708000000205B494E46B8
:101B00004F5D09202D2D2D2D2D2D5345542049504D
:101B1000202D2D2D2D2D2D0D0A0000005B494E4648
:101B20004F5D092D2D2D2D2D2D534554204950202D
:101B30002D2D2D2D2D2D0D0A000000005B494E4648
:101B40004F5D092049503A2025642E25642E2564D6
:101B50002E25640D0A0000005B494E464F5D094981
:101B6000503A2025642E25642E25642E25640D0A06
:101B7000000000005B494E464F5D09205355424D21
:101B800041534B3A2025642E25642E25642E25646E
:101B90000D0A00005B494E464F5D095355424D41C9
:101BA000534B3A2025642E25642E25642E25640D82
:101BB0000A0000005B494E464F5D092047415445ED
:101BC0005741593A2025642E25642E25642E25641C
:101BD0000D0A00005B494E464F5D09474154455789
:101BE00041593A2025642E25642E25642E25640D46
:101BF0000A0000005B494E464F5D09202A2A2A2A26
:101C00002A2A72656376206F6B202A2A2A2A2A2ABA
:101C10002025642025640D0A000000005B494E4623
:101C20004F5D092A2A2A2A2A2A72656376206F6B59
:101C3000202A2A2A2A2A2A2025642025640D0A001F
:101C40001CB50121102002F0C1FB4FF40070009080
:101C500001208DF8040003208DF805006946044832
:101C600002F04EF94FF40071014802F0C5F91CBDB5
:101C70000010024010B5FFF7E3FF00F007F800F096
:101C8000A1FD00F0FEFA00F065FE10BD08B50021D0
:101C90004FF0006001F03AF94FF4407001F0FCF8A9
:101CA0003D208DF8000000208DF801008DF8020025
:101CB00001208DF80300684601F0F3F825208DF827
:101CC000000000208DF8010001208DF802008DF841
:101CD0000300684601F0E5F826208DF8000000209A
:101CE0008DF8010001208DF802008DF80300684690
:101CF00001F0D7F827208DF8000000208DF80100B2
:101D000001208DF802008DF80300684601F0C9F843
:101D100014208DF800004FF4407001F0BDF8002051
:101D20008DF8010001208DF802008DF8030068464F
:101D300001F0B7F808BD000010B5002807DA0A075F
:101D4000140E724A00F00F031B1FD45403E00A075D
:101D5000130E6F4A135410BD00B5AFB001214FF000
:101D6000606002F033FB0CF011F80CF096FD00BF40
:101D70000CF09AFD0128FBD068460CF012F8012007
:101D80000090002007904FF400700A9000200B9004
:101D90000E9011901390149015904FF4806009905C
:101DA000002020904FF0007021900011239000201F
:101DB0002590269004202890C005299040122A9052
:101DC00080012B9040122C9040002E9001216846FB
:101DD0000CF0A1F801214F480CF07DFD2FB000BDA3
:101DE00008B54FF4407001F057F83D208DF8000021
:101DF00000208DF801008DF8020001208DF803000D
:101E0000684601F04EF808BD1CB50121072002F01C
:101E1000DDFA0121880302F01DFB012002F043FCE2
:101E200003208DF8050002208DF8040000208DF8B5
:101E300006008DF80700862000906946364802F0BB
:101E40005FF80B220121344802F0E5F80B22022151
:101E5000314802F0E0F80B2207212F4802F0DBF8AE
:101E60003220009069462D4802F04AF80B220121E9
:101E70002A4802F0D0F80B220421284802F0CBF8BF
:101E80000B220521254802F0C6F84FF4605000905F
:101E90006946234802F034F80B221146204802F02C
:101EA000BAF80B220C211E4802F0B5F80B220D21C6
:101EB0001B4802F0B0F81CBD1FB5FFF7A5FFFFF7E8
:101EC0008FFFFFF749FF684602F0EBF964210098A5
:101ED000B0FBF1F4B4F1807F00D311E024F07F4037
:101EE000401E4FF0E02148610F214FF0FF30FFF717
:101EF00023FF00204FF0E02188610720086100BF28
:101F00000121881EFFF718FF1FBD000018ED00E03B
:101F100000E400E040000100000002400008024030
:101F20000004024010B58AB0012407F0A9FC07F0B4
:101F30000FFE032204A9784800F03AFE00BF77485C
:101F4000006801280CDB9DF8130000909DF812300A
:101F50009DF811209DF8101071A00CF0F1FE0BE01F
:101F60009DF8130000909DF812309DF811209DF807
:101F7000101072A00CF0E4FE00BF00BF67480068BC
:101F800001280CDB9DF8170000909DF816309DF895
:101F900015209DF8141070A00CF0D2FE0BE09DF8F7
:101FA000170000909DF816309DF815209DF814102C
:101FB00071A00CF0C5FE00BF00BF584800680128A2
:101FC0000CDB9DF81B0000909DF81A309DF819203D
:101FD0009DF8181070A00CF0B3FE0BE09DF81B00EC
:101FE00000909DF81A309DF819209DF8181072A0E5
:101FF0000CF0A6FE00BF9DF81000FF2822D1C020E3
:102000008DF81000A8208DF8110008208DF812001E
:10201000FC208DF81300FF208DF81400FF218DF8AF
:1020200015108DF8161000218DF81710C0208DF8AE
:102030001800A8218DF8191008218DF81A10012117
:102040008DF81B109DF810100A069DF8111042EA39
:1020500001429DF8121042EA01219DF8132041EA45
:10206000020005F059FD09909DF814100A069DF82C
:10207000151042EA01429DF8161042EA01219DF82E
:10208000172041EA020005F047FD08909DF818105E
:102090000A069DF8191042EA01429DF81A1042EA18
:1020A00001219DF81B2041EA020005F035FD079053
:1020B00049484A49002207ABCDE90021029008AA0D
:1020C00009A9474807F0EFFD454807F01EFE4448C0
:1020D00007F063FE0AB010BD10B541480BF00CFECE
:1020E00010BD01B53F4900980968401AFA2804D389
:1020F0003C490098086008F027FD3B4900980968B2
:10210000401A41F28831884204D337490098086068
:102110000BF0B1F808BD0000000007080000002027
:102120005B494E464F5D092049503A2025642E25D3
:10213000642E25642E25640D0A0000005B494E467E
:102140004F5D0949503A2025642E25642E25642EC2
:1021500025640D0A000000005B494E464F5D0920D2
:102160005355424D41534B3A2025642E25642E256C
:10217000642E25640D0A00005B494E464F5D0953ED
:1021800055424D41534B3A2025642E25642E25643B
:102190002E25640D0A0000005B494E464F5D092064
:1021A000474154455741593A2025642E25642E2530
:1021B000642E25640D0A00005B494E464F5D0947B9
:1021C0004154455741593A2025642E25642E2564F3
:1021D0002E25640D0A0000003BDB000825DD000809
:1021E000D43600200C00002010000020704700BFF3
:1021F000FEE700BFFEE700BFFEE700BFFEE7704757
:1022000070477047704710B502F08CFD04460C48CB
:102210000078401C0A490870204602F087FD01E062
:10222000FFF75AFF0CF008FA0028F9D140200CF013
:1022300069FB4FF480300CF065FB03F01AFA10BD17
:102240008D00002000BF704770B504460D46102178
:10225000F64801F0D1FE00BFF548008800F04000CC
:102260000028F9D0E0B2F249091D08801021EF489A
:1022700001F0C4FE204670BD00E0401E0028FCD1E5
:10228000704700B589B00121092002F09FF80121B3
:10229000102002F0DFF8E74802F01CFA03A802F071
:1022A000CDFA01A802F0E6FA02208DF820008DF8A0
:1022B000210000208DF8220001208DF8230040022B
:1022C000079007A9DC4801F01BFE07220921DA4824
:1022D00001F0A1FE4FF48060079007A9D64801F0F5
:1022E0000FFE07220A21D44801F095FE01A9D1482A
:1022F00002F0B0FA4FF4E13003900020ADF8100086
:10230000ADF81200ADF81400ADF818000C20ADF8CF
:10231000160003A9C74802F02BFA012240F225510A
:10232000C44802F063FB40F22661C24802F0D0FBD1
:102330000121C04802F0A4FA0121480402F079F812
:10234000BB4802F0C7F903A802F078FA01A802F02E
:1023500091FA02208DF820008DF8210000208DF8E0
:10236000220001208DF823002020079007A9AF4804
:1023700001F0C6FD07220521AC4801F04CFE4020CB
:10238000079007A9A94801F0BBFD07220621A7482D
:1023900001F041FE01A9A64802F05CFA4FF4165084
:1023A00003900020ADF81000ADF81200ADF8140055
:1023B000ADF818000C20ADF8160003A99C4802F0F7
:1023C000D7F9012240F22551994802F00FFB40F263
:1023D0002661974802F07CFB0121954802F050FAF3
:1023E0001020079002208DF8210001208DF8200098
:1023F00007A98E4801F084FD10218C4801F0FCFDF6
:102400004FF49670FFF738FF0121880402F011F8AD
:102410008A4802F05FF903A802F010FA01A802F05E
:1024200029FA02208DF820008DF8210000208DF877
:10243000220001208DF823000002079007A97B48A5
:1024400001F05EFD07220821784801F0E4FD4FF419
:102450000070079007A9754801F052FD0722092175
:10246000724801F0D8FD01A9744802F0F3F94FF465
:10247000E13003900020ADF81000ADF81200ADF887
:102480001400ADF818000C20ADF8160003A96B4835
:1024900002F06EF9012240F22551684802F0A6FAD6
:1024A00040F22661654802F013FB0121634802F007
:1024B000E7F909B000BD10B5044621465F4802F0B7
:1024C0000AFA00BF80215D4802F0B5FA0028F9D071
:1024D00010BD70B505460E46002404E0285DFFF7E8
:1024E000EAFF601CC4B2B442F8DB70BD10B504460C
:1024F0002021504802F09FFA30B94FF40071504843
:1025000001F07AFD002010BD4A4802F0E8F9207081
:102510000120F8E701B502E00098401E0090009805
:102520000028F9D108BD70B54648008800F4004085
:10253000E0B14448057844A00CF002FC00240DE012
:102540004648015D3B4802F0C6F900BF40213948CA
:1025500002F071FA0128F9D1601CC4B2AC42EFDB81
:102560003FA00CF0EDFB00203649088070BD70B52F
:102570003D48008800F40040B0B13B480578002495
:102580000DE03A48015D2D4802F0A5F900BF402159
:102590002A4802F050FA0128F9D1601CC4B2AC42BA
:1025A000EFDB00203049088070BD10B503F04BF818
:1025B00040F225511F4802F054FA10B31D4802F0B2
:1025C0008EF9C4B21F48008800F40040C8B91D4805
:1025D000008800F4804060B10A2C03D00020194923
:1025E000088020E01748008840F400401549088022
:1025F00019E00D2C06D11348008840F480401149A1
:10260000088010E00F480088C0F30D0013490C54F7
:102610000C480088401C0B49088008460088C728E1
:1026200001DD0020088003F024F810BD000C0240FA
:1026300000440040001001400000024000480040FB
:10264000001002401C0000200D0AC4FAB7A2CBCD36
:10265000B5C4CFFBCFA2CEAA3A0D0A000C3700209A
:102660000D0A0D0A000000001E000020D4370020D3
:1026700010B502F0E8FF40F22551374802F0F1F9B9
:1026800090B140F22551344802F022FA324802F06B
:1026900026F9C4B2204600F0D9FA00BF80212E48A6
:1026A00002F0C9F90028F9D002F0E3FF10BD10B51F
:1026B00002F0C9FF40F22551284802F0D2F990B14A
:1026C00040F22551254802F003FA244802F007F9A8
:1026D000C4B2204600F0BAFA00BF80211F4802F0C1
:1026E000AAF90028F9D002F0C4FF10BD70B5054664
:1026F0000E46002410211A4801F07EFC4FF496701B
:10270000FFF7BAFD00BF0BE0285D1349091D0880E3
:1027100000BF1148008800F040000028F9D0641C78
:10272000B442F1D3C820FFF7A7FD10210C4801F0F7
:1027300065FC70BD10B50B48007801280AD1002057
:1027400008490870084801680848FFF7CFFF0020D3
:102750000549086010BD00000044004000480040EA
:10276000000C024020000020240000209C380020A3
:1027700010B50246002000BF20E000EB80036F4C44
:1027800054F82330934218D100EB800304EB830309
:102790001B79CB7000EB800304EB83031B7A0B7176
:1027A00000EB800304EB83031B7B4B7100EB800386
:1027B00004EB83031B8A0B8010BD401C1228DCD362
:1027C00000BFF9E700B589B00121082001F0FEFD46
:1027D0000120079002208DF820008DF821000020B4
:1027E0008DF8220001208DF8230007A9544801F03C
:1027F00087FB0220079007A9514801F081FB0922BD
:1028000000214F4801F007FC092201214C4801F04A
:1028100002FC0121480601F00CFE4A4800F0ACFB26
:1028200004A800F0CDFC00208DF816008DF81700EC
:102830008DF818008DF819008DF81A008DF81B001E
:102840008DF8120004A9FA20FFF792FF04A93D4871
:1028500000F0ABFB00208DF80A008DF80B00012082
:102860008DF80C000020ADF80000ADF80200ADF8C6
:102870000400ADF80600ADF8080001208DF80D0049
:10288000684600F01CFC012202212E4800F016FFD1
:1028900009B000BD00B585B002F0D5FE0020009063
:1028A00001908DF808008DF80A008DF813008DF85E
:1028B0000B006A460021234800F0E5FD009822281D
:1028C00008D19DF80B00BB2804D14FF400711E48BD
:1028D00001F094FB01201D4908700221194800F005
:1028E000F0FF02F0C6FE05B000BDF0B585B00546AC
:1028F0000E4600270095002001908DF808008DF805
:10290000090008208DF80A0011480670002406E02E
:102910000F48015D0DF10B000155601CC4B2082C7D
:10292000F6DB6946074800F0B9FC074605B0F0BD84
:1029300010B5AA211120FFF7D8FF10BDE4F100085F
:10294000000C0240006400400010024044000020DF
:102950003C0000201CB501210C2001F037FD4FF494
:102960006050009001208DF8040002208DF80500D1
:1029700069464A4801F0C4FA4FF480600090002094
:102980008DF8040002208DF805006946434801F0E7
:10299000B7FA4FF46070009001208DF80400022017
:1029A0008DF8050069463E4801F0AAFA40200090E3
:1029B00000208DF8040002208DF805006946384893
:1029C00001F09EFA4FF40061344801F017FB4FF418
:1029D0008051324801F012FB4FF400512F4801F0B2
:1029E0000DFB4FF400612E4801F008FB4FF480719D
:1029F0002B4801F003FB4FF40071294801F0FEFA67
:102A00001CBD70B54FF48051244801F0F7FA4FF423
:102A10008051224801F0F0FA002515E04FF40051F2
:102A20001E4801F0EBFA64004FF480611B4801F08E
:102A3000C9FA08B144F0010400BF4FF4005117482F
:102A400001F0DAFA681CC5B2182DE7DB204670BD2C
:102A500070B54FF48071124801F0D0FA4FF48071D4
:102A60000F4801F0C9FA002514E04FF400710C483A
:102A700001F0C4FA64004021094801F0A3FA08B14A
:102A800044F0010400BF4FF40071054801F0B4FAAE
:102A9000681CC5B2182DE8DB204670BD000C024052
:102AA00000080240014608687047014652488142CA
:102AB00001D2002070475148814201D20820F9E735
:102AC0004F48814201D21020F4E74E48814201D2A2
:102AD0001820EFE74C48814201D22020EAE74B481A
:102AE000814201D22820E5E74948814201D23020C5
:102AF000E0E74848814201D23820DBE7464881427E
:102B000001D24020D6E74548814201D24820D1E792
:102B10004348814201D25020CCE75820CAE72DE932
:102B2000F04704460E4617464FF008080025A94610
:102B3000B4F1006F02D304F0030008B1BDE8F087E0
:102B400000F050FF002000F030FF254604EB87091D
:102B50003448854215D211E02846FFF7A3FF401CF8
:102B600058B12846FFF7A1FF8246022100F086FFF8
:102B70008046B8F1080F01D002E02D1D4D45EBD382
:102B800000BFB8F1080F0CD108E02046316801F011
:102B90001EF8082800D003E0241D361D4C45F4D350
:102BA00000BF012000F001FF00F029FF00BFC5E7D2
:102BB00030B503460C461546002206E01846FFF7DE
:102BC00071FF44F822001B1D521CAA42F6D330BDEF
:102BD00000B585B0052214491448FFF7A0FF05226F
:102BE00069461248FFF7E4FF0522694610A00CF081
:102BF000A7F805B000BD00000040000800800008F4
:102C000000C00008000001080000020800000408DD
:102C1000000006080000080800000A0800000C0870
:102C200000000E080000FF1F4CF30008000007081A
:102C300053544D20464C415348205445535420256D
:102C4000732073697A652025640D0A0028494A7843
:102C5000891C8854891E4978491CC9B2244A51707C
:102C6000B1F5967F01DB0021517021494978204A56
:102C7000127891420AD11E490978491CC9B21C4AEE
:102C80001170B1F5967F01DB00211170704701468C
:102C900017480078164A5278904201D101207047B7
:102CA00013480278801C805C087011480078401C32
:102CB000C0B20F4A1070B0F5967F01DB0020107093
:102CC0000020ECE770B504460D46002600230AE01C
:102CD000E018FFF7DCFF10B9701C86B201E0304647
:102CE00070BD581C83B2AB42F2DB3046F8E70000FF
:102CF000003900202DE9F04781460F4615469846D9
:102D00002C4614B32189384607F0ABFE1AE00026A2
:102D10000BE0424850F82600B84204D10020404958
:102D200021F8160003E0701CC6B2032EF1DB00BFD1
:102D3000628901233846616809F080FD384609F050
:102D400031FE2468002CE2D102E0384607F0DDFDB8
:102D5000284607F055F84FF000084046BDE8F087D8
:102D60002DE9F04107460D4616462E480078022808
:102D700014DD00BF2C480068012805DB29480178D4
:102D80002AA00BF0DDFF04E0264801782DA00BF00F
:102D9000D7FF00BF4FF0FF30BDE8F081002409E00D
:102DA0001E4850F8240018B91C4840F8245003E08D
:102DB000601CC4B2032CF3DB00BF1A480078401C2F
:102DC000184908700121284608F0DCF822492846F5
:102DD00008F078F900263046DEE770B5002408E0F8
:102DE00000200E4941F824000D4921F81400601C10
:102DF000C4B2032CF4DB08F05EF9054642F2C322AC
:102E00001649284607F02DFFFF21284607F09FFFAF
:102E100005461349284608F05EF970BD303A002097
:102E20004800002046000020000000205B494E467C
:102E30004F5D0920B5B1C7B02564C1ACBDD30D0A43
:102E4000000000005B494E464F5D09B5B1C7B02593
:102E500064C1ACBDD30D0A00F52C00085DF4000878
:102E6000612D000870B505460C464FF4A06000F0D7
:102E700013F845F2555001F003F9284601F003F923
:102E8000204601F003F901F004F901F007F970BDE3
:102E900010B501F0FEF810BD32490143324A11600D
:102EA000704770B5002100230F22C4781CB32E4C4C
:102EB000246804F4E064C4F5E064C4F30721C1F1BC
:102EC0000404E3B20A4144789C40E1B2847814409F
:102ED00021430C07210E254C05786155047804F038
:102EE0001F050124AC4005786D11AD0005F1E0250A
:102EF000C5F8004109E0047804F01F050124AC4046
:102F00001B4D0678761145F8264070BD194A0A40D7
:102F10000243154B1B1F1A60704739B1124A121D2C
:102F200012680243104B1B1D1A6006E00E4A121D68
:102F3000126882430C4B1B1D1A607047042808D18D
:102F40004FF0E021096941F004014FF0E0221161E6
:102F500007E04FF0E021096921F004014FF0E02281
:102F6000116170470000FA050CED00E000E400E09C
:102F700080E100E080FFFF1F10B50446FE48844258
:102F800009D10121480601F0BCFA00214FF0007080
:102F900001F0B7FA08E00121880601F0B2FA002139
:102FA0004FF0806001F0ADFA10BD30B50246002050
:102FB0000023146824F002041460146844F001042F
:102FC000146000E05B1C546804F001041CB94FF667
:102FD000FF74A342F6D1546804F001040CB9002038
:102FE0006CE08C79012C04D1146844F080041460E6
:102FF00003E0146824F080041460CC79012C04D11F
:10300000146844F04004146003E0146824F04004A1
:1030100014600C7A012C04D1146844F0200414606C
:1030200003E0146824F0200414604C7A012C04D1CD
:10303000146844F01004146003E0146824F01004D1
:1030400014608C7A012C04D1146844F008041460D4
:1030500003E0146824F008041460CC7A012C04D135
:10306000146844F00404146003E0146824F00404B9
:1030700014608C78A407CD7844EA05640D7944EA9D
:1030800005444D7944EA05540D886D1E2C43D461E6
:10309000146824F001041460002300E05B1C5468F1
:1030A00004F001041CB14FF6FF74A342F6D154683A
:1030B00004F001040CB1002000E0012030BD10B587
:1030C0000021837A012202FA03F1AC4A126842F02D
:1030D0000102AA4B1A60A94A1C3212688A43A74B04
:1030E0001C331A60027BCAB9A44A0C3212688A43A4
:1030F000A24B0C331A604288C38842EA03439F4ABA
:103100004032847A42F834300288838842EA0343AA
:103110009A4A4032847A02EBC4025360027B012A4D
:1031200019D1964A0C3212680A43944B0C331A6038
:103130004288038842EA0343904A4032847A42F844
:103140003430C288838842EA03438C4A4032847A0E
:1031500002EBC4025360C27A3AB9884A121D12685F
:103160008A43864B1B1D1A6006E0844A121D1268B2
:103170000A43824B1B1D1A60028932B97F4A1432FE
:1031800012688A437D4B14331A600289012A06D1E2
:103190007A4A143212680A43784B14331A60427B1D
:1031A000012A06D1754A1C3212680A43734B1C333C
:1031B0001A60724A126822F00102704B1A6010BD48
:1031C00000218171C171017241728172C17281707D
:1031D000C1700321017102214171012101807047F9
:1031E0006649096841F00101644A116011460968A5
:1031F00043F60E729143614A11601146096841EA33
:10320000002111601146096821F001011160704729
:1032100021B1026842F48032026003E0026822F4C5
:10322000803202607047E1B1026842F080020260C1
:103230004FF4C272125842F480734FF4C2721350AA
:103240004FF4CA72125842F480734FF4CA7213508A
:103250004FF4D272125842F480734FF4D27213506A
:103260001BE0026822F0800202604FF4C272125822
:1032700022F480734FF4C27213504FF4CA72125882
:1032800022F480734FF4CA7213504FF4D272125862
:1032900022F480734FF4D2721350704710B5024677
:1032A0000020936803F08063B3F1806F00D110E0D9
:1032B000936803F00063B3F1006F01D1012008E0CF
:1032C000936803F08053B3F1805F01D1022000E0E6
:1032D0000420042879D002F5C07303EB00131B68A7
:1032E00003F0010402F5C07303EB00131C600B7ABA
:1032F0007BB94B7A0C8843EA445302F5C07404EB63
:1033000000142468234302F5C07404EB0014236006
:1033100010E00B7A4C6843EAC4034C7A234302F56D
:10332000C07404EB00142468234302F5C07404EB5A
:10333000001423608B7A03F00F038B7202F5C073C5
:1033400003EB00135B6823F00F0402F5C07303EB7B
:1033500000135C6002F5C07303EB00135B688C7AAA
:10336000234302F5C07404EB001463608B7B1C06DE
:103370004B7B44EA034403E00064004000660040E5
:103380000B7B44EA0323CC7A234302F5C07404EB9D
:103390000014A3608B7C1C064B7C44EA03440B7C2A
:1033A00044EA0323CC7B234302F5C07404EB0014EE
:1033B000E36002F5C07303EB00131B6843F00104E4
:1033C00002F5C07303EB00131C6010BD10B502467C
:1033D000002321B1012907D002290FD109E090680B
:1033E000F94C00EA04030BE09068F84C00EA04038F
:1033F00006E09068F64C00EA040301E0002300BFF9
:1034000000BFF44C181BA34216D007DC83B16FF049
:103410008060184470B1022818D111E0B0F5007F27
:1034200010D0ED4C204448B1B0F5003F0ED10BE078
:1034300002230DE000230BE0002309E0002307E056
:10344000012305E0012303E0012301E0002300BF85
:1034500000BFD8B210BD21B1012907D002290FD178
:1034600009E0826842F0800282600AE0826842F4E9
:103470000042826005E0826842F40002826000E05F
:1034800000BF00BF704710B500F5D87303EB011300
:103490001B6803F004031372137A53B900F5D87351
:1034A00003EB01131B6840F2FF7404EA53531360EB
:1034B00009E000F5D87303EB01131B686FF060445B
:1034C00004EAD303536000F5D87303EB01131B68C0
:1034D00003F00203537200F5D87303EB01135B682A
:1034E00003F00F03937200F5D87303EB01135B68CD
:1034F0001B0AD37400F5D87303EB01139B68D372D6
:1035000000F5D87303EB01139B681C0A147300F5D4
:10351000D87303EB01139B681C0C547300F5D8732C
:1035200003EB01139B681B0E937300F5D87303EB39
:103530000113DB68D37300F5D87303EB0113DB6869
:103540001C0A147400F5D87303EB0113DB681C0C20
:10355000547400F5D87303EB0113DB681B0E9374EE
:1035600021B9C36843F02003C36003E0036943F05B
:103570002003036110BD21B9C26842F02002C2607D
:1035800003E0026942F02002026170470246002017
:1035900019B9D36803F0030006E0012903D11369C8
:1035A00003F0030000E00020704710B502460B4610
:1035B00000204FF6FF71BBB9146824F0020444F0F8
:1035C0000104146000E0491E546804F00304012C57
:1035D00001D00029F7D1546804F00304012C01D074
:1035E000002032E0012030E0012B13D1146824F0D8
:1035F0000304146000E0491E546804F003040CB195
:103600000029F8D1546804F003040CB100201CE038
:1036100001201AE0022B17D1146824F0010444F0B1
:103620000204146000E0491E546804F00304022CF4
:1036300001D00029F7D1546804F00304022C01D012
:10364000002002E0012000E0002010BD0146002023
:103650000A6822F0010242F002020A604A6802F09F
:103660000302022A00D10120704701464FF6FF7283
:1036700000200B6823F002030B6000E0521E4B6831
:1036800003F00203022B01D1002AF7D14B6803F0AB
:103690000203022B00D001207047014600208A69F6
:1036A00002F070007047014600208A69100E7047D2
:1036B000014600208A69C2F3074070471AB1436986
:1036C0000B43436102E043698B434361704710B58C
:1036D0000246002001F4700343B19369C1F313045F
:1036E00023400BB101202DE000202BE001F080737E
:1036F00043B15368C1F3130423400BB1012021E00F
:1037000000201FE001F0006343B19368C1F313048C
:1037100023400BB1012015E0002013E001F00073FD
:1037200043B1D368C1F3130423400BB1012009E076
:10373000002007E01369C1F3130423400BB10120FB
:1037400000E0002010BD0022244B994202D100234A
:10375000836111E0C1F3130201F000730BB1C26089
:103760000AE001F080630BB1026105E001F0006343
:103770000BB1826000E0426070470246002002EA1E
:1037800001030BB1012000E00020704770B5044632
:103790000D46002660692840002872D0B5F5807F6C
:1037A00069D01DDC082D42D006DC012D2DD0022D64
:1037B00031D0042D7FD134E0102D3ED0202D42D0C9
:1037C000402D78D145E0000003000004000300080C
:1037D00000000310000100080001FFF77000F03046
:1037E000B5F5004F61D009DCB5F5007F4AD0B5F5DD
:1037F000806F4DD0B5F5006F5DD150E0B5F5803FDD
:103800002DD0B5F5003F56D12FE0A0685549FFF700
:10381000B4FF064651E0E0680321FFF7AEFF06461D
:103820004BE0E0680821FFF7A8FF064645E0E068A6
:103830001021FFF7A2FF06463FE020690321FFF7B2
:103840009CFF064639E020690821FFF796FF0646EF
:1038500033E020691021FFF790FF06462DE06068F5
:103860000821FFF78AFF064627E060681021FFF76E
:1038700084FF064621E0A0690121FFF77EFF06468E
:103880001BE01BE0A0690221FFF777FF064614E06A
:10389000A0690421FFF771FF06460EE00BE0A06966
:1038A0007021FFF76AFF064607E060680421FFF712
:1038B00064FF064601E0002600BF00E00026304617
:1038C00070BDB1F5007F3AD00FDC202928D006DC8E
:1038D00001291CD004291DD0082940D11DE0402910
:1038E00021D0B1F5807F3AD126E0B1F5004F31D03B
:1038F00006DCB1F5806F25D0B1F5006F2FD124E043
:10390000B1F5803F12D0B1F5003F28D111E0154A42
:10391000826025E00822C26022E01022C2601FE01F
:10392000082202611CE01022026119E008224260B4
:1039300016E01022426013E00422426010E00422EC
:1039400042600DE0042242600AE00022826104220B
:10395000426005E0002282610422426000E000BF74
:1039600000BF704701010100FE4A1070704730B17E
:10397000FC49096841F48071FA4A116005E0F9498F
:10398000096821F48071F74A1160704730B1F54938
:10399000096841F40071F34A116005E0F1490968D2
:1039A00021F40071EF4A1160704730B1ED490968A8
:1039B00041F48061EB4A116005E0EA49096821F4AD
:1039C0008061E84A11607047E648006840F4006092
:1039D000E44908607047E348006840F48050E149DA
:1039E00008607047DF481030006800F0004028B1E0
:1039F000DD48DC49091D0860DC4808607047D9488B
:103A00001030006840F00040D6491031086070471F
:103A10000820D4490C31096801F48031B1F5803FA8
:103A200001D1012018E0CF490C31096801F01001E3
:103A300009B1052010E0CB490C31096801F0EF0114
:103A400009B1062008E0C7490C31096801F00201FC
:103A500009B1072000E00820704708B50820009051
:103A6000FFF7D6FF009002E0FFF7D2FF00909DF82D
:103A700000000128F8D09DF8000008BD70B504468C
:103A80000A460026082502B909E0012A01D11602DA
:103A900005E0022A01D1160201E04FF44076FFF75B
:103AA000DCFF0546082D2DD1AE481030006820F40B
:103AB0004070AC4910310860084600683043086027
:103AC0000846006820F0F80008600846006844F0E6
:103AD00002010843A349103108600846006840F419
:103AE00080300860FFF7B9FF05469E481030006837
:103AF00020F002009B49103108600846006820F061
:103B0000F8000860284670BD30B50246002508243C
:103B1000FFF7A3FF044602B909E0012A01D115020B
:103B200005E0022A01D1150201E04FF44075082C8E
:103B300020D18C481030006820F440708949103141
:103B4000086008460068284308600846006840F09E
:103B5000040008600846006840F480300860FFF701
:103B60007CFF04467F481030006820F004007D4947
:103B700010310860204630BD70B5064614461D461B
:103B80000822FFF76AFF0246082A1ED17548103046
:103B9000006820F4407073491031086008460068DE
:103BA00040F4407008600846006840F0010008607A
:103BB00034607560FFF751FF02466A4810300068B4
:103BC00020F00100674910310860104670BD30B523
:103BD00002460C460825FFF740FF0546082D1DD17B
:103BE00060481030006820F440705E491031086071
:103BF0000846006840F4007008600846006840F01D
:103C0000010008601460FFF728FF05465548103092
:103C1000006820F00100534910310860284630BD8B
:103C200030B502460C460825FFF717FF0546082D5C
:103C30001DD14C481030006820F4407049491031C3
:103C400008600846006840F4807008600846006814
:103C500040F0010008601480FFF7FFFE0546414870
:103C60001030006820F001003E49103108602846FD
:103C700030BD30B502460C460825FFF7EEFE05467E
:103C8000082D1BD137481030006820F440703549AA
:103C9000103108600846006808600846006840F077
:103CA000010008601470FFF7D8FE05462D4810305B
:103CB000006820F001002B4910310860284630BD13
:103CC00028481430006800F0010028B12848254930
:103CD000083108602748086070472248143000689F
:103CE00040F001001F4914310860704730B50246AA
:103CF0000C460825FFF7B1FE0546082D10D13CB152
:103D0000184816300088904316491631088007E09D
:103D100014481630008891B20843124916310880C1
:103D200030BD10B502460824FFF797FE0446082C64
:103D300002D10C481530027010BDF0B504460D4696
:103D4000FF260827FFF789FE0746082F16D10548EA
:103D50001430007800F00F0645EA060010432043B7
:103D6000004909E0003C024023016745AB89EFCDE3
:103D70003B2A19087F6E5D4C14310870F0BD28494C
:103D8000097821F00C01264A117011460978014387
:103D90001170704700B508222148007840F00200F9
:103DA0001F490870FFF759FE0246104600BD1C4827
:103DB0000068C0F3471070471948801C008870479E
:103DC00000201749491C0978AA2901D0012000E0E8
:103DD000002070471248007800F00C00704739B19D
:103DE0000F4A121F126802430D4B1B1F1A6006E098
:103DF0000B4A121F12688243094B1B1F1A6070473F
:103E000001460020064A083A12680A400AB1012019
:103E100000E0002070470249083908607047000040
:103E2000143C024010B504468C48844208D101215C
:103E3000084600F020FB0021012000F01CFB5EE0A2
:103E40008748844208D10121022000F014FB0021A0
:103E5000022000F010FB52E08248844208D1012188
:103E6000042000F008FB0021042000F004FB46E0E1
:103E70007D48844208D10121082000F0FCFA00218D
:103E8000082000F0F8FA3AE07848844208D101218D
:103E9000102000F0F0FA0021102000F0ECFA2EE0E3
:103EA0007348844208D10121202000F0E4FA002167
:103EB000202000F0E0FA22E06E48844208D101217F
:103EC000402000F0D8FA0021402000F0D4FA16E09B
:103ED0006948844208D10121802000F0CCFA0021F9
:103EE000802000F0C8FA0AE06448844207D101212A
:103EF000801500F0C0FA0021A01500F0BCFA10BD3A
:103F0000F0B50A4600210023002400BF3DE0012552
:103F100005FA01F3156805EA03049C4234D10568EB
:103F20004F000326BE40B543056015794E00B540ED
:103F30000668354305601579012D02D01579022DEB
:103F400016D185684F000326BE40B543856055797C
:103F50004E00B540866835438560456801268E4031
:103F6000B5434560456896798E40B6B235434560A5
:103F7000C5684F000326BE40B543C560D5794E00E5
:103F8000B540C6683543C560491C1029BFD3F0BD94
:103F90004FF6FF7101600021017141718171C171A2
:103FA000704708B54FF480320092009A0A4300929D
:103FB000009AC261C161009AC261C2690092C2697D
:103FC000009208BD0246002013690B400BB101208E
:103FD00000E0002070470146086980B27047024641
:103FE000002053690B400BB1012000E00020704716
:103FF0000146486980B2704701837047418370472A
:104000000AB1018300E04183704741617047426912
:104010004A4042617047F0B5002300244D07ED0E81
:1040200002FA05F3CE1000F1200555F826504E0790
:10403000F70E0F26BE40B543CF1000F1200646F81C
:104040002750CE1000F1200555F8265045EA03040C
:10405000CE1000F1200545F82640F0BD00000240DA
:104060000004024000080240000C02400010024020
:104070000014024000180240001C024000200240D0
:104080000E49086070470D49486070470B498860C9
:1040900070474AF6AA200949086070474CF6CC40A0
:1040A00006490860704701460020044AD2680A4069
:1040B0000AB1012000E000207047000000300040FD
:1040C000FA48006840F00100F84908600020F7490C
:1040D00008310860F5480068F5490840F349086070
:1040E000F448091D0860081F006820F48020091F9B
:1040F00008600020ED490C31086070470021EB4A50
:10410000921C117011460870704710B501460022CC
:10411000002300204A11012A02D1E44C236808E060
:10412000022A03D1E14C7034236802E0DF4C74347E
:10413000236801F01F02012494401C400CB10120AF
:1041400000E0002010BD38B50020009000240025BC
:1041500000BF3120FFF7D9FF05460098401C0090B2
:104160000098B0F5A06F01D0002DF2D03120FFF7FC
:10417000CCFF08B1012400E00024204638BD0146F0
:104180000020CA4A106820F0F80040EAC100106020
:104190007047C949086070470021C44A70321170E5
:1041A0001170012802D004280AD104E00121BF4A7D
:1041B0007032117005E00521BC4A7032117000E0C8
:1041C00000BF00BF7047BD490860704770B5049CD0
:1041D00041EA82150126C6EB530645EA064505432A
:1041E00045EA0465B14E361D356070BDB2490866BA
:1041F0007047820142EA0172AC4B84331A60704707
:10420000AD4988667047AC49C864704702460020D3
:10421000A64B0833186820F0EC6042EA010318430B
:10422000A24B083318607047024600209F4B0833AA
:10423000186820F0784042EA010318439B4B08338A
:104240001860704701460020984A0832106820F034
:10425000030008431060704794480830006800F07D
:104260000C00704701460020904A0832106820F088
:10427000F000084310607047014600208B4A083266
:10428000106820F4E0500843106070470146002099
:10429000864A0832106820F4604040EAC10010608D
:1042A0007047F0B5002100220024022500260223D9
:1042B0007E4F08373F6807F00C0121B1042905D073
:1042C000082937D105E07E4F076036E07D4F076053
:1042D00033E0764F3F1D3F68C7F38056734F3F1D55
:1042E0003F6807F03F036EB1764FB7FBF3F7DFF897
:1042F000BCC10CF1040CDCF800C0CCF3881C07FB3B
:104300000CF40CE06E4FB7FBF3F7DFF8A0C10CF133
:10431000040CDCF800C0CCF3881C07FB0CF4634FE2
:104320003F1D3F68C7F301477F1C7D00B4FBF5F7D5
:10433000076002E0624F076000BF00BF5B4F0837B5
:104340003F6807F0F00109095F4F7A5C0768D740C2
:104350004760564F08373F6807F4E051890A5A4FC3
:104360007A5C4768D7408760504F08373F6807F44A
:104370006041490B544F7A5C4768D740C760F0BD35
:10438000002100F44072B2F5407F0AD1474A08325A
:10439000116821F4F8114D4A02401143434A083292
:1043A0001160424A70321268C0F30B031A433F4B4C
:1043B00070331A60704741494439086070473F497B
:1043C00040390860704742490860704739B1374A40
:1043D000303212680243354B30331A6006E0334AFC
:1043E000303212688243314B30331A60704739B132
:1043F0002E4A3432126802432C4B34331A6006E0E2
:104400002A4A343212688243284B34331A60704788
:1044100039B1264A383212680243244B38331A60C5
:1044200006E0224A383212688243204B38331A6041
:10443000704739B11D4A4032126802431B4B40336A
:104440001A6006E0194A403212688243174B403323
:104450001A60704739B1154A443212680243134B4F
:1044600044331A6006E0114A4432126882430F4B0B
:1044700044331A60704739B10C4A10321268024353
:104480000A4B10331A6006E0084A10321268824361
:10449000064B10331A607047E1B1044A14321268B7
:1044A0000243024B14331A6019E000000038024046
:1044B000FFFFF6FE1030002400004742800E474206
:1044C0000024F40040787D014E000020FFFCFF0F27
:1044D0005C0147425B4A126882435A4B1A6070473C
:1044E00039B1584A121D12680243564B1B1D1A60FF
:1044F00006E0544A121D12688243524B1B1D1A607B
:10450000704739B14F4A0C32126802434D4B0C339D
:104510001A6006E04B4A0C3212688243494B0C3356
:104520001A60704739B1474A103212680243454B4E
:1045300010331A6006E0434A103212688243414B3E
:1045400010331A60704739B13E4A3C321268024358
:104550003C4B3C331A6006E03A4A3C3212688243D4
:10456000384B3C331A60704739B1364A40321268D2
:104570000243344B40331A6006E0324A403212683C
:104580008243304B40331A60704739B12D4A443270
:10459000126802432B4B44331A6006E0294A443226
:1045A00012688243274B44331A60704739B1254A59
:1045B0004C3212680243234B4C331A6006E0214A06
:1045C0004C32126882431F4B4C331A60704739B12A
:1045D0001C4A5032126802431A4B50331A6006E0EC
:1045E000184A503212688243164B50331A60704793
:1045F00039B1144AD21F12780243124BDB1F1A70D2
:1046000006E0104AD21F127882430E4BDB1F1A704D
:1046100070470C486030006840F080700949603194
:104620000860704701460020064A083A12680A40AE
:104630000AB1012000E0002070470249891F08707C
:10464000704700001438024010B501218803FFF7BD
:1046500069FF00214FF48040FFF764FF10BD1A4945
:104660000860704730B500228B071C0F0F2303FA38
:1046700004F2154B08338C1053F824309343124C3A
:1046800008348D1044F8253023468C1053F824301C
:104690008C07240F00FA04F423430B4C08348D10CC
:1046A00044F8253030BD0949086070470849086062
:1046B0007047002004492031096801F4807109B174
:1046C000012000E00020704700380140DC00274254
:1046D0000004274210B50446F748844208D101215E
:1046E0001020FFF71FFF00211020FFF71BFF3EE007
:1046F000F248844209D101214804FFF702FF00215A
:104700004FF40030FFF7FDFE31E0ED48844209D15F
:1047100001218804FFF7F5FE00214FF48020FFF708
:10472000F0FE24E0E748844209D10121C804FFF7E4
:10473000E8FE00214FF40020FFF7E3FE17E0E24817
:10474000844209D101210805FFF7DBFE00214FF467
:104750008010FFF7D6FE0AE0DC48844207D1012131
:104760002020FFF7DFFE00212020FFF7DBFE10BD39
:104770002DE9FF4705460E460024A14600BFA0468E
:10478000B08900B100BF2C8A24F44054F08804435F
:104790002C82AC8941F20C608443B0883189084393
:1047A000718908430443AC81AC8A24F44074B08915
:1047B0000443AC826846FFF774FDBF48854202D0CF
:1047C000C248854202D1DDF80C9001E0DDF8089086
:1047D000A88900F4004040B109EBC90000EB0910C2
:1047E00031684900B0FBF1F707E009EBC90000EBC5
:1047F000091031688900B0FBF1F76420B7FBF0F0D5
:1048000004012009642101FB1078A88900F400400C
:1048100040B1322000EBC800B0FBF1F000F007001F
:10482000044308E0322000EB08106421B0FBF1F0F3
:1048300000F00F0004432C81BDE8FF874FF41651B0
:10484000016000218180C18001810C214181002112
:104850008181704710B502460020108A20F47060F4
:104860000B884C8823438C882343CC8823431843EC
:10487000108210BD0021018041808180C18070477D
:1048800021B1828942F40052828104E082894DF68E
:10489000FF731A4082817047028B02F47F420283C9
:1048A000028B0A430283704721B1828942F400429D
:1048B000828103E08289C2F30E028281704721B1B6
:1048C000828A42F40062828204E0828A4FF2FF739D
:1048D0001A4082827047C1F3080282807047014605
:1048E0008888C0F308007047028A4FF6F0731A40B8
:1048F0000282028A0A430282704721B1828942F011
:104900000202828104E082894FF6FD731A4082819F
:10491000704782894FF2FF731A40828182890A436D
:1049200082817047028A4FF6DF731A400282028A40
:104930000A430282704721B1028A42F48042028215
:1049400004E0028A4BF6FF731A40028270478189A5
:1049500041F001018181704721B1828A42F0080251
:10496000828204E0828A4FF6F7731A40828270478F
:10497000028BD2B20283028B42EA01220283704789
:1049800021B1828A42F02002828204E0828A4FF6BC
:10499000DF731A408282704721B1828A42F010028E
:1049A000828204E0828A4FF6EF731A408282704757
:1049B000828A4FF6FB731A408282828A0A4382827D
:1049C000704721B1828A42F00202828204E0828A28
:1049D0004FF6FD731A40828270471AB1838A0B43E7
:1049E000838202E0838A8B4383827047F0B503465B
:1049F000002400260025002040F66A17B94200D1A5
:104A000000BF1846C1F3421401F01F06012707FA40
:104A100006F5012C01D10C3004E0022C01D110303C
:104A200000E014301AB107682F43076002E00768FE
:104A3000AF430760F0BD02460020B1F5007F00D112
:104A400000BF13880B400BB1012000E0002070472D
:104A500001F40072B2F5007F00D100BFCA430280AA
:104A6000704770B50246002400230025002040F660
:104A70006A16B14200D100BFC1F3421501F01F0315
:104A8000012606FA03F3012D02D19689334006E090
:104A9000022D02D1168A334001E0968A33400C126F
:104AA000012606FA04F41688344013B10CB1012033
:104AB00000E0002070BD00000010014000440040F4
:104AC00000480040004C00400050004000140140ED
:104AD00010B50022002340F66A14A14200D100BFA5
:104AE0000A1201249440A3B2DC43048010BD0000EC
:104AF0000648804706480047FEE7FEE7FEE7FEE778
:104B0000FEE7FEE7FEE7FEE7FEE7FEE7F14B000803
:104B1000890100080CB500200190009076480068DB
:104B200040F480307449086000BF7348006800F4A6
:104B3000003000900198401C0190009818B901982D
:104B4000B0F5A06FF1D16C48006800F4003010B1EE
:104B50000120009001E0002000900098012846D13B
:104B600065484030006840F080506349403108603B
:104B70006248006840F48040604908605E48083040
:104B800000685D49083108600846006840F400404C
:104B900008600846006840F4A05008605848091FA3
:104BA0000860081F006840F08070091F086000BF9F
:104BB0005148006800F000700028F9D040F205600C
:104BC000504908604C480830006820F003004A490A
:104BD000083108600846006840F00200086000BF25
:104BE00045480830006800F00C000828F8D10CBDDA
:104BF00010B54548006840F47000434908603E48DD
:104C0000006840F001003C49086000203A49083142
:104C10000860394800683D490840374908603C4809
:104C2000091D0860081F006820F48020091F086023
:104C3000002031490C310860FFF76CFF4FF0006035
:104C400031498039086010BD70B500200022022370
:104C500000240221284D08352D6805F00C0020B1F4
:104C6000042806D0082834D107E02A4D2A4E3560A2
:104C700033E02A4D284E35602FE01F4D2D1D2D6845
:104C8000C5F380541C4D2D1D2D6805F03F0154B116
:104C9000224DB5FBF1F5184E361D3668C6F3881661
:104CA00005FB06F209E01B4DB5FBF1F5124E361D72
:104CB0003668C6F3881605FB06F20F4D2D1D2D68CC
:104CC000C5F301456D1C6B00B2FBF3F5124E356068
:104CD00003E0104D104E356000BF00BF064D083593
:104CE0002D68C5F303150E4E705D0B4D2D68C54044
:104CF000094E356070BD0000003802400070004071
:104D000019544005003C024088ED00E0FFFFF6FE2C
:104D1000103000240024F4006000002040787D0161
:104D200064000020EFF3108072B6704780F31088A3
:104D3000704725484FF0FF010170002080F309887B
:104D400022480121017022484FF08051016062B673
:104D5000FEE71F484FF08051016070471C484FF03C
:104D600080510160704772B6EFF3098050B1A0F135
:104D7000200080E8F00FA0F1400080EC108B154976
:104D80000968086000B5144880475DF804EB1348D3
:104D900013490A7802700F4812490A6802601068C5
:104DA00090EC108B00F1400090E8F00F00F1200033
:104DB0002EF0100E80F309884EF0040E62B6704794
:104DC00072B6704762B6704722ED00E09A0000208C
:104DD00004ED00E0A0000020D54E00088F00002068
:104DE00090000020A800002010B5FFF7E9FF10BDDB
:104DF00010B5FFF7E7FF10BD704770477047704769
:104E00007047F0B504460D461046CC260660DD27F7
:104E1000061F30463760002105E04FF0AA37061F15
:104E200030463760491C1029F7D34FF08077061FB2
:104E300030463760061F304634603A4F061F304612
:104E400037604FF01237061F304637604FF0033798
:104E5000061F304637604FF00237061F3046376076
:104E60007F10061F30463760061F304635604FF012
:104E70001137061F304637604FF01037061F304697
:104E800037604FF00937061F304637604FF008375C
:104E9000061F304637604FF00737061F3046376031
:104EA0004FF00637061F304637604FF00537061FB4
:104EB000304637604FF00437061F30463760002118
:104EC00005E04FF0BB37061F30463760491C1029FC
:104ED000F7D3F0BD7047704710B5FFF723FF0446C6
:104EE00011480078401C104908702046FFF71EFF4B
:104EF00000F0B9FC00F0BDFB10BD411E4FF0E022F8
:104F00005161FF21094A11704FF0E021096941F018
:104F100005014FF0E02211611146096941F00201DB
:104F200011617047977300088D00002023ED00E0A9
:104F30000146002002E0491C421CD0B20A78002A37
:104F4000F9D170472DE9F04105460E461446002779
:104F5000FA48007820B1112020700020BDE8F081CF
:104F60002878012808D0022807D0032802D0042876
:104F700004D100E000BF00BF00BF03E001202070AB
:104F80000020EBE700BFFFF7CDFE07466869306001
:104F90003068FFF7CDFF80463846FFF7C7FE002098
:104FA00020704046DAE72DE9F04105460E461446EA
:104FB0000027E248007818B112202070BDE8F08187
:104FC0002878012808D0022807D0032802D0042816
:104FD00004D100E000BF00BF00BF02E0012020704C
:104FE000ECE700BFFFF79EFE07466E613846FFF70D
:104FF0009DFE0020207000BFE0E7F0B5024612F8E9
:10500000384F95785678383A0B4618680FE000F11B
:105010000B073F5DB74300F10B0C0CF804706746BB
:105020003F5D17B9877AAF4387721B1D1868002848
:10503000EDD1F0BDC249C34A1278885CC249095C0F
:10504000BF4A515C01EBC001C04A1170704710B5F6
:105050000024FFF767FE0446B8480078F8B9BC485A
:105060000078E0B9FFF7E6FFBA48B849097850F888
:105070002100B9490860B5480078B84909788842E4
:105080000DD0B5480068C06B401CB3490968C863BF
:10509000B3480068401CB2490860FFF75AFE20463A
:1050A000FFF744FE10BD70B501460024AD4D2D68DC
:1050B000EC61AC4C246821620B4618681BE0A94CDB
:1050C000246894F8385000F10B04645DA54D2D68F8
:1050D00095F839502C43A34D2D6895F8386000F1B0
:1050E0000B05AC55847A9F4D2D6895F83A502C43AA
:1050F00084721B1D18680028E1D19A4C246894F82A
:105100003820914CA45C974D2D6895F83950AC43EC
:105110008D4DAC542C46A45C44B9924C246894F850
:105120003A50884C2478AC43864D2C7070BD2DE9E4
:10513000FF4F83B081460E461546DDF840800020C3
:1051400000903060CA46DAF8004018E0207806285F
:1051500007D2DFE800F00604050307080AE009E0CB
:1051600008E000BF00BF012088F80000002007B061
:10517000BDE8F08F00BF0AF1040ADAF80040002C05
:10518000E4D16E48007820B1022088F800000020A9
:10519000EDE76F48007820B10D2088F8000000206E
:1051A000E5E7FFF7BFFD00900020029083460190E5
:1051B000CA46DAF800405DE02078062849D2DFE8E8
:1051C00000F048172A03494A208960B12089401E0F
:1051D000208110C601200290002001C50BF10100C2
:1051E0001FFA80FB03E0019840F0010001903CE0D1
:1051F000606858B1606801C50020606010C6012079
:1052000002900BF101001FFA80FB03E0019840F0CF
:105210000200019029E06768F88AA8B13969081D81
:105220003861086801C5B9683869884201D1786871
:105230003861F88A401EF88210C6012002900BF1F6
:1052400001001FFA80FB03E0019840F00400019088
:105250000BE000BF00BF0098FFF768FD0020306042
:10526000012088F80000584681E700BF0AF1040ACF
:10527000DAF80040002C9FD10298012809D10020C3
:1052800030600098FFF752FD002088F80000584673
:105290006DE73448006890F83400019941F08001CE
:1052A00008433049096881F8340000202D49096815
:1052B00081F835002B490698096808634846FFF7CE
:1052C000F2FE0098FFF732FDFFF7C1FEFFF72AFD5F
:1052D00000902448006890F8350020B101281BD0C8
:1052E000022818D100E000BF1E480068C4693CB124
:1052F00010C6002030600BF101001FFA80FB09E0AE
:1053000001201849096881F83500494615480068A8
:10531000FFF773FE06E000BF494612480068FFF73A
:105320006CFE00BF00BF0F48006890F83500D8B190
:10533000012842D002283FD138E000008D00002033
:105340005DF30008910000209200002090000020F2
:105350008E0000207C3F0020A80000208F0000204D
:1053600074000020A0000020207806280DD2DFE87D
:1053700000F00C0607030D0E002001C511E000BF70
:10538000F7480068406A01C50BE000BF00BF009805
:10539000FFF7CCFC00203060012088F80000584660
:1053A000E5E600BF002088F800000CE0002001C501
:1053B0000E2088F8000006E000BF002001C50A208A
:1053C00088F8000000BF00BF0020E549096881F8A7
:1053D0003400E349096881F83500E1490968C8618A
:1053E000DF4909680862DE49096848620098FFF7EA
:1053F0009DFC5846BBE67CB5002514E0694628466E
:1054000001F0D5FE064666B9D64850F8254044B1AD
:10541000012C06D0D4E9020100EB8100A0640198C0
:10542000E064681CC5B23F2DE8D97CBD002402E0D1
:10543000142001F0C5FFCC4800780028F8D0CB48F4
:1054400000686421B0FBF1F0C849086008460068B4
:1054500028B90020C6490870FF2001F0EAFE00BF0D
:10546000FFF760FC0446C3480068C3490860002099
:10547000C04908602046FFF759FCBF480068BB4997
:105480000968B0FBF1F0C0F16400B9490870FFF79A
:10549000B7FCFFF7B0FF0A2001F092FFE0E700B58C
:1054A00087B0032000218022B44BCDE90132CDE941
:1054B00003104FF6FE703E23B14A0090AFF2930006
:1054C00001F087FC06AAAFA13E2001F0F2FD07B073
:1054D00000BD002400BFFFF725FC0446A548006876
:1054E000401CA44908602046FFF720FCFFF786FC1B
:1054F000F1E700B587B0032000218022A54BCDE95C
:105500000132CDE903104FF6FF703F23A24A00900D
:10551000AFF2410001F05DFC06AAA0A13F2001F01E
:10552000C8FD07B000BD04E0002200F8012B4A1EB0
:1055300091B20029F8D1704730B5F0219B48FFF7B0
:10554000F2FF9A4B03F11805002408E000201870C0
:105550005D6097A0586118331835601C84B2092C1F
:10556000F4D300201870586091A058618F48914979
:10557000086030BD30B54FF4F2618F48FFF7D3FFBC
:105580004FF480717748FFF7CEFF8B4B03F158053E
:10559000002406E05D6186A0186558335835601C0C
:1055A000C4B2152CF6D30020586181A018650020E4
:1055B0008249086080488249086030BD0022814BE2
:1055C0001A708149002004E0002201F8012B421CDE
:1055D000D0B20828F8D300227C4B1A707C4B1A708A
:1055E0007C4B1A605E4B1A60704700207A49086055
:1055F0007A4908707A4908707A4908707A490870BF
:105600007A4908605B4908605B490860574908604F
:1056100055490870704710B5FFF7E6FBFFF7E5FF47
:10562000FFF7CCFFFFF7A6FFFFF786FF00F0B2FE03
:1056300000F099FF01F095FAFFF75BFFFFF72FFFEE
:10564000FFF7D6FB10BD10B50024FFF76BFB044637
:1056500065480078012808D160480078FF2804D206
:105660005E480078401C5D4908702046FFF75EFBED
:1056700010BD10B500245C480078012830D1FFF738
:1056800051FB04465548007820B154480078401E2C
:105690005249087051480078F8B951480078E0B98B
:1056A000FFF7C8FC2F484A49097850F821004949BA
:1056B0000860474800784549097888420DD0454838
:1056C0000068C06B401C43490968C86347480068CC
:1056D000401C46490860FFF741FB2046FFF726FBC8
:1056E00010BD10B5002440480078012811D1FFF703
:1056F00019FB04463948007840B939480078FF283A
:1057000004D237480078401C354908702046FFF71E
:105710000DFB10BD10B500243348007801286AD174
:10572000FFF700FB04462E480078C0B12C480078F3
:10573000401E2B4908700846007860B92748007859
:1057400028B92046FFF7F2FAFFF781FC53E0204624
:10575000FFF7ECFA4FE02046FFF7E8FA4BE047E0AE
:10576000A00000207C3F00208C000020840000204E
:10577000800000209C000020880000207C3B00204E
:10578000783D002075432F4F532D494920537461B4
:10579000740000007C3D0020783F002075432F4FAF
:1057A000532D49492049646C650000003C3A0020B3
:1057B0003F000000780000207C400020AC0000206A
:1057C000A400002091000020920000208F00002003
:1057D00090000020A8000020BC0000208D000020C8
:1057E0008E0000209B0000209A0000207400002002
:1057F0002046FFF79BFA10BD10B5E948007890B934
:10580000FFF718FCE7480078E7490870E748E549E2
:10581000097850F82100E649086008460068E54923
:105820000860FFF786FA10BD10B50024022001F0D1
:10583000C7FDFFF777FA04460020DF4908602046DD
:10584000FFF774FA0A2001F0BBFDFFF76BFA04467C
:10585000D9480068D94908600120D9490870204614
:10586000FFF764FA10BD70B50026FFF75BFA064635
:10587000D4480068401CD34908603046FFF756FA08
:10588000C7480078012853D1CF48007820B10128BB
:1058900004D0022809D103E001250BE0002509E02E
:1058A00001250120C849087004E001250020C649EF
:1058B000087000BF00BF05B970BDC448046833E07C
:1058C000FFF730FA0646206B50B3206B401E206372
:1058D000206B28BB94F8340000F0370040B114F876
:1058E000340F20F03700207001206070343C02E05B
:1058F000002084F8350094F8340000F0080078B9EE
:105900003834A078B24909780843B1490870207842
:10591000B049085C6178084314F83819AD4A50540E
:1059200064693046FFF702FA94F836003F28C7D181
:1059300000BFC1E740F221107047704710B590F8E2
:10594000382001F10B039B5C90F83940A34301F12F
:105950000B04A35423469B5C23B98B7A90F83A40FE
:10596000A3438B7210BD2DE9F04F05460F469046BC
:105970009946A87A98490E5C05F10B00805D11F8F4
:1059800000B00BEBC60000F0FF0A884850F82A4030
:1059900000202434E0602760207C20EA0800207486
:1059A00084F81190207C243C00F0080068B994F839
:1059B0003A00874909780843854908708548805D21
:1059C00094F8391008438349885529462046FFF743
:1059D000B5FF206A20B12046216AFFF70EFBE56182
:1059E0005046BDE8F08F10B5724A1268D061714A16
:1059F000126892F8383000F10B02D25C6D4B1B68D4
:105A000093F839301A436B4B1B6893F8384000F118
:105A10000B031A55827A674B1B6893F83A301A4386
:105A20008272644A126892F838106A4A525C614B7A
:105A30001B6893F839309A43664B5A541A46525CA5
:105A400042B95C4A126892F83A30614A12789A4335
:105A50005F4B1A7010BD0023837200F10B0100220E
:105A600004E0002301F8013B531CDAB2082AF8D302
:105A7000704705E011F8013B00F8013B531E9AB254
:105A8000002AF7D170472DE9F84F05460F4690469A
:105A90009946DDE90AAB00200090FFF743F900903A
:105AA0004E480468002C76D01C3454F8080C4B493E
:105AB00008600098FFF73AF944F81C7CA5760020AE
:105AC00020766076606144F818BC44F810AC44F865
:105AD000148C0C9824F80C0C24F80A9C0020E07715
