:020000040800F2
:1000000078CD012069270008210500082305000894
:10001000270500082B0500082F0500080000000038
:100020000000000000000000000000007B27000826
:1000300033050008000000008D6E010835580008E7
:1000400083270008832700088327000883270008E8
:1000500083270008832700088327000883270008D8
:1000600083270008832700088327000883270008C8
:1000700083270008832700088327000883270008B8
:1000800083270008832700088327000883270008A8
:100090008327000883270008832700088327000898
:1000A0008327000883270008832700088327000888
:1000B00083270008B123000883270008832700084E
:1000C0008327000883270008832700088327000868
:1000D0008327000883270008455A00088327000863
:1000E0008327000883270008832700088327000848
:1000F0008327000883270008832700088327000838
:100100008327000883270008832700088327000827
:100110008327000883270008832700088327000817
:100120008327000883270008832700088327000807
:1001300083270008912500088327000883270008EB
:1001400083270008832700088327000883270008E7
:1001500083270008832700088327000883270008D7
:1001600083270008832700088327000883270008C7
:1001700083270008832700088327000883270008B7
:10018000832700088327000800F002F800F070F8C9
:100190000AA090E8000C82448344AAF10107DA45E2
:1001A00001D100F065F8AFF2090EBAE80F0013F0C4
:1001B000010F18BFFB1A43F001031847DC7A010056
:1001C000FC7A01000A444FF0000C10F8013B13F0D8
:1001D000070408BF10F8014B1D1108BF10F8015BA0
:1001E000641E05D010F8016B641E01F8016BF9D193
:1001F00013F0080F1EBF10F8014BAD1C0C1B09D1EA
:100200006D1E58BF01F801CBFAD505E014F8016B5B
:1002100001F8016B6D1EF9D59142D6D370470000ED
:100220000023002400250026103A28BF78C1FBD8FF
:10023000520728BF30C148BF0B607047642916F0D1
:10024000E187782917F01A80732917F06C82002053
:1002500070471FB517F01CFB17F0F6F904000020DB
:10026000002117F0FFFA401C60601FBD10B510BDE3
:1002700017F0C2FA1146FFF7ECFF00F0AFF817F0E5
:10028000E0FA03B4FFF7F2FF03BC05F059FB0000EE
:1002900030BF72B6704762B6704780F30888704707
:1002A0009AB077A016F052FF13E0282300221146DF
:1002B000104616F0F1F8694601A805F0E0FB40F29F
:1002C000DC51754800F058FC9DF8001001A800F0C2
:1002D00053FCEAE788B0002400F0D7FF6FA016F0C7
:1002E00035FF58E0601C84B247F23050844202DD92
:1002F000002401F042FB322094FBF0F100FB11409E
:1003000048B96B48006808B9012000E0002068493E
:10031000086001F0D1FF674801680068401C654A29
:10032000106047F23050814229D90822694662485C
:1003300001F05EFFBDF81E00401C80B2ADF81E004B
:10034000BDF81E105DA016F001FF082269465A484C
:1003500001F005FF012080F3138800BF00BFBFF349
:100360004F8F5F48006800F4E0605E490843001D5D
:100370005B490860BFF34F8F00BF00BFFEE7142347
:1003800000221146104616F087F800F007FE01F033
:1003900071F801F085FBA5E770B5044600BF14F0C5
:1003A0009DF816F04BFD054640F6C411042001F0FF
:1003B0006DFF09234C4A0021AFF2E70015F0F2FC73
:1003C0000A234A4A0021AFF2271015F0EBFCFF2068
:1003D00015F068FF284616F035FD70BD00B589B0F0
:1003E000082201A9344801F003FFBDF820000128CC
:1003F00002D13F4800F0D8F9A82005F027FA4FF4C1
:10040000A06002F0D1F94FF4E13005F0B6FAC8204F
:1004100005F06DFA01F054FF00202549086001F055
:10042000B9FDBDF82000012803D132A016F08EFEE0
:1004300002E035A016F08AFE002016F07AFD13F0D7
:100440000FFF03E04FF4FA7005F051FA05F0B7FB27
:100450000028F7D103E04FF4FA7005F048FA05F0F0
:10046000AEFE0028F7D10B232C4A0021AFF2D700B3
:1004700015F098FC14F01AF8002009B000BD000037
:10048000636F6D6D756E69636174696F6E5F7461C2
:10049000736B0D0A00000000A82C002074726166C6
:1004A0006669636C696768745F7461736B0D0A00D9
:1004B000A402424270000020000007086E657477B5
:1004C0006F726B206973206E6F7420776F726B2C64
:1004D00020726573746172742025642E0D0A000009
:1004E0000CED00E00000FA051C0700201C0B0020AA
:1004F00000000408545241464649434C4947485479
:100500005F4150500D0A0000545241464649434C49
:10051000494748545F4941500D0A00008C20002093
:10052000704700BFFEE700BFFEE700BFFEE700BF69
:10053000FEE770470CB500200190009076480068F7
:1005400040F480307449086000BF7348006800F4CC
:10055000003000900198401C0190009818B9019853
:10056000B0F5A04FF1D16C48006800F4003010B134
:100570000120009001E0002000900098012846D161
:1005800065484030006840F0805063494031086061
:100590006248006840F44040604908605E480830A6
:1005A00000685D49083108600846006840F4004072
:1005B00008600846006840F4A05008605848091FC9
:1005C0000860081F006840F08070091F086000BFC5
:1005D0005148006800F000700028F9D040F2057022
:1005E000504908604C480830006820F003004A4930
:1005F000083108600846006840F00200086000BF4B
:1006000045480830006800F00C000828F8D10CBDFF
:1006100010B54548006840F47000434908603E4802
:10062000006840F001003C49086000203A49083168
:100630000860394800683D490840374908603C482F
:10064000091D0860081F006820F48020091F086049
:10065000002031490C310860FFF76CFF4FF000605B
:1006600031498039086010BD70B500200022022396
:1006700000240221284D08352D6805F00C0020B11A
:10068000042806D0082834D107E02A4D2A4E3560C8
:1006900033E02A4D284E35602FE01F4D2D1D2D686B
:1006A000C5F380541C4D2D1D2D6805F03F0154B13C
:1006B000224DB5FBF1F5184E361D3668C6F3881687
:1006C00005FB06F209E01B4DB5FBF1F5124E361D98
:1006D0003668C6F3881605FB06F20F4D2D1D2D68F2
:1006E000C5F301456D1C6B00B2FBF3F5124E35608E
:1006F00003E0104D104E356000BF00BF064D0835B9
:100700002D68C5F303150E4E705D0B4D2D68C54069
:10071000094E356070BD0000003802400070004096
:1007200019544005003C024088ED00E0FFFFF6FE52
:10073000103000240024F4000000002040787D01E7
:10074000040000202DE9F05F074688469146002509
:10075000BB464446AA461DE0E0780606A07846EA75
:100760000046607846EA002620780643241D284685
:10077000691C8DB2154941F82060B5F5007F07D19D
:1007800000254FF40072584601F0E9FC0BF5006BB0
:100790000AF1040ACA45DFD325B12A460B49584657
:1007A00001F0DDFCBDE8F09F10B504462068084963
:1007B0000840B0F1005F08D1606806490860206811
:1007C000FFF76BFD03480068804710BD90200020B4
:1007D0000000FE2F14000020F0B58BB00646002468
:1007E000082203A9FD4801F003FD00BF17E0305DBA
:1007F00003A90855301D015D04A8015506F1080044
:10080000015D05A8015506F10C00015D06A8015522
:1008100006F11000015D07A80155601CC4B2042C4C
:10082000E5DB082203A9ED4801F099FCECA016F0E5
:100830008DFC9DF80F0000909DF80E309DF80D2066
:100840009DF80C10ECA016F081FC9DF813000090B0
:100850009DF812309DF811209DF81010EBA016F0B5
:1008600075FC9DF8170000909DF816309DF8152036
:100870009DF81410EBA016F069FC9DF81D109DF872
:100880001C009DF81B20CDE9002002919DF81A3034
:100890009DF819209DF81810E8A016F057FCBDF837
:1008A0002810EDA016F052FC4FF49671EE4816F0A9
:1008B0003DFEED4DA52028705A2068708320A87059
:1008C000A020E870022028710120687129468871F3
:1008D000CF1D0721284601F03BF938705A20787067
:1008E000A520B8700120E14908708020E049087017
:1008F00001200BB0F0BD70B588B000250822694614
:10090000B64801F075FC4FF49671D74816F00EFE0C
:10091000D54CA52020705A2060708320A070A020A4
:10092000E0700120207120206071062521464819C1
:100930002022694616F0B5FD203520464619294685
:1009400001F006F930705A207070A520B0700320B5
:10095000C64908708020C6490870012008B070BDE3
:1009600088B04FF49671C04816F0E0FDBE4CA5204B
:1009700020705A2060708320A070A020E0700320B7
:100980002071012021468871CD1D0721204601F0EC
:10099000DFF828705A206870A520A8700120B3499C
:1009A00008708020B2490870082269468B4801F01F
:1009B0001FFC0020ADF81E0008226946874801F0A0
:1009C000CEFB002301221946184615F065FD0120D3
:1009D00000F0F5F900F0F8F988B0044608226946FD
:1009E0007E4801F005FC0020ADF81C0020788DF851
:1009F000140061788DF81510A1788DF81610207903
:100A00008DF8180061798DF81910A1798DF81A10F8
:100A1000E1798DF81B1008226946704801F09FFBB0
:100A20004FF49671904816F081FD8F4DA5202870E7
:100A30005A2068708320A870A020E87004202871D4
:100A40000120687129468871CE1D0721284601F0D2
:100A50007FF830705A207070A520B0700120834953
:100A60000870802082490870002301221946184628
:100A700015F012FD012000F0A2F900F0A5F92DE912
:100A8000F0470746884691461E462EB179497818A8
:100A90004A464146FFF756FE4FF49671724816F0EB
:100AA00045FD714CA52020705A2060708320A070F5
:100AB000A020E07005202071012060712046867121
:100AC000C51D072101F044F828705A206870A52040
:100AD000A8700120654908708020654908700120D0
:100AE000BDE8F08788B0082269463C4801F080FBE9
:100AF0000120ADF81C000020ADF81E000822694658
:100B0000364801F02CFB642300221146104615F0F4
:100B1000C3FC08226946314801F06AFBBDF81C108D
:100B200055A016F013FB4FF496714F4816F0FEFCDB
:100B30004D4CA52020705A2060708320A070A0200A
:100B4000E070062020710120607121468871CD1D62
:100B50000721204600F0FCFF28705A206870A5206D
:100B6000A870012041490870802041490870012087
:100B700000F025F900F028F92DE9F04705460F4669
:100B800000240026A146A24600BF08E0285DA52853
:100B900004D1601C285C5A2800D102E0641CBC42CD
:100BA000F4DB00BFBC4202D10020BDE8F087201D6D
:100BB00015F80080B8F1070F0FD2DFE808F0F96DE3
:100BC00004767E88EF0031A016F0C0FA002031498B
:100BD00008702919881DFFF7FFFDE9E000000708EC
:100BE0002D2D2D2D2D2D534554204950202D2D2DAB
:100BF0002D2D2D0D0A00000049503A2025642E2588
:100C0000642E25642E25640D0A0000005355424DC4
:100C100041534B3A2025642E25642E25642E2564ED
:100C20000D0A0000474154455741593A2025642E8A
:100C300025642E25642E25640D0A00004D41433A9B
:100C40002025783A25783A25783A25783A25783A51
:100C500025780D0A00000000555044475241444594
:100C60003A2025640D0A00007400002020000020B6
:100C7000A0010020000004087570646174655F665F
:100C80006C61672025640D0A00000000534554493B
:100C9000500D0A002100002053A016F057FA002042
:100CA00054490870FFF727FE82E053A016F04EFA71
:100CB000002050490870FFF753FE51A016F046FA85
:100CC0000020534908702919881DFFF785FE51A09F
:100CD00016F03CFA002047490870A01D2E5C4FF426
:100CE0007F4000EA0621601D285C084486B24D481A
:100CF000314602684CA016F029FA4A48006888B9C3
:100D00002819C06800F07F40B0F1006F05D14EA0F7
:100D100016F01CFA4FF0010A04E050A016F016FA83
:100D20004FF0000A06F1080291B2281900F010FFF6
:100D3000814604F108003044285C484511D14FF049
:100D4000010AE01D285C32490978884206D100BFBB
:100D50002F480078401C2E4908700CE04FF0000A24
:100D600009E004F108003044295C4A4640A016F02E
:100D7000EDF94FF0000A04F10800291853463246F5
:100D800028480068FFF77BFEBAF1000F04D0254821
:100D900000683044234908600AE0FFE73AA016F0F3
:100DA000D5F900201F49086012490870FFF79AFE24
:100DB00000BF3946284616F0B9FB0120F5E600F0E1
:100DC000010181F313887047BFF34F8F32480068E9
:100DD00000F4E06031490843001D2F490860BFF36B
:100DE0004F8F00BFFEE70000474554494E464F0D68
:100DF0000A0000002100002052455345540D0A000E
:100E0000555047524144455F53544152540D0A00D6
:100E10001C000020555047524144455F5041434B10
:100E20000D0A0000180000207061636B5F6C656E36
:100E30002025642C207061636B5F6F666673657438
:100E4000202564200D0A00006170702073746172A7
:100E50007420757067726164650D0A00617070209E
:100E60006461746120696C6C6567616C0D0A0000D7
:100E7000636865636B2073756D206661696C2025FE
:100E8000782025780D0A0000555047524144455FAF
:100E900053544F500D0A00000CED00E00000FA051D
:100EA0002DE9F041002601F0CCF820F07F463146D4
:100EB000FCA016F04BF900242EE004EB4400C5B270
:100EC00022E00120A84000EA0607DFB9F8480078D0
:100ED000401CF7490870032094FBF0F0C1B2F448BD
:100EE0000078401EF34A02F81010032094FBF0F142
:100EF00000FB1140C1B2EE480078401E02EB4000FA
:100F0000417006E0681CC5B204EB4400C01CA84256
:100F1000D7DC00BF601CC4B2062CCEDB01F0B8F8F1
:100F200020F07F463146E4A016F010F900242FE0AF
:100F300004EB4400C5B223E00120A84000EA060704
:100F4000E7B9DB480078401CD9490870032094FBBE
:100F5000F0F0801CC1B2D6480078401ED54A02F895
:100F60001010032094FBF0F100FB1140C1B2D048F7
:100F70000078401E02EB4000417006E0681CC5B2DC
:100F800004EB4400C01CA842D6DC00BF601CC4B205
:100F9000062CCDDBC6480078BDE8F0812DE9FC5F6A
:100FA0000027BB46BA46B9460020019000BF65E164
:100FB000C04810F8170000EB4000BE4901EB4701A4
:100FC0004978084400F0FF08BA4810F8174000EBD1
:100FD00047004578B8F1060F06DA01F032F820F044
:100FE0007F4A08EB480907E001F052F820F07F4AF9
:100FF000A8F1060000EB40094FF0000B09F0FF06D6
:10100000F7E00120B04000EA0A000190019818B909
:101010000BF1010000F0FF0BBBF1010F6DDDC4EB24
:10102000C40000EB4410A74901EB800005EB8501EB
:1010300001EBC50100EB8100407D401CC4EBC40105
:1010400001EB44119F4A02EB810105EB850202EBA3
:10105000C50201EB82014875C4EBC40000EB4410EB
:10106000984901EB800005EB850101EBC50100EB20
:101070008100007D01280ED10020C4EBC40101EBEA
:101080004411904A02EB810105EB850202EBC50297
:1010900001EB820148750220C4EBC40101EB44114D
:1010A000884A02EB810105EB850202EBC50201EBE8
:1010B00082010875C4EBC40000EB4410814901EBC8
:1010C000800005EB850101EBC50100EB8100407D4F
:1010D00002287BD1C4EBC40000EB4410794A02EB38
:1010E000800005EB850202EBC50200EB8200CDF823
:1010F00000A0417D2B46224600E069E072A016F078
:1011000025F80020C4EBC40101EB44116D4A02EB49
:10111000810105EB850202EBC50201EB8201087338
:101120000021C4EBC40000EB4410664A02EB8000CF
:1011300005EB850202EBC50200EB82004173C4EBB4
:10114000C40000EB44105F4A02EB800005EB85020F
:1011500002EBC50200EB820081730120C4EBC401E5
:1011600001EB4411574A02EB810105EB850202EBCA
:10117000C50201EB82014871C4EBC40000EB4410CE
:10118000504901EB800005EB850101EBC50100EB47
:1011900081004078C4EBC40101EB4411494A02EBE1
:1011A000810105EB850202EBC50201F82200002057
:1011B000C4EBC40101EB4411424A02EB810105EB8F
:1011C000850202EBC50201EB82018861BDE8FC9F4C
:1011D0000120C4EBC40101EB44113A4A02EB810146
:1011E00005EB850202EBC50201EB82010875701C5C
:1011F000C6B209F103008642FFF403AF09F0FF060F
:1012000036E00120B04000EA0A000190019868BB76
:10121000C4EBC40000EB44102A4901EB800005EB4D
:10122000850101EBC50100EB81004078C4EBC401EE
:1012300001EB4411234A02EB810105EB850202EB2D
:10124000C50201F82200032096FBF0F100FB1160BB
:10125000C4EBC40101EB44111A4A02EB810105EB16
:10126000850202EBC50201EB82014870701CC6B218
:1012700009F103008642C4D3781CC7B20C48007839
:101280008742FFF695AE00BFA0E72DE9F8434FF087
:1012900001084FF000094FF41C710A4816F068F974
:1012A000002646E0726574312025780D0A000000A2
:1012B00020000020002B0020726574322025780D5C
:1012C0000A00000090280020747261666669636CF1
:1012D0006967687420737461747573206572726FC6
:1012E000722C206E65656420696E69743A256420ED
:1012F00064697220256420746F2025642025780D90
:101300000A000000002710E00320C6EBC60101EB35
:101310004611FE4A02EB810107EB870202EBC7028E
:1013200001EB82014870781CC7B2032FECDB701C04
:10133000C6B2042EE6DB0EE0FFF7B2FD80460020C9
:10134000F3490870642300221146104615F0A4F8F2
:10135000FFF7A6FD8146C845EED1EEA015F0F6FEDA
:10136000EFA015F0F3FEF6A015F0F0FEE8480178C6
:10137000F9A015F0EBFEFFF711FE002671E0FD4825
:1013800010F8164000EB460045780120C4EBC4017C
:1013900001EB4411DD4A02EB810105EB850202EB12
:1013A000C50201EB82014871C4EBC40101EB441199
:1013B000D64A02EB810105EB850202EBC50201EB87
:1013C00082018871C4EBC40000EB4410CF4901EBEB
:1013D000800005EB850101EBC50100EB8100407841
:1013E000C4EBC40101EB4411C84A02EB810105EBD7
:1013F000850202EBC50201F82200FF20C4EBC40104
:1014000001EB4411C14A02EB810105EB850202EBBD
:10141000C50201EB820181F83000C4EBC40000EB8F
:101420004410BA4901EB800005EB850101EBC501D1
:1014300000EB810040790090C4EBC40000EB441045
:10144000B24901EB800005EB850101EBC50100EB22
:10145000810043782A462146C7A015F077FE701C0C
:10146000C6B2AB480078864289DBCAA015F06EFE92
:10147000BDE8F883F8B5002679E2BE4810F81640BA
:1014800000EB46004578C4EBC40000EB44109F49D4
:1014900001EB800005EB850101EBC50100EB81004C
:1014A000407901287ED1C4EBC40000EB4410974979
:1014B00001EB800005EB850101EBC50100EB81002C
:1014C0008068401CC4EBC40101EB44118F4A02EB5D
:1014D000810105EB850202EBC50201EB8201886008
:1014E000C4EBC40000EB4410884901EB800005EB1D
:1014F000850101EBC50100EB8100806843F698216E
:10150000884222D90020C4EBC40101EB44117F4A78
:1015100002EB810105EB850202EBC50201EB8201C2
:1015200048710321C4EBC40000EB4410774A02EB7E
:10153000800005EB850202EBC50200EB820001751D
:101540002A4621469AA015F001FEC4EBC40000EB28
:1015500044106E4901EB800005EB850101EBC501EC
:1015600010F82100C4EBC40101EB4411674A02EBFF
:10157000810105EB850202EBC50201EB820149788E
:1015800088420FD015F007F8C4EBC40101EB4411F9
:101590005E4A02EB810105EB850202EBC50201EB1D
:1015A000820100E0E1E18862C4EBC40000EB44107A
:1015B000564901EB800005EB850101EBC50100EB0D
:1015C0008100406A00287DD0C4EBC40000EB4410C9
:1015D0004E4901EB800005EB850101EBC50100EBF5
:1015E0008100806AC4EBC40101EB4411474A02EB5D
:1015F000810105EB850202EBC50201EB8201496A1C
:10160000401A32306421B0FBF1F0C1B2C4EBC40027
:1016100000EB44103D4A02EB800005EB850202EB33
:10162000C50200EB82001030C4EBC40202EB44128E
:10163000364B03EB820205EB850303EBC50312F87F
:1016400023208154C4EBC40000EB44102F4901EB6C
:10165000800005EB850101EBC50100EB8100103036
:10166000C4EBC40101EB4411284A02EB810105EBF4
:10167000850202EBC50211F82210415CC4EBC400E4
:1016800000EB4410214A02EB800005EB850202EBDF
:10169000C50200EB82000C30C4EBC40202EB441222
:1016A0001A4B03EB820205EB850303EBC50312F82B
:1016B00023208154C4EBC40000EB4410134901EB18
:1016C000800000E0B3E005EB850101EBC50100EB14
:1016D0008100806AC4EBC40101EB44110B4A02EBA8
:1016E000810105EB850202EBC50201EB8201496A2B
:1016F000401AC4EBC40101EB4411044A02EB81011E
:1017000005EB850202EBC5026CE00000902800208A
:101710002000002054697073A3BA0D0A0000000075
:1017200065617374207773657420736F75746820B6
:101730006E6F7274683A303132330D0A0000000067
:101740006C65667420666F6E74207269676874A336
:10175000BA3031320D0A0000747261666669636CDA
:1017600069676874206F6E6C696E653A2025640D38
:101770000A000000002B0020646972202564207498
:101780006F202564206C69676874202564202564B7
:101790000D0A0000747261666669636C696768743B
:1017A00020696E697420737563636573730D0A0035
:1017B000D1A7CFB0CAB1BCE4B3ACB9FD35B7D6D66A
:1017C000D3A3ACCDA3D6B9D1A7CFB0A3AC64697273
:1017D00020256420746F20256420CEAAB3A3C1C144
:1017E0000D0A000001EB82010862C4EBC40000EBAB
:1017F0004410FE4901EB800005EB850101EBC501BA
:1018000000EB8100C06A0090C4EBC40000EB441000
:10181000F64901EB800005EB850101EBC50100EB0A
:10182000810043782A462146F1A015F08FFC14F080
:10183000B2FEC4EBC40101EB4411EC4A02EB81019E
:1018400005EB850202EBC50201EB82014862C4EBA5
:10185000C40000EB4410E54901EB800005EB850175
:1018600001EBC50100EB8100007C00287DD0C4EBBA
:10187000C40000EB4410DD4901EB800005EB85015D
:1018800001EBC50100EB8100407C00286DD0C4EB6A
:10189000C40000EB4410D54901EB800005EB850145
:1018A00001EBC50100EB8100807C00285DD02A4659
:1018B0002146D9A015F04AFC0021C4EBC40000EB7E
:1018C0004410CA4A02EB800005EB850202EBC50218
:1018D00000EB82008171C4EBC40000EB4410C34FE5
:1018E00007EB800005EB850707EBC50700EB8700DA
:1018F000837BC4EBC40000EB4410BC4F07EB8000BB
:1019000005EB850707EBC50700EB8700427BC4EBBF
:10191000C40000EB4410B54F07EB800005EB8507D2
:1019200007EBC50700EB8700017BC1A015F00EFC9B
:101930000020C4EBC40101EB4411AC4A02EB81016D
:1019400005EB850202EBC50201EB82014871C4EB95
:10195000C40101EB4411A54A02EB810105EB8502AC
:1019600002EBC50201EB82010875701CC6B2BA48D1
:1019700000788642FFF681ADF8BD30B5002289E0DF
:10198000B64B13F8120003EB420359780023C0EB67
:10199000C00404EB4014954D05EB840401EB810574
:1019A00005EBC10504EB8504A3600123C0EBC00473
:1019B00004EB40148D4D05EB840401EB810505EB30
:1019C000C10504EB850463710023C0EBC00404EB84
:1019D0004014864D05EB840401EB810505EBC10540
:1019E00004EB85046362C0EBC00404EB40147F4D3C
:1019F00005EB840401EB810505EBC10504EB8504CF
:101A0000E362C0EBC00404EB4014784D05EB8404A2
:101A100001EB810505EBC10504EB8504A362C0EB76
:101A2000C00404EB4014714D05EB840401EB810507
:101A300005EBC10504EB85042375C0EBC00404EB82
:101A400040146A4D05EB840401EB810505EBC105EB
:101A500004EB850423740024C0EBC00303EB4013A4
:101A6000624D05EB830301EB810505EBC10503EB3B
:101A700085035C74C0EBC00303EB40135B4D05EBC7
:101A8000830301EB810505EBC10503EB85039C7422
:101A9000531CDAB2704B1B789A42FFF671AF30BD1F
:101AA0002DE9F0410027002645E06C4810F816406B
:101AB00000EB46004578C4EBC40000EB44104B49F2
:101AC00001EB800005EB850101EBC50100EB810016
:101AD000807970BBC4EBC40000EB4410434901EBB8
:101AE000800005EB850101EBC50110F82100C4EB76
:101AF000C40101EB44113D4A02EB810105EB850273
:101B000002EBC50201EB8201497888420FD014F044
:101B100042FDC4EBC40101EB4411344A02EB8101E4
:101B200005EB850202EBC50201EB82018861781C9E
:101B3000C7B2701CC6B2484800788642B5DB46483A
:101B40000078874202D1012045490870BDE8F08144
:101B500010B502460B460020002104E0545C04440A
:101B6000E0B24C1CA1B29942F8DB10BD2DE9F04760
:101B700004460F4600BF394810F8175000EB4700E5
:101B80004678A571E671C5EBC50000EB4510174915
:101B900001EB800006EB860101EBC60100EB810042
:101BA0004078207214F0F7FCC5EBC50101EB45113C
:101BB0000E4A02EB810106EB860202EBC60201EB44
:101BC00082018969A0EB01086420B8FBF0F000F005
:101BD000FF09C5EBC50000EB4510044901EB80008F
:101BE00006EB860101EBC6013CE0000090280020D6
:101BF00064697220256420746F2025642C206C6930
:101C000067687420256420746F74616C5F74696305
:101C10006B732025640D0A006469722025642074AA
:101C20006F202564D1A7CFB0CDEAB3C90D0A00005B
:101C3000D1A7CFB0D6DCC6DACEAAA3BA726564202B
:101C4000256420677265656E2025642079656C6C5B
:101C50006F772025640D0A0020000020002B002053
:101C60002200002000EB81004078C5EBC50101EBAC
:101C70004511A34A02EB810106EB860202EBC60284
:101C800001EB820181F83200C5EBC50000EB451085
:101C90009B4901EB800006EB860101EBC60100EBDE
:101CA000810080F830906420B8FBF0F1C5EBC500EE
:101CB00000EB4510924A02EB800006EB860202EB35
:101CC000C60200EB82000C30227A805C401A401E73
:101CD0006072617AC5EBC50000EB4510884A02EBE3
:101CE000800006EB860202EBC60200EB8200801C3D
:101CF000227A8154607AC0B9207A401C2072207AFE
:101D0000022801DD00202072C5EBC50000EB451064
:101D10007B4901EB800006EB860101EBC60100EB7D
:101D200081000C30217A405C6072207A754908701D
:101D3000607A7549087014F02EFC74490860C5EB90
:101D4000C50000EB45106E4901EB800006EB8601F3
:101D500001EBC60100EB8100007D032801D1FF20CB
:101D60006072207A50B9522020724720A072637AA4
:101D70003246294666A015F0E9F917E0207A0128D5
:101D80000AD1472020725920A072637A3246294630
:101D900069A015F0DBF909E0592020725220A072E9
:101DA000637A324629466EA015F0D0F9E079401CDE
:101DB000E071607AC82802DDA420207001E0A5202F
:101DC00020705A2060708320A070A020E070002056
:101DD0002071122060715A202074A5206074C5EB18
:101DE000C50000EB4510464901EB800006EB86017B
:101DF00001EBC60100EB8100807901280FD0C5EB13
:101E0000C50000EB45103E4901EB800006EB860162
:101E100001EBC60100EB8100007D032802D1FF2009
:101E200060722CE0C5EBC50000EB4510344901EBB6
:101E3000800006EB860101EBC60100EB8100007B10
:101E40002073C5EBC50000EB45102D4901EB800068
:101E500006EB860101EBC60100EB8100407B60735D
:101E6000C5EBC50000EB4510254901EB800006EBF2
:101E7000860101EBC60100EB8100807BA0730F217E
:101E80002046FFF765FEE073C5EBC50000EB45108B
:101E90001B4901EB800006EB860101EBC60100EB5C
:101EA000810090F83200C5EBC50101EB4511144AE1
:101EB00002EB810106EB860202EBC60201EB820116
:101EC00081F831000120BDE8F08710B5002409E059
:101ED00004EBC4012C4A02EB41002146FFF746FE09
:101EE000601CC4B2294800788442F1DB274800789E
:101EF00000EBC00042002449254815F0D2FA10BD7D
:101F0000902800202300002024000020280000202A
:101F1000747261666669636C69676874A3BA6469A0
:101F20007220256420746F2025643A5220253032B7
:101F300064730D0A00000000747261666669636C68
:101F400069676874A3BA64697220256420746F207D
:101F500025643A472025303264730D0A00000000E2
:101F6000747261666669636C69676874A3BA646950
:101F70007220256420746F2025643A592025303260
:101F800064730D0A00000000182B002020000020C0
:101F9000740000201CB501210C2000F099FF4FF4C3
:101FA0006050009001208DF8040002208DF805009B
:101FB00069464A4800F0EEFC4FF480600090002033
:101FC0008DF8040002208DF805006946434800F0B2
:101FD000E1FC4FF46070009001208DF804000220B5
:101FE0008DF8050069463E4800F0D4FC4020009082
:101FF00000208DF8040002208DF80500694638485D
:1020000000F0C8FC4FF40061344800F041FD4FF48B
:102010008051324800F03CFD4FF400512F4800F051
:1020200037FD4FF400612E4800F032FD4FF480710F
:102030002B4800F02DFD4FF40071294800F028FDD9
:102040001CBD70B54FF48051244800F021FD4FF4C1
:102050008051224800F01AFD002515E04FF4005190
:102060001E4800F015FD64004FF480611B4800F02D
:10207000F3FC08B144F0010400BF4FF400511748CD
:1020800000F004FD681CC5B2182DE7DB204670BDCA
:1020900070B54FF48071124800F0FAFC4FF4807173
:1020A0000F4800F0F3FC002514E04FF400710C48D9
:1020B00000F0EEFC64004021094800F0CDFC08B1BE
:1020C00044F0010400BF4FF40071054800F0DEFC4D
:1020D000681CC5B2182DE8DB204670BD000C02401C
:1020E0000008024001460868704701465248814294
:1020F00001D2002070475148814201D20820F9E7FF
:102100004F48814201D21020F4E74E48814201D26B
:102110001820EFE74C48814201D22020EAE74B48E3
:10212000814201D22820E5E74948814201D230208E
:10213000E0E74848814201D23820DBE74648814247
:1021400001D24020D6E74548814201D24820D1E75C
:102150004348814201D25020CCE75820CAE72DE9FC
:10216000F04704460E4617464FF009080025A946D9
:10217000B4F1006F02D304F0030008B1BDE8F087AA
:1021800003F01EF8002002F0FEFF254604EB87094D
:102190003448854215D211E02846FFF7A3FF401CC2
:1021A00058B12846FFF7A1FF8246022103F05CF8F0
:1021B0008046B8F1090F01D002E02D1D4D45EBD34B
:1021C00000BFB8F1090F0CD108E02046316803F0D8
:1021D00064F9092800D003E0241D361D4C45F4D3D2
:1021E00000BF012002F0CFFF02F0F7FF00BFC5E7FC
:1021F00030B503460C461546002206E01846FFF7A8
:1022000071FF44F822001B1D521CAA42F6D330BDB8
:1022100000B585B0052214491448FFF7A0FF052238
:1022200069461248FFF7E4FF0522694610A014F042
:102230008DFF05B000BD00000040000800800008D0
:1022400000C00008000001080000020800000408A7
:10225000000006080000080800000A0800000C083A
:1022600000000E080000FF1F9A7801080000070810
:1022700053544D20464C4153482054455354202537
:10228000732073697A652025640D0A0070B50546D0
:102290000C464FF4A06000F087FA45F2555003F069
:1022A0009BFA284603F09BFA204603F09BFA03F0C2
:1022B0009CFA03F09FFA70BD10B503F096FA10BDBA
:1022C0001CB50121102000F003FE4FF420600090A7
:1022D00001208DF8040000208DF806008DF807001D
:1022E00003208DF805006946174800F053FB4FF4B2
:1022F0002061164800F0CAFB012015490860154905
:10230000C1F8AC021CBD60B911B1012908D103E0CC
:1023100001220F4B1A6003E000220D4B1A6000BF30
:1023200010E001280ED111B101290AD104E00122E7
:10233000074B08331A6004E00022054B08331A608B
:1023400000BF00BF704700000010024000140240B0
:10235000A4024242000042427FB504460D460121DC
:10236000022000F0FEFDADF804500020ADF806009C
:102370000294ADF80C0001A9124800F0F4FF01220C
:102380001146104801F090FC01210E4801F074F84C
:102390001D208DF8000001208DF8010003208DF82C
:1023A000020001208DF80300684600F002FA7FBDAC
:1023B00010B50121034801F08EFC0121014801F014
:1023C0009BFC10BD0004004010B5002807DA0A0786
:1023D000140ED84A00F00F031B1FD45403E00A0761
:1023E000130ED54A135410BD00B5AFB001214FF004
:1023F000606000F06DFD01F093FF02F00EFD00BF84
:1024000002F012FD0128FBD0684601F094FF012084
:102410000090002007904FF400700A9000200B906D
:102420000E90119013901490159020904FF0007022
:1024300021900011239000202590269004202890C0
:10244000C005299040122A9080012B9040122C90B8
:1024500040002E900121684602F027F80121B7487C
:1024600002F0F9FC2FB000BD08B54FF4A06000F0F9
:102470009BF93D208DF8000000208DF801008DF8BB
:10248000020001208DF80300684600F092F908BDB3
:102490001CB50121072000F01BFD0121880300F07D
:1024A00071FD012000F09AFE03208DF80500022046
:1024B0008DF8040000208DF806008DF807008620B6
:1024C000009069469E4800F065FA0B2201219C4865
:1024D00000F0EBFA0B220221994800F0E6FA0B22F9
:1024E0000721974800F0E1FA3220009069469548AC
:1024F00000F050FA0B220121924800F0D6FA0B228C
:102500000421904800F0D1FA0B2205218D4800F0FB
:10251000CCFA4FF46050009069468B4800F03AFACC
:102520000B221146884800F0C0FA0B220C21864885
:1025300000F0BBFA0B220D21834800F0B6FA1CBD57
:102540001FB5FFF7A5FFFFF78FFFFFF74DFF6846A9
:1025500000F0EDFB64210098B0FBF1F4601EB0F1D7
:10256000807F00D30FE0601E4FF0E02148610F2113
:102570004FF0FF30FFF728FF00204FF0E021886187
:102580000720086100BF0121881EFFF71DFF1FBD46
:1025900010B501E003F098FA6C48006802F019FCED
:1025A0000028F7D1402002F06DFC4FF4803002F09B
:1025B00069FC10BD1EB5002100220092019202921A
:1025C000624A1268126802F0004282B10022009250
:1025D0005F4A526902F0800222B180225C4B5A614C
:1025E00000229A609DE81C0080E81C001EBD574A2E
:1025F0001268126802F40042B2B9544A12681268B2
:1026000002F4807282B1514A1268126802F40072B8
:1026100052B14E4A12681268C2F30D42111F4B4A62
:1026200012689268019200E000210091474A126806
:102630000292464A1268D268444B1A609DE81C0018
:1026400080E81C0000BFD1E70146424800680068EE
:1026500000F0004008B100207047C1F30C003D4A73
:10266000126850603B480068006840F04050394AAA
:102670001268106037480068006840F00040354A32
:10268000126810603248406900F0040020B1042054
:102690002F4A5061002050602E480068C0682D4AC3
:1026A00010600120D8E72B4800688068704710B59B
:1026B00029480168002014F0F2FC28480168002035
:1026C00014F0EDFC26480168002014F0E8FC2548D1
:1026D0000168002014F0E3FC10BD10B5A02100201B
:1026E00014F0EDFC1C490860A021002014F0E7FC68
:1026F0001A49086041F6C451002014F0E0FC184962
:10270000086041F6C451002014F0D9FC1549086056
:102710001148006840B11148006828B110480068AD
:1027200010B10846006818B9FFF7C1FF012010BDBD
:102730000020FCE718ED00E000E400E040000100AC
:102740000000024000080240000402405000002047
:10275000009002404C0000202C000020300000209F
:10276000340000203800002009488047094800470D
:10277000FEE7FEE7FEE7FEE7FEE7FEE7FEE7FEE731
:10278000FEE7FEE704480549054A064B704700008E
:10279000110600088901000878C7012078CD0120C2
:1027A00078C9012078C9012032490143324A1160B9
:1027B000704770B5002100230F22C4781CB32E4C43
:1027C000246804F4E064C4F5E064C4F30721C1F1B3
:1027D0000404E3B20A4144789C40E1B28478144096
:1027E00021430C07210E254C05786155047804F02F
:1027F0001F050124AC4005786D11AD0005F1E02501
:10280000C5F8004109E0047804F01F050124AC403C
:102810001B4D0678761145F8264070BD194A0A40CE
:102820000243154B1B1F1A60704739B1124A121D23
:1028300012680243104B1B1D1A6006E00E4A121D5F
:10284000126882430C4B1B1D1A607047042808D184
:102850004FF0E021096941F004014FF0E0221161DD
:1028600007E04FF0E021096921F004014FF0E02278
:10287000116170470000FA050CED00E000E400E093
:1028800080E100E080FFFF1F10B5044698488442B5
:1028900008D10121084600F086FB0021012000F04C
:1028A00082FB76E09348844208D10121022000F0A7
:1028B0007AFB0021022000F076FB6AE08E48844219
:1028C00008D10121042000F06EFB0021042000F05B
:1028D0006AFB5EE08948844208D10121082000F0AB
:1028E00062FB0021082000F05EFB52E08448844235
:1028F00008D10121102000F056FB0021102000F02B
:1029000052FB46E07F48844208D10121202000F09C
:102910004AFB0021202000F046FB3AE07A4884423E
:1029200008D10121402000F03EFB0021402000F0B2
:102930003AFB2EE07548844208D10121802000F046
:1029400032FB0021802000F02EFB22E07048844200
:1029500008D10121801500F026FB0021A01500F010
:1029600022FB16E06B48844208D10121401500F09B
:102970001AFB0021601500F016FB0AE0664884424D
:1029800007D10121001500F00EFB0021201500F0F9
:102990000AFB10BDF0B50A4600210023002400BF49
:1029A0003DE0012505FA01F3156805EA03049C42A0
:1029B00034D105684F000326BE40B5430560157944
:1029C0004E00B5400668354305601579012D02D0EB
:1029D0001579022D16D185684F000326BE40B543F8
:1029E000856055794E00B5408668354385604568F9
:1029F00001268E40B5434560456896798E40B6B253
:102A000035434560C5684F000326BE40B543C560E9
:102A1000D5794E00B540C6683543C560491C1029BC
:102A2000BFD3F0BD4FF6FF7101600021017141710C
:102A30008171C171704708B54FF480320092009ADD
:102A40000A430092009AC261C161009AC261C269E0
:102A50000092C269009208BD0246002013690B4033
:102A60000BB1012000E0002070470146086980B2E8
:102A700070470246002053690B400BB1012000E073
:102A8000002070470146486980B270470183704753
:102A9000418370470AB1018300E04183704741617F
:102AA000704742694A4042617047F0B500230024F4
:102AB0004D07ED0E02FA05F3CE1000F1200555F892
:102AC00026504E07F70E0F26BE40B543CF1000F13B
:102AD000200646F82750CE1000F1200555F8265064
:102AE00045EA0304CE1000F1200545F82640F0BD6C
:102AF000000002400004024000080240000C0240B6
:102B0000001002400014024000180240001C024065
:102B1000002002400024024000280240F9480068DA
:102B200040F00100F74908600020F64908310860CC
:102B3000F4480068F4490840F2490860F348091D68
:102B40000860F348EF4984310860F0481038091DE7
:102B50000860EC48006820F48020EA490860002002
:102B6000E8490C310860E7498C3108607047002162
:102B7000E44A921C117011460870704710B5014666
:102B80000022002300204A11012A02D1DD4C2368D3
:102B900008E0022A03D1DB4C7034236802E0D94CF0
:102BA0007434236801F01F02012494401C400CB1CE
:102BB000012000E0002010BD38B500200090002466
:102BC000002500BF3120FFF7D9FF05460098401CC3
:102BD00000900098B0F5A04F01D0002DF2D0312028
:102BE000FFF7CCFF08B1012400E00024204638BDE7
:102BF00001460020C34A106820F0F80040EAC100F6
:102C000010607047C349086070470021BD4A7032A8
:102C100011701170012802D004280AD104E00121AA
:102C2000B84A7032117005E00521B64A7032117051
:102C300000E000BF00BF7047B7490860704770B53B
:102C4000049C41EA82150126C6EB530645EA064577
:102C5000054345EA0465AB4E361D356070BDAD4990
:102C600008667047820142EA0172A64B84331A60FB
:102C70007047A8498866704710B5830143EA01632D
:102C800043EA02739F4C8834236010BDA149086752
:102C90007047A049C864704702460020994B08332A
:102CA000186820F0EC6042EA01031843954B0833A2
:102CB0001860704702460020924B0833186820F0D5
:102CC000784042EA010318438E4B0833186070477E
:102CD000014600208B4A0832106820F003000843A8
:102CE0001060704787480830006800F00C0070479B
:102CF00001460020834A0832106820F0F0000843A3
:102D000010607047014600207E4A0832106820F4A7
:102D1000E05008431060704701460020794A0832AD
:102D2000106820F4604040EAC10010607047F0B5C0
:102D3000002100220024022500260223714F0837BB
:102D40003F6807F00C0121B1042905D0082937D1CB
:102D500005E0724F076036E0714F076033E0694F5E
:102D60003F1D3F68C7F38056664F3F1D3F6807F021
:102D70003F036EB16A4FB7FBF3F7DFF888C10CF180
:102D8000040CDCF800C0CCF3881C07FB0CF40CE04E
:102D9000624FB7FBF3F7DFF86CC10CF1040CDCF801
:102DA00000C0CCF3881C07FB0CF4564F3F1D3F6856
:102DB000C7F301477F1C7D00B4FBF5F7076002E015
:102DC000564F076000BF00BF4E4F08373F6807F0FF
:102DD000F0010909534F7A5C0768D7404760494FB3
:102DE00008373F6807F4E051890A4E4F7A5C47681C
:102DF000D7408760434F08373F6807F46041490B6D
:102E0000484F7A5C4768D740C760F0BD002100F4A6
:102E10004072B2F5407F0AD13A4A0832116821F473
:102E2000F811414A02401143364A08321160354ACE
:102E300070321268C0F30B031A43324B70331A60BE
:102E40007047354944390860704733494039086054
:102E5000704736490860704701460020294A8C3285
:102E6000106820F01F004A1E1043264A8C32106062
:102E7000704701460020234A8C32106820F4F85035
:102E80004A1E40EA02201F4A8C32106070470146F9
:102E900000201C4A8C32106820F440100843106057
:102EA000704701460020174A8C32106820F4400019
:102EB00008431060704701460020124A8C321068A7
:102EC00020F440300843106070471949086070478B
:102ED00039B10C4A3032126802430A4B30331A605F
:102EE00006E0084A303212688243064B30331A60DB
:102EF0007047F9B1034A343212680243014B34334C
:102F00001A601CE000380240FFFFF6EA103000248F
:102F10000030002000004742800E47420024F400A9
:102F200040787D013C000020FFFCFF0F5C01474220
:102F3000E01147428F4A126882438E4B1A607047F5
:102F400039B18C4A121D126802438A4B1B1D1A604C
:102F500006E0884A121D12688243864B1B1D1A60C8
:102F6000704739B1834A0C3212680243814B0C33EB
:102F70001A6006E07F4A0C32126882437D4B0C33A4
:102F80001A60704739B17B4A103212680243794B9C
:102F900010331A6006E0774A103212688243754B8C
:102FA00010331A60704739B1724A243A12680243EA
:102FB000704B243B1A6006E06E4A243A1268824342
:102FC0006C4B243B1A60704739B16A4A203A126848
:102FD0000243684B203B1A6006E0664A203A1268BA
:102FE0008243644B203B1A60704739B1614A1C3AF6
:102FF000126802435F4B1C3B1A6006E05D4A1C3AB4
:10300000126882435B4B1C3B1A60704739B1594AC6
:10301000143A12680243574B143B1A6006E0554AB3
:10302000143A12688243534B143B1A60704739B10B
:10303000504A103A126802434E4B103B1A6006E0A9
:103040004C4A103A126882434A4B103B1A60704750
:1030500039B1484A1C3212680243464B1C331A608D
:1030600006E0444A1C3212688243424B1C331A6009
:10307000704739B13F4A2032126802433D4B20333A
:103080001A6006E03B4A203212688243394B2033F3
:103090001A60704739B1374A243212680243354BFF
:1030A00024331A6006E0334A243212688243314BDB
:1030B00024331A60704739B12E4A2C321268024309
:1030C0002C4B2C331A6006E02A4A2C3212688243B9
:1030D000284B2C331A60704739B1264A30321268B7
:1030E0000243244B30331A6006E0224A3032126821
:1030F0008243204B30331A607047012808D11D49A4
:103100003C31096841F008011A4A3C32116007E07D
:1031100018493C31096821F00801164A3C32116017
:10312000704739B1134A273A12780243114B273BB3
:103130001A7006E00F4A273A127882430D4B273B5C
:103140001A7070470B484030006840F080700949A1
:1031500040310860704701460020064A283A12684C
:103160000A400AB1012000E00020704701492639D9
:10317000087070473438024010B501218803FFF70A
:1031800056FF00214FF48040FFF751FF10BD1C494E
:10319000086070471B490862704730B500228B07F2
:1031A0001C0F0F2303FA04F2154B08338C1053F84D
:1031B00024309343124C08348D1044F825302346B4
:1031C0008C1053F824308C07240F00FA04F42343A6
:1031D0000B4C08348D1044F8253030BD0949DC31E2
:1031E0000860704708490860704700200449203192
:1031F000096801F4807109B1012000E000207047E6
:1032000000380140000027420004274210B5044660
:10321000FE48844208D101210846FFF708FF00213B
:103220000120FFF704FF9DE0B4F1804F08D1012198
:103230000846FFF7EBFE00210120FFF7E7FE91E0D3
:10324000F348844208D101210220FFF7DFFE00216C
:103250000220FFF7DBFE85E0EE48844208D1012121
:103260000420FFF7D3FE00210420FFF7CFFE79E012
:10327000E948844208D101210820FFF7C7FE002158
:103280000820FFF7C3FE6DE0E448844208D1012125
:103290001020FFF7BBFE00211020FFF7B7FE61E012
:1032A000DF48844208D101212020FFF7AFFE002132
:1032B0002020FFF7ABFE55E0DA48844208D1012117
:1032C0000220FFF7B4FE00210220FFF7B0FE49E024
:1032D000D548844209D101210804FFF7A8FE002146
:1032E0004FF48030FFF7A3FE3CE0D048844209D180
:1032F00001214804FFF79BFE00214FF40030FFF747
:1033000096FE2FE0CA48844209D101218804FFF7C4
:103310008EFE00214FF48020FFF789FE22E0C54891
:10332000844208D101214020FFF770FE0021402097
:10333000FFF76CFE16E0C048844208D101218020CE
:10334000FFF764FE00218020FFF760FE0AE0BB4823
:10335000844207D101218015FFF758FE0021A015F6
:10336000FFF754FE10BD00220288A84B98420ED0F1
:10337000AC4B98420BD0B0F1804F08D0A44B984290
:1033800005D0A44B984202D0A34B984204D14FF6EB
:103390008F731A404B881A43A04B984207D0A04B1A
:1033A000984204D04FF6FF431A400B891A4302801B
:1033B0004B68C3620B880385944B984202D0994BAB
:1033C000984201D18B7A03860123838270474FF0A4
:1033D000FF3141600021018001814180817270478D
:1033E0000185828270470A46002101884FF68F735B
:1033F000194011430180704741627047C1627047B4
:103400000146486A70470146088D704721B102881D
:1034100042F00202028004E002884FF6FD731A4077
:103420000280704721B1028842F00402028004E069
:1034300002884FF6FB731A400280704721B1028860
:1034400042F08002028004E002884FF67F731A4047
:103450000280704702884FF6F7731A400280028894
:103460000A430280704702884FF6FF431A400280E9
:1034700002880A430280704721B1028842F00102AB
:10348000028004E002884FF6FE731A400280704703
:1034900070B5002400220023058C4FF6FE763540DF
:1034A0000584028C8388048B4FF68F752C40B51EE3
:1034B0002C400D882C43751E2A408D892A434D8847
:1034C0002A43524DA84202D0564DA84213D14FF67E
:1034D000F7752A40CD892A434FF6FB752A408D881F
:1034E0002A434FF6FF652B404FF6FF552B400D8AC0
:1034F0002B434D8A2B43838004838D68456302846C
:1035000070BD70B5002400220023058C4FF6EF76C5
:1035100035400584028C8388048B48F6FF752C4067
:103520004FF6FF452C400D884FF6FF7606EA05253D
:103530002C434FF6DF752A408D8906EA05152A438C
:103540004D8806EA05152A43304DA84202D0354D74
:10355000A8421DD14FF67F752A40CD894FF6FF76E0
:1035600006EA05152A434FF6BF752A408D8806EAFC
:1035700005152A434FF6FF352B404FF2FF752B40C0
:103580000D8A06EA85052B434D8A06EA85052B43FD
:10359000838004838D688563028470BD70B50024C8
:1035A00000220023058C4FF6FF6635400584028C0F
:1035B0008388848B4FF68F752C404FF6FC752C401A
:1035C0000D882C434FF6FF552A408D894FF6FF7624
:1035D00006EA05252A434D8806EA05252A430B4DB0
:1035E000A84202D00F4DA84238D14FF2FF752A40B1
:1035F000CD894FF6FF7606EA05252A434FF6FF35BB
:103600002A408D8806EA05252A4319E0000001407A
:103610000004004000080040000C00400010004082
:1036200000140040000401400040014000440140FB
:103630000048014000180040001C004000200040ED
:103640004EF6FF752B404DF6FF752B400D8A06EAAE
:1036500005152B434D8A06EA05152B438380848389
:103660008D68C563028470BD70B5002200230024FC
:10367000058C4EF6FF7635400584038C8488828B5A
:1036800048F6FF752A404FF6FF452A400D884FF651
:10369000FF7606EA05252A434DF6FF752B408D89F6
:1036A00006EA05352B434D8806EA05352B43FE4DCA
:1036B000A84202D0FD4DA84208D14BF6FF752C4020
:1036C0000D8A4FF6FF7606EA85152C4384808283A7
:1036D0008D680564038470BD002101804180818074
:1036E00081608181C18101824182704770B503464A
:1036F000002000241846183001258D40ACB21D8CE6
:10370000A5431D8409B108290AD100EB61000568B1
:103710004FF68F76354005600568154305600FE06C
:103720000D1FC5F34E052844056848F6FF76354061
:10373000056005684FF6FF7606EA02263543056008
:1037400070BD4163704781637047C1637047016416
:1037500070470A460021018B4FF68F7319401143C1
:10376000018370470A460021018B48F6FF73194018
:103770004FF6FF7303EA02231943018370470A4699
:103780000021818B4FF68F7319401143818370475D
:103790000A460021818B48F6FF7319404FF6FF73EC
:1037A00003EA02231943818370470A460021018BF3
:1037B0004FF6F77319401143018370470A46002101
:1037C000018B4FF2FF7319404FF6FF7303EA022398
:1037D0001943018370470A460021818B4FF6F77326
:1037E00019401143818370470A460021818B4FF2B3
:1037F000FF7319404FF6FF7303EA022319438183D5
:1038000070470A460021018B4FF6FB7319401143A4
:10381000018370470A460021018B4FF6FF331940A0
:103820004FF6FF7303EA02231943018370470A46E8
:103830000021818B4FF6FB73194011438183704740
:103840000A460021818B4FF6FF3319404FF6FF7374
:1038500003EA02231943818370470A460021018B42
:103860004FF67F7319401143018370470A460021C8
:10387000018BC1F30E014FF6FF7303EA02231943D4
:10388000018370470A460021818B4FF67F731940F0
:103890001143818370470A460021818BC1F30E01D9
:1038A0004FF6FF7303EA02231943818370470A46E8
:1038B0000021018C4FF6FD731940114301847047BC
:1038C0000A460021018C4FF6F77319401143018419
:1038D00070470A460021018C4FF6DF7319404FF6FE
:1038E000FF7303EA02131943018470470A4600215B
:1038F000018C4FF67F7319404FF6FF7303EA0213F2
:103900001943018470470A460021018C4FF6FF538A
:1039100019404FF6FF7303EA0223194301847047ED
:103920000A460021018C4FF2FF7319404FF6FF73D6
:1039300003EA02231943018470470A460021018CDF
:103940004DF6FF7319404FF6FF7303EA0233194334
:103950000184704730B5002301248C40A3B2048C4D
:103960009C430484048C02FA01F5ADB22C43048418
:1039700030BD30B5002304248C40A3B2048C9C439A
:103980000484048C02FA01F5ADB22C43048430BDEA
:10399000828B4FF2FF331A408283828B4FF6FF7384
:1039A00003EA01231A4382837047F0B50C4615469B
:1039B000002100220026078C4EF6FF7C07EA0C0748
:1039C0000784818B028C4FF6FF7707EA043640F6B6
:1039D000FF4739404FF6FF7707EA052739434FF68F
:1039E000FF7707EA0337394345F6FF773A4046F455
:1039F00080573A4381830284F0BD828B4FF6F37384
:103A00001A408283828B0A4382837047F0B50C464A
:103A10001546002100220026078C4FF6FF6C07EAAE
:103A20000C070784818B028C4FF6FF7707EA042688
:103A30004FF60C7739404FF6FF7707EA03172F430D
:103A400039434FF2FF573A4046F480773A43818337
:103A50000284F0BD028B4FF2FF331A400283028BC7
:103A60004FF6FF7303EA01231A4302837047F0B550
:103A70000C461546002100220026078C4FF6EF7CED
:103A800007EA0C070784018B028C4FF6FF7707EAE1
:103A9000041640F6FF4739404FF6FF7707EA033731
:103AA00039434FF6FF7703E0000001400004014076
:103AB00007EA052739434FF65F773A4046F010078B
:103AC0003A4301830284F0BD028B4FF6F3731A4030
:103AD0000283028B0A4302837047F0B50C461546F9
:103AE00000210022068C4FF6FE773E400684018BB3
:103AF000028C4FF60C7631407E1C06EA03162E43EC
:103B000031434FF6F576324044F0010632430183EB
:103B10000284F0BD70B505460C46208850B9238953
:103B2000A28861882846FFF7D8FFE1882846FFF77A
:103B3000CBFF25E0208804280AD12389A288618848
:103B40002846FFF794FFE1882846FFF783FF17E038
:103B5000208808280AD12389A28861882846FFF78F
:103B600055FFE1882846FFF748FF09E02389A2882E
:103B700061882846FFF719FFE1882846FFF708FF0C
:103B800070BD002101804180012181800021C18020
:103B9000018170472DE9F04105460C4600260127BA
:103BA000608808B9022600E00026A088012801D11B
:103BB000022700E001272088A0B92389A288618814
:103BC0002846FFF78AFFE1882846FFF77DFF238913
:103BD0003A4631462846FFF74AFFE1882846FFF774
:103BE00039FF13E02389A28861882846FFF73FFF49
:103BF000E1882846FFF72EFF23893A4631462846BA
:103C0000FFF76BFFE1882846FFF75EFFBDE8F08114
:103C10000146486B70470146886B70470146C86B88
:103C200070470146086C70470A884B881A438B8896
:103C30001A43CB881A430B891A434B891A438B8941
:103C40001A43A0F844207047002101804180818000
:103C5000C180018141818181704731B1B0F8442038
:103C600042F40042A0F8442005E0B0F84420C2F33A
:103C70000E02A0F84420704721B1828842F004026D
:103C8000828004E082884FF6FB731A40828070477E
:103C900021B1828842F00102828004E082884FF6DE
:103CA000FE731A40828070471AB183890B43838167
:103CB00002E083898B43838170478182704702468B
:103CC0000020138A0B400BB1012000E00020704758
:103CD000CA430282704730B5024600200023002408
:103CE000158A05EA0103958905EA010413B10CB1AF
:103CF000012000E0002030BDCA430282704741EA43
:103D00000203A0F8483070471AB183890B438381BE
:103D100002E083898B438381704721B1828842F01E
:103D20000802828004E082884FF6F7731A4082808E
:103D3000704701894FF6F8721140018170470A46B9
:103D4000002101894FF68F7319401143018170479B
:103D500030B504460D4629462046FFF7F0FF20897E
:103D600040F00700208130BD2DE9F04104460D46AA
:103D700016461F46602D06D13B460122314620469D
:103D8000FFF775FE05E03B46012231462046FFF76E
:103D9000A4FE29462046FFF7D2FF208940F0070005
:103DA0002081BDE8F08130B50C4600210189C9B2FF
:103DB0004FF6FF7505EA0325154325432943018185
:103DC00030BD2DE9F04105460E46174698460024C1
:103DD00043463A4631462846FFF7E5FF2C894FF621
:103DE000F870044044F007044FF68F70044044F02C
:103DF00070042C81BDE8F081F0B504460D461646EE
:103E00001F463B46324629462046FFF7CCFF208915
:103E100040F480402081F0BD82884FF68F731A40B5
:103E2000828082880A438280704702894FF6F87345
:103E30001A40028102890A430281704702894FF6C3
:103E40007F731A40028102890A4302817047F0B5EC
:103E50000C4615461E460021002200230189028BD4
:103E6000038C4FF6F877394021434FF6FC473A4030
:103E700040F201173A434FF6DD773B404FF6FF77AC
:103E800007EA06172F433B43018102830384F0BDF9
:103E900021B1828842F08002828004E082884FF65D
:103EA0007F731A4082807047A0F85010704700005E
:103EB00010B50446FA48844208D101211020FFF7CA
:103EC000B6F800211020FFF7B2F857E0F548844219
:103ED00009D101214804FFF799F800214FF400307F
:103EE000FFF794F84AE0F048844209D101218804A0
:103EF000FFF78CF800214FF48020FFF787F83DE0B2
:103F0000EA48844209D10121C804FFF77FF8002163
:103F10004FF40020FFF77AF830E0E548844209D1F9
:103F200001210805FFF772F800214FF48010FFF718
:103F30006DF823E0DF48844208D101212020FFF7FB
:103F400076F800212020FFF772F817E0DA48844263
:103F500009D101218807FFF759F800214FF080406F
:103F6000FFF754F80AE0D548844207D10121400503
:103F7000FFF74CF800216005FFF748F810BD2DE968
:103F8000FF4705460E460024A14600BFA046B08963
:103F900000B100BF2C8A24F44054F08804432C82E2
:103FA000AC8941F20C608443B0883189084371893F
:103FB00008430443AC81AC8A24F44074B0890443C0
:103FC000AC826846FEF7B3FEB548854202D0B948D8
:103FD000854202D1DDF80C9001E0DDF80890A88957
:103FE00000F4004040B109EBC90000EB0910316852
:103FF0004900B0FBF1F707E009EBC90000EB09103D
:1040000031688900B0FBF1F76420B7FBF0F00401E0
:104010002009642101FB1078A88900F4004040B118
:10402000322000EBC800B0FBF1F000F007000443C1
:1040300008E0322000EB08106421B0FBF1F000F042
:104040000F0004432C81BDE8FF874FF41651016037
:1040500000218180C18001810C2141810021818169
:10406000704710B502460020108A20F470600B885B
:104070004C8823438C882343CC88234318431082E5
:1040800010BD0021018041808180C180704721B135
:10409000828942F40052828104E082894DF6FF73E6
:1040A0001A4082817047028B02F47F420283028BA6
:1040B0000A430283704721B1828942F4004282811F
:1040C00003E08289C2F30E028281704721B1828AA5
:1040D00042F40062828204E0828A4FF2FF731A4047
:1040E00082827047C1F30802828070470146888847
:1040F000C0F308007047028A4FF6F0731A4002823C
:10410000028A0A430282704721B1828942F0020288
:10411000828104E082894FF6FD731A4082817047E4
:1041200082894FF2FF731A40828182890A43828119
:104130007047028A4FF6DF731A400282028A0A43EE
:104140000282704721B1028A42F48042028204E076
:10415000028A4BF6FF731A4002827047818941F050
:1041600001018181704721B1828A42F00802828276
:1041700004E0828A4FF6F7731A4082827047028BFE
:10418000D2B20283028B42EA01220283704721B13C
:10419000828A42F02002828204E0828A4FF6DF7334
:1041A0001A408282704721B1828A42F010028282D4
:1041B00004E0828A4FF6EF731A4082827047828A47
:1041C0004FF6FB731A408282828A0A4382827047CA
:1041D00021B1828A42F00202828204E0828A4FF692
:1041E000FD731A40828270471AB1838A0B4383821F
:1041F00002E0838A8B4383827047F0B50346002434
:1042000000260025002040F66A17B94200D100BF01
:104210001846C1F3421401F01F06012707FA06F5FC
:10422000012C01D10C3004E0022C01D1103000E04F
:1042300014301AB107682F43076002E00768AF43E4
:104240000760F0BD02460020B1F5007F00D100BF3D
:1042500013880B400BB1012000E00020704701F4EF
:104260000072B2F5007F00D100BFCA4302807047E0
:1042700070B50246002400230025002040F66A168F
:10428000B14200D100BFC1F3421501F01F03012666
:1042900006FA03F3012D13D19689334017E000008D
:1042A000001001400044004000480040004C004025
:1042B000005000400014014000780040007C0040A5
:1042C000022D02D1168A334001E0968A33400C1247
:1042D000012606FA04F41688344013B10CB101200B
:1042E00000E0002070BD10B50022002340F66A14E3
:1042F000A14200D100BF0A1201249440A3B2DC43C2
:10430000048010BD01B581B000200090019800909C
:1043100002E00098401E009000980028F9D10CBDE2
:1043200010B501214806FEF73EFE00214FF0007057
:10433000FEF739FE10BD012101600021416081605E
:10434000C16001614FF48041416100218161C1611F
:104350004FF400610162002141628162C162016328
:1043600041638163C16340210164202141640021D4
:104370008164C164016541658165C1650166802113
:10438000416600218166C166016741678167C16737
:104390004FF08061C0F880104910C0F884100021EF
:1043A000C0F888104FF40011C0F88C100021C0F83C
:1043B0009010C0F89410C0F89810C0F89C10C0F885
:1043C000A0104FF00071C0F8A4104912C0F8A81056
:1043D0008901C0F8AC104912C0F8B0100021C0F833
:1043E000B410C0F8B810704738B503460C46002129
:1043F00000200090F648016901F01C014FF478405C
:1044000000EAC32001434FF4F86000EA841001433E
:1044100041F0020141F00101ED484261016100BF3C
:104420000098401C0090EA48016901F0010018B1B1
:10443000E84D0098A842F3D3E64D0098A84201D178
:10444000002038BD0120FCE718B502460B460021CC
:1044500000200090DE48016901F01C014FF4784013
:1044600000EAC22001434FF4F86000EA83100143E0
:1044700021F0020141F00101D548016100BF00981F
:10448000401C0090D248016901F0010018B1D14CE4
:104490000098A042F3D3CF4C0098A04201D1002055
:1044A00018BDCB48406980B2FAE72DE9F04186B0EB
:1044B00004460F464FF00008002500200590C64E28
:1044C0000090C348056925F01C0501A8FEF72FFCE4
:1044D000029EC248864205D3C148864202D245F0B8
:1044E00008051AE0BE48864205D3BB48864202D280
:1044F00045F00C0511E0B848864203D3B94886421E
:1045000000D20AE0B748864205D3B748864202D2B5
:1045100045F0040501E045F01005AD4805614FF494
:10452000004200213846FFF75FFF18B9002006B0AF
:10453000BDE8F081AD48FFF7E5FE206800284ED0C9
:1045400000BF0098401C009001213846FFF77CFF17
:1045500000F0040018B99F4900988842F1D39D49A2
:104560000098884201D10020E1E7002000904FF43C
:10457000805200213846FFF737FF08B90020D6E700
:1045800000BF0098401C009001213846FFF75CFFF7
:1045900000F0200018B98F4900988842F1D38D4966
:1045A0000098884201D10020C1E70020009010212E
:1045B0003846FFF749FF804608F0040018B14FF471
:1045C0000060206201E00020206208F0020010B1CB
:1045D0000020606116E04FF48040606112E0206AC4
:1045E000C0F3CF006169C1F34F0140EA010200212D
:1045F0003846FFF7F9FE08B9002098E76FF07F40D2
:10460000FFF780FE7248056879480540D4E901014A
:104610000843E16808432169084361690843A169C7
:104620000843E1690843216A0843616A0843A16AB3
:104630000843E16A0843216B0843616B0843054363
:1046400063480560D4E90E010843216C0843616C9E
:104650000843A16C0843E16C0843216D0843616D78
:1046600008435B494860A06D8860E06DC8600846FB
:1046700085694FF641700540B4F86010606E40EAFD
:104680000140A16E0843E16E0843216F0843616F4A
:10469000084305434E488561D4E91E0108434C494F
:1046A000C8615448856954480540D4E9200108434D
:1046B000D4F888100843D4F88C100843D4F890102C
:1046C0000843D4F894100843D4F898100843D4F859
:1046D0009C100843D4F8A010084305434548856161
:1046E000D4E929010843D4F8AC100843D4F8B01039
:1046F0000843D4F8B41040EA8100D4F8B810084355
:1047000040F400003B4908600846006840F0800023
:10471000086001200BE730B13649896941F0020198
:10472000344A916105E03349896921F00201314A37
:104730009161704730B12F49896941F400512D4A88
:10474000916105E02B49896921F40051294A916161
:10475000704730B11E49096841F004011C4A1160DC
:1047600005E01B49096821F00401194A11607047EE
:104770002048806940F480101E498861704730B13C
:104780001349096841F00801114A116005E0104918
:10479000096821F008010E4A1160704700B5012038
:1047A000FFF7EDFFFFF7E4FF0120FFF7D2FF012045
:1047B000FFF7C0FF0120FFF7AEFF00BD0020044956
:1047C000896901F0010109B1012000E00020704772
:1047D00000800240FFFF040000879303002D310199
:1047E000C00E160200E1F50580D1F008FFFF0F00B2
:1047F0000F8120FF00900240233FDEF8FB488069D4
:1048000040F00100F9498861704730B1F749896982
:1048100041F00101F54A916105E0F449896921F00F
:104820000101F24A9161704701460020EF4A926B04
:104830000A400AB1012000E0002070470146002034
:10484000EA4A926B0A400AB1012000E0002070475A
:1048500029B1E64AD26B8243E44BDA6304E0E34ACF
:10486000D26B0243E14BDA63704710B50B794C7998
:1048700043EA0422DD4B03441A64CB781B068C7890
:1048800043EA04434C7843EA04230C7843EA0402E5
:10489000D64B03445A6410BD0246D44B1344186CE3
:1048A000030A4B710871D14B1344586C030ECB7043
:1048B000030C8B70030A4B700870704741B1CB4AF0
:1048C0000244126C42F00042C84B03441A6407E0F1
:1048D000C64A0244126C22F00042C44B03441A64DC
:1048E0007047082908D0C14A0244126C42F0804245
:1048F000BE4B03441A6407E0BC4A0244126C22F027
:104900008042BA4B03441A647047B84A0244126C9E
:1049100022F07C52B54B03441A64B44A0244126C30
:104920000A43B24B03441A6470471EB500210022AB
:10493000009201920292AE4A12681268C2F30D42CE
:10494000111F0091AB4A12689268012A05D9A94A41
:10495000126812689268019203E0A54A1268926890
:104960000192A34A12680292A14A1268D268A04B2F
:104970001A609DE81C0080E81C001EBD0FB50021D8
:1049800001910291039100916FE00099491C0091FF
:1049900097490968096801F40071A1B1944909684F
:1049A000096801F4807171B991490968914A1268E6
:1049B000116001218F4A126891608D490968C968A8
:1049C0008B4A116051E08A490968096801F48071D5
:1049D00091B987490968096801F4007161B985498D
:1049E00009688968491C834A12689160804909688E
:1049F000C9687F4A116038E07D4909687D4A1268BC
:104A000051607C4909688968491C7A4A126891603A
:104A1000784909688968012904D175490968754A86
:104A200012681160724909680968C1F30D41091FD4
:104A30000191704909688968012905D96D4909689A
:104A400009688968029103E06949096889680291E7
:104A500067490968039166490968C968644A116031
:104A600001A90EC980E80E000FBD614909680968F7
:104A700001F0004111B90099052986D301A90EC999
:104A800080E80E0000BFEFE770B502460023002566
:104A9000002459480068006800F0004008B1002078
:104AA00070BD5548016840F2F450824208DD92FB27
:104AB000F0F392FBF0F600FB162010B15B1C00E057
:104AC0000123012B1AD14C480068006840F0405087
:104AD000494E36683060C2F30C00474E366870604D
:104AE00045480068006840F00040434E366830603A
:104AF00041480068C068404E306028E0002422E051
:104B00003CB93D480068006840F080503A4E366835
:104B1000306040F2F4504860581EA0420DD1086841
:104B200040F000500860581EC0EBC01000EB400081
:104B3000A2EB8005C5F30C004860086840F0004017
:104B40000860C968641C9C42DAD32B4801602B487A
:104B5000406900F0040020B10420284E706100205C
:104B6000706001209CE770B50C4613460021204D73
:104B7000286000BF18E000EB41124FF000451560BF
:104B800044F2F4555560C1EBC11505EB450504EB46
:104B9000850595605D1E8D4204D900EB41152035D9
:104BA000D56000E0D060491C9942E4D3134DE86021
:104BB000134D104E356070BD0D480068006800F060
:104BC0000040F8B90A480068006800F48070C8B175
:104BD0000748006807490968486006480068806817
:104BE000401C044909688860012070470080024029
:104BF00050000020540000204C0000200090024093
:104C0000F02B0020F9480068006800F00040F0B97F
:104C1000F6480068006800F40070C0B1F34800680E
:104C2000006800F4807090B9F0480068F0490968A5
:104C300008600020EE49096848600120EC490968D5
:104C40008860EA480068C068E84908601DE0E748F5
:104C50000068006800F00040B8B9E44800680068E7
:104C600000F4007088B9E1480068006800F48070C2
:104C700058B9DF4800688068401CDD4909688860D1
:104C8000DA480068C068D94908600020ADE730B54F
:104C90000C4613460021D74D286000BF15E000EBFD
:104CA00041124FF480151560C1EBC11505EB4505A8
:104CB00004EB850595605D1E8D4204D900EB41151E
:104CC0002035D56000E0D060491C9942E7D3CA4D39
:104CD000286130BD0246002013680B400BB1012053
:104CE00000E00020704701460868C0F3C300704729
:104CF000016841F000410160704721B1026842F053
:104D00008042026003E0026822F080420260704745
:104D100002680A430260704702680A4302607047F3
:104D200021B1026822F00062026003E0026842F0F2
:104D300000620260704721B1026842F48012026092
:104D400003E0026822F480120260704721B1026819
:104D500022F08062026003E0026842F0806202603A
:104D6000704710B541EA024443682343436010BDD5
:104D70000246002013680B400BB1012000E0002028
:104D800070470246002013690B400BB1012000E080
:104D900000207047016841F0004101607047014602
:104DA0000868C0F30D40704721B1426822F000420C
:104DB000426003E0426842F00042426070470246AF
:104DC00019B15068C0F30C4070479088C0F30C00D4
:104DD000FAE700B502460023106800F0004058B919
:104DE000106800F4004038B9106800F4807018B101
:104DF0001046FFF7D4FF0346184600BD30B17E4988
:104E0000096841F080017C4A116005E07A4909682F
:104E100021F08001784A116070477748006840F0BF
:104E2000010075490860704700207349096801F066
:104E3000010109B1012000E0002070470146002077
:104E40006D4A52690A400AB1012000E00020704713
:104E500069494861704729B1674AD2690243664B84
:104E6000DA6104E0644AD2698243634BDA617047D5
:104E700001460020604A52690A400AB1012000E060
:104E8000002070475C49486170475B48406900F00A
:104E9000010070475848406900F04000704700200A
:104EA0005549896901F4801109B1012000E0002011
:104EB000704701460020504A126A0A400AB1012098
:104EC00000E0002070474C48006AC0F34A40704739
:104ED0004948006A80B270474748806C704746482E
:104EE000C06C70474448006D70474348406D704740
:104EF000002041494860704700203F498860704762
:104F00003D494862704770B506460D4600240021B1
:104F10003046FFF799FA044615B144F4804402E0A4
:104F20004BF6FF700440224600213046FFF75CFA42
:104F300008B1012070BD0020FCE73048C06A40F095
:104F400000402E49C86270470146002000BF04E0BF
:104F500051F82020294B9A62401C0828F8D370474A
:104F600030B12649C96A41F40071244AD16205E092
:104F70002249C96A21F40071204AD1627047014672
:104F800000201E4AD26A0A400AB1012000E0002037
:104F9000704730B11949C96A41F00401174AD1621A
:104FA00005E01649C96A21F00401144AD16270472C
:104FB00030B11249C96A41F00201104AD16205E0DC
:104FC0000E49C96A21F002010C4AD162704730B122
:104FD0000A49C96A41F00101084AD16205E007495E
:104FE000C96A21F00101054AD162704750000020D2
:104FF000540000204C00002000900240008002403D
:105000004E48006840F030004D49C1F8000170473B
:105010004A48006820F020004949C1F800010846CC
:10502000D0F8000140F01000C1F80001704738B11D
:105030004249096841F00801414AC2F8001106E0FE
:105040003E49096821F008013D4AC2F80011704745
:1050500038B13A49096841F00401394AC2F80011EF
:1050600006E03649096821F00401354AC2F800110A
:10507000704738B13149096821F00201304AC2F85D
:10508000001106E02D49096841F002012C4AC2F8DE
:10509000001170472948006840F001002849C1F814
:1050A0000001704700F0805292B120F0805039B179
:1050B000224A0C3212688243214BC3F80C2117E0BC
:1050C0001E4A0C32126802431D4BC3F80C210FE03C
:1050D00039B11A4A103212688243194BC3F81021B1
:1050E00006E0164A103212680243154BC3F810212D
:1050F00070470146002001F080526AB10F4A121D2C
:1051000012680A4032B10D4A0C3212680A400AB9DC
:1051100001200EE000200CE0084A083212680A4024
:1051200032B1064A0C3212680A400AB9012000E086
:10513000002070470146024808587047008102402D
:1051400000800240FE4A1070704730B1FC49096887
:1051500041F48071FA4A116005E0F949096821F4C7
:105160008071F74A1160704730B1F549096841F420
:105170000071F34A116005E0F149096821F40071FA
:10518000EF4A1160704730B1ED49096841F4806120
:10519000EB4A116005E0EA49096821F48061E84AB8
:1051A00011607047E648006840F40060E449086018
:1051B0007047E348006840F48050E1490860704758
:1051C000DF481030006800F0004028B1DD48DC49BD
:1051D000091D0860DC4808607047D9481030006835
:1051E00040F00040D6491031086070470920D4498A
:1051F0000C31096801F48031B1F5803F01D1012003
:1052000020E0CF490C31096801F0100109B10620F6
:1052100018E0CB490C31096801F4807109B1022012
:1052200010E0C7490C31096801F0EF0109B107200E
:1052300008E0C3490C31096801F0020109B10820F6
:1052400000E00920704708B509200090FFF7CEFF65
:10525000009002E0FFF7CAFF00909DF800000128CF
:10526000F8D09DF8000008BD70B504460A46002637
:10527000092502B909E0012A01D1160205E0022A36
:1052800001D1160201E04FF44076FFF7DCFF05463E
:10529000092D2DD1AA481030006820F44070A8498B
:1052A000103108600846006830430860084600680E
:1052B00020F0F80008600846006844F00201084346
:1052C0009F49103108600846006840F4803008604B
:1052D000FFF7B9FF05469A481030006820F0020039
:1052E0009749103108600846006820F0F80008600F
:1052F000284670BD30B5024600250924FFF7A3FFFC
:10530000044602B909E0012A01D1150205E0022A8A
:1053100001D1150201E04FF44075092C20D18848D5
:105320001030006820F4407085491031086008464C
:105330000068284308600846006840F004000860E0
:105340000846006840F480300860FFF77CFF0446A0
:105350007B481030006820F0040079491031086063
:10536000204630BD30B5024600250924FFF76BFF0B
:10537000044602B909E0012A01D1150205E0022A1A
:1053800001D1150201E04FF44075092C20D16C4881
:105390001030006820F440706949103108600846F8
:1053A0000068284308600846006840F00400086070
:1053B0000846006840F480300860FFF744FF044668
:1053C0005F481030006820F004005D49103108602B
:1053D000204630BD30B5024600250924FFF733FFD3
:1053E000044602B909E0012A01D1150205E0022AAA
:1053F00001D1150201E04FF44075092C20D150482D
:105400001030006820F440704D49103108600846A3
:105410000068284308600846006840F400400860BF
:105420000846006840F480300860FFF70CFF04462F
:1054300043481030006820F40040414910310860B2
:10544000204630BD70B5064614461D460922FFF7BA
:10545000FAFE0246092A1ED139481030006820F4AD
:1054600040703749103108600846006840F44070C9
:1054700008600846006840F001000860346075600C
:10548000FFF7E1FE02462E481030006820F00100D0
:105490002B4910310860104670BD30B502460C46ED
:1054A0000925FFF7D0FE0546092D1DD124481030EF
:1054B000006820F4407022491031086008460068F6
:1054C00040F4007008600846006840F00100086081
:1054D0001460FFF7B8FE054619481030006820F048
:1054E0000100174910310860284630BD30B502462A
:1054F0000C460925FFF7A7FE0546092D1DD11048CA
:105500001030006820F440700D49103108600846E2
:10551000006840F4807008600846006840F00100B0
:1055200008601480FFF78FFE0546054810300068BC
:1055300020F00100024910310860284630BD00000B
:10554000003C024023016745AB89EFCD30B50246F0
:105550000C460925FFF777FE0546092D17D19B4814
:10556000006820F4407099490860084600680860A7
:105570000846006840F0010008601470FFF763FE01
:1055800005469248006820F00100904908602846CE
:1055900030BD8E48001D006800F0010028B18C4825
:1055A0008A49083908608B48086070478748001DA1
:1055B000006840F001008549091D0860704730B55A
:1055C00002460C460925FFF73EFE0546092D10D17F
:1055D0003CB17E48801D008890437C49891D08802D
:1055E00007E07A48801D008891B208437749891DF9
:1055F000088030BD30B502460C460925FFF723FE72
:105600000546092D10D13CB170480A3000889043FE
:105610006E490A31088007E06C480A30008891B270
:1056200008436A490A31088030BDFF21674AD21D0C
:10563000127802F07F0140EA0102644BDB1D1A7010
:10564000704730B502460C460925FFF7FCFD0546BC
:10565000092D10D144B15D48801D008891B20843E6
:105660005A49891D088006E05848801D00889043EB
:105670005649891D088030BD30B502460C460925C3
:10568000FFF7E1FD0546092D10D144B14F480A301E
:10569000008891B208434D490A31088006E04B4822
:1056A0000A300088904349490A31088030BD10B55E
:1056B00002460924FFF7C7FD0446092C02D14348DE
:1056C000401D027010BDF0B504460D46FF260927A7
:1056D000FFF7B9FD0746092F0BD13C48001D0078A4
:1056E00000F00F0645EA0600104320433749091D24
:1056F0000870F0BD3549091D097821F01001334AC1
:10570000121D1170114609780143117070472F491D
:10571000091D097821F00C012C4A121D1170114647
:10572000097801431170704700B509222748001D10
:10573000007840F002002549091D0870FFF783FD3D
:105740000246104600BD2148001D0068C0F3471006
:1057500070471E48801D008870471C480A3000882A
:1057600070471A48801D0088704718480A30008822
:10577000704700201549491D0978AA2901D0012048
:1057800000E0002070471148001D007800F00C0078
:10579000704729B10D4A126802430C4B1A6004E0AD
:1057A0000A4A12688243094B1A607047014600207A
:1057B000064A121F12680A400AB1012000E00020C8
:1057C00070470249091F086070470000103C024002
:1057D0003B2A19087F6E5D4C0E49086070470D49E1
:1057E000486070470B49886070474AF6AA2009490B
:1057F000086070474CF6CC40064908607047014687
:105800000020044AD2680A400AB1012000E00020CA
:10581000704700000030004010B50EF0D9FD10BDFB
:1058200010B50EF01AFE10BD10B50446204610F05B
:1058300001FE10BD10B53E480078012805D10EF0DC
:1058400029FD0EF06AFE0EF040FD10BD70B5044655
:105850006FF00400FCF7FAFFE11704EB5171C1F39C
:10586000C701344A1170E11704EB5171CD1042F2B7
:10587000107045430A20304908804FF0E02000694D
:1058800040F002004FF0E0210861084645610069E0
:1058900040F00100086170BD2DE9F0470746002681
:1058A0004FF0E020D0F814902248007807FB00F871
:1058B00000BFFFF7B1FF4FF0E020856911E04FF026
:1058C000E0208469AC420CD0AC4202D2281B0644D2
:1058D00003E0A9EB0400284406442546464500D3CE
:1058E00000E0ECE700BFFFF79BFFBDE8F08770B575
:1058F00004460F480078A0B11048007888B90E48D7
:105900000088844206DB0C48008894FBF0F52846AA
:10591000FFF78AFF0848008894FBF0F100FB114074
:1059200084B24FF47A7104FB01F0FFF7B5FF70BD4C
:10593000BA0200205C0000205E000020AD020020C2
:1059400000BF704770B504460D4610215A48FDF758
:105950009DF80A20FFF7A0FF00BF5848008800F01C
:1059600040000028F9D0E0B25449091D08801021F8
:105970005148FDF78DF8204670BD10B588B004463B
:1059800001210920FDF7A4FA01214804FDF7E9FAF5
:10599000072205214848FDF788F8072206214648D6
:1059A000FDF783F86020069002208DF81C008DF82A
:1059B0001D0000208DF81E0001208DF81F0006A993
:1059C0003D48FCF7E7FF02940020ADF80C00ADF86D
:1059D0000E00ADF81000ADF814000C20ADF8120068
:1059E00002A93648FEF7CBFA01213448FEF74FFBF7
:1059F0001020069002208DF81D0001208DF81C005B
:105A000006A92D48FCF7C6FF10212B48FDF73EF8EC
:105A100040212A48FEF723FC012240F22551274865
:105A2000FEF7EBFB26208DF8040003208DF805001F
:105A30008DF8060001208DF8070001A8FCF7B9FEDB
:105A400008B010BD10B50EF025FC40F225511B48E2
:105A5000FEF70EFC80B11948FEF748FBC4B21848A7
:105A60000078642808DA174815490978445414481E
:105A70000078401C124908700EF027FC10BD30B5AC
:105A800003460F4C2278002000240C700C4C247824
:105A9000A2420FD172B100BF04E00A4C245C1C5436
:105AA000441CE0B29042F8DB054C24780C700024D2
:105AB000034D2C7030BD0000000C0240004400403B
:105AC00064000020FC2B002010B5C34801F0C5FB8A
:105AD00010BD10B5C1480168002011F0E0FAC048BF
