:020000040800F2
:10000000C8BC00207D3D0008E50C0008E70C000896
:10001000EB0C0008EF0C0008F30C000800000000D7
:10002000000000000000000000000000F70C0008C5
:10003000F90C000800000000F33F000865410008CB
:10004000973D0008973D0008973D0008973D000840
:10005000973D0008973D0008973D0008973D000830
:10006000973D0008973D0008973D0008973D000820
:10007000973D0008973D0008973D0008973D000810
:10008000973D0008973D0008973D0008973D000800
:10009000A1140008973D0008973D0008973D00080F
:1000A000973D0008973D0008973D0008973D0008E0
:1000B000973D0008973D0008973D0008973D0008D0
:1000C000973D0008973D0008973D0008973D0008C0
:1000D000973D0008131100089511000867120008E9
:1000E000FD0C0008973D0008973D0008973D00086B
:1000F000973D0008973D0008973D0008973D000890
:10010000973D0008973D0008973D0008973D00087F
:10011000973D0008973D0008973D0008973D00086F
:10012000973D0008973D0008973D0008973D00085F
:10013000973D0008FF0C0008973D0008973D000818
:10014000973D0008973D0008973D0008973D00083F
:10015000973D0008973D0008973D0008973D00082F
:10016000973D0008973D0008973D0008973D00081F
:10017000973D0008973D0008973D0008973D00080F
:10018000973D0008973D0008DFF80CD00DF0C2FE47
:100190000048004775020008C8BC00203F480068BE
:1001A0006422B0FBF2F0411EB1F1807F00D31DE06C
:1001B00021F07F40401E4FF0E022506150170F2287
:1001C000002807DA13071D0E354B00F00F04241F1B
:1001D0001D5503E013071C0E324B1C5400BF0020BA
:1001E0004FF0E02290610720106100BF00BF2E4851
:1001F0000068012805DB2DA22FA132A00DF0E6FE3C
:1002000004E02AA22CA13BA00DF0E0FE00BF0923D0
:10021000444A0021444805F0CBFE00BF2248006854
:10022000012803DB41A00DF0D1FE02E047A00DF054
:10023000CDFE00BF0A234D4A00214D4805F0B8FE0F
:1002400000BF19480068012803DB4AA00DF0BEFE7C
:1002500002E050A00DF0BAFE00BF0AE00023012228
:100260001946184606F020FA4FF40071514802F082
:1002700020F9F3E710B500F081FB04F012FB3B23FB
:100280004D4A0021AFF2EB0005F092FE002006F08F
:1002900091FA04F0F7FB002010BD00007C00002064
:1002A00018ED00E000E400E0000000204E6F762032
:1002B000323920323031380031373A35353A303141
:1002C000000000005B494E464F5D0920BAECC2CCED
:1002D000B5C6D1A7CFB0CFB5CDB376312E302E3045
:1002E00020B1E0D2EBCAB1BCE43A25732025730DEE
:1002F0000A0000005B494E464F5D09BAECC2CCB51E
:10030000C6D1A7CFB0CFB5CDB376312E302E3020A9
:10031000B1E0D2EBCAB1BCE43A25732025730D0AD3
:1003200000000000E42E0020EB0500085B494E466B
:100330004F5D0920CDF8C2E7B4ABCAE4C8CECEF118
:10034000C6F4B6AF2E2E2E0D0A0000005B494E46B5
:100350004F5D09CDF8C2E7B4ABCAE4C8CECEF1C652
:10036000F4B6AF2E2E2E0D0A000000006409002006
:10037000C90500085B494E464F5D0920BAECC2CC66
:10038000B5C6D1A7CFB0C8CECEF1C6F4B6AF2E2E2B
:100390002E0D0A005B494E464F5D09BAECC2CCB542
:1003A000C6D1A7CFB0C8CECEF1C6F4B6AF2E2E2E92
:1003B0000D0A000000100240240300202DE9F04146
:1003C000F021D2480DF05DFD002501270026A8464A
:1003D0000320CE49487039E00A2300221146104616
:1003E00006F062F9002501F012F920F07F4603249F
:1003F00011E00120A04000EA0608B8F1000F08D182
:10040000681CC5B2032094FBF0F100FB1140BF490A
:100410004870601CC4B2062CEBDBBC484078032853
:1004200000D00027012D11DD012700BFB84800686A
:10043000012805DB32462946B6A00DF0C7FD04E0D1
:1004400032462946BEA00DF0C1FD00BF002FC3D12A
:10045000AE484078AD4908700120C87000BFAC4874
:100460000068012805DB08464178C0A00DF0AEFD0C
:1004700004E0A6484178C5A00DF0A8FD00BFBDE886
:10048000F08110B5A148C07801284ED19F4800786E
:100490009E494978884248D006F080F99B49C86057
:1004A00008468068002826D00846C0688968401A37
:1004B00032306421B0FBF1F0C1B294480278001DE3
:1004C0008154001FC06891498968401A8F490861AA
:1004D00000BF8F480068012806DB084602694178A2
:1004E000B2A00DF073FD05E0884802694178B8A01C
:1004F0000DF06CFD00BF06F051F984498860084694
:10050000007990B10846407978B10846807960B1A9
:10051000B8A00DF05BFD7D48837942790179B9A0DF
:100520000DF054FD00207949C87010BD10B5774812
:10053000C07848B97548007874494978884203D032
:1005400006F02CF97149886010BD2DE9F04781460D
:10055000002400250026A046002701F058F820F0CE
:100560007F46032428E00120A04000EA060767B97F
:10057000681CC5B26548407864490870032094FB44
:10058000F0F100FB114061494870012D12DD00BF00
:100590005F480068012804DB2946A1A00DF016FD84
:1005A00003E02946A8A00DF011FD00BFFFF706FFEC
:1005B000BDE8F087601CC4B2062CD4DB01F04DF816
:1005C00020F07F4800BFF3E7FFF7F8FE0CE01423AC
:1005D00000221146104606F067F80120FFF7B5FF2C
:1005E000FFF74FFFFFF7A2FFF1E786B000240020DE
:1005F000009000F0EDFA00F021FB00F0B7FB01A83D
:100600009B49096848604AF25A50ADF804008320BB
:100610008DF80600A0208DF8070000208DF8080056
:1006200045F6A520ADF814006EE000980A30009061
:10063000009800F02FFB4FF4FA7300221146104689
:1006400006F032F801208DF80A0000208DF80B002A
:100650002E4840788DF80C0006F0A0F82B498968E8
:10066000441A6420B4FBF0F19DF80C202748001DCB
:10067000805C401AC0B28DF80D002448C078012873
:1006800039D09DF80C0080B900BF214800680128CE
:1006900005DB9DF80D1077A00DF098FC04E09DF8A7
:1006A0000D107BA00DF092FC25E09DF80C000128B8
:1006B00010D100BF16480068012805DB9DF80D1019
:1006C00079A00DF083FC04E09DF80D107DA00DF0E5
:1006D0007DFC10E000BF0E480068012805DB9DF896
:1006E0000D107EA00DF072FC04E09DF80D1082A0AC
:1006F0000DF06CFC00BFFF208DF812005C48016813
:10070000834800680BF06DFE8FE70000E82E0020A4
:10071000000000205B494E464F5D0920BAECC2CC78
:10072000B5C6D7B4CCACB4EDCEF32CD6D8D0C2B3CA
:10073000F5CABCBBAF202564202578200D0A000037
:100740005B494E464F5D09BAECC2CCB5C6D7B4CCB6
:10075000ACB4EDCEF32CD6D8D0C2B3F5CABCBBAF87
:10076000202564202578200D0A0000005B494E46B4
:100770004F5D0920BAECC2CCB5C6B3F5CABCBBAF5D
:10078000CDEAB3C92025640D0A0000005B494E463E
:100790004F5D09BAECC2CCB5C6B3F5CABCBBAFCD90
:1007A000EAB3C92025640D0A000000005B494E46EB
:1007B0004F5D09206C6967687420256420746F742C
:1007C000616C5F7469636B732025640D0A0000001F
:1007D0005B494E464F5D096C69676874202564204B
:1007E000746F74616C5F7469636B732025640D0AA8
:1007F000000000007374756479206973206F6B0DBD
:100800000A00000072656420256420677265656EC9
:100810002025642079656C6C6F772025640D0A00B3
:100820005B494E464F5D0920BAECC2CCB5C6D7B481
:10083000CCACB4EDCEF32CD6D8D0C2B3F5CABCBB89
:10084000AF2025640D0A00005B494E464F5D09BA92
:10085000ECC2CCB5C6D7B4CCACB4EDCEF32CD6D864
:10086000D0C2B3F5CABCBBAF2025640D0A0000009E
:10087000280000205B494E464F5D0920BAECB5C602
:10088000CAA3D3E025303264C3EB0D0A0000000098
:100890005B494E464F5D09BAECB5C6CAA3D3E02505
:1008A000303264C3EB0D0A005B494E464F5D0920B0
:1008B000C2CCB5C6CAA3D3E025303264C3EB0D0A5F
:1008C000000000005B494E464F5D09C2CCB5C6CA68
:1008D000A3D3E025303264C3EB0D0A005B494E46DA
:1008E0004F5D0920BBC6B5C6CAA3D3E0253032642C
:1008F000C3EB0D0A000000005B494E464F5D09BB8B
:10090000C6B5C6CAA3D3E025303264C3EB0D0A00D6
:10091000200000201CB50121102002F005F84FF442
:100920000070009001208DF8040003208DF8050070
:100930006946044801F036FD4FF40071014801F0AA
:10094000ADFD1CBD0010024010B517201349C87042
:10095000012048700920887002200870012002F0F0
:1009600007FB00200E49C870102008702220487034
:1009700000208870012002F06CFA10BD10B5FFF75E
:10098000C9FF00F00FF800F023FD00F03FFA00F07F
:10099000E7FD00F08BFEFFF7D7FF10BD60000020E1
:1009A0005C00002008B500214FF0006000F05EFF01
:1009B0004FF4407000F020FF3D208DF80000002033
:1009C0008DF801008DF8020001208DF803006846C3
:1009D00000F017FF25208DF8000000208DF80100A1
:1009E00001208DF802008DF80300684600F009FF31
:1009F00026208DF8000000208DF8010001208DF8E0
:100A000002008DF80300684600F0FBFE27208DF8F9
:100A1000000000208DF8010001208DF802008DF803
:100A20000300684600F0EDFE14208DF800004FF43E
:100A3000407000F0E1FE00208DF8010001208DF8EB
:100A400002008DF80300684600F0DBFE08BD0000E0
:100A500010B5002807DA0A07140E724A00F00F03D7
:100A60001B1FD45403E00A07130E6F4A135410BD22
:100A700000B5AFB001214FF0606001F055FF0CF000
:100A8000CBFA0DF050F800BF0DF054F80128FBD060
:100A900068460CF0CCFA01200090002007904FF43B
:100AA00000700A9000200B900E90119013901490FB
:100AB00015904FF480600990002020904FF0007056
:100AC000219000112390002025902690042028904A
:100AD000C005299040122A9080012B9040122C9042
:100AE00040002E90012168460CF05BFB01214F482D
:100AF0000DF037F82FB000BD08B54FF4407000F08E
:100B00007BFE3D208DF8000000208DF801008DF85F
:100B1000020001208DF80300684600F072FE08BD57
:100B20001CB50121072001F0FFFE0121880301F01F
:100B30003FFF012002F0FDFE03208DF8050002209A
:100B40008DF8040000208DF806008DF8070086203F
:100B500000906946364801F025FC0B2201213448FB
:100B600001F0ABFC0B220221314801F0A6FC0B2264
:100B700007212F4801F0A1FC3220009069462D4842
:100B800001F010FC0B2201212A4801F096FC0B22F7
:100B90000421284801F091FC0B220521254801F091
:100BA0008CFC4FF4605000906946234801F0FAFB3A
:100BB0000B221146204801F080FC0B220C211E481C
:100BC00001F07BFC0B220D211B4801F076FC1CBDC3
:100BD0001FB5FFF7A5FFFFF78FFFFFF749FF684637
:100BE00001F00DFE64210098B0FBF1F4B4F1807FB8
:100BF00000D311E024F07F40401E4FF0E021486117
:100C00000F214FF0FF30FFF723FF00204FF0E021CE
:100C100088610720086100BF0121881EFFF718FFC7
:100C20001FBD000018ED00E000E400E040000100FE
:100C300000000240000802400004024000B587B0F6
:100C400007F064FF08F0CAF81F4806F0ABF80690FA
:100C50006FF0FF0006F0A6F805901C4806F0A2F819
:100C600004901B481B49002204ABCDE900210290EF
:100C700005AA06A9184808F05CF9174808F08BF98E
:100C8000154808F0D0F907B000BD10B512480CF0B7
:100C900079F910BD01B5114900980968401AFA2880
:100CA00004D30E490098086009F094F80C490098A4
:100CB0000968401A41F28831884204D308490098F3
:100CC00008600BF01EFC08BDFC08A8C00101A8C00C
:100CD000C7CD0008B1CF0008D82F002004000020A5
:100CE00008000020704700BFFEE700BFFEE700BF1E
:100CF000FEE700BFFEE7704770477047704710B5CA
:100D000003F056F904460C480078401C0A49087064
:100D1000204603F051F901E0FFF7B7FF0CF0D2FDD8
:100D20000028F9D140200CF033FF4FF480300CF054
:100D30002FFF03F0E4FD10BDA90000202DE9F041D4
:100D400004460D4616461F46DDF818802906F2B205
:100D500041EA0241FAB241EA022108F0FF0241EA07
:100D6000020006F01FF82060BDE8F08108B50022FF
:100D70001221032008F0C1F91749086017480968D3
:100D8000486064200823A822C02100901448FFF77F
:100D9000D5FF0BF08EFB1349086040F20642124962
:100DA000104800680BF06CFA40F207420C490D48FD
:100DB00000680BF020FB08BD00BF411E081EFCD1DF
:100DC000704770B504460D46294620460BF009FBD6
:100DD0000648FFF7F1FF70BD28000020100000203A
:100DE000240000202000002008E70008FFFF0F007B
:100DF00000BF704700BFFE4A128802F04002002A7E
:100E0000F9D0C2B2FA4B1B1D1A80704700B589B0E9
:100E10000121092001F088FD0121102001F0C8FD09
:100E2000F44802F09DFD03A802F04EFE01A802F076
:100E300067FE02208DF820008DF8210000208DF83B
:100E4000220001208DF823004002079007A9EA48FC
:100E500001F0A8FA07220921E74801F02EFB4FF420
:100E60008060079007A9E44801F09CFA07220A2154
:100E7000E14801F022FB01A9DE4802F031FE4FF407
:100E8000165003900020ADF81000ADF81200ADF838
:100E90001400ADF818000C20ADF8160003A9D548D1
:100EA00002F0ACFD012240F22551D24802F0E4FEEE
:100EB00040F22661CF4802F051FF0121CD4802F0F7
:100EC00025FE0121480401F062FDCC4802F048FDF6
:100ED00003A802F0F9FD01A802F012FE02208DF82D
:100EE00020008DF8210000208DF8220001208DF8CF
:100EF00023002020079007A9C14801F053FA0722D8
:100F00000521BF4801F0D9FA4020079007A9BC4845
:100F100001F048FA07220621B94801F0CEFA01A9EA
:100F2000B64802F0DDFD4FF4165003900020ADF8F6
:100F30001000ADF81200ADF81400ADF818000C2048
:100F4000ADF8160003A9AD4802F058FD012240F2A9
:100F50002551AA4802F090FE40F22661A74802F00F
:100F6000FDFE0121A54802F0D1FD102007900220CE
:100F70008DF8210001208DF8200007A9A04801F07C
:100F800011FA10219E4801F08BFA0121880401F02A
:100F9000FEFC974802F0E4FC03A802F095FD01A8CE
:100FA00002F0AEFD02208DF820008DF82100002017
:100FB0008DF8220001208DF823000002079007A978
:100FC0008F4801F0EFF9072208218D4801F075FAEA
:100FD0004FF40070079007A9894801F0E3F9072250
:100FE0000921874801F069FA01A9814802F078FDDA
:100FF0004FF4165003900020ADF81000ADF8120029
:10100000ADF81400ADF818000C20ADF8160003A9D7
:10101000774802F0F3FC012240F22551744802F0B7
:101020002BFE40F22661724802F098FE01217048C2
:1010300002F06CFD09B000BD10B5044621466D48B4
:1010400002F08FFD00BF80216A4802F03AFE0028BE
:10105000F9D010BD10B504462021664802F031FEDB
:1010600030B94FF40071674801F018FA002010BD44
:10107000604802F07AFD20700120F8E701B502E037
:101080000098401E009000980028F9D108BD70B566
:101090005D48008800F40040E0B15B4805785BA043
:1010A0000CF094FF00240DE05D48015D514802F012
:1010B00058FD00BF40214F4802F003FE0128F9D13E
:1010C000601CC4B2AC42EFDB56A00CF07FFF0020E6
:1010D0004D49088070BD70B55448008800F4004048
:1010E000B0B15248057800240DE05148015D4048F8
:1010F00002F037FD00BF40213D4802F0E2FD01282B
:10110000F9D1601CC4B2AC42EFDB00204749088033
:1011100070BD10B503F0DDFB40F22551354802F0FB
:10112000E6FD10B3334802F020FDC4B23648008813
:1011300000F40040C8B93448008800F4804060B131
:101140000A2C03D000203049088020E02E48008877
:1011500040F400402C49088019E00D2C06D12A48A3
:10116000008840F480402849088010E02648008824
:10117000C0F30D002A490C5423480088401C224922
:10118000088008460088C72801DD0020088003F099
:10119000B6FB10BD10B503F09CFB40F2255117487B
:1011A00002F0A5FD10B31548001D00882149224A10
:1011B0001268885420480068401C1F49086008468F
:1011C000006802280FD308460068801E1949085C91
:1011D0000D2808D118480068401E085C0A2802D172
:1011E0000120164908701448006829E02DE000002D
:1011F0000048004000100140000002400044004050
:10120000000C024000100240300000200D0AC4FA19
:10121000B7A2CBCDB5C4CFFBCFA2CEAA3A0D0A0060
:10122000103000200D0A0D0A0000000032000020DE
:10123000D8300020A03100203800002034000020E9
:10124000642802D900204549086040F227714448CB
:1012500002F04DFD20B140F22771414802F07EFDC1
:1012600003F04DFB10BD10B503F033FB40F22551E8
:101270003C4802F03CFD10B33A4802F076FCC4B2A0
:101280003948008800F40040C8B93748008800F4A5
:10129000804060B10A2C03D000203349088020E050
:1012A0003148008840F400402F49088019E00D2C97
:1012B00006D12D48008840F480402B49088010E07A
:1012C00029480088C0F30D0028490C54264800889E
:1012D000401C2549088008460088C72801DD0020F9
:1012E000088003F00CFB10BD00E0401E0028FCD17C
:1012F000704770B505460E46002410211C4801F0C9
:10130000CDF84FF49670FFF7EFFF00BF0BE0285DBC
:101310001349091D088000BF1148008800F04000F3
:101320000028F9D0641CB442F1D3C820FFF7DCFFD9
:1013300010210F4801F0B4F870BD10B50D480078C9
:1013400001280AD100200B490870044801680A48A6
:10135000FFF7CFFF00200149086010BD38000020D2
:10136000004400400048004032000020D8300020F7
:10137000000C024034000020A031002010B50246CD
:10138000002000BF20E000EB80036F4C54F82330B6
:10139000934218D100EB800304EB83031B79CB70DD
:1013A00000EB800304EB83031B7A0B7100EB8003DB
:1013B00004EB83031B7B4B7100EB800304EB830383
:1013C0001B8A0B8010BD401C1228DCD300BFF9E73C
:1013D00000B589B00121082001F0A6FA012007908C
:1013E00002208DF820008DF8210000208DF82200C9
:1013F00001208DF8230007A9544800F0D3FF0220F4
:10140000079007A9514800F0CDFF092200214F485D
:1014100001F053F8092201214C4801F04EF8012156
:10142000480601F0B4FA4A4800F056FA04A800F061
:1014300077FB00208DF816008DF817008DF8180046
:101440008DF819008DF81A008DF81B008DF8120028
:1014500004A9FA20FFF792FF04A93D4800F055FACD
:1014600000208DF80A008DF80B0001208DF80C008B
:101470000020ADF80000ADF80200ADF80400ADF8B2
:101480000600ADF8080001208DF80D00684600F058
:10149000C6FA012202212E4800F0C0FD09B000BDAD
:1014A00000B585B003F015FA0020009001908DF88A
:1014B00008008DF80A008DF813008DF80B006A46BD
:1014C0000021234800F08FFC0098222808D19DF8C5
:1014D0000B00BB2804D14FF400711E4800F0E0FF60
:1014E00001201D4908700221194800F09AFE03F0FE
:1014F00006FA05B000BDF0B585B005460E460027DA
:101500000095002001908DF808008DF80900082052
:101510008DF80A0011480670002406E00F48015DAE
:101520000DF10B000155601CC4B2082CF6DB6946B6
:10153000074800F063FB074605B0F0BD10B5AA21CF
:101540001120FFF7D8FF10BDA0E40008000C0240F6
:1015500000640040001002405800002050000020AD
:101560001CB501210C2001F0DFF94FF46050009010
:1015700001208DF8040003208DF8050069464948D4
:1015800000F010FF4FF48060009000208DF8040000
:1015900003208DF805006946424800F003FF4FF430
:1015A0006070009001208DF8040003208DF8050084
:1015B00069463D4800F0F6FE4020009000208DF87E
:1015C000040003208DF805006946374800F0EAFE64
:1015D0004FF40061334800F063FF4FF4805131480D
:1015E00000F05EFF4FF400512E4800F059FF4FF419
:1015F00000612D4800F054FF4FF480712A4800F03C
:101600004FFF4FF40071284800F04AFF1CBD70B531
:101610004FF48051234800F043FF4FF4805121489C
:1016200000F03CFF002514E04FF400511D4800F08D
:1016300037FF64004FF480611A4800F015FF08B1CD
:1016400044F001044FF40051164800F027FF681CD5
:10165000C5B2182DE8DB204670BD70B54FF480711F
:10166000114800F01DFF4FF480710F4800F016FF85
:10167000002513E04FF400710B4800F011FF6400E7
:101680004021094800F0F0FE08B144F001044FF495
:101690000071054800F002FF681CC5B2182DE9DB97
:1016A000204670BD000C02400008024010B5012128
:1016B000080701F06CF9012000F03FFF012001F064
:1016C00030F800BF612000F0CEFF0028FAD04FF4C0
:1016D000007001F003F9FF202E4908607F202E4999
:1016E0000860012001F015F901F05CFA2A48006851
:1016F0002A4948602748006888600020086008463A
:1017000001F00CFB0121080302F064F8012108023A
:1017100001F06DFD4FF4807002F09DF810BD08B52A
:101720001F49002001F0F7FB1D48807800901C48FD
:10173000437802781BA120480CF058FC08BD1CB56A
:101740001E49002001F079FC1C4800781B4989786B
:10175000CDE9001019484378C27819A124480CF04B
:1017600045FC1CBD00B58FB0342102A80CF089FBEC
:10177000204A4FF48071002001F000FD1D48807860
:1017800000901C484378027806A102A80CF02EFCB9
:101790000FB000BD6800002064000020043200206B
:1017A0005C00002025302E32643A25302E32643A17
:1017B00025302E326400000020320020600000201E
:1017C00020B5B1C7B0CAB1BCE4CAC7A3BA3230258C
:1017D000302E3264C4EA25302E3264D4C225302E35
:1017E0003264C8D5B5DA25302E3164D6DC0000006D
:1017F000523200201032002032490143324A116037
:10180000704770B5002100230F22C4781CB32E4C02
:10181000246804F4E064C4F5E064C4F30721C1F172
:101820000404E3B20A4144789C40E1B28478144055
:1018300021430C07210E254C05786155047804F0EE
:101840001F050124AC4005786D11AD0005F1E025C0
:10185000C5F8004109E0047804F01F050124AC40FC
:101860001B4D0678761145F8264070BD194A0A408E
:101870000243154B1B1F1A60704739B1124A121DE3
:1018800012680243104B1B1D1A6006E00E4A121D1F
:10189000126882430C4B1B1D1A607047042808D144
:1018A0004FF0E021096941F004014FF0E02211619D
:1018B00007E04FF0E021096921F004014FF0E02238
:1018C000116170470000FA050CED00E000E400E053
:1018D00080E100E080FFFF1F10B50446FE4884420F
:1018E00009D10121480601F0BAF800214FF000703B
:1018F00001F0B5F808E00121880601F0B0F80021F8
:101900004FF0806001F0ABF810BD30B5024600200A
:101910000023146824F002041460146844F00104E5
:10192000146000E05B1C546804F001041CB94FF61D
:10193000FF74A342F6D1546804F001040CB90020EE
:101940006CE08C79012C04D1146844F0800414609C
:1019500003E0146824F080041460CC79012C04D1D5
:10196000146844F04004146003E0146824F0400458
:1019700014600C7A012C04D1146844F02004146023
:1019800003E0146824F0200414604C7A012C04D184
:10199000146844F01004146003E0146824F0100488
:1019A00014608C7A012C04D1146844F0080414608B
:1019B00003E0146824F008041460CC7A012C04D1EC
:1019C000146844F00404146003E0146824F0040470
:1019D00014608C78A407CD7844EA05640D7944EA54
:1019E00005444D7944EA05540D886D1E2C43D4619D
:1019F000146824F001041460002300E05B1C5468A8
:101A000004F001041CB14FF6FF74A342F6D15468F0
:101A100004F001040CB1002000E0012030BD10B53D
:101A20000021837A012202FA03F1AC4A126842F0E3
:101A30000102AA4B1A60A94A1C3212688A43A74BBA
:101A40001C331A60027BCAB9A44A0C3212688A435A
:101A5000A24B0C331A604288C38842EA03439F4A70
:101A60004032847A42F834300288838842EA034361
:101A70009A4A4032847A02EBC4025360027B012A04
:101A800019D1964A0C3212680A43944B0C331A60EF
:101A90004288038842EA0343904A4032847A42F8FB
:101AA0003430C288838842EA03438C4A4032847AC5
:101AB00002EBC4025360C27A3AB9884A121D126816
:101AC0008A43864B1B1D1A6006E0844A121D126869
:101AD0000A43824B1B1D1A60028932B97F4A1432B5
:101AE00012688A437D4B14331A600289012A06D199
:101AF0007A4A143212680A43784B14331A60427BD4
:101B0000012A06D1754A1C3212680A43734B1C33F2
:101B10001A60724A126822F00102704B1A6010BDFE
:101B200000218171C171017241728172C172817033
:101B3000C1700321017102214171012101807047AF
:101B40006649096841F00101644A1160114609685B
:101B500043F60E729143614A11601146096841EAE9
:101B6000002111601146096821F0010111607047E0
:101B700021B1026842F48032026003E0026822F47C
:101B8000803202607047E1B1026842F08002026078
:101B90004FF4C272125842F480734FF4C272135061
:101BA0004FF4CA72125842F480734FF4CA72135041
:101BB0004FF4D272125842F480734FF4D272135021
:101BC0001BE0026822F0800202604FF4C2721258D9
:101BD00022F480734FF4C27213504FF4CA72125839
:101BE00022F480734FF4CA7213504FF4D272125819
:101BF00022F480734FF4D2721350704710B502462E
:101C00000020936803F08063B3F1806F00D110E08F
:101C1000936803F00063B3F1006F01D1012008E085
:101C2000936803F08053B3F1805F01D1022000E09C
:101C30000420042879D002F5C07303EB00131B685D
:101C400003F0010402F5C07303EB00131C600B7A70
:101C50007BB94B7A0C8843EA445302F5C07404EB19
:101C600000142468234302F5C07404EB00142360BD
:101C700010E00B7A4C6843EAC4034C7A234302F524
:101C8000C07404EB00142468234302F5C07404EB11
:101C9000001423608B7A03F00F038B7202F5C0737C
:101CA00003EB00135B6823F00F0402F5C07303EB32
:101CB00000135C6002F5C07303EB00135B688C7A61
:101CC000234302F5C07404EB001463608B7B1C0695
:101CD0004B7B44EA034403E000640040006600409C
:101CE0000B7B44EA0323CC7A234302F5C07404EB54
:101CF0000014A3608B7C1C064B7C44EA03440B7CE1
:101D000044EA0323CC7B234302F5C07404EB0014A4
:101D1000E36002F5C07303EB00131B6843F001049A
:101D200002F5C07303EB00131C6010BD10B5024632
:101D3000002321B1012907D002290FD109E09068C1
:101D4000F94C00EA04030BE09068F84C00EA040345
:101D500006E09068F64C00EA040301E0002300BFAF
:101D600000BFF44C181BA34216D007DC83B16FF000
:101D70008060184470B1022818D111E0B0F5007FDE
:101D800010D0ED4C204448B1B0F5003F0ED10BE02F
:101D900002230DE000230BE0002309E0002307E00D
:101DA000012305E0012303E0012301E0002300BF3C
:101DB00000BFD8B210BD21B1012907D002290FD12F
:101DC00009E0826842F0800282600AE0826842F4A0
:101DD0000042826005E0826842F40002826000E016
:101DE00000BF00BF704710B500F5D87303EB0113B7
:101DF0001B6803F004031372137A53B900F5D87308
:101E000003EB01131B6840F2FF7404EA53531360A1
:101E100009E000F5D87303EB01131B686FF0604411
:101E200004EAD303536000F5D87303EB01131B6876
:101E300003F00203537200F5D87303EB01135B68E0
:101E400003F00F03937200F5D87303EB01135B6883
:101E50001B0AD37400F5D87303EB01139B68D3728C
:101E600000F5D87303EB01139B681C0A147300F58B
:101E7000D87303EB01139B681C0C547300F5D873E3
:101E800003EB01139B681B0E937300F5D87303EBF0
:101E90000113DB68D37300F5D87303EB0113DB6820
:101EA0001C0A147400F5D87303EB0113DB681C0CD7
:101EB000547400F5D87303EB0113DB681B0E9374A5
:101EC00021B9C36843F02003C36003E0036943F012
:101ED0002003036110BD21B9C26842F02002C26034
:101EE00003E0026942F020020261704702460020CE
:101EF00019B9D36803F0030006E0012903D113697F
:101F000003F0030000E00020704710B502460B46C6
:101F100000204FF6FF71BBB9146824F0020444F0AE
:101F20000104146000E0491E546804F00304012C0D
:101F300001D00029F7D1546804F00304012C01D02A
:101F4000002032E0012030E0012B13D1146824F08E
:101F50000304146000E0491E546804F003040CB14B
:101F60000029F8D1546804F003040CB100201CE0EF
:101F700001201AE0022B17D1146824F0010444F068
:101F80000204146000E0491E546804F00304022CAB
:101F900001D00029F7D1546804F00304022C01D0C9
:101FA000002002E0012000E0002010BD01460020DA
:101FB0000A6822F0010242F002020A604A6802F056
:101FC0000302022A00D10120704701464FF6FF723A
:101FD00000200B6823F002030B6000E0521E4B68E8
:101FE00003F00203022B01D1002AF7D14B6803F062
:101FF0000203022B00D001207047014600208A69AD
:1020000002F070007047014600208A69100E704788
:10201000014600208A69C2F3074070471AB143693C
:102020000B43436102E043698B434361704710B542
:102030000246002001F4700343B19369C1F3130415
:1020400023400BB101202DE000202BE001F0807334
:1020500043B15368C1F3130423400BB1012021E0C5
:1020600000201FE001F0006343B19368C1F3130443
:1020700023400BB1012015E0002013E001F00073B4
:1020800043B1D368C1F3130423400BB1012009E02D
:10209000002007E01369C1F3130423400BB10120B2
:1020A00000E0002010BD0022244B994202D1002301
:1020B000836111E0C1F3130201F000730BB1C26040
:1020C0000AE001F080630BB1026105E001F00063FA
:1020D0000BB1826000E0426070470246002002EAD5
:1020E00001030BB1012000E00020704770B50446E9
:1020F0000D46002660692840002872D0B5F5807F23
:1021000069D01DDC082D42D006DC012D2DD0022D1A
:1021100031D0042D7FD134E0102D3ED0202D42D07F
:10212000402D78D145E000000300000400030008C2
:1021300000000310000100080001FFF77000F030FC
:10214000B5F5004F61D009DCB5F5007F4AD0B5F593
:10215000806F4DD0B5F5006F5DD150E0B5F5803F93
:102160002DD0B5F5003F56D12FE0A0685549FFF7B7
:10217000B4FF064651E0E0680321FFF7AEFF0646D4
:102180004BE0E0680821FFF7A8FF064645E0E0685D
:102190001021FFF7A2FF06463FE020690321FFF769
:1021A0009CFF064639E020690821FFF796FF0646A6
:1021B00033E020691021FFF790FF06462DE06068AC
:1021C0000821FFF78AFF064627E060681021FFF725
:1021D00084FF064621E0A0690121FFF77EFF064645
:1021E0001BE01BE0A0690221FFF777FF064614E021
:1021F000A0690421FFF771FF06460EE00BE0A0691D
:102200007021FFF76AFF064607E060680421FFF7C8
:1022100064FF064601E0002600BF00E000263046CD
:1022200070BDB1F5007F3AD00FDC202928D006DC44
:1022300001291CD004291DD0082940D11DE04029C6
:1022400021D0B1F5807F3AD126E0B1F5004F31D0F1
:1022500006DCB1F5806F25D0B1F5006F2FD124E0F9
:10226000B1F5803F12D0B1F5003F28D111E0154AF9
:10227000826025E00822C26022E01022C2601FE0D6
:10228000082202611CE01022026119E0082242606B
:1022900016E01022426013E00422426010E00422A3
:1022A00042600DE0042242600AE0002282610422C2
:1022B000426005E0002282610422426000E000BF2B
:1022C00000BF70470101010010B504468C488442EC
:1022D00008D10121084600F07CFB0021012000F01C
:1022E00078FB5EE08748844208D10121022000F09B
:1022F00070FB0021022000F06CFB52E08248844217
:1023000008D10121042000F064FB0021042000F02A
:1023100060FB46E07D48844208D10121082000F09E
:1023200058FB0021082000F054FB3AE07848844232
:1023300008D10121102000F04CFB0021102000F0FA
:1023400048FB2EE07348844208D10121202000F090
:1023500040FB0021202000F03CFB22E06E4884423C
:1023600008D10121402000F034FB0021402000F082
:1023700030FB16E06948844208D10121802000F03A
:1023800028FB0021802000F024FB0AE064488442FE
:1023900007D10121801500F01CFB0021A01500F0E1
:1023A00018FB10BDF0B50A4600210023002400BF31
:1023B0003DE0012505FA01F3156805EA03049C4296
:1023C00034D105684F000326BE40B543056015793A
:1023D0004E00B5400668354305601579012D02D0E1
:1023E0001579022D16D185684F000326BE40B543EE
:1023F000856055794E00B5408668354385604568EF
:1024000001268E40B5434560456896798E40B6B248
:1024100035434560C5684F000326BE40B543C560DF
:10242000D5794E00B540C6683543C560491C1029B2
:10243000BFD3F0BD4FF6FF71016000210171417102
:102440008171C171704708B54FF480320092009AD3
:102450000A430092009AC261C161009AC261C269D6
:102460000092C269009208BD0246002013690B4029
:102470000BB1012000E0002070470146086980B2DE
:1024800070470246002053690B400BB1012000E069
:10249000002070470146486980B270470183704749
:1024A000418370470AB1018300E041837047416175
:1024B000704742694A4042617047F0B500230024EA
:1024C0004D07ED0E02FA05F3CE1000F1200555F888
:1024D00026504E07F70E0F26BE40B543CF1000F131
:1024E000200646F82750CE1000F1200555F826505A
:1024F00045EA0304CE1000F1200545F82640F0BD62
:10250000000002400004024000080240000C0240AB
:10251000001002400014024000180240001C02405B
:102520000020024010B50121080700F098FA0021B0
:102530004FF0805000F093FA10BD354908627047A3
:1025400001460020334A106820F0E0000843106084
:1025500070472F49086170472D49A03108607047C6
:102560002B49A4310860704730B92A49096821F421
:102570008041284A116005E02649096841F48041FC
:10258000244A1160704722494862704710B50246DC
:102590000020204B186820F00300104318601E4BE9
:1025A0001B6843F004031C4C2360012901D130BF98
:1025B00000E020BF184B1B6823F00403164C236077
:1025C00010BD1448006840F0040012490860084635
:1025D000006840F0020008600F48006840F0040006
:1025E0000D49086000BF00BF30BF704701460020A2
:1025F000084A52680A400AB1012000E000207047F2
:102600000449096841EA8001024A116070470000EC
:1026100000000E420070004010ED00E0FA48006833
:1026200040F00100F84908600020F74908310860CF
:10263000F5480068F5490840F3490860F448091D69
:102640000860081F006820F48020091F086000202F
:10265000ED490C31086070470021EB4A921C117063
:1026600011460870704710B5014600220023002073
:102670004A11012A02D1E44C236808E0022A03D15E
:10268000E14C7034236802E0DF4C7434236801F0BD
:102690001F02012494401C400CB1012000E00020E6
:1026A00010BD38B5002000900024002500BF312067
:1026B000FFF7D9FF05460098401C00900098B0F540
:1026C000A06F01D0002DF2D03120FFF7CCFF08B170
:1026D000012400E00024204638BD01460020CA4AFB
:1026E000106820F0F80040EAC10010607047C94946
:1026F000086070470021C44A7032117011700128BF
:1027000002D004280AD104E00121BF4A70321170BE
:1027100005E00521BC4A7032117000E000BF00BF27
:102720007047BD490860704770B5049C41EA821546
:102730000126C6EB530645EA0645054345EA04650E
:10274000B14E361D356070BDB249086670478201D2
:1027500042EA0172AC4B84331A607047AD49886617
:102760007047AC49C864704702460020A64B083346
:10277000186820F0EC6042EA01031843A24B0833CA
:1027800018607047024600209F4B0833186820F0FD
:10279000784042EA010318439B4B083318607047A6
:1027A00001460020984A0832106820F003000843D0
:1027B0001060704794480830006800F00C007047C3
:1027C00001460020904A0832106820F0F0000843CB
:1027D00010607047014600208B4A0832106820F4D0
:1027E000E05008431060704701460020864A0832D6
:1027F000106820F4604040EAC10010607047F0B5F6
:102800000021002200240225002602237E4F0837E3
:102810003F6807F00C0121B1042905D0082937D100
:1028200005E07E4F076036E07D4F076033E0764F6E
:102830003F1D3F68C7F38056734F3F1D3F6807F049
:102840003F036EB1764FB7FBF3F7DFF8BCC10CF175
:10285000040CDCF800C0CCF3881C07FB0CF40CE083
:102860006E4FB7FBF3F7DFF8A0C10CF1040CDCF8F6
:1028700000C0CCF3881C07FB0CF4634F3F1D3F687E
:10288000C7F301477F1C7D00B4FBF5F7076002E04A
:10289000624F076000BF00BF5B4F08373F6807F01B
:1028A000F00109095F4F7A5C0768D7404760564FCF
:1028B00008373F6807F4E051890A5A4F7A5C476845
:1028C000D7408760504F08373F6807F46041490B95
:1028D000544F7A5C4768D740C760F0BD002100F4D0
:1028E0004072B2F5407F0AD1474A0832116821F49C
:1028F000F8114D4A02401143434A08321160424ADE
:1029000070321268C0F30B031A433F4B70331A60E6
:10291000704741494439086070473F494039086071
:10292000704742490860704739B1374A30321268FF
:102930000243354B30331A6006E0334A30321268B6
:102940008243314B30331A60704739B12E4A3432EA
:10295000126802432C4B34331A6006E02A4A3432A0
:1029600012688243284B34331A60704739B1264AC3
:10297000383212680243244B38331A6006E0224A88
:10298000383212688243204B38331A60704739B1AD
:102990001D4A4032126802431B4B40331A6006E066
:1029A000194A403212688243174B40331A6070470D
:1029B00039B1154A443212680243134B44331A604A
:1029C00006E0114A4432126882430F4B44331A60C6
:1029D000704739B10C4A1032126802430A4B103367
:1029E0001A6006E0084A103212688243064B103320
:1029F0001A607047E1B1044A143212680243024B74
:102A000014331A6019E0000000380240FFFFF6FEA0
:102A10001030002400004742800E47420024F4009A
:102A200040787D016C000020FFFCFF0F5C014742F5
:102A30005B4A126882435A4B1A60704739B1584A50
:102A4000121D12680243564B1B1D1A6006E0544AC1
:102A5000121D12688243524B1B1D1A60704739B118
:102A60004F4A0C32126802434D4B0C331A6006E099
:102A70004B4A0C3212688243494B0C331A60704740
:102A800039B1474A103212680243454B10331A607D
:102A900006E0434A103212688243414B10331A60F9
:102AA000704739B13E4A3C32126802433C4B3C33DA
:102AB0001A6006E03A4A3C3212688243384B3C3393
:102AC0001A60704739B1364A403212680243344BBB
:102AD00040331A6006E0324A403212688243304B7B
:102AE00040331A60704739B12D4A443212680243AC
:102AF0002B4B44331A6006E0294A44321268824361
:102B0000274B44331A60704739B1254A4C3212685A
:102B10000243234B4C331A6006E0214A4C321268C0
:102B200082431F4B4C331A60704739B11C4A5032F4
:102B3000126802431A4B50331A6006E0184A5032AA
:102B400012688243164B50331A60704739B1144AE9
:102B5000D21F12780243124BDB1F1A7006E0104A94
:102B6000D21F127882430E4BDB1F1A7070470C483D
:102B70006030006840F0807009496031086070473B
:102B800001460020064A083A12680A400AB10120AC
:102B900000E0002070470249891F0870704700005C
:102BA0001438024008B50022009200200021CA22F9
:102BB000F94B1A6053221A60F74A183A126822F049
:102BC000A002F54B183B1A6000BFF34A183A12688E
:102BD00002F02001009A521C0092009AB2F5003FC8
:102BE00001D00029F1D0EC4A183A126802F0200214
:102BF0000AB1012000E00020FF22E74B1A6008BD67
:102C000008B50022009200200021E34A183A126819
:102C100002F04002E2B9421EDF4B183B1A6000BFCF
:102C2000DD4A183A126802F04001009A521C0092E4
:102C3000009AB2F5803F01D00029F1D0D64A183A67
:102C4000126802F040020AB1012002E0002000E018
:102C5000012008BD38B50020009000240025CA20BE
:102C6000CD49086053200860FFF7CAFF00B947E06C
:102C70000020C9492439086042F20110091D08608A
:102C8000081D006800F00700091D086000BFC24869
:102C90001838006800F004040098401C0090009868
:102CA000B0F5803F01D0002CF1D0BB481838006847
:102CB00000F0040008B9002522E0B7481C3800687D
:102CC0000020B5491C3908604FF6FF70B249103931
:102CD0000860B248091F08600020AF490C3908603D
:102CE000091D0860091D0860AB4918390860AA4928
:102CF0001C310860FFF756FF08B9002500E00125E8
:102D0000FF20A5490860284638BDA3481838006848
:102D100020F08000A04918390860704730B504469B
:102D20000025CA209C49086053200860FFF768FF0F
:102D300000B91DE098481C38006820F04000964912
:102D40001C390860084600682168084392491C390C
:102D5000086091491439A068086008460068A18895
:102D600040EA01408C4914390860FFF7CEFF012585
:102D7000FF2089490860284630BD002101607F217D
:102D80004160FF218160704718B1FF21824A1160C4
:102D900004E0CA21804A116053211160704730B5A8
:102DA00004460025CA207C49086053200860FFF7CC
:102DB00027FF00B914E044B177481C38006840F0A0
:102DC000100075491C39086007E073481C3800681A
:102DD00020F0100070491C390860FFF796FF0125AC
:102DE000FF206D490860284630BDCA216A4A11603B
:102DF0005321116040B168491C39096841F0200134
:102E0000654A1C3A116007E063491C39096801F002
:102E1000DF01614A1C3A1160FF215F4A116070476F
:102E20000146002204E0501CC2B2A1F10A00C1B266
:102E30000A29F8DA100741EA10607047014600BF1E
:102E4000080900EB8000420001F00F001044C0B2FE
:102E500070472DE9F04105460C460026002755B97C
:102E60004D481C38006800F0400000B102E000202E
:102E7000E07000BF0EE048481C38006800F04000D9
:102E800020B12078FFF7DAFF064602E00020E0706C
:102E900000BF00BF55B120780004617840EA0120EE
:102EA000A1780843E17840EA014611E02078FFF775
:102EB000B7FF4FEA00486078FFF7B2FF48EA002802
:102EC000A078FFF7ADFF48EA0008E07848EA00463E
:102ED000CA203149086053200860FFF791FE08B905
:102EE00000270CE02E4830402B4924390860FFF7BA
:102EF0000CFFFFF757FE08B9002700E00127FF206D
:102F0000254908603846BDE8F0810021C170017094
:102F100041708170704770B506460C4600251E480A
:102F2000243800681E4900EA0105C5F305402070F9
:102F3000C5F30620607005F07F00A07005F48000E6
:102F4000000CE0705EB92078FFF778FF20706078A1
:102F5000FFF774FF6070A078FFF770FFA07070BD7E
:102F600000200D49091D08680B4920390968704780
:102F70002DE9F04105460C46002600274DB9607842
:102F800000F01000102804D1607820F010000A3002
:102F900060703DB90FE0000024280040FF007F0072
:102FA0007F7F7F006078FFF749FF0646A078FFF734
:102FB00045FF064600BF55B1E0780004617840EA5D
:102FC0000120A1780843217840EA413611E0E078F9
:102FD000FFF726FF4FEA00486078FFF721FF48EA35
:102FE0000028A078FFF71CFF48EA0008207848EA8C
:102FF0004036CA20F949086053200860FFF700FEF8
:1030000008B900270CE0F6483040F4492039086040
:10301000FFF77BFEFFF7C6FD08B9002700E0012798
:10302000FF20EE4908603846BDE8F08101210170BB
:10303000817041700021C170704770B506460C4622
:103040000025E64820380068E54900EA0105280C1B
:10305000E070C5F30420607005F03F00A070C5F378
:10306000423020705EB9E078FFF7E8FEE0706078EB
:10307000FFF7E4FE6070A078FFF7E0FEA07070BD7F
:103080002DE9F04105460E46144600276DB9D34898
:103090001C38006800F0400000B102E00020E07041
:1030A00000BFA06800B91AE019E0CC481C380068DD
:1030B00000F0400020B12078FFF7C0FE074602E094
:1030C0000020E07000BFA06820B9207BFFF7B6FEAB
:1030D000074604E0207BFFF7B1FE074600BF95B12D
:1030E00020780004617840EA0120A1780843E17863
:1030F00040EA0140217B40EA0160A1680843616821
:1031000040EA01071BE02078FFF78AFE4FEA0048FB
:103110006078FFF785FE48EA0028A078FFF780FE78
:1031200048EA0008E07848EA0048207BFFF778FE8C
:1031300048EA0060A1680843616840EA0107CA20C4
:10314000A649086053200860B6F5807F03D1A348E4
:103150000838076002E0A148001F0760FF209F4970
:103160000860BDE8F0810021C1700170417081707C
:103170008160012101730021416070472DE9F04118
:1031800006460F4614460025B7F5807F03D19348C5
:103190000838056802E09148001F0568C5F305403E
:1031A0002070C5F30620607005F07F00A07005F464
:1031B0008000000CE070C5F30560207305F08040CE
:1031C000A06005F0803060607EB92078FFF736FEA1
:1031D00020706078FFF732FE6070A078FFF72EFE57
:1031E000A070207BFFF72AFE2073BDE8F08138B580
:1031F00002460024009400230020CA24774D2C604E
:1032000053242C6041B1754C1C3C24681443734D0D
:103210001C3D2C6001201EE0704C1C3C2468944333
:103220006E4D1C3D2C6000BF6C4C183C246804EAB9
:103230001223009C641C0094009CB4F5803F01D0D4
:10324000002BF1D0654C183C246804EA12240CB918
:10325000002000E00120FF24604D2C6038BD30B517
:103260000023CA245D4D2C6053242C6041EA0203E4
:10327000B0F5807F03D1594C2034236002E0574CD5
:1032800024342360FF24554D2C6030BD01460020BE
:10329000B1F5807F05D1514A20321268C2F30E0089
:1032A00004E04E4A24321268C2F30E007047CA216D
:1032B0004A4A11605321116048491C39096821F0BC
:1032C0000701464A1C3A1160114609680143116022
:1032D000FF21424A11607047CA21404A11605321C0
:1032E00011603E4910390860FF21116070473B486A
:1032F0001038006880B2704718B50146002300936B
:1033000000220020CA23354C23605323236049B197
:10331000324B1C3B1B6843F48063304C1C3C2360E5
:1033200001201FE02D4B1C3B1B6823F480632B4CBA
:103330001C3C236000BF294B183B1B6803F00402B0
:10334000009B5B1C0093009BB3F5803F01D0002ADB
:10335000F1D0224B183B1B6803F004030BB900208B
:1033600000E00120FF231D4C236018BDCA221B4B27
:103370001A6053221A60194A1C3A126822F48022F9
:10338000164B1C3B1A601A46126840EA01031A43A6
:10339000124B1C3B1A60FF22104B1A6070470F48FB
:1033A0001C38006800F480207047CA220B4B1A605A
:1033B00053221A60094A1C3A126822F4E002074BB1
:1033C0001C3B1A601A46126840EA01031A43034B79
:1033D0001C3B1A60FF22014B1A60704724280040F2
:1033E0003FFFFF0070B504460D460026CA20F6498F
:1033F000086053200860FFF703FC00B907E044EAC7
:103400000500F1490C390860FFF77FFC0126FF2019
:10341000ED490860304670BD30B504460025CA202D
:10342000E949086053200860FFF7EAFB00B914E09F
:1034300044B1E5481C38006840F08000E2491C397E
:10344000086007E0E0481C38006820F08000DE4992
:103450001C390860FFF759FC0125FF20DA49086094
:10346000284630BDCA21D84A11605321116040B1AD
:10347000D5491C39096841F40001D34A1C3A11604E
:1034800007E0D1491C39096821F40001CE4A1C3AF1
:103490001160FF21CC4A11607047CA21CA4A1160ED
:1034A00053211160C8491C39096821F40021C64A1A
:1034B0001C3A11601146096801431160FF21C24A9C
:1034C0001160704770B5034600200024CA25BE4E27
:1034D000356053253560BC4D183D2D6805F48035A9
:1034E00055B100E0641CB84D183D2D6805F48035D9
:1034F00015B1B4F5003FF5D1B34D183D2D6805F475
:1035000080353DB943EA01051543AF4E18363560A5
:10351000012000E00020FF25AB4E356070BD10B5E6
:103520000A460021A84B1C3B1B6840F6080423EA0E
:1035300004011AB140F40063194300E00143CA23B7
:10354000A14C2360532323609F4B1C3B1960FF2336
:10355000236010BD2DE9F04180460C46154600263B
:10356000002799480C300068984900EA01069648FF
:1035700010300068964900EA0107C6F30540207044
:10358000C6F30620607006F07F00A07006F480008D
:10359000000CE0700020E870C7F30420687007F0AA
:1035A0003F00A870C7F342302870B8F1000F17D160
:1035B0002078FFF743FC20706078FFF73FFC6070D5
:1035C000A078FFF73BFCA0706878FFF737FC6870C5
:1035D000A878FFF733FCA8702878FFF72FFC287035
:1035E000BDE8F081784814300068704741B9764AE8
:1035F0001C32126822EA4002734B1C331A6007E047
:10360000714A1C32126842EA40026F4B1C331A6046
:10361000704739B16C4A1C32126802436A4B1C3342
:103620001A6006E0684A1C3212688243664B1C33FB
:103630001A60704764491C31096821F4C051624A1C
:103640001C321160114609680143116070475E49E0
:103650001C31096821F4E0615B4A1C32116011469B
:10366000096801431160704757491C31096821F40A
:10367000C041554A1C32116011460968014311606E
:10368000704740B150491C31096841F080014E4AF1
:103690001C32116007E04C491C31096821F080019F
:1036A000494A1C321160704740B147491C310968D2
:1036B00021F40041444A1C32116007E042491C31A8
:1036C000096841F40041404A1C321160704708B556
:1036D000002200923C4A2C320092009A02EB8002B7
:1036E0000092009A116008BD08B5014600200090C4
:1036F00035482C300090009800EB81000090009835
:10370000006808BD30491C31096821F480312E4A17
:103710001C321160114609680143116070472A4943
:103720001C31096821F40031274A1C32116011460E
:10373000096801431160704723491C31096821F46D
:103740008021214A1C321160114609680143116031
:103750007047F0B504460D4600270026CA201A49D6
:1037600008605320086018481838006800F0080006
:1037700050B100E0761C14481838006800F00800CA
:1037800010B1B6F5805FF5D10F481838006800F029
:10379000080098B90C481C38006800F0100058B9AF
:1037A00045EA0400084908310860FFF7FBF908B949
:1037B000002704E0012702E0002700E00027FF20A7
:1037C000014908603846F0BD242800407F7F7F0013
:1037D0003FFFFF00CA223E4B1A6053221A6091B18C
:1037E0003B4A1C3A126820F004031A43384B1C3B36
:1037F0001A60374A1C32126800F004031A43344B33
:103800001C331A6011E0324A1C3A126820F004039B
:103810009A432F4B1C3B1A602D4A1C32126800F051
:1038200004039A432A4B1C331A60FF22284B1A6068
:10383000704710B5014600200022254B183B1B683D
:1038400043F6777403EA040202EA01030BB1012094
:1038500000E0002010BD81B241F080011C4A183AFE
:10386000126802F0800262EA0101194A183A1160F6
:10387000704730B50146002000220023144C1C3450
:10388000246804F00402124C1C3C24680C4002EA38
:10389000D13544EA05030E4C183C246804EA1112A1
:1038A0001BB194B20CB1012000E0002030BD00211A
:1038B00001098AB242F08002054B183B1B6803F0F5
:1038C000800363EA0202024B183B1A607047000053
:1038D0002428004010B501218803FFF7D1F800210A
:1038E0004FF48040FFF7CCF810BD1A4908607047CC
:1038F00030B500228B071C0F0F2303FA04F2154B7F
:1039000008338C1053F824309343124C08348D1034
:1039100044F8253023468C1053F824308C07240FAC
:1039200000FA04F423430B4C08348D1044F825307E
:1039300030BD094908607047084908607047002099
:1039400004492031096801F4807109B1012000E0C7
:103950000020704700380140DC0027420004274265
:1039600010B50446F748844208D101211020FFF722
:1039700087F800211020FFF783F83EE0F2488442E8
:1039800009D101214804FFF76AF800214FF4003003
:10399000FFF765F831E0ED48844209D10121880440
:1039A000FFF75DF800214FF48020FFF758F824E07E
:1039B000E748844209D10121C804FFF750F80021EB
:1039C0004FF40020FFF74BF817E0E248844209D19A
:1039D00001210805FFF743F800214FF48010FFF79D
:1039E0003EF80AE0DC48844207D101212020FFF79D
:1039F00047F800212020FFF743F810BD2DE9FF47CD
:103A000005460E460024A14600BFA046B08900B17D
:103A100000BF2C8A24F44054F08804432C82AC89E3
:103A200041F20C608443B0883189084371890843AE
:103A30000443AC81AC8A24F44074B0890443AC8262
:103A40006846FEF7DCFEBF48854202D0C248854288
:103A500002D1DDF80C9001E0DDF80890A88900F4AF
:103A6000004040B109EBC90000EB09103168490082
:103A7000B0FBF1F707E009EBC90000EB0910316872
:103A80008900B0FBF1F76420B7FBF0F004012009D6
:103A9000642101FB1078A88900F4004040B1322075
:103AA00000EBC800B0FBF1F000F00700044308E0B1
:103AB000322000EB08106421B0FBF1F000F00F00A1
:103AC00004432C81BDE8FF874FF4165101600021AB
:103AD0008180C18001810C21418100218181704759
:103AE00010B502460020108A20F470600B884C88C4
:103AF00023438C882343CC8823431843108210BD72
:103B00000021018041808180C180704721B182897C
:103B100042F40052828104E082894DF6FF731A401C
:103B200082817047028B02F47F420283028B0A4338
:103B30000283704721B1828942F40042828103E00E
:103B40008289C2F30E028281704721B1828A42F4D7
:103B50000062828204E0828A4FF2FF731A408282FE
:103B60007047C1F308028280704701468888C0F31D
:103B700008007047028A4FF6F0731A400282028AE8
:103B80000A430282704721B1828942F00202828197
:103B900004E082894FF6FD731A4082817047828962
:103BA0004FF2FF731A40828182890A4382817047F3
:103BB000028A4FF6DF731A400282028A0A430282A7
:103BC000704721B1028A42F48042028204E0028AF4
:103BD0004BF6FF731A4002827047818941F0010160
:103BE0008181704721B1828A42F00802828204E01A
:103BF000828A4FF6F7731A4082827047028BD2B2E4
:103C00000283028B42EA01220283704721B1828A39
:103C100042F02002828204E0828A4FF6DF731A406B
:103C20008282704721B1828A42F01002828204E0CF
:103C3000828A4FF6EF731A4082827047828A4FF66B
:103C4000FB731A408282828A0A438282704721B1C2
:103C5000828A42F00202828204E0828A4FF6FD7379
:103C60001A40828270471AB1838A0B43838202E032
:103C7000838A8B4383827047F0B503460024002675
:103C80000025002040F66A17B94200D100BF18464F
:103C9000C1F3421401F01F06012707FA06F5012CB3
:103CA00001D10C3004E0022C01D1103000E01430BE
:103CB0001AB107682F43076002E00768AF43076047
:103CC000F0BD02460020B1F5007F00D100BF13888F
:103CD0000B400BB1012000E00020704701F400729E
:103CE000B2F5007F00D100BFCA430280704770B5B3
:103CF0000246002400230025002040F66A16B14247
:103D000000D100BFC1F3421501F01F03012606FADE
:103D100003F3012D02D19689334006E0022D02D132
:103D2000168A334001E0968A33400C12012606FAC7
:103D300004F41688344013B10CB1012000E00020D7
:103D400070BD0000001001400044004000480040E9
:103D5000004C0040005000400014014010B500220B
:103D6000002340F66A14A14200D100BF0A120124C8
:103D70009440A3B2DC43048010BD00000648804795
:103D800006480047FEE7FEE7FEE7FEE7FEE7FEE740
:103D9000FEE7FEE7FEE7FEE77D3E0008890100083A
:103DA0000CB50020019000907648006840F4803007
:103DB0007449086000BF7348006800F40030009048
:103DC0000198401C0190009818B90198B0F5A06FB7
:103DD000F1D16C48006800F4003010B1012000906F
:103DE00001E0002000900098012846D1654840304D
:103DF000006840F0805063494031086062480068C4
:103E000040F48040604908605E48083000685D49C1
:103E1000083108600846006840F400400860084621
:103E2000006840F4A05008605848091F0860081F47
:103E3000006840F08070091F086000BF51480068AA
:103E400000F000700028F9D040F205605049086089
:103E50004C480830006820F003004A4908310860E7
:103E60000846006840F00200086000BF454808307E
:103E7000006800F00C000828F8D10CBD10B54548CA
:103E8000006840F47000434908603E48006840F014
:103E900001003C49086000203A490831086039486F
:103EA00000683D490840374908603C48091D0860E2
:103EB000081F006820F48020091F08600020314995
:103EC0000C310860FFF76CFF4FF00060314980391A
:103ED000086010BD70B500200022022300240221DA
:103EE000284D08352D6805F00C0020B1042806D0B7
:103EF000082834D107E02A4D2A4E356033E02A4D98
:103F0000284E35602FE01F4D2D1D2D68C5F38054C0
:103F10001C4D2D1D2D6805F03F0154B1224DB5FB00
:103F2000F1F5184E361D3668C6F3881605FB06F205
:103F300009E01B4DB5FBF1F5124E361D3668C6F390
:103F4000881605FB06F20F4D2D1D2D68C5F30145A2
:103F50006D1C6B00B2FBF3F5124E356003E0104DA3
:103F6000104E356000BF00BF064D08352D68C5F303
:103F700003150E4E705D0B4D2D68C540094E356022
:103F800070BD000000380240007000401954400528
:103F9000003C024088ED00E0FFFFF6FE10300024F8
:103FA0000024F4007C00002040787D018000002087
:103FB000EFF3108072B6704780F310887047254881
:103FC0004FF0FF010170002080F309882248012191
:103FD000017022484FF08051016062B6FEE71F4831
:103FE0004FF08051016070471C484FF080510160D4
:103FF000704772B6EFF3098050B1A0F1200080E85D
:10400000F00FA0F1400080EC108B154909680860A2
:1040100000B5144880475DF804EB134813490A784B
:1040200002700F4812490A680260106890EC108B09
:1040300000F1400090E8F00F00F120002EF0100E8B
:1040400080F309884EF0040E62B6704772B670476E
:1040500062B6704722ED00E0B600002004ED00E0FB
:10406000BC00002061410008AB000020AC00002033
:10407000C400002010B5FFF7E9FF10BD10B5FFF731
:10408000E7FF10BD70477047704770477047F0B545
:1040900004460D461046CC260660DD27061F304636
:1040A0003760002105E04FF0AA37061F3046376021
:1040B000491C1029F7D34FF08077061F3046376030
:1040C000061F304634603A4F061F304637604FF0C7
:1040D0001237061F304637604FF00337061F304651
:1040E00037604FF00237061F304637607F10061FDB
:1040F00030463760061F304635604FF01137061FD7
:10410000304637604FF01037061F304637604FF0AB
:104110000937061F304637604FF00837061F304614
:1041200037604FF00737061F304637604FF00637CD
:10413000061F304637604FF00537061F30463760A0
:104140004FF00437061F30463760002105E04FF07E
:10415000BB37061F30463760491C1029F7D3F0BD26
:104160007047704710B5FFF723FF044611480078E9
:10417000401C104908702046FFF71EFF00F0B9FCF4
:1041800000F0BDFB10BD411E4FF0E0225161FF2148
:10419000094A11704FF0E021096941F005014FF023
:1041A000E02211611146096941F002011161704775
:1041B00023660008A900002023ED00E0014600204E
:1041C00002E0491C421CD0B20A78002AF9D170479B
:1041D0002DE9F04105460E4614460027FA480078BE
:1041E00020B1112020700020BDE8F081287801283E
:1041F00008D0022807D0032802D0042804D100E008
:1042000000BF00BF00BF03E0012020700020EBE7EB
:1042100000BFFFF7CDFE0746686930603068FFF7E2
:10422000CDFF80463846FFF7C7FE0020207040468D
:10423000DAE72DE9F04105460E4614460027E2482C
:10424000007818B112202070BDE8F081287801288C
:1042500008D0022807D0032802D0042804D100E0A7
:1042600000BF00BF00BF02E001202070ECE700BFEC
:10427000FFF79EFE07466E613846FFF79DFE002061
:10428000207000BFE0E7F0B5024612F8384F95788D
:104290005678383A0B4618680FE000F10B073F5D7F
:1042A000B74300F10B0C0CF8047067463F5D17B97B
:1042B000877AAF4387721B1D18680028EDD1F0BDC7
:1042C000C249C34A1278885CC249095CBF4A515C42
:1042D00001EBC001C04A1170704710B50024FFF710
:1042E00067FE0446B8480078F8B9BC480078E0B9E1
:1042F000FFF7E6FFBA48B849097850F82100B949F4
:104300000860B5480078B849097888420DD0B548AA
:104310000068C06B401CB3490968C863B3480068B3
:10432000401CB2490860FFF75AFE2046FFF744FEE2
:1043300010BD70B501460024AD4D2D68EC61AC4C4C
:10434000246821620B4618681BE0A94C246894F885
:10435000385000F10B04645DA54D2D6895F8395077
:104360002C43A34D2D6895F8386000F10B05AC5532
:10437000847A9F4D2D6895F83A502C4384721B1D0A
:1043800018680028E1D19A4C246894F83820914CA0
:10439000A45C974D2D6895F83950AC438D4DAC54C5
:1043A0002C46A45C44B9924C246894F83A50884C4A
:1043B0002478AC43864D2C7070BD2DE9FF4F83B03F
:1043C00081460E461546DDF84080002000903060A2
:1043D000CA46DAF8004018E02078062807D2DFE85D
:1043E00000F00604050307080AE009E008E000BF42
:1043F00000BF012088F80000002007B0BDE8F08F62
:1044000000BF0AF1040ADAF80040002CE4D16E483B
:10441000007820B1022088F800000020EDE76F4806
:10442000007820B10D2088F800000020E5E7FFF7B4
:10443000BFFD00900020029083460190CA46DAF842
:1044400000405DE02078062849D2DFE800F04817F8
:104450002A03494A208960B12089401E208110C664
:1044600001200290002001C50BF101001FFA80FB22
:1044700003E0019840F0010001903CE0606858B111
:10448000606801C50020606010C6012002900BF139
:1044900001001FFA80FB03E0019840F00200019048
:1044A00029E06768F88AA8B13969081D3861086889
:1044B00001C5B9683869884201D178683861F88ADD
:1044C000401EF88210C6012002900BF101001FFA75
:1044D00080FB03E0019840F0040001900BE000BF76
:1044E00000BF0098FFF768FD00203060012088F8C9
:1044F0000000584681E700BF0AF1040ADAF80040DC
:10450000002C9FD10298012809D10020306000982A
:10451000FFF752FD002088F8000058466DE7344848
:10452000006890F83400019941F080010843304957
:10453000096881F8340000202D49096881F83500A8
:104540002B490698096808634846FFF7F2FE009871
:10455000FFF732FDFFF7C1FEFFF72AFD0090244868
:10456000006890F8350020B101281BD0022818D12E
:1045700000E000BF1E480068C4693CB110C60020BE
:1045800030600BF101001FFA80FB09E0012018499F
:10459000096881F83500494615480068FFF773FE41
:1045A00006E000BF494612480068FFF76CFE00BFF6
:1045B00000BF0F48006890F83500D8B1012842D0FC
:1045C00002283FD138E00000A900002008E60008DA
:1045D000AD000020AE000020AC000020AA000020AA
:1045E000C4370020C4000020AB0000209000002051
:1045F000BC000020207806280DD2DFE800F00C0671
:1046000007030D0E002001C511E000BFF748006848
:10461000406A01C50BE000BF00BF0098FFF7CCFC6B
:1046200000203060012088F800005846E5E600BF11
:10463000002088F800000CE0002001C50E2088F85A
:10464000000006E000BF002001C50A2088F8000035
:1046500000BF00BF0020E549096881F83400E34944
:10466000096881F83500E1490968C861DF490968CE
:104670000862DE49096848620098FFF79DFC5846C9
:10468000BBE67CB5002514E06946284601F0D5FE5E
:10469000064666B9D64850F8254044B1012C06D0EC
:1046A000D4E9020100EB8100A0640198E064681C79
:1046B000C5B23F2DE8D97CBD002402E0142001F0F2
:1046C000C5FFCC4800780028F8D0CB4800686421AA
:1046D000B0FBF1F0C84908600846006828B900201E
:1046E000C6490870FF2001F0EAFE00BFFFF760FC3A
:1046F0000446C3480068C34908600020C0490860F8
:104700002046FFF759FCBF480068BB490968B0FB69
:10471000F1F0C0F16400B9490870FFF7B7FCFFF78A
:10472000B0FF0A2001F092FFE0E700B587B0032058
:1047300000218022B44BCDE90132CDE903104FF6C0
:10474000FE703E23B14A0090AFF2930001F087FC67
:1047500006AAAFA13E2001F0F2FD07B000BD002483
:1047600000BFFFF725FC0446A5480068401CA4498B
:1047700008602046FFF720FCFFF786FCF1E700B554
:1047800087B0032000218022A54BCDE90132CDE97D
:1047900003104FF6FF703F23A24A0090AFF2410092
:1047A00001F05DFC06AAA0A13F2001F0C8FD07B002
:1047B00000BD04E0002200F8012B4A1E91B200293E
:1047C000F8D1704730B5F0219B48FFF7F2FF9A4BC4
:1047D00003F11805002408E0002018705D6097A020
:1047E000586118331835601C84B2092CF4D30020AA
:1047F0001870586091A058618F489149086030BD89
:1048000030B54FF4F2618F48FFF7D3FF4FF480715A
:104810007748FFF7CEFF8B4B03F15805002406E0E5
:104820005D6186A0186558335835601CC4B2152CDC
:10483000F6D30020586181A01865002082490860E5
:1048400080488249086030BD0022814B1A7081493E
:10485000002004E0002201F8012B421CD0B20828FD
:10486000F8D300227C4B1A707C4B1A707C4B1A6078
:104870005E4B1A60704700207A4908607A490870D8
:104880007A4908707A4908707A4908707A4908604C
:104890005B4908605B4908605749086055490870E2
:1048A000704710B5FFF7E6FBFFF7E5FFFFF7CCFF1A
:1048B000FFF7A6FFFFF786FF00F0B2FE00F099FFBA
:1048C00001F095FAFFF75BFFFFF72FFFFFF7D6FB2D
:1048D00010BD10B50024FFF76BFB04466548007857
:1048E000012808D160480078FF2804D25E4800788B
:1048F000401C5D4908702046FFF75EFB10BD10B5F7
:1049000000245C480078012830D1FFF751FB0446B1
:104910005548007820B154480078401E524908702C
:1049200051480078F8B951480078E0B9FFF7C8FC61
:104930002F484A49097850F82100494908604748FA
:1049400000784549097888420DD045480068C06B19
:10495000401C43490968C86347480068401C4649F1
:104960000860FFF741FB2046FFF726FB10BD10B59E
:10497000002440480078012811D1FFF719FB0446B4
:104980003948007840B939480078FF2804D23748C0
:104990000078401C354908702046FFF70DFB10BD1C
:1049A00010B500243348007801286AD1FFF700FBD6
:1049B00004462E480078C0B12C480078401E2B4990
:1049C00008700846007860B92748007828B9204662
:1049D000FFF7F2FAFFF781FC53E02046FFF7ECFA0D
:1049E0004FE02046FFF7E8FA4BE047E0BC0000202C
:1049F000C4370020A8000020A00000209C00002058
:104A0000B8000020A4000020C4330020C0350020DE
:104A100075432F4F532D4949205374617400000092
:104A2000C4350020C037002075432F4F532D49490E
:104A30002049646C65000000843200203F000000C3
:104A400094000020C4380020C8000020C0000020CE
:104A5000AD000020AE000020AB000020AC00002024
:104A6000C4000020D8000020A9000020AA000020D7
:104A7000B7000020B6000020900000202046FFF77D
:104A80009BFA10BD10B5E948007890B9FFF718FC03
:104A9000E7480078E7490870E748E549097850F8A1
:104AA0002100E649086008460068E5490860FFF70C
:104AB00086FA10BD10B50024022001F0C7FDFFF7F3
:104AC00077FA04460020DF4908602046FFF774FAB1
:104AD0000A2001F0BBFDFFF76BFA0446D9480068D5
:104AE000D94908600120D94908702046FFF764FAC7
:104AF00010BD70B50026FFF75BFA0646D448006883
:104B0000401CD34908603046FFF756FAC748007882
:104B1000012853D1CF48007820B1012804D00228C1
:104B200009D103E001250BE0002509E00125012062
:104B3000C849087004E001250020C649087000BF7C
:104B400000BF05B970BDC448046833E0FFF730FA10
:104B50000646206B50B3206B401E2063206B28BBA1
:104B600094F8340000F0370040B114F8340F20F00E
:104B70003700207001206070343C02E0002084F88F
:104B8000350094F8340000F0080078B93834A07883
:104B9000B24909780843B14908702078B049085CE7
:104BA0006178084314F83819AD4A505464693046A6
:104BB000FFF702FA94F836003F28C7D100BFC1E7DB
:104BC00040F221107047704710B590F8382001F17D
:104BD0000B039B5C90F83940A34301F10B04A354F1
:104BE00023469B5C23B98B7A90F83A40A3438B729F
:104BF00010BD2DE9F04F05460F4690469946A87A1C
:104C000098490E5C05F10B00805D11F800B00BEBCC
:104C1000C60000F0FF0A884850F82A4000202434DB
:104C2000E0602760207C20EA0800207484F811905E
:104C3000207C243C00F0080068B994F83A008749C9
:104C400009780843854908708548805D94F83910D3
:104C500008438349885529462046FFF7B5FF206A57
:104C600020B12046216AFFF70EFBE5615046BDE802
:104C7000F08F10B5724A1268D061714A126892F8CA
:104C8000383000F10B02D25C6D4B1B6893F8393061
:104C90001A436B4B1B6893F8384000F10B031A550D
:104CA000827A674B1B6893F83A301A438272644ADF
:104CB000126892F838106A4A525C614B1B6893F88C
:104CC00039309A43664B5A541A46525C42B95C4A90
:104CD000126892F83A30614A12789A435F4B1A7020
:104CE00010BD0023837200F10B01002204E00023B9
:104CF00001F8013B531CDAB2082AF8D3704705E0EB
:104D000011F8013B00F8013B531E9AB2002AF7D17B
:104D100070472DE9F84F05460F4690469946DDE964
:104D20000AAB00200090FFF743F900904E4804685A
:104D3000002C76D01C3454F8080C4B4908600098BD
:104D4000FFF73AF944F81C7CA576002020766076BF
:104D5000606144F818BC44F810AC44F8148C0C980A
:104D600024F80C0C24F80A9C0020E077E810207747
:104D700005F00700E076217F01208840A077E17EE2
:104D8000012088406077002020606060E060A060C3
:104D90002062A0626062E0622063AFF26030606314
:104DA0001C3C002606E0002104F1540040F82610C7
:104DB000701CC6B2002EF6D02046FFF7D2F920466E
:104DC000FFF760F9FFF7F4F800901B4840F8254022
:104DD0002148006860610020A0611F48006810B190
:104DE0001D48006884611C4804603834A0781B4961
:104DF000097808431949087020781949085C6178D6
:104E0000084314F83819164A505418480078401CC2
:104E1000164908700098FFF7CFF80020BDE8F88F1A
:104E2000FFE70098FFF7C8F84220F7E7B600002038
:104E3000AC000020AB000020C4370020C4000020DC
:104E4000BC000020B8000020A0000020A800002026
:104E5000D8000020CC000020C8000020AD000020B9
:104E6000AE00002008E60008C0000020B7000020C7
:104E70002DE9F05F04460F4691461E464FF0000BA9
:104E80002078052804D0012030700020BDE8F09F74
:104E900009F0800ABAF1000F04D029F080094FF020
:104EA000010801E04FF0000800203070FFF780F8A3
:104EB0008346B9F1000F2CD0B9F1010F3BD0B9F105
:104EC000020F03D0B9F1030F46D111E0208900EAA7
:104ED0000705BD4206D1B8F1010F05D12089A843CD
:104EE000208101E0702030705846FFF765F83AE005
:104EF000208900EA070535B1B8F1010F05D12089F5
:104F0000A843208101E0702030705846FFF754F824
:104F100029E0208927EA0005BD4206D1B8F1010F3A
:104F200005D120892843208101E070203070584647
:104F3000FFF742F817E0208927EA000535B1B8F1FC
:104F4000010F05D120892843208101E070203070B5
:104F50005846FFF731F806E05846FFF72DF80025D0
:104F60006F20307000BF00BF28468FE72DE9F04169
:104F700006460D460027FA48007820B11020287018
:104F80000020BDE8F081FFF713F80746F5480468F4
:104F900084B100684068F3490860052020702681CC
:104FA00000206060F0A0E0603846FFF705F80020C0
:104FB000287004E03846FEF7FFFF72202870204674
:104FC000DFE730B501464A6808682AB9CC686060F6
:104FD00028B10025456002E0106000B142608B6896
:104FE00000259D6230BDF0B506460F46B46800202E
:104FF0002C3460602780207A20F02000207200206E
:105000006072207A2C3C88B93834A078D749097866
:105010000843D64908702078D549085C6178084370
:1050200014F83819D24A5054012500E000253046C2
:10503000FFF7C7FF2846F0BD2DE9F0470446894633
:1050400015464FF0000AC648007820B10F2028709E
:105050002046BDE8F0872078052803D0012028707D
:105060002046F6E7FEF7A4FF8246606808B10127F4
:1050700000E00027B9F1000F03D0B9F1010F3CD1D6
:1050800019E08FB9B8A0E06000202070B548006832
:10509000606000202081B34804605046FEF78CFF1A
:1050A00000202870002605E05046FEF785FF4920C5
:1050B0002870264628E0D4F8048005E00021404608
:1050C000FFF791FFD8F80080B8F1000FF6D1A6A045
:1050D000E06000202070A34800686060002020810C
:1050E000A04804605046FEF767FF012F01D1FFF78B
:1050F000F4F800202870002606E05046FEF75CFF1A
:1051000007202870264600BF00BF3046A1E72DE9E2
:10511000F04105460E46144600279148007820B11C
:10512000112020700020BDE8F081FEF741FF074606
:105130002878052806D03846FEF73EFF012020706B
:105140000020F0E7E86830603068FFF737F8804605
:105150003846FEF731FF002020704046E3E72DE996
:10516000F04105460E46144600277D48007818B1E8
:1051700012202070BDE8F081FEF71AFF074628785C
:10518000052805D03846FEF717FF01202070F1E70B
:10519000EE603846FEF710FF0020207000BFE9E700
:1051A000F0B51446059E734F3F6897F8347047F08A
:1051B0002007DFF8C0C1DCF800C08CF8347000278D
:1051C000DFF8B0C1DCF800C08CF83570694F3F687B
:1051D0003E63684F3F68B9620C828B74654F3F68CD
:1051E0008F6047680F6000274F60C860456805B151
:1051F000696041605F4F3F6897F838205C4FBF5C43
:10520000DFF870C1DCF800C09CF839C027EA0C0751
:10521000DFF85CC10CF802706746BF5C5FB9554FA0
:105220003F6897F83AC0514F3F7827EA0C07DFF8FC
:105230003CC18CF80070F0BD2DE9F04F89B00546F7
:105240000F4691469A46129E0020029044480078EC
:1052500028B102203070002009B0BDE8F08F464828
:10526000007818B10D2030700020F5E72878052867
:1052700003D0012030700020EEE709F0800BBBF175
:10528000000F04D029F080094FF0010801E04FF031
:105290000008FEF78DFE0290B9F1000F4AD0B9F177
:1052A000010F78D0B9F1020F03D0B9F1030F71D11A
:1052B00020E0288900EA0704BC420FD1B8F1010FB1
:1052C00002D12889A04328812A4800688485029851
:1052D000FEF772FE002030702046BDE74B463A468E
:1052E00004A92846CDF800A0FFF75AFF0298FEF760
:1052F00063FE78E0288900EA07047CB1B8F1010F69
:1053000002D12889A04328811A4800688485029820
:10531000FEF752FE0020307020469DE74B463A468D
:1053200004A92846CDF800A0FFF73AFF0298FEF73F
:1053300043FE58E0288927EA0004BC421ED1B8F198
:10534000010F02D12889204328810A4800688485FA
:105350000298FEF731FE0020307020467CE71AE00C
:10536000A9000020980000203F000000AD000020B0
:10537000AE000020BC000020AA0000204B463A46A8
:1053800004A92846CDF800A0FFF70AFF0298FEF70F
:1053900013FE28E01FE0288927EA00047CB1B8F159
:1053A000010F02D1288920432881AD4800688485F7
:1053B0000298FEF701FE0020307020464CE74B4675
:1053C0003A4604A92846CDF800A0FFF7E9FE029866
:1053D000FEF7F2FD07E00298FEF7EEFD00246F20D5
:1053E0003070204638E700BFFEF777FFFEF7E0FD9C
:1053F00002909B48006890F8350020B398480068F8
:1054000090F83500039000209549096881F835002F
:1054100004A8FFF7D6FD00209149096881F83400FF
:105420000298FEF7C9FD00240398012805D0022840
:1054300002D10E20307003E000BF0A20307000BFA0
:1054400000BF204608E786480068848DB8F1010F48
:105450001ED1B9F1000F0ED0B9F1010F0CD0B9F186
:10546000020F03D0B9F1030F0AD100E000BF288971
:10547000A04328810BE000BF28892043288106E053
:105480000298FEF799FD6F2030700020E4E600BF1F
:105490000298FEF791FD002030702046DCE670B5E2
:1054A0000025FEF785FD05466D480068848D284679
:1054B000FEF782FD204670BD2DE9FC5F044689465B
:1054C00092461E46002000902078052804D0012036
:1054D00030700020BDE8FC9FFEF76AFD0090BAF135
:1054E000000F03D0BAF1010F0AD104E0208920EAAD
:1054F000090020810BE0208940EA0900208106E0B4
:105500000098FEF759FD712030700020E2E700BFDF
:105510004FF0000B656855E0A87C40B3012838D0F7
:10552000022802D0032844D111E02089298A00EA08
:105530000107288AB84209D139462846FFF753FDAA
:105540008046B8F1010F01D14FF0010B38E02089FE
:10555000298A00EA01074FB139462846FFF743FD83
:105560008046B8F1010F01D14FF0010B28E0288AE5
:10557000218920EA0107288AB84209D139462846FC
:10558000FFF731FD8046B8F1010F01D14FF0010B5B
:1055900016E0288A218920EA01074FB139462846BA
:1055A000FFF721FD8046B8F1010F01D14FF0010B4B
:1055B00006E00098FEF700FD6F203070002089E7BC
:1055C00000BF2D68002DA7D10098FEF7F5FCBBF1B8
:1055D000010F01D1FEF781FEFEF7EAFC0090208961
:1055E00001900098FEF7E8FC00203070019871E708
:1055F0002DE9F04104460D4600272078052804D007
:10560000012028700020BDE8F081FEF7D1FC07469C
:1056100026893846FEF7D0FC002028703046F2E795
:1056200070B550210F48FFF7C4F80E4C04F1100676
:10563000002509E0002020706660AFF2D420E06011
:1056400010341036681C85B2042DF3D3002020706E
:105650006060AFF2EC20E06002480349086070BD72
:10566000BC00002074330020980000202DE9F84F82
:1056700005460F4690469A4600200090FEF798FC9B
:1056800000906B480468006820B169480068406871
:10569000674908600098FEF78FFC2CB95A208AF8F9
:1056A00000000020BDE8F88F2E4605EB08094FF0FA
:1056B000000B05E0C6F800904E46C1440BF1010B0B
:1056C000781E5845F6D80020306025606560276157
:1056D000E760C4F808808AF800002046E2E72DE978
:1056E000F04104460D460027FEF762FC074620699C
:1056F00068B16668306860602069401E2061384685
:10570000FEF75AFC002028703046BDE8F08138468C
:10571000FEF752FC5D2028700020F6E72DE9F041ED
:1057200006460C46154600274248007820B1112055
:1057300028700020BDE8F081FEF73AFC074670694A
:1057400020602068FEF73AFD80463846FEF734FCBC
:10575000002028704046EDE72DE9F04105460E4651
:10576000144600273348007818B112202070BDE895
:10577000F081FEF71DFC07466E613846FEF71CFC03
:105780000020207000BFF2E770B504460D460026E9
:10579000FEF70EFC0646D4E90310884204D33046D7
:1057A000FEF70AFC5E2070BD6068286065602069B5
:1057B000401C20613046FEF7FFFB0020F3E770B588
:1057C00005460C460026FEF7F3FB064628682060D7
:1057D00068686060A868A060E868E0602869206187
:1057E0003046FEF7E9FBD4E90301401A606100206E
:1057F00070BD70B578211048FEF7DBFF0E4C002518
:105800000BE0681C00EB40000B4901EBC00060603E
:105810000AA060611834681C85B2042DF1D3002001
:10582000606006A0606104480149086070BD000026
:10583000D0000020A9000020544000203F000000BC
:105840002DE9F04106460D464FF000083078022859
:1058500004D0012028700020BDE8F081FEF7A8FBED
:1058600080467468E08A78B12169081D20610F685C
:10587000E08A401EE082A1682069884201D1606808
:1058800020610020287002E01F2028700027404679
:10589000FEF792FB3846DFE72DE9F04106460F465A
:1058A0004FF00008F748007810B10020BDE8F08103
:1058B000FEF77EFB8046F4480468006820B1F24899
:1058C00000684068F04908604046FEF775FBFCB18F
:1058D000FEF76EFB8046ED480568D5B100680068AC
:1058E000EA4908604046FEF767FB6E6006EB8700FA
:1058F000A860EE602E61AF820020E8820220207056
:10590000002020816560E2A060612046FFF7E9F990
:1059100008E0DD4800686060DB4804604046FEF750
:105920004BFB00242046C1E72DE9F0470446894699
:1059300015464FF0000A2078022804D00120287074
:105940002046BDE8F087CF48007818B10F202870B6
:105950002046F6E7FEF72CFB8246A07A10B14FF006
:10596000010801E04FF00008B9F1000F03D0B9F1D0
:10597000010F49D121E0B8F1000F17D1C4A0606137
:105980006668C24800683060C04806600020207029
:10599000BD480068606000202081BB48046050461C
:1059A000FEF70AFB00202870002705E05046FEF7AE
:1059B00003FB4920287027462DE005E00023042240
:1059C00019462046FFF715F9A07A0028F6D1B0A0B5
:1059D00060616668AD4800683060AC4806600020D1
:1059E0002070A9480068606000202081A6480460FB
:1059F0005046FEF7E1FAB8F1010F01D1FEF76DFC58
:105A000000202870002706E05046FEF7D5FA072050
:105A10002870274600BF00BF384692E770B505469C
:105A20000026FEF7C5FA06466C686068E0606068AC
:105A300020610020E0823046FEF7BEFA002070BDF3
:105A40002DE9F0470746884615464FF0000938789B
:105A5000022804D0012028700020BDE8F087894882
:105A6000007818B1022028700020F6E789480078F5
:105A700018B10D2028700020EFE7FEF799FA814653
:105A80007C68E08A98B12169081D20610E68E08A6F
:105A9000401EE082A1682069884201D160682061CF
:105AA0004846FEF789FA002028703046D5E77A4844
:105AB000006890F8340040F004007749096881F8E4
:105AC000340000207449096881F835007248006884
:105AD000C0F830803846FFF7CCF84846FEF76CFA3D
